:100000000C943B010C946C010C946C010C946C01ED
:100010000C946C010C946C010C946C010C946C01AC
:100020000C946C010C946C010C946C010C946C019C
:100030000C946C010C946C010C946C010C946C018C
:100040000C946C010C946C010C946C010C946C017C
:100050000C946C010C946C010C946C010C94F604DF
:100060000C946C010C946A050C9440050C946C0182
:100070000C946C010C946C010C946C010C946C014C
:100080000C946C010C946C010C946C010C946C013C
:100090000C946C010C946C010C946C010C94A005F4
:1000A0000C946C010C946C010C946C010C946C011C
:1000B0000C946C010C946C010C946C010C946C010C
:1000C0000C946C010C946C010C946C010C946C01FC
:1000D0000C946C010C946C010C946C010C946C01EC
:1000E0000C946C013D0240022F023302370277026A
:1000F000440248024E02520256025C02600264024E
:1001000077026A026E0272020C946E040C946A0208
:100110000C943D020C9448020C9452020C94F90287
:100120000C9436040C94AB020C9485030C941304C9
:100130000C94D6020C943E030C944E020C94D206FE
:100140000C946E020C9422040C949E040C940703ED
:100150000C943E040C94E5020C942F020C9477024C
:100160000C9440020C9433020C945C020C947202C6
:100170000C9464020C9412040C9460020C945602C9
:100180000C9437020C944402000022002500280041
:100190002B002E003100340002010000050108018F
:1001A0000B010505050507050808080802020202FB
:1001B0000A0A080804040404010101010101010103
:1001C0000303030303030303040707070C0C0C0CCE
:1001D0000C0C0C0C020202020606060606060606B7
:1001E0000B0B0B0B0B0B0B0B010210202008081044
:1001F0002040102040800201020108040201010297
:10020000040810204080804020100804020180046F
:1002100002018040201008040201080402010102CA
:1002200004081020408001020408102040800000D3
:100230000A0B02090C0D0E08070304010000000060
:1002400000000000000000000000000000000000AE
:10025000000000000000000000001211100000006B
:10026000000000000000000000000000000000008E
:1002700000000000D20611241FBECFEFD1E2DEBF86
:10028000CDBF00E00CBF12E0A0E0B2E0EAECF2E18A
:1002900000E00BBF02C007900D92AE32B107D9F754
:1002A00023E0AEE2B2E001C01D92A439B207E1F74B
:1002B00011E0CBE3D1E000E006C021970109802FD7
:1002C000FE010E945609CA33D10780E00807A9F74A
:1002D0000E940B070C9463090C9400002091EA0221
:1002E0009091E902213208F04AC08091C602811142
:1002F000FCCF32E03093C60231E03093C5023FEFCD
:100300003093C4021092C3022093C202A9ECB2E05F
:1003100042EA52E0FA013E2F341B321718F43D91A5
:100320003193F9CF1092A1022091A102990F922B43
:100330009093A1029091A002913061F41092A002DA
:100340009091A1029093BB009091BC0093FDF8CFD7
:1003500095EC01C095EE9093BC009091C60292304E
:10036000E1F39091C4029F3F79F08091C402803202
:1003700041F08091C402803331F084E005C081E017
:1003800003C082E001C083E01092C8021092EA022A
:100390001092C70208959091C6029111FCCF91E08E
:1003A0009093C6029093C5022FEF2093C40210923F
:1003B000C302260F2093C2029093A1029091A10242
:1003C000880F892B8093A1028091A002813061F473
:1003D0001092A0028091A1028093BB008091BC008A
:1003E00083FDF8CF85EC01C085EE8093BC00809141
:1003F000C6028130E1F38091C302861710F4609148
:10040000C302A2EAB2E020E832E0F9018E2F821B9B
:10041000861718F48D918193F9CF862F089590E077
:10042000FC01E25DFD4F4491FC01E851FE4F249137
:10043000FC01EE55FE4F9491992309F466C04423C4
:1004400009F455C050E0FA013197E231F10508F0A6
:100450004EC08827EE58FF4F8F4F0C94560980915D
:1004600080008F7707C0809180008F7D03C08091CE
:100470008000877F809380003AC084B58F7702C068
:1004800084B58F7D84BD33C08091B0008F7703C069
:100490008091B0008F7D8093B00029C08091900042
:1004A0008F7707C0809190008F7D03C0809190006E
:1004B000877F809390001BC08091A0008F7707C03A
:1004C0008091A0008F7D03C08091A000877F8093E2
:1004D000A0000DC0809120018F7707C0809120017E
:1004E0008F7D03C080912001877F80932001E92FB9
:1004F000F0E0EE0FFF1FE857FE4FA591B4918FB7C4
:10050000F894EC912E2B2C938FBF08953FB7F8945D
:1005100080917C0290917D02A0917E02B0917F0239
:1005200026B5A89B05C02F3F19F00196A11DB11D4E
:100530003FBFBA2FA92F982F8827820F911DA11D89
:10054000B11DBC01CD0142E0660F771F881F991FC6
:100550004A95D1F70895CF92DF92EF92FF920F93D1
:100560001F93CF93DF936C017A018B01C0E0D0E041
:10057000CE15DF0589F0D8016D918D01D601ED9181
:10058000FC910190F081E02DC6011995892B11F4A1
:100590007E0102C02196ECCFC701DF91CF911F9160
:1005A0000F91FF90EF90DF90CF900895FC01538D55
:1005B000448D252F30E0842F90E0821B930B54173D
:1005C00010F0CF96089501970895FC01918D828DCA
:1005D000981761F0828DDF01A80FB11D5D968C9197
:1005E000928D9F5F9F73928F90E008958FEF9FEFA2
:1005F0000895FC01918D828D981731F0828DE80F5E
:10060000F11D858D90E008958FEF9FEF0895FC0117
:10061000918D228D892F90E0805C9F4F821B9109E4
:100620008F73992708958BEE92E00E94070321E0D3
:10063000892B09F420E0822F0895FC01848DDF01CD
:10064000A80FB11DA35ABF4F2C91848D90E0019645
:100650008F739927848FA689B7892C93A089B18934
:100660008C9180648C93938D848D981306C002883E
:10067000F389E02D80818F7D80830895EF92FF9232
:100680000F931F93CF93DF93EC0181E0888F9B8DB5
:100690008C8D981305C0E889F989808185FD24C077
:1006A000F62E0B8D10E00F5F1F4F0F731127E02EFA
:1006B0008C8DE8120CC00FB607FCFACFE889F989D7
:1006C000808185FFF5CFCE010E941D03F1CF8B8D78
:1006D000FE01E80FF11DE35AFF4FF0820B8FEA890C
:1006E000FB898081806207C0EE89FF896083E88989
:1006F000F98980818064808381E090E0DF91CF91EF
:100700001F910F91FF90EF900895CF93DF93EC012D
:10071000888D8823C9F0EA89FB89808185FD05C021
:10072000A889B9898C9186FD0FC00FB607FCF5CF5B
:10073000808185FFF2CFA889B9898C9185FFEDCFA3
:10074000CE010E941D03E7CFDF91CF91089580E095
:1007500090E0892B21F00E941303811125C080E0D5
:1007600090E0892B41F080E090E0892B21F00E94FD
:10077000000081111CC080E090E0892B41F080E0F6
:1007800090E0892B21F00E940000811113C080E0CD
:1007900090E0892BA1F080E090E0892B81F00E940D
:1007A000000081110AC008950E940000D8CF0E9465
:1007B0000000E1CF0E940000EACF0C9400000895F1
:1007C00085ED8093BC008091BC0084FDFCCF10922D
:1007D000C602089540915002262F30E0240F311DAB
:1007E00021323105DCF42091C6022430C9F4FC0129
:1007F00080E090E0861758F4309150022191DC019E
:10080000A25DBD4FA30FB11D2C930196F3CF809134
:100810005002680F6093500280E0089581E00895CF
:1008200082E008950895E091760280917502E817BC
:1008300030F4F0E0E058FD4F808190E008958FEFB4
:100840009FEF08959091760280917502981750F469
:10085000E92FF0E0E058FD4F208130E09F5F90935A
:10086000760202C02FEF3FEFC90108958091750213
:1008700090E020917602821B91090895CF92DF9239
:10088000EF92FF920F931F93CF93DF937C01262F5C
:10089000972F8A018091C702882391F0C62FD72F06
:1008A0006E01C40ED51ECC15DD0571F06991D7011E
:1008B000ED91FC910190F081E02DC7011995F3CFE6
:1008C000642F822F0E94EA03C801DF91CF911F910C
:1008D0000F91FF90EF90DF90CF900895CF93DF932B
:1008E0001F92CDB7DEB769832091C7022223D1F0D2
:1008F0002091EA02203240F021E030E0FC01338315
:10090000228380E090E015C08091C802E82FF0E0DB
:10091000E753FD4F998190838F5F8093C802809346
:10092000EA0205C061E0CE0101960E94EA0381E07F
:1009300090E00F90DF91CF910895089580E090E0CE
:100940000895009769F0FC0101900020E9F73197C4
:10095000AF01481B590BBC018BEE92E00C94AB022B
:1009600080E090E008958F929F92AF92BF920F9394
:100970001F93CF93DF93CDB7DEB7A1970FB6F8944F
:10098000DEBF0FBECDBF19A2423008F44AE08E018F
:100990000F5D1F4F842E912CA12CB12CA501940129
:1009A0000E943409E62FB901CA0101501109EA3049
:1009B00014F4E05D01C0E95CD801EC93232B242BF7
:1009C000252B61F7C8010E94A104A1960FB6F894E7
:1009D000DEBF0FBECDBFDF91CF911F910F91BF90B2
:1009E000AF909F908F9008950E945E091F920F9282
:1009F0000FB60F9211242F933F938F939F93AF9332
:100A0000BF938091780290917902A0917A02B0917F
:100A10007B023091770223E0230F2D3720F40196DB
:100A2000A11DB11D05C026E8230F0296A11DB11D11
:100A3000209377028093780290937902A0937A02B0
:100A4000B0937B0280917C0290917D02A0917E0206
:100A5000B0917F020196A11DB11D80937C029093FD
:100A60007D02A0937E02B0937F02BF91AF919F91D0
:100A70008F913F912F910F900FBE0F901F9018955F
:100A80001F920F920FB60F9211240BB60F922F9355
:100A90003F934F935F936F937F938F939F93AF9306
:100AA000BF93EF93FF938BEE92E00E941D03FF91A3
:100AB000EF91BF91AF919F918F917F916F915F91D6
:100AC0004F913F912F910F900BBE0F900FBE0F9043
:100AD0001F9018951F920F920FB60F9211240BB60C
:100AE0000F922F938F939F93EF93FF93E091FB02CD
:100AF000F091FC028081E0910103F091020382FDFC
:100B000012C09081809104038F5F8F732091050341
:100B1000821751F0E0910403F0E0E551FD4F958F0D
:100B20008093040301C08081FF91EF919F918F9189
:100B30002F910F900BBE0F900FBE0F901F90189526
:100B40001F920F920FB60F9211240BB60F922F9394
:100B50003F934F935F936F937F938F939F93AF9345
:100B6000BF93EF93FF938091B900887F803609F49B
:100B70009CC068F5883209F45BC090F4803109F4B8
:100B800054C038F4882309F4F6C0883009F44DC005
:100B9000F6C0883109F44CC0803209F45DC0EFC062
:100BA000803409F468C048F4803309F455C08833B0
:100BB00009F0E5C08093C402D8C0803509F44FC065
:100BC000883509F45DC0883409F0D9C0D6C08839A9
:100BD00009F4C7C0A8F4883709F467C038F4883628
:100BE00009F463C0803709F460C0C9C0883809F4CB
:100BF000B8C0803909F45FC0803809F0C0C05BC05C
:100C0000803B09F486C038F4803A09F466C0883A1B
:100C100009F47FC0B4C0803C09F4A7C0883C09F443
:100C2000A4C0883B09F48AC0AAC08091A10210C068
:100C30009091C3028091C202981770F5E091C302AF
:100C400081E08E0F8093C302F0E0EE55FD4F80816E
:100C50008093BB0085EC86C08093C4028EC0E09177
:100C6000C30281E08E0F8093C3028091BB00F0E04D
:100C7000EE55FD4F80839091C3028091C2026EC0F9
:100C8000E091C30281E08E0F8093C3028091BB008C
:100C9000F0E0EE55FD4F80838091C50281116DC05B
:100CA00081E08093A00284EA61C083E08093C60261
:100CB00010927402CFCF80917402803208F051C03C
:100CC000E091740281E08E0F809374028091BB00EA
:100CD000F0E0EC5AFD4F8083BDCF85EC8093BC00E3
:100CE0001092C60280917402803230F4E091740256
:100CF000F0E0EC5AFD4F10826091740270E0E091D8
:100D00005202F091530284E592E019951092740218
:100D100036C084E08093C6021092510210925002B5
:100D2000E0914E02F0914F0219958091500281118D
:100D300005C081E08093500210922E02E091510292
:100D400081E08E0F80935102F0E0E25DFD4F8081E3
:100D50008093BB009091510280915002981708F443
:100D600079CF85E88093BC000AC085EC8093BC00F5
:100D70001092C60204C01092C4020E94E003FF91C8
:100D8000EF91BF91AF919F918F917F916F915F9103
:100D90004F913F912F910F900BBE0F900FBE0F9070
:100DA0001F901895EBEEF2E01382128288EE93E02A
:100DB000A0E0B0E084839583A683B78324E032E08B
:100DC0003183208325EC30E03587248724EC30E024
:100DD0003787268720EC30E0318B208B21EC30E008
:100DE000338B228B22EC30E0358B248B26EC30E0E9
:100DF000378B268B118E128E138E148EE8E8F3E05B
:100E00001382128284839583A683B78386E192E05E
:100E1000918380830895789484B5826084BD84B57D
:100E2000816084BD85B5826085BD85B5816085BDE5
:100E300080916E00816080936E001092810080919D
:100E40008100826080938100809181008160809325
:100E50008100809180008160809380008091B1004A
:100E600084608093B1008091B00081608093B00075
:100E700080919100826080939100809191008160C7
:100E80008093910080919000816080939000809188
:100E9000A10082608093A1008091A1008160809375
:100EA000A1008091A00081608093A0008091210129
:100EB00082608093210180912101816080932101D2
:100EC0008091200181608093200180917A0084606C
:100ED00080937A0080917A00826080937A0080917A
:100EE0007A00816080937A0080917A008068809394
:100EF0007A001092C1001092760210927502109240
:100F0000C8021092EA021092C602C1E0C093C50264
:100F10001092A00284E10E940F0285E10E940F025C
:100F20008091B9008E7F8093B9008091B9008D7F48
:100F30008093B90088E48093B80085E48093BC0076
:100F4000E091FB02F091FC0282E08083E091F702E5
:100F5000F091F8021082E091F902F091FA028FEC20
:100F6000808310920303E091FF02F091000386E07A
:100F70008083E091FD02F091FE0280818061808398
:100F8000E091FD02F091FE02808188608083E09113
:100F9000FD02F091FE02808180688083E091FD0275
:100FA000F091FE0280818F7D808384E292E00E9436
:100FB000A104C093C70288E68093E9021092C80298
:100FC0001092EA0260E088E893E00E946E0460E01C
:100FD00088E893E00E946E0460E588E893E00E9450
:100FE0006E0461E188E893E00E946E0460E088E8A6
:100FF00093E00E946E0461E288E893E00E946E0430
:1010000060E188E893E00E946E0467E188E893E07D
:101010000E946E040E946E01C093C7021092C80223
:101020001092EA026FE088E893E00E946E040E944A
:101030006E0161E088E60E94CB01109276028093F7
:10104000750288E893E00E942204D82FC093C7025B
:101050001092C8021092EA026FE088E893E00E94C2
:101060006E046D2F6F7788E893E00E946E040E94F3
:101070006E01D1E018E6CAEFD093C7021093E902DF
:101080001092C8021092EA0260E088E893E00E94A1
:101090006E040E946E0167E088E60E94CB01109208
:1010A00076028093750288E893E00E942204682FFC
:1010B0006F77862F82958F70F62E8C9FF00C1124FF
:1010C00088E893E00E9422049C01332794E0359540
:1010D00027959A95E1F7E82EC29FE00C112488E845
:1010E00093E00E9422049C01332744E03595279524
:1010F0004A95E1F7D82EC29FD00C112488E893E0DE
:101100000E94220488E893E00E9422049C01332775
:1011100054E0359527955A95E1F7C82EC29FC00C2B
:10112000112488E893E00E9422049C01332764E0A4
:10113000359527956A95E1F7B82EC29FB00C11241A
:1011400088E893E00E9422049C01332774E03595DF
:1011500027957A95E1F7482FC29F400D1124242F3F
:1011600030E0490180E3881A88EF980AE091EB02A9
:10117000F091EC020190F081E02D62E28BEE92E0C2
:101180001995B401990C880B990B4AE00E94B3049D
:1011900087E292E00E94A1046B2D70E080E090E075
:1011A0004AE00E94B30487E292E00E94A1046C2D01
:1011B00070E080E090E04AE00E94B30489E292E0AF
:1011C0000E94A1046D2D70E080E090E04AE00E9452
:1011D000B3048BE292E00E94A1046E2D70E080E0E7
:1011E00090E04AE00E94B3048BE292E00E94A104E6
:1011F0006F2D70E080E090E04AE00E94B304E0913F
:10120000EB02F091EC020190F081E02D62E28BEEB6
:1012100092E019950E9486024B015C01E8EECE2E09
:10122000E3E0DE2EE12CF12C0E948602DC01CB01F2
:1012300088199909AA09BB09883E9340A105B105FF
:1012400058F021E0C21AD108E108F10848EE840EF6
:1012500043E0941EA11CB11CC114D104E104F104AB
:1012600019F70E94A70308CFA1E21A2EAA1BBB1BE5
:10127000FD010DC0AA1FBB1FEE1FFF1FA217B30762
:10128000E407F50720F0A21BB30BE40BF50B661F78
:10129000771F881F991F1A9469F76095709580953C
:1012A00090959B01AC01BD01CF010895EE0FFF1F8A
:1012B000881F8BBF0790F691E02D199481E090E094
:0A12C000F8940C946309F894FFCF32
:1012CA00000000003E03AB02D60285030703E502D5
:1012DA00F902000000006E043E049E041204360463
:0E12EA00220413040D0A002F0020003A000019
:00000001FF
