:100000000C94A1020C94D2020C94D2020C94D20251
:100010000C94D2020C94D2020C94D2020C94D20210
:100020000C94D2020C94D2020C94D2020C94D20200
:100030000C94D2020C94D2020C94D2020C94D202F0
:100040000C94D2020C94D2020C94D2020C94D202E0
:100050000C94D2020C94D2020C94D2020C94702311
:100060000C94D2020C9412170C94E8160C94D20241
:100070000C94D2020C94D2020C94D2020C94D202B0
:100080000C94D2020C94D2020C94D2020C94D202A0
:100090000C94D2020C94D2020C94D2020C94481705
:1000A0000C94D2020C94D2020C94D2020C94D20280
:1000B0000C94D2020C94D2020C94D2020C94D20270
:1000C0000C94D2020C94D2020C94D2020C94D20260
:1000D0000C94D2020C94D2020C94D2020C94D20250
:1000E0000C94D2029C0E9F0E8E0E920E960ED60E81
:1000F000A30EA70EAD0EB10EB50EBB0EBF0EC30EF6
:10010000D60EC90ECD0ED10E0C94BE190C94251C22
:100110000C94191B0C94C9140C944C160C944A2B77
:100120000C94960E0C94D60E0C94A7160C943215C3
:100130000C94A30E0C94D6160C943A1F0C94BB0E80
:100140000C94C91A0C94D10E0C948E0E0C946F1C46
:100150000C94DC190C9427230C94920E0C946D1CB7
:100160000C941D1B0C94511D0C94701D0C94D819EB
:100170000C94F5190C94461F0C94B10E0C94411A72
:100180000C94C30E0C94001A0C944D1F0C94B50ED5
:100190000C94701B0C94E51C0C9477150C940F15A3
:1001A0000C94CD0E0C94D4190C94241F0C944A1F5B
:1001B0000C946F160C9440150C94441F0C941E154F
:1001C0000C94081A0C94BE150C94C41F0C94991D21
:1001D0000C949F0E0C944B160C94EC190C94B41ABE
:1001E0000C94252B0C94F3190C94011C0C94BF0E49
:1001F0000C94AD0E0C946E1C0C94C90E0C945B16F2
:100200000C94F61A0C94371B0C94A70E0C949C0EAD
:100210000C94B91B0C94491F0C9477160C9438203D
:100220000C94091A00407A10F35A00A0724E180973
:100230000010A5D4E80000E87648170000E40B544D
:10024000020000CA9A3B000000E1F505000080961C
:100250009800000040420F000000A086010000004E
:10026000102700000000E803000000006400000008
:1002700000000A00000000000100000000002C76D1
:10028000D888DC674F0823DFC1DFAE59E1B1B796EC
:10029000E5E3E453C63AE651997696E8E6C2842649
:1002A000EB898C9B62ED407C6FFCEFBC9C9F40F225
:1002B000BAA56FA5F490055A2AF75C936B6CF967A1
:1002C0006DC11BFCE0E40D47FEF520E6B500D0ED66
:1002D000902E0300943577050080841E08000020CE
:1002E0004E0A000000C80C333333330F986E12836C
:1002F0001141EF8D2114893BE65516CFFEE6DB1840
:10030000D1844B381BF77C1D901DA4BBE424203204
:1003100084725E228100C9F124ECA1E53D27000032
:100320002100240027002A002D00300033000101A5
:100330000000040107010A01000022002500280036
:100340002B002E00310034000201000005010801DD
:100350000B0100000A0B02090C0D0E080703040133
:10036000000000000000000000000000000000008D
:10037000000000000000000000000000000012115A
:10038000100000000000000000000000000000005D
:100390000000000000000000005EBCE2613FDD8361
:1003A000C29C7E20A3FD1F419DC3217FFCA2401E55
:1003B0005F01E3BD3E6082DC237D9FC1421CFEA045
:1003C000E1BF5D0380DE3C62BEE0025CDF81633D35
:1003D0007C22C09E1D43A1FF4618FAA427799BC525
:1003E00084DA3866E5BB5907DB856739BAE4065815
:1003F0001947A5FB7826C49A653BD987045AB8E605
:10040000A7F91B45C6987A24F8A6441A99C7257BF4
:100410003A6486D85B05E7B98CD2306EEDB3510FE4
:100420004E10F2AC2F7193CD114FADF3702ECC92D4
:10043000D38D6F31B2EC0E50AFF1134DCE90722CC4
:100440006D33D18F0C52B0EE326C8ED0530DEFB1B4
:10045000F0AE4C1291CF2D73CA947628ABF51749A4
:100460000856B4EA6937D58B5709EBB536688AD494
:1004700095CB2977F4AA4816E9B7550B88D6346A84
:100480002B7597C94A14F6A8742AC896154BA9F774
:10049000B6E80A54D7896B350000200023002600F7
:1004A00029002C002F00320000010000030106018A
:1004B00009010505050507050808080802020202EA
:1004C0000A0A0808040404040101010101010101F0
:1004D0000303030303030303040707070C0C0C0CBB
:1004E0000C0C0C0C020202020606060606060606A4
:1004F0000B0B0B0B0B0B0B0B010210202008081031
:100500002040102040800201020108040201010283
:10051000040810204080804020100804020180045C
:1005200002018040201008040201080402010102B7
:1005300004081020408001020408102040804A2B4B
:10054000252B11241FBECFEFD1E2DEBFCDBF00E0CF
:100550000CBF15E0A0E0B2E0E2EAFEE600E00BBF6F
:1005600002C007900D92A037B107D9F728E0A0E7A5
:10057000B5E001C01D92A333B207E1F712E0C0EA73
:10058000D2E000E006C021970109802FFE010E9401
:100590002132CF39D10780E00807A9F70E946726EA
:1005A0000C943F370C9400004F925F926F927F92B1
:1005B0008F929F92AF92BF92CF92DF92EF92FF9273
:1005C0000F931F93CF93DF93CDB7DEB7C356D109F7
:1005D0000FB6F894DEBF0FBECDBF62EE72E08FEBB8
:1005E00096E00E94EE258091DD079091DE070E9443
:1005F000EE1E40E06CEC8091DD079091DE070E94DA
:100600007F1E4091D80764E48091DD079091DE075A
:100610000E947F1E8091DA078823A9F0E091D90714
:10062000E950E33040F4F0E0EE0FFF1FEE5EFD4FC7
:100630006081718102C06EEE72E0072E000C880BA3
:10064000990B0E944E108DEF92E00E94692181E08B
:100650008093230688E68093700510928905109296
:10066000880560E08CE597E00E94A71680918805D8
:10067000813208F045C0909187059111FCCF92E03E
:100680009093870591E0909386059FEF90934406A1
:100690001092660680936506A3E0B6E025E436E096
:1006A000F9019E2F921B981718F49D919193F9CF01
:1006B0001092670680916706806D8093670680912F
:1006C0008505813061F410928505809167068093DD
:1006D000BB008091BC0083FDF8CF85EC01C085EEA6
:1006E0008093BC00809187058230E1F380914406BD
:1006F0008F3F31F080914406803211F080914406A2
:100700001092890510928805109223068091870522
:100710008111FCCF81E080938705809386059FEF50
:10072000909344061092660696E090936506809337
:10073000670680916706806D8093670680918505C6
:10074000813061F410928505809167068093BB002B
:100750008091BC0083FDF8CF85EC01C085EE8093CD
:10076000BC00809187058130E1F380916606873077
:1007700018F48091660601C087E0A5E4B6E024E2A3
:1007800036E0F9019E2F921B981718F49D919193D2
:10079000F9CF10928B0580938A058CE597E00E9433
:1007A0005B168F77982F92959F702AEFC22E182F85
:1007B0009C9D100D11248CE597E00E945B169C0116
:1007C000332744E0359527954A95E1F7082FC29ED7
:1007D000000D11248CE597E00E945B169C013327E5
:1007E00054E0359527955A95E1F7F82EC29EF00C06
:1007F00011248CE597E00E945B168CE597E00E943F
:100800005B169C01332764E0359527956A95E1F7DF
:10081000E82EC29EE00C11248CE597E00E945B1646
:100820009C01332774E0359527957A95E1F7D82E0A
:10083000C29ED00C11248CE597E00E945B169C01AF
:100840003327E4E035952795EA95E1F7482FC29ED6
:10085000400D1124242F30E0590180E3A81A88EFBD
:10086000B80A19821A821B821C82FE0135968AE11F
:10087000DF011D928A95E9F71F921F931F920F9334
:100880008F2D90E002979F938F931F92EF921F926C
:10089000DF92BF92AF9282E093E09F938F93CE015D
:1008A00001969F938F930E94683462E28FEB96E0EB
:1008B0000E948925A501BB0C660B770B2AE08FEB04
:1008C00096E00E94A52560E273E08FEB96E00E941F
:1008D000EE254D2D50E060E070E02AE08FEB96E0D1
:1008E0000E94A52560E273E08FEB96E00E94EE2562
:1008F0004E2D50E060E070E02AE08FEB96E00E9421
:10090000A52567E174E08FEB96E00E94EE254F2D60
:1009100050E060E070E02AE08FEB96E00E94A525B1
:1009200062E273E08FEB96E00E94EE25402F50E0EC
:1009300060E070E02AE08FEB96E00E94A52562E27D
:1009400073E08FEB96E00E94EE25412F50E060E0CF
:1009500070E02AE08FEB96E00E94A52562E28FEB23
:1009600096E00E9489250E9464232C966CAF7DAF8F
:100970008EAF9FAF2C9786E30E942F102C0187E348
:100980000E942F104C0188E30E942F105C0189E324
:100990000E942F106C018AE30E942F107C018BE3D0
:1009A0000E942F108C01052C000C660877080FB6EA
:1009B000F894DEBF0FBECDBF77FE0EC06DE28FEBA9
:1009C00096E00E94892544275527BA014419550904
:1009D000660977092AE003C02AE0B301A2018FEB80
:1009E00096E00E94A5250E946321C301B2010E94E6
:1009F000FB2F2AE038E240EA5BE30E945A302B01E9
:100A00003C01B401990C880B990B0E94FB2F2AE042
:100A100038E240EA5BE30E945A3060966CAF7DAFEB
:100A20008EAF9FAF6097B501BB0C880B990B0E94EE
:100A3000FB2F2AE038E240EA5BE30E945A306496DA
:100A40006CAF7DAF8EAF9FAF6497B601DD0C880BA6
:100A5000990B0E94FB2F2AE038E240EA5BE30E94F8
:100A60005A3068966CAF7DAF8EAF9FAF6897B70175
:100A7000FF0C880B990B0E94FB2F2AE038E240EA1A
:100A80005BE30E945A306C966CAF7DAF8EAF9FAF28
:100A90006C97B801110F880B990B0E94FB2F2AE06D
:100AA00038E240EA5BE30E945A30A0966CAF7DAF1B
:100AB0008EAF9FAFA097A3019201C301B2010E9424
:100AC0001C32882319F064E273E01AC073016201DA
:100AD000E894F7F82FEF3FEF4FE75FE7C701B60164
:100AE0000E941C32811111C02FEF3FEF4FE75FE7EB
:100AF000C701B6010E94F42F18163CF468E273E0B7
:100B00008FEB96E00E9490257DC02FEF3FEF4FE7DF
:100B10005FE4C301B2010E94173218161CF46CE2A4
:100B200073E0EECF2FEF3FEF4FE75FECC301B20171
:100B30000E94F42F87FDF3CF20E030E0A901C3012C
:100B4000B2010E94F42F87FF09C06DE28FEB96E09F
:100B50000E948925C301B201905802C0C301B201AD
:100B60002AE037ED43EA5BE30E947C314B015C01F4
:100B70000E94E8316B017C010E94F92F9B01AC01BE
:100B8000C501B4010E947B314B015C012AE0B70131
:100B9000A6018FEB96E00E94A5256EE28FEB96E012
:100BA0000E94892520E030E040E251E4C501B40113
:100BB0000E945A306B017C010E94E8314B01A12C4C
:100BC000B12C2AE0B501A4018FEB96E00E94A52587
:100BD000C501B4010E94F92F9B01AC01C701B60108
:100BE0000E947B3120E030E040E251E40E945A3024
:100BF0000E94E831AB0160E070E02AE08FEB96E004
:100C00000E94A5250E946321B301A20181E090E02A
:100C10000E94D22060964CAD5DAD6EAD7FAD609709
:100C200082E090E00E94D22064964CAD5DAD6EAD46
:100C30007FAD649783E090E00E94D22068964CAD2F
:100C40005DAD6EAD7FAD689784E090E00E94D220EC
:100C50006C964CAD5DAD6EAD7FAD6C9785E090E070
:100C60000E94D220A0964CAD5DAD6EAD7FADA09739
:100C700086E090E00E94D2202AE0AE01415E5F4F04
:100C80002C966CAD7DAD8EAD9FAD2C970E94332D13
:100C9000BE01615E7F4FCE01C0960E94A0248CA948
:100CA0009DA98F3F910509F038F4BE01605D7F4F2B
:100CB00080EA97E00E944B24CE01C0960E946224F5
:100CC000BE016F5F7F4FCE014F960E94A0248BA183
:100CD0009CA18F3F910509F038F4BE01615E7F4F02
:100CE0008CEC97E00E944B24CE014F960E94622428
:100CF0006FE374E0CE018E5B9F4F0E94A0248CE7CF
:100D0000E82E87E0F82ECC24C394D12C11E0D70133
:100D100014968D919C911597892B09F47BC0111124
:100D200022C060E373E0CE01C0960E94A024BE0101
:100D30006E5B7F4FCE014F960E949724BE01605D8F
:100D40007F4FCE014F960E94E123BC01CE018E5B06
:100D50009F4F0E944B24CE014F960E946224CE01E9
:100D6000C0960E94622461E473E0CE01CC960E949A
:100D7000A0241FAA1EAA19AE18AE1BAE1AAE4AE0D6
:100D8000BE01615E7F4FC6010E94642DBE01615E9F
:100D90007F4FCE01C6960E94342462E373E0CE01F9
:100DA000C0960E94A024BE016E5B7F4FCE014F967D
:100DB0000E949724BE01605D7F4FCE014F960E9436
:100DC000E123BE016A5C7F4F0E94E123BE01645CA7
:100DD0007F4F0E94E123B7010E94E123BC01CE01B5
:100DE0008E5B9F4F0E944B24CE014F960E9462243F
:100DF000CE01C0960E946224CE01C6960E94622453
:100E0000CE01CC960E9462246FE374E0C7010E9479
:100E1000342410E0BFEFCB1ADB0AE6E0EE0EF11C43
:100E2000F9E0CF16D10409F072CF6091AC07709150
:100E3000AD078091AE079091AF079B01AC010E9476
:100E40001C32811169C0111122C060E373E0CE0130
:100E5000C0960E94A024BE016E5B7F4FCE014F96CC
:100E60000E949724BE01605D7F4FCE014F960E9485
:100E7000E123BC01CE018E5B9F4F0E944B24CE012B
:100E80004F960E946224CE01C0960E946224409137
:100E9000AC075091AD076091AE077091AF0722E0AB
:100EA000CE01C6960E94672468E373E0CE01C09627
:100EB0000E94A024BE016E5B7F4FCE014F960E9420
:100EC0009724BE01605D7F4FCE014F960E94E123C3
:100ED000BE016A5C7F4F0E94E123BC01CE018E5BA4
:100EE0009F4F0E944B24CE014F960E946224CE0158
:100EF000C0960E946224CE01C6960E94622480E0C1
:100F000090E0A0ECBFE78093AC079093AD07A0936F
:100F1000AE07B093AF0710E06091B0077091B107D2
:100F20008091B2079091B3079B01AC010E941C32E3
:100F3000811169C0111122C060E373E0CE01C09637
:100F40000E94A024BE016E5B7F4FCE014F960E948F
:100F50009724BE01605D7F4FCE014F960E94E12332
:100F6000BC01CE018E5B9F4F0E944B24CE014F9659
:100F70000E946224CE01C0960E9462244091B00774
:100F80005091B1076091B2077091B30722E0CE0192
:100F9000C6960E9467246DE373E0CE01C0960E945E
:100FA000A024BE016E5B7F4FCE014F960E94972416
:100FB000BE01605D7F4FCE014F960E94E123BE01CE
:100FC0006A5C7F4F0E94E123BC01CE018E5B9F4F84
:100FD0000E944B24CE014F960E946224CE01C096FF
:100FE0000E946224CE01C6960E94622480E090E0B6
:100FF000A0ECBFE78093B0079093B107A093B2072E
:10100000B093B30710E06091B4077091B507809179
:10101000B6079091B7079B01AC010E941C32811169
:1010200069C0111122C060E373E0CE01C0960E9436
:10103000A024BE016E5B7F4FCE014F960E94972485
:10104000BE01605D7F4FCE014F960E94E123BC013F
:10105000CE018E5B9F4F0E944B24CE014F960E9483
:101060006224CE01C0960E9462244091B407509140
:10107000B5076091B6077091B70722E0CE01C6961A
:101080000E94672463E473E0CE01C0960E94A0240E
:10109000BE016E5B7F4FCE014F960E949724BE012A
:1010A000605D7F4FCE014F960E94E123BE016A5CD6
:1010B0007F4F0E94E123BC01CE018E5B9F4F0E94B7
:1010C0004B24CE014F960E946224CE01C0960E940E
:1010D0006224CE01C6960E94622480E090E0A0ECDB
:1010E000BFE78093B4079093B507A093B607B0937A
:1010F000B70710E08091BE079091BF07892B09F4D4
:101100005CC0111122C060E373E0CE01C0960E9462
:10111000A024BE016E5B7F4FCE014F960E949724A4
:10112000BE01605D7F4FCE014F960E94E123BC015E
:10113000CE018E5B9F4F0E944B24CE014F960E94A2
:101140006224CE01C0960E9462246AEB77E0CE0151
:10115000C6960E9497246EE473E0CE01C0960E946A
:10116000A024BE016E5B7F4FCE014F960E94972454
:10117000BE01605D7F4FCE014F960E94E123BE010C
:101180006A5C7F4F0E94E123BC01CE018E5B9F4FC2
:101190000E944B24CE014F960E946224CE01C0963D
:1011A0000E946224CE01C6960E9462246FE374E01E
:1011B0008AEB97E00E94342410E08091C40790915C
:1011C000C507892B09F45CC0111122C060E373E0EC
:1011D000CE01C0960E94A024BE016E5B7F4FCE015F
:1011E0004F960E949724BE01605D7F4FCE014F96BF
:1011F0000E94E123BC01CE018E5B9F4F0E944B24D5
:10120000CE014F960E946224CE01C0960E946224B5
:1012100060EC77E0CE01C6960E94972466E573E005
:10122000CE01C0960E94A024BE016E5B7F4FCE010E
:101230004F960E949724BE01605D7F4FCE014F966E
:101240000E94E123BE016A5C7F4F0E94E123BC0142
:10125000CE018E5B9F4F0E944B24CE014F960E9481
:101260006224CE01C0960E946224CE01C6960E94DE
:1012700062246FE374E080EC97E00E94342410E075
:101280008091CA079091CB07892B09F45CC011119A
:1012900022C060E373E0CE01C0960E94A024BE018C
:1012A0006E5B7F4FCE014F960E949724BE01605D1A
:1012B0007F4FCE014F960E94E123BC01CE018E5B91
:1012C0009F4F0E944B24CE014F960E946224CE0174
:1012D000C0960E94622466EC77E0CE01C6960E941A
:1012E00097246FE573E0CE01C0960E94A024BE0152
:1012F0006E5B7F4FCE014F960E949724BE01605DCA
:101300007F4FCE014F960E94E123BE016A5C7F4F62
:101310000E94E123BC01CE018E5B9F4F0E944B24B3
:10132000CE014F960E946224CE01C0960E94622494
:10133000CE01C6960E9462246FE374E086EC97E0CB
:101340000E94342410E08091D0079091D107892B1E
:1013500009F45CC0111122C060E373E0CE01C096B5
:101360000E94A024BE016E5B7F4FCE014F960E946B
:101370009724BE01605D7F4FCE014F960E94E1230E
:10138000BC01CE018E5B9F4F0E944B24CE014F9635
:101390000E946224CE01C0960E9462246CEC77E029
:1013A000CE01C6960E94972466E673E0CE01C096F1
:1013B0000E94A024BE016E5B7F4FCE014F960E941B
:1013C0009724BE01605D7F4FCE014F960E94E123BE
:1013D000BE016A5C7F4F0E94E123BC01CE018E5B9F
:1013E0009F4F0E944B24CE014F960E946224CE0153
:1013F000C0960E946224CE01C6960E9462246FE3CA
:1014000074E08CEC97E00E94342402C01111F7C103
:10141000BE016E5B7F4FCE01C6960E94972400915D
:10142000760710917707209178073091790780919E
:10143000FA079091FB07A091FC07B091FD070817F0
:1014400019072A073B0739F48091720790917307B7
:10145000892BF1F411C28091700790917107DC0122
:10146000ED91FC910684F785E02D40917A0750912B
:101470007B076AED72E078A36F8F09A31AA32BA3F1
:101480003CA3BE01615E7F4F199521E0892B09F4D1
:1014900020E060917207709173076115710591F0FA
:1014A0008091700790917107DC01ED91FC91409162
:1014B0007A0750917B070088F189E02D1995892BD7
:1014C00021F499C1222309F496C162E773E0CE01A9
:1014D000C0960E94A024BE016A5C7F4FCE014F9649
:1014E0000E949724BE01605D7F4FCE014F960E94FF
:1014F000E123BC01CE01C6960E944B24CE014F963B
:101500000E946224CE01C0960E9462246EE374E0C1
:10151000CE01C0960E94A024BE016A5C7F4FCE011E
:101520004F960E949724BE01605D7F4FCE014F967B
:101530000E94E123BC01CE01C6960E944B24CE013D
:101540004F960E946224CE01C0960E94622461E8F8
:1015500073E080917007909171070E949025892B0C
:1015600009F4CDC120917207309173078091700703
:1015700090917107232B59F169E973E00E9490253E
:10158000892B09F4BCC16091720770917307809137
:101590007007909171070E949025892B09F4AFC1C3
:1015A0006DE374E080917007909171070E9490251F
:1015B000892B09F4A4C160EA73E0809170079091CF
:1015C00071070E949025892B09F499C103C064EB2F
:1015D00073E0ECCF6FEC73E080917007909171072E
:1015E0000E949025892B09F48AC16CED73E08091EB
:1015F0007007909171070E949025892B09F47FC193
:101600006DE374E080917007909171070E949025BE
:10161000892B09F474C164E074E0809170079091A3
:1016200071070E949025892B09F469C169E174E072
:1016300080917007909171070E949025892B09F481
:101640005EC16DE374E080917007909171070E9414
:101650009025892B09F453C16CE574E080917007E3
:10166000909171070E949025892B09F448C16AE284
:1016700074E080917007909171070E949025892BEA
:1016800009F43DC14AAD5BAD60E070E02AE08091B5
:101690007007909171070E94A525892B09F42FC12D
:1016A0006BE374E080917007909171070E94902520
:1016B000892B09F424C18091700790917107DC0196
:1016C000ED91FC914AAD5BAD6EA97FA90280F381DB
:1016D000E02D1995892B09F412C16FE374E0CE0156
:1016E000C0960E94A0240E9464236B017C0180911B
:1016F000700790917107DC01ED91FC910084F185F8
:10170000E02D1995892B09F4E5C08091700790911F
:101710007107DC01ED91FC910084F185E02D1995B4
:10172000892B09F459C060E474E0809170079091AE
:1017300071070E941525882309F44EC00091700797
:1017400010917107C8010E94B524FC0197FDEBC000
:101750008D32910509F0DAC020E030E0A901F12CCA
:10176000E130F10509F02FC1D801ED91FC9102841F
:10177000F385E02DC801A1962FAFA197A2963FAFA8
:10178000A297A3964FAFA397A4965FAFA49719957E
:10179000C8010E94B524FC01C097A1962FADA19766
:1017A000A2963FADA297A3964FADA397A4965FAD27
:1017B000A4970A97A8F2E130F10591F2FF2009F40D
:1017C00022C188279927DC01821B930BA40BB50B40
:1017D000883C910509F4ABC0809170079091710726
:1017E000DC01ED91FC910488F589E02D1995CE017D
:1017F000C0960E946224CE01C6960E946224CE0149
:101800008E5B9F4F0E9462242AE047E755E660E026
:1018100070E08FEB96E00E94A52562E28FEB96E0E8
:101820000E948925BE016F5F7F4F8FEB96E00E947B
:10183000EE2562E28FEB96E00E94892560E27EE46D
:1018400080E090E00E944E10CD59DF4F0FB6F89423
:10185000DEBF0FBECDBFDF91CF911F910F91FF90E3
:10186000EF90DF90CF90BF90AF909F908F907F9040
:101870006F905F904F9008958091700790917107DD
:10188000DC01ED91FC910088F189E02D40E550E00C
:1018900069E474E01995892B09F017CE80917007DF
:1018A00090917107DC01ED91FC910684F785E02DA4
:1018B0002AED32E038A32F8F28EB29A32AE62AA3AA
:1018C00029E92BA325E92CA340E550E0BE01615E88
:1018D0007F4FF4CD0E946423DC01CB018C199D095C
:1018E000AE09BF0988389341A105B10508F00DCFB5
:1018F00064E670E080E090E00E944E10F8CE8091A7
:101900007007909171070E94C82075CFC0970A9701
:1019100008F422CFD801ED91FC910284F385E02DEB
:10192000C80119950FCF80E090E0DC0151CF6DE345
:1019300074E080917007909171070E9415258823AB
:1019400009F44ACF6CE374E08091700790917107BD
:101950000E941525882309F43FCFE0907007F0908E
:1019600071076FE374E0CE014F960E94A024C70177
:101970000E94E52497FD1BC08CAF1DAE0BA11CA1DE
:101980000F5F1F4FB801CE014F960E94BA238823E4
:1019900071F32F8D38A18BA19CA1BE01645C7F4F98
:1019A000820F931F0E9461341CA30BA3E0CFBE01E2
:1019B000615E7F4FCE01C0960E944B24CE014F96B0
:1019C0000E94622409CFED32F105D1F0CF01C0971A
:1019D0000A9708F0C9CEAAE0B0E00E9437314F0163
:1019E000FF0FAA08BB08DC01CB01880D991DAA1DB9
:1019F000BB1D9C01AD012053310941095109B4CEF1
:101A0000FF24F394B1CEDA01C901E2CE80E3FB01F9
:101A100080833296842F82958F7090E1899F401940
:101A200011244A3014F4405D01C0495C4293482FB0
:101A30008111F0CF08953FB7F8948091710590918E
:101A40007205A0917305B091740526B5A89B05C0D9
:101A50002F3F19F00196A11DB11D3FBFBA2FA92F2D
:101A6000982F8827820F911DA11DB11DBC01CD01AA
:101A700042E0660F771F881F991F4A95D1F7089596
:101A80000F931F93CF93DF938C01D62FE091DD0747
:101A9000F091DE07138615861486DF011B963396B8
:101AA0001E92AE17BF07E1F7C0E0B8018091DD07D5
:101AB0009091DE070E949722811102C080E010C041
:101AC000CD130AC067E0C8010E941F1EF80197816C
:101AD000891302C081E004C0CF5FDC1778F3E5CF43
:101AE000DF91CF911F910F910895CF93C82F462F6B
:101AF00061E070E00E94401B61E070E08C2F0E946A
:101B00004A1B8111F9CFCF9108958F929F92AF9286
:101B1000BF92CF92DF92EF92FF920F931F93CF93DA
:101B2000DF93B82E4B018A01A22E68E270E00E947A
:101B30004A1BC82FD0E069E270E08B2D0E944A1B3F
:101B4000DC2FCC27C82B9E013770CB2CD12CC601A3
:101B5000880F991FAC0143585A4F6A01FA018081DE
:101B60009181820F931FA801420F531F41305840AB
:101B700098F060E078E07B01E21AF30AA701B40173
:101B80000E94B518A8014E195F09B4016E0D7F1DA2
:101B9000F6018081918102C0A801B4010E94B518AC
:101BA000A1100EC0C00FD11F4D2F68E270E08B2D29
:101BB0000E94401B4C2F69E270E08B2D0E94401B5D
:101BC000DF91CF911F910F91FF90EF90DF90CF9019
:101BD000BF90AF909F908F9008959F92AF92BF92C9
:101BE000CF92DF92EF92FF920F931F93CF93DF93E9
:101BF000982E8B015A01690164E270E00E944A1B31
:101C0000E82EF12C65E270E0892D0E944A1BFE2C23
:101C1000EE24E82AE701C00FD11F9E013770E92C9E
:101C2000F12CC701880F991FAC014B585A4F7A010C
:101C3000FA0180819181820F931FA9014C0D5D1DD6
:101C40004130584090F000E018E0021B130BA8014F
:101C5000B5010E94E518A601401B510BB501600FAC
:101C6000711FF7018081918102C0A601B5010E9418
:101C7000E518CC0DDD1D4D2F64E270E0892D0E942A
:101C8000401B4C2F65E270E0892DDF91CF911F91B1
:101C90000F91FF90EF90DF90CF90BF90AF909F900B
:101CA0000C94401BFF920F931F93CF93DF93F82E5A
:101CB000C0E0D0E08F2D0E9496188C01892B21F076
:101CC0008F2D0E949618EC01C017D10799F7CE010D
:101CD000DF91CF911F910F91FF90089590E0FC014B
:101CE000EE5AFC4F4491FC01E850FB4F2491FC015B
:101CF000EE54FB4F9491992309F466C0442309F4F0
:101D000055C050E0FA013197E231F10508F04EC0BC
:101D10008827EE58FF4F8F4F0C942132809180001E
:101D20008F7707C0809180008F7D03C080918000F5
:101D3000877F809380003AC084B58F7702C084B5D6
:101D40008F7D84BD33C08091B0008F7703C08091B8
:101D5000B0008F7D8093B00029C0809190008F7774
:101D600007C0809190008F7D03C080919000877F95
:101D7000809390001BC08091A0008F7707C0809156
:101D8000A0008F7D03C08091A000877F8093A0007A
:101D90000DC0809120018F7707C0809120018F7D39
:101DA00003C080912001877F80932001E92FF0E01C
:101DB000EE0FFF1FE85CFC4FA591B4918FB7F8942C
:101DC000EC912E2B2C938FBF08957F928F929F9230
:101DD000AF92BF92CF92DF92EF92FF920F931F9339
:101DE000CF93DF93CDB7DEB7A6970FB6F894DEBFDB
:101DF0000FBECDBF8C01762E942E852E20E2B22E02
:101E0000CE0101967C01FC012B2D11922A95E9F758
:101E10008AED92E09AA389A38FEF8BA38CA38DA365
:101E20008EA3680183E4C80ED11C43E450E0BE01D8
:101E30006F5D7F4FC6010E94B91B019609F4BFC0B8
:101E400081E089838A8386E0A82EAB821C82F80118
:101E500064817581868197810E9429326D837E839A
:101E60008F83988789869A8680E890E09C878B8705
:101E70004CE150E0B701C6010E94091AF7012B2D71
:101E800011922A95E9F7480188E0880E911CF40127
:101E9000D70101900D92AA94E1F740E150E0B7011B
:101EA000C6010E94091AF7011192BA94E9F796E067
:101EB000A92EB12C40E250E0B701C6010E94091AD8
:101EC000F1E0AF1AB108B1F783E6898392E89A830B
:101ED00093E59B838C8385E38D8381E08E837F8272
:101EE0009DE3988797E099878A8786E0F401DE0171
:101EF0001B9601900D928A95E1F78CE0898B8A8B75
:101F00006EE874E0CE0143960E946134F801438587
:101F1000BE01675E7F4FC8010E94060DF80144852F
:101F2000BE01655E7F4FC8010E94060DF801458520
:101F3000BE01635E7F4FC8010E94060D4EE150E076
:101F4000B701C6010E94091AF3E07F121EC082E3A6
:101F5000898384E08A83F80196859B8397859C8397
:101F600090899D8391899E8396E39F838887828D44
:101F70008987838D8A87848D8B87858D8C874CE0BC
:101F800050E0B701C6010E94091A87E3898386E001
:101F90008A8391E09B8393E09C838D838FE08E8383
:101FA0008AE38F838BE388878FEF898749E050E04E
:101FB000B701C6010E94091AC6010E94701BA696AD
:101FC0000FB6F894DEBF0FBECDBFDF91CF911F914A
:101FD0000F91FF90EF90DF90CF90BF90AF909F90C8
:101FE0008F907F900895CF93DF9390E0FC01E850AD
:101FF000FB4F2491FC01EE54FB4F8491882361F147
:1020000090E0880F991FFC01E25EFC4FC591D491CE
:10201000FC01E85CFC4FA591B491611109C09FB728
:10202000F8948881209582238883EC912E230BC01D
:10203000623061F49FB7F8943881822F80958323B2
:102040008883EC912E2B2C939FBF06C08FB7F894FA
:10205000E8812E2B28838FBFDF91CF91089586339F
:1020600008F0865390917B00282F2870977F922B41
:1020700090937B008770806480937C0080917A00CD
:10208000806480937A0080917A0086FDFCCF8091F5
:1020900078002091790090E0922B08958F929F9282
:1020A000AF92BF92CF92DF92EF92FF926B017C01D1
:1020B0000E941B0D4B015C01C114D104E104F10429
:1020C000F1F00E941B0DDC01CB0188199909AA09C6
:1020D000BB09883E9340A105B10570F321E0C21A07
:1020E000D108E108F10888EE880E83E0981EA11C53
:1020F000B11CC114D104E104F10419F7DDCFFF9044
:10210000EF90DF90CF90BF90AF909F908F90089509
:102110002F923F924F925F926F927F928F929F92F7
:10212000AF92BF92CF92DF92EF92FF920F931F93E5
:10213000CF93DF93CDB7DEB765970FB6F894DEBFC8
:102140000FBECDBF7C016B013A01FB0120E080E0B6
:1021500090E06AE03191332309F140ED430F4A30BA
:1021600080F4689FA001699F500D1124CA01C09797
:10217000830F911D37FD9A958F3F910559F350F3C9
:1021800013C03E3289F4233079F0D301A20FB11D80
:1021900012968C932F5F80E090E0DCCF233021F407
:1021A000F301858381E021C0F7014281538164817D
:1021B00075818091BB069091BC06A091BD06B0913F
:1021C000BE06481759076A077B0709F49EC10E949B
:1021D00064238701085F1F4F6F7077277C5FC801FA
:1021E0000E94C91A813019F080E090E0F3C18AEDB5
:1021F00092E09A838983F70182819381A481B581DA
:102200008B839C83AD83BE8345E350E0BE016F5F4B
:102210007F4FC8010E94B91B892B19F4C12CD12C06
:102220006FC10E946423F70177836683762767274F
:1022300076277A83698342E050E0BE016F5F7F4F6B
:10224000C8010E94091A81E090E09E878D8742E0D4
:1022500050E0BE01635F7F4FC8010E94091A80E011
:1022600091E09E878D8742E050E0BE01635F7F4F23
:10227000C8010E94091A1E861D8642E050E0BE0178
:10228000635F7F4FC8010E94091A42E050E0BE011F
:10229000635F7F4FC8010E94091A42E050E0BE010F
:1022A000635F7F4FC8010E94091A5601F5018081C2
:1022B000882311F1F6015F018191811115C045015B
:1022C0008C189D081814190494F48F8641E050E08E
:1022D000BE01615F7F4FC8010E94091AA401B601C7
:1022E000C8010E94091A03C08E3229F7E8CF6501A0
:1022F000FFEFCF1ADF0ADACF1F8641E050E0BE01C0
:10230000615F7F4FC8010E94091AC12CDD24D3945C
:10231000DE86CD8642E050E0BE01635F7F4FC8019C
:102320000E94091ADE86CD8642E050E0BE01635F5E
:102330007F4FC8010E94091AC8010E94701B892B97
:1023400009F46CCF63E0A62EB12CF2E06F0E711C85
:102350000E9464231B012C01C8010E94991D1816BC
:102360001906A4F00E946423DC01CB0182199309B1
:10237000A409B50989389341A105B105D0F462E3F8
:1023800070E080E090E00E944E10E6CFF7014281BD
:10239000538164817581808D918DA28DB38D481795
:1023A00059076A077B0741F4848D958DC59721F401
:1023B00006C02FEF3FEF9AC02EEF3FEF97C0F70117
:1023C00081A192A10C970CF4A6C04CE050E0BE0194
:1023D0006F5F7F4FC8010E94511D8B8190E0982F45
:1023E00088272C81822B9A8B898B298130E0322F90
:1023F00022274A81242BF701468157814217530730
:1024000009F086C097FF84C08F709270892B09F005
:10241000DEC0CF80D12CDC2CCC248885C82AC11406
:10242000D10409F4D1C0812C912C8D8190E0982F9A
:1024300088272E81822B8816990608F46FC0812C7C
:10244000912C41E050E0BE016D5E7F4FC8010E94BB
:10245000511D8B89982F907C09F093C0811186C003
:102460008B898111EECF42E050E0BE01615F7F4F6A
:10247000C8010E94511D42E050E0BE01635F7F4FE2
:10248000C8010E94511DC8010E94701DC8010E9410
:10249000701DC8010E94701DC8010E94701D42E09D
:1024A00050E0BE016F5E7F4FC8010E94511D8F85B5
:1024B00098898115914009F069C02D853E853227A4
:1024C000232732272130310509F060C089899A8994
:1024D0008115944009F075C044E050E0B301C80193
:1024E0002C8B3D8B0E94511D2C893D896901F1E0A7
:1024F000AF1AB10829F02FEFC216D20609F428CF7F
:10250000C8010E94B41AC60165C08EEF9FEF62C079
:102510002CEF3FEFEBCF2DEF3FEFE8CF41E050E066
:10252000BE01635F7F4FC8010E94511D8D858111DF
:1025300013C08D858111F2CFC8010E94701DC801A2
:102540000E94701DC8010E94701DC8010E94701D6C
:10255000FFEF8F1A9F0A69CF8D859FEF980F9D8798
:10256000882339F3C8010E94701DF6CF8B899FEF35
:10257000980F9B8B882309F473CFC8010E94701DAC
:10258000F5CFC8010E94701D1B8A6ACF412C512CC7
:1025900089899A899827892798274816590638F4EF
:1025A000C8010E94701D8FEF481A580AF1CFEFEF53
:1025B0008E1A9E0A8C149D0409F043CF26EF3FEF3C
:1025C00095CF27EF3FEF92CF2AEF3FEF8FCF2BEF43
:1025D0003FEF8CCF65960FB6F894DEBF0FBECDBF30
:1025E000DF91CF911F910F91FF90EF90DF90CF90EF
:1025F000BF90AF909F908F907F906F905F904F9023
:102600003F902F9008952F923F924F925F926F923A
:102610007F928F929F92AF92BF92CF92DF92EF9272
:10262000FF920F931F93CF93DF93CDB7DEB7E3975E
:102630000FB6F894DEBF0FBECDBF7C011A012B018F
:1026400039010E9464234B015C0187010D5B1F4F20
:10265000C8010E94991D18161906A4F00E9464234F
:10266000DC01CB0188199909AA09BB09281639068A
:102670004A065B06D8F062E370E080E090E00E94DA
:102680004E10E6CF42E250E0BE016F5F7F4FC801BF
:102690000E94511D8981823011F080E061C1F801F2
:1026A0008489958983349105C1F702C08FEF58C1A1
:1026B0006D817E818F8198850E9429324B015C015A
:1026C000F301608371838283938346E050E0B70116
:1026D000685F7F4FCE014D960E944B34892BE9F6FF
:1026E000F70180819181A281B38188169906AA069B
:1026F000BB0698F284819581A681B78188159905DA
:10270000AA05BB0550F289899A89AB89BC8986875D
:102710009787A08BB18B8EECA82EB12CC8010E949C
:10272000701DF1E0AF1AB108C9F719A6670182E27E
:10273000C80ED11CF701B696FBA7EAA7C7018A9677
:102740009DA78CA73C974F0189969FA78EA7389786
:10275000F9ABE8AB1701F6E12F0E311CC5979BAB27
:102760008AABF801818D928D181619060CF0F7C00E
:10277000C8010E94701D8333910509F4CBC0FCF49D
:1027800081309105C9F11CF4892B59F3DCC08330E9
:102790009105D1F1069709F0D6C0C8010E94701DBD
:1027A0005C0144E050E06AA97BA9C8010E94511D68
:1027B000412C512CBB24F4E0AF1AB10840C08A333D
:1027C000910509F47BC03CF48533910569F0C69707
:1027D00009F440C0B8C08B33910509F485C08F3F20
:1027E000910509F4BECFAFC0C8010E94701DC80199
:1027F0000E94701D89A7B5CFC8010E94701D44E0DA
:1028000050E068A979A93AC0C8010E94701D5C0116
:1028100044E050E0B101C8010E94511D412C512CEF
:10282000BB2494E0A91AB1084A145B040CF099CFB8
:10283000C8010E94701DEFEF4E1A5E0AF5CF4A14D0
:102840005B040CF08ECFC8010E94701D8FEF481AF8
:10285000580AF5CFC8010E94701DB82EF701828D6D
:10286000811110C0838D81110DC0848D81110AC02A
:10287000858D811107C044E050E0B401C8010E9479
:10288000511D6FCFEEA5FFA54080518062807380FF
:10289000B401CE0183960E94D8168DA19EA1AFA14E
:1028A000B8A584159505A605B70529F3BB2009F43D
:1028B00058CFC8010E94701DBA94F8CFC8010E9479
:1028C000701D44E050E06AA57BA5C8010E94511D1F
:1028D000F70166A177A180A591A50E94293266A380
:1028E00077A380A791A73DCFC8010E94701D44E047
:1028F00050E06CA57DA5C8010E94511DF70162A59D
:1029000073A584A595A50E94293262A773A784A701
:1029100095A727CFC8010E94701D44E050E0B60182
:10292000C8010E94511DF70162A173A184A195A164
:102930000E94293262A373A384A395A366A777A7F5
:1029400080AB91AB0ECFC8010E94701DB82EBB208A
:1029500009F407CFC8010E94701DBA94F8CF89A569
:10296000E3960FB6F894DEBF0FBECDBFDF91CF91D7
:102970001F910F91FF90EF90DF90CF90BF90AF909D
:102980009F908F907F906F905F904F903F902F908F
:1029900008958F929F92AF92BF92CF92DF92EF9263
:1029A000FF920F931F93CF93DF937C018B016C01F8
:1029B00082E0C80ED11C4701E5E08E0E911CC0E0FC
:1029C000D0E0F60141916F0150E060E070E02AE054
:1029D000C8010E94A5255C016EE2C8010E948925FC
:1029E0008A0D9B1DC80FD91FC814D90451F7F701D0
:1029F000458150E060E070E02AE0C8010E94A52512
:102A00008C0F9D1FDF91CF911F910F91FF90EF9041
:102A1000DF90CF90BF90AF909F908F900895FC0172
:102A2000538D448D252F30E0842F90E0821B930B33
:102A3000541710F0CF96089501970895FC01918DD9
:102A4000828D981761F0828DDF01A80FB11D5D9610
:102A50008C91928D9F5F9F73928F90E008958FEF7E
:102A60009FEF0895FC01918D828D981731F0828D32
:102A7000E80FF11D858D90E008958FEF9FEF089589
:102A8000FC01918D228D892F90E0805C9F4F821BED
:102A900091098F73992708958FEB96E00E94401556
:102AA00021E0892B09F420E0822F0895FC01848D18
:102AB000DF01A80FB11DA35ABF4F2C91848D90E068
:102AC00001968F739927848FA689B7892C93A08943
:102AD000B1898C9180648C93938D848D981306C0FA
:102AE0000288F389E02D80818F7D80830895EF92A5
:102AF000FF920F931F93CF93DF93EC0181E0888FB8
:102B00009B8D8C8D981305C0E889F989808185FD9E
:102B100024C0F62E0B8D10E00F5F1F4F0F7311278F
:102B2000E02E8C8DE8120CC00FB607FCFACFE889B6
:102B3000F989808185FFF5CFCE010E945615F1CF2E
:102B40008B8DFE01E80FF11DE35AFF4FF0820B8FD2
:102B5000EA89FB898081806207C0EE89FF896083F2
:102B6000E889F98980818064808381E090E0DF9149
:102B7000CF911F910F91FF90EF900895CF93DF9326
:102B8000EC01888D8823C9F0EA89FB89808185FD65
:102B900005C0A889B9898C9186FD0FC00FB607FCC6
:102BA000F5CF808185FFF2CFA889B9898C9185FF07
:102BB000EDCFCE010E945615E7CFDF91CF9108955A
:102BC00080E090E0892B21F00E944C15811125C0F6
:102BD00080E090E0892B41F080E090E0892B21F0AB
:102BE0000E94000081111CC080E090E0892B41F020
:102BF00080E090E0892B21F00E940000811113C039
:102C000080E090E0892BA1F080E090E0892B81F0BA
:102C10000E94000081110AC008950E940000D8CFD0
:102C20000E940000E1CF0E940000EACF0C94000057
:102C3000089585ED8093BC008091BC0084FDFCCF9D
:102C400010928705089540918C06262F30E0240FBE
:102C5000311D21323105DCF4209187052430C9F47F
:102C6000FC0180E090E0861758F430918C062191A9
:102C7000DC01A659B94FA30FB11D2C930196F3CFD8
:102C800080918C06680F60938C0680E0089581E047
:102C9000089582E008950895E0918B0580918A055A
:102CA000E81730F4F0E0EC5DF94F808190E0089592
:102CB0008FEF9FEF089590918B0580918A0598176B
:102CC00050F4E92FF0E0EC5DF94F208130E09F5F98
:102CD00090938B0502C02FEF3FEFC90108958091BB
:102CE0008A0590E020918B05821B91090895CF926F
:102CF000DF92EF92FF920F931F93CF93DF937C01AC
:102D0000262F972F8A0180912306882391F0C62FC2
:102D1000D72F6E01C40ED51ECC15DD0571F069915B
:102D2000D701ED91FC910190F081E02DC70119953B
:102D3000F3CF642F822F0E942316C801DF91CF9119
:102D40001F910F91FF90EF90DF90CF900895CF9358
:102D5000DF931F92CDB7DEB769832091230622232C
:102D6000D1F020918805203240F021E030E0FC01D4
:102D70003383228380E090E015C080918905E82F9D
:102D8000F0E0ED5FF94F998190838F5F8093890523
:102D90008093880505C061E0CE0101960E9423164C
:102DA00081E090E00F90DF91CF9108950E9446342A
:102DB0002AED32E0FC0131832083FB014081518107
:102DC00062817381FC014283538364837583089518
:102DD0001F920F920FB60F9211240BB60F922F93E2
:102DE0003F934F935F936F937F938F939F93AF9393
:102DF000BF93EF93FF938FEB96E00E945615FF91E0
:102E0000EF91BF91AF919F918F917F916F915F9162
:102E10004F913F912F910F900BBE0F900FBE0F90CF
:102E20001F9018951F920F920FB60F9211240BB698
:102E30000F922F938F939F93EF93FF93E091CF0681
:102E4000F091D0068081E091D506F091D60682FD02
:102E500012C090818091D8068F5F8F732091D90620
:102E6000821751F0E091D806F0E0E154F94F958FC8
:102E70008093D80601C08081FF91EF919F918F913F
:102E80002F910F900BBE0F900FBE0F901F901895B3
:102E90001F920F920FB60F9211240BB60F922F9321
:102EA0003F934F935F936F937F938F939F93AF93D2
:102EB000BF93EF93FF938091B900887F803609F428
:102EC0009CC068F5883209F45BC090F4803109F445
:102ED00054C038F4882309F4F6C0883009F44DC092
:102EE000F6C0883109F44CC0803209F45DC0EFC0EF
:102EF000803409F468C048F4803309F455C088333D
:102F000009F0E5C080934406D8C0803509F44FC06D
:102F1000883509F45DC0883409F0D9C0D6C0883935
:102F200009F4C7C0A8F4883709F467C038F48836B4
:102F300009F463C0803709F460C0C9C0883809F457
:102F4000B8C0803909F45FC0803809F0C0C05BC0E8
:102F5000803B09F486C038F4803A09F466C0883AA8
:102F600009F47FC0B4C0803C09F4A7C0883C09F4D0
:102F7000A4C0883B09F48AC0AAC08091670610C02B
:102F80009091660680916506981770F5E091660647
:102F900081E08E0F80936606F0E0EB5BF94F808155
:102FA0008093BB0085EC86C0809344068EC0E09180
:102FB000660681E08E0F809366068091BB00F0E08C
:102FC000EB5BF94F808390916606809165066EC039
:102FD000E091660681E08E0F809366068091BB00CB
:102FE000F0E0EB5BF94F80838091860581116DC025
:102FF00081E08093850584EA61C083E08093870542
:103000001092B006CFCF8091B006803208F051C048
:10301000E091B00681E08E0F8093B0068091BB00F6
:10302000F0E0E057F94F8083BDCF85EC8093BC0082
:10303000109287058091B006803230F4E091B0069E
:10304000F0E0E057F94F10826091B00670E0E09137
:103050008E06F0918F0680E996E019951092B006E1
:1030600036C084E08093870510928D0610928C06FE
:10307000E0918A06F0918B06199580918C0681115A
:1030800005C081E080938C0610926A06E0918D065F
:1030900081E08E0F80938D06F0E0E659F94F808134
:1030A0008093BB0090918D0680918C06981708F450
:1030B00079CF85E88093BC000AC085EC8093BC0082
:1030C0001092870504C0109244060E941916FF91C1
:1030D000EF91BF91AF919F918F917F916F915F9190
:1030E0004F913F912F910F900BBE0F900FBE0F90FD
:1030F0001F9018952C9A08952C9808951F93CF939C
:10310000DF93182F66E270E00E944A1BC82FD0E0C0
:1031100067E270E0812F0E944A1BDC2FCC279E01C2
:10312000282BC901DF91CF911F9108951F93CF9351
:10313000DF93182F60E270E00E944A1BC82FD0E096
:1031400061E270E0812F0E944A1BDC2FCC279E0198
:10315000282BC901DF91CF911F9108958EBD0000EA
:103160000DB407FEFDCF8EB50895CF92DF92EF929A
:10317000FF920F931F93CF93DF93EC017A018B01A2
:103180006C01C40ED51ECC15DD05A9F00E947C187B
:103190008FE00E94AE188D2F0E94AE188C2F0E94D7
:1031A000AE18219680E00E94AE18F80181938F013D
:1031B0000E947A18E8CFC701DF91CF911F910F913C
:1031C000FF90EF90DF90CF900895CF92DF92EF9233
:1031D000FF920F931F93CF93DF93EC017A018B0142
:1031E0006C01C40ED51ECC15DD05A1F00E947C1823
:1031F00080EF0E94AE188D2F0E94AE188C2F0E9477
:10320000AE182196F80181918F010E94AE180E949C
:103210007A18E9CFC701DF91CF911F910F91FF90ED
:10322000EF90DF90CF9008951F93CF93DF931F927D
:103230001F92CDB7DEB7182F6A8399830E947C183E
:1032400080EF0E94AE189981892F0E94AE18812FBD
:103250000E94AE186A81862F0E94AE180E947A18CA
:1032600081E00F900F90DF91CF911F910895FF9211
:103270000F931F93CF93DF931F921F92CDB7DEB7AB
:10328000F82E8A012A8369830E94F21D80E590E06E
:103290000E94C11F2A816981462F422B60E070E0A5
:1032A0008F2D0E94401B0115110551F400916806F5
:1032B000109169060F5F1F4F10936906009368060F
:1032C000412F64E070E08F2D0E94401B402F65E08D
:1032D00070E08F2D0E94401B61E070E08F2D0E94F6
:1032E000750D0E94C01F81E00F900F90DF91CF916C
:1032F0001F910F91FF9008951F93CF93DF931F921B
:103300001F92CDB7DEB7182F80E590E069837A83EE
:103310000E94C11F21E041E050E069817A81812F44
:103320000E94850D0E94C01F81E090E00F900F90D9
:10333000DF91CF911F910895FF920F931F93CF9329
:10334000DF93F82E80E590E00E94C11FC0E0D0E03E
:103350008F2D0E947E188C01892B21F08F2D0E94C9
:103360007E18EC01C017D10799F70E94C01FCE014B
:10337000DF91CF911F910F91FF900895CF93DF932D
:103380001F92CDB7DEB76983DC01ED91FC9102801D
:10339000F381E02D41E050E0BE016F5F7F4F199552
:1033A0000F90DF91CF910895FC01818D928D08954A
:1033B000FC018489958908952AED32E0FC0131836E
:1033C0002083FB014089518962897389FC01428312
:1033D0005383648375830895DC01ED91FC91048C23
:1033E000F58DE02D199480E00895FC019485FB0192
:1033F0008485981303C081E0943009F480E0089537
:1034000021E0FC018485843009F420E0822F0895B6
:103410000895AF92BF92CF92DF92FF920F931F93C6
:10342000CF93DF938C015B01EA01FC01C688D7884A
:10343000F08C80E590E00E94C11F8F2D0E94520EFB
:103440008C179D0720F48F2D0E94520EEC019E01D7
:10345000A501B6018F2D0E94ED0D0E94C01FF8013D
:10346000868997898C0F9D1F978B868BCE01DF9164
:10347000CF911F910F91FF90DF90CF90BF90AF90B1
:103480000895CF92DF92EF92FF920F931F93CF9305
:10349000DF93CDB7DEB7AF970FB6F894DEBF0FBEA0
:1034A000CDBF7C016A010AED12E01A8309831C86F4
:1034B0001B8688EE93E0A0E0B0E08D879E87AF8703
:1034C000B88B84E492E09A878987188F0F8B198EC6
:1034D0001A8E1B8E1C8E84E089A31DA30CA31EA232
:1034E0001FA218A619A680916A0790916B07A09158
:1034F0006C07B0916D078CA79DA7AEA7BFA78B8364
:103500009C83AD83BE8318861F82AE014C5D5F4FE6
:10351000CE0101960E94881081309105B1F4D70147
:10352000ED91FC910488F589E02D1BA70AA78EA1D7
:103530009FA1A8A5B9A58CA79DA7AEA7BFA7A601C7
:10354000BE01665D7F4FC7011995AF960FB6F8941F
:10355000DEBF0FBECDBFDF91CF911F910F91FF90C6
:10356000EF90DF90CF900895CF93DF93EC01888D9B
:10357000843061F00E94F21DE88DF0E0EE0FFF1F35
:10358000EF54F94F1182108284E0888FDF91CF9140
:103590000895EF92FF921F93CF93DF93FC01208D4C
:1035A000243011F080E01CC07B01EC0110E0812F81
:1035B0000E94061E811102C0188F05C08831E1F3F8
:1035C0001F5F1430A1F7888D843061F3FD86EC868F
:1035D0001A8E198E20E0A70162E00E94371981E05F
:1035E000DF91CF911F91FF90EF9008950F931F935C
:1035F000CF93DF931F92CDB7DEB78C01DC01ED9145
:10360000FC910084F185E02D1995892B51F0BE01C4
:103610006F5F7F4FF80184850E947C19898190E05B
:1036200002C08FEF9FEF0F90DF91CF911F910F910D
:103630000895FC0184850C94FE1CCF93DF931F92A8
:10364000CDB7DEB741E050E0BE016F5F7F4FFC01B8
:1036500084850E94FE1C181619061CF4898190E0CE
:1036600002C08FEF9FEF0F90DF91CF910895FC0183
:103670008485843011F00C949C1980E090E00895CA
:103680009B0190E00496982F8827642F820F931F48
:103690000C9414190F931F93CF93DF931F92CDB700
:1036A000DEB790E00496982F88278C01060F171F2D
:1036B0000E947C188FE00E94AE18812F0E94AE18E5
:1036C000802F0E94AE1880E00E94AE1889830E946D
:1036D0007A1889810F90DF91CF911F910F910895F2
:1036E000CF93FC01C08D80E590E00E94C11F60E295
:1036F00070E08C2F0E94750D62E070E08C2F0E94AC
:103700004A1B84FD19C062E070E08C2F0E944A1BA6
:1037100083FF0BC048E162E070E08C2F0E94401BE9
:103720000E94C01F80E090E011C00E94C01F80E591
:1037300090E00E94C11FE0CF40E162E070E08C2F7A
:103740000E94401B0E94C01F81E090E0CF9108952D
:10375000CF93DF93C82FD62F472F60E170E00E94F0
:10376000401B4D2F61E170E08C2FDF91CF910C94C5
:10377000401BFF920F931F93CF93DF93FB01DC015C
:1037800057961C921E9256975896FC9082818111F2
:1037900009C08381811106C08481811103C08581A4
:1037A0008823F9F041155105E1F08A01EF0180E528
:1037B00090E00E94C11FBE016E5F7F4F2F2D30E051
:1037C000922F882744E050E0845F9B4F0E94E518C9
:1037D000B8018F2D0E94A81B0E94C01F81E090E0BD
:1037E00002C080E090E0DF91CF911F910F91FF9098
:1037F0000895FC018485843011F00C94061E80E04D
:103800000895CF93DF93FC0124852430D1F0EC019F
:103810000E94F91B843181F0882371F0883161F0B6
:103820008C3161F4E881F9810084F185E02DCE01CD
:10383000199521E0892B19F420E001C021E0822FA5
:1038400001C080E0DF91CF910895CF92DF92EF9297
:10385000FF921F93CF93DF93FC0114851430A9F1DD
:10386000EC0180E590E00E94C11F68E070E0812FCC
:103870000E94750D0E94C01F0E9464236B017C0191
:10388000CE010E94F91B8823B1F061E070E080E076
:1038900090E00E944E100E946423DC01CB018C1941
:1038A0009D09AE09BF09883E9340A105B10540F3CB
:1038B0008C850E94F21DEC85F0E0EE0FFF1FEF54A7
:1038C000F94F1182108284E08C87DF91CF911F9194
:1038D000FF90EF90DF90CF90089508950895BF92E4
:1038E000CF92DF92EF92FF920F931F93CF93DF93CC
:1038F00000D000D0CDB7DEB7FC01208D243009F018
:1039000053C06A017B018C01B12C63E070E08B2D08
:103910000E944A1B811103C0F801B08E06C0883195
:10392000D9F3B394F4E0BF12F0CFF801808D843066
:10393000D9F196E0E8E6F2E0DE01119601900D92F1
:103940009A95E1F7F70193819F779C8394819D83FA
:1039500095819E83B7016E5F7F4F90E0982F8827F7
:1039600044E050E0845F9B4F0E94E518B601F801E7
:10397000808D0E94A81BF801808D90E0982F8827E9
:1039800046E050E0BE016F5F7F4F8A5F9B4F0E9411
:10399000E518F801128E118E20E8A60162E0808DF4
:1039A0000E94371981E001C080E026960FB6F89496
:1039B000DEBF0FBECDBFDF91CF911F910F91FF9062
:1039C000EF90DF90CF90BF900895CF93DF931F9239
:1039D000CDB7DEB7FC01218D328D232B49F0BE011E
:1039E0006F5F7F4F808D0E947C19898190E002C0BB
:1039F0008FEF9FEF0F90DF91CF910895AF92BF921D
:103A0000CF92DF92EF92FF921F93CF93DF93182F05
:103A10005B017A0180E590E00E94C11FC0E0D0E028
:103A2000812F0E947E186C01892B21F0812F0E942A
:103A30007E18EC01CC15DD0599F7209799F463E029
:103A400070E0812F0E944A1B8431F1F08823E1F05D
:103A5000C1E0D0E08C3111F4C0E0D0E0D195C19547
:103A6000D10912C0EC16FD060CF4E7011C161D0668
:103A70005CF420E0AE01B501812F0E94850D60E469
:103A800070E0812F0E94750D0E94C01FCE01DF9152
:103A9000CF911F91FF90EF90DF90CF90BF90AF90AC
:103AA0000895CF93DF93FC01218D328D21153105CF
:103AB00019F48FEF9FEF11C0EC014217530708F084
:103AC000A901888D0E94FE1C1816190694F7298DED
:103AD0003A8D281B390B3A8F298FDF91CF910895AA
:103AE0000F931F93CF93DF931F92CDB7DEB7FC01E7
:103AF000218D328D232B61F08C0141E050E0BE011D
:103B00006F5F7F4F808D0E94FE1C181619061CF0F7
:103B10008FEF9FEF08C0F801818D928D0197928FF2
:103B2000818F898190E00F90DF91CF911F910F914C
:103B300008950F931F93CF93DF93CDB7DEB72897E8
:103B40000FB6F894DEBF0FBECDBF8C01F801818D9A
:103B5000928D892B49F0D801ED91FC910284F38577
:103B6000E02DC8011995F2CF808D0E949C1918167E
:103B700019065CF548E050E0BE016F5F7F4FD80149
:103B800058968C910E94FE1C9C0118161906DCF4B4
:103B900089819A81AB81BC81F801808B918BA28B4A
:103BA000B38B8D8190E0982F88272E81820F911DF5
:103BB000958B848B2F8130E0322F22278885280F28
:103BC000311D328F218FC90102C080E090E028961C
:103BD0000FB6F894DEBF0FBECDBFDF91CF911F911E
:103BE0000F910895CF93C82F80E590E00E94C11FE8
:103BF00060E170E08C2F0E94750D4FEF62E070E085
:103C00008C2F0E94401BCF910C94C01F1F93CF9309
:103C1000DF931F92CDB7DEB7182F80E590E00E94AA
:103C2000C11F63E070E0812F0E944A1B89830E94BC
:103C3000C01F89810F90DF91CF911F910895DC0102
:103C4000E0E0615038F08D91E827F0E0E856FC4F55
:103C5000E491F7CF8E2F0895FC0190810180F281CD
:103C6000E02DF8948181892B81832281892F809591
:103C700028232283A7E0B0E01197F1F72181822366
:103C80008183A3E2B0E01197F1F780817894EFECA3
:103C9000F0E03197F1F7982381E009F480E008958E
:103CA000FC0190810180F281E02D892F809560FFD9
:103CB00012C0F8942281822382838181892B81839F
:103CC000A3E2B0E01197F1F78281982B9283789468
:103CD00087ED90E011C0F894228182238283818154
:103CE000892B8183AFEFB0E01197F1F78281982B98
:103CF000928378948FE090E00197F1F70895CF9246
:103D0000DF92EF92FF920F931F93CF93DF931F9257
:103D1000CDB7DEB76C01E62E08E010E0FF24F39487
:103D200061E08F2D8E2109F460E0C60149830E9475
:103D3000501EFF0C0150110949810115110581F731
:103D4000411115C0F894D6011196ED91FC9112978E
:103D500091818C918095892381831196ED91FC91BD
:103D6000129792818C9180958923828378940F9009
:103D7000DF91CF911F910F91FF90EF90DF90CF9047
:103D80000895CF92DF92EF92FF920F931F93CF93FC
:103D9000DF931F92CDB7DEB78C01F62E40E065E5CC
:103DA00079830E947F1ECF2C7981D72E760188E0FF
:103DB000E80EF11CF60161916F0140E0C8010E941C
:103DC0007F1ECE14DF04B1F70F90DF91CF911F91CA
:103DD0000F91FF90EF90DF90CF900895FC019081BC
:103DE0000180F281E02DF8948181292F2095822392
:103DF000818378948DE743E050E0815021F1DA012E
:103E00001197F1F730813923C1F3F894828182232D
:103E100082838181892B81837894ABE7B7E0119706
:103E2000F1F7F894818128232183A3E1B1E0119770
:103E3000F1F78081982381E009F080E07894E3E64F
:103E4000F6E03197F1F70895CF93DF931F92CDB746
:103E5000DEB76983DC01ED91FC910280F381E02DF6
:103E600041E050E0BE016F5F7F4F19950F90DF91E9
:103E7000CF910895DC01ED91FC91068CF78DE02D3A
:103E8000199591E089270895862F089581E0862766
:103E90000895089580E090E00895CF92DF92EF9228
:103EA000FF920F931F93CF93DF93CDB7DEB7AF97FA
:103EB0000FB6F894DEBF0FBECDBF7C016A010AEDDC
:103EC00012E01A8309831C861B8688EE93E0A0E02B
:103ED000B0E08D879E87AF87B88B84E492E09A87A5
:103EE0008987188F0F8B198E1A8E1B8E1C8E84E07B
:103EF00089A31DA30CA31EA21FA218A619A6809118
:103F00006A0790916B07A0916C07B0916D078CA721
:103F10009DA7AEA7BFA78B839C83AD83BE83188666
:103F20001F82AE014C5D5F4FCE0101960E9488104A
:103F300081309105B1F4D701ED91FC910684F785AC
:103F4000E02D1BA70AA78EA19FA1A8A5B9A58CA7A4
:103F50009DA7AEA7BFA7A601BE01665D7F4FC701A3
:103F60001995AF960FB6F894DEBF0FBECDBFDF91A7
:103F7000CF911F910F91FF90EF90DF90CF90089518
:103F800008958CBD9DBD08958F929F92AF92BF9270
:103F9000CF92DF92EF92FF920F931F93CF936C011A
:103FA0005B017A01FC01C485C43041F481E090E0FA
:103FB000F6019383828380E090E04EC08A01413015
:103FC000584010F000E018E080E590E00E94C11F2A
:103FD0008C2F0E94520E4C0163E070E08C2F0E94E7
:103FE0004A1B873111F08C3121F48016910660F361
:103FF00002C000E010E080E590E00E94C11F98013F
:10400000A50160E070E08C2F0E94ED0D60E270E091
:104010008C2F0E94750D62E070E08C2F0E944A1B6D
:1040200084FD10C063E070E08C2F0E944A1B811158
:1040300004C08C2F0E94F21DB9CF80E590E00E9451
:10404000C11FE9CF40E162E070E08C2F0E94401B6D
:10405000012B09F4ABCFC701CF911F910F91FF90B6
:10406000EF90DF90CF90BF90AF909F908F9008958A
:10407000CF92DF92FF920F931F93CF93DF93FC01B8
:104080002485243009F077C06A01EB018C01F12C02
:104090008F2D0E94061E811103C0F801F48607C00F
:1040A0008B7F8831D1F3F394F4E0FF12F1CFF80164
:1040B0008485843009F45FC02091060230910702A4
:1040C0002F5F3F4F11F420E030EC30930702209334
:1040D0000602409106025091070220E061E00E9432
:1040E0003719F801F4848A818F3F51F48B818F3F17
:1040F00091F48C818F3F79F48D818F3F61F438C0CA
:10410000811109C08B81811106C08C81811103C08E
:104110008D81882369F1C114D10451F180E590E0CB
:104120000E94C11FBE016E5F7F4F8F2D90E0982FC0
:10413000882744E050E0845F9B4F0E94E518B60159
:104140008F2D0E94A81B64E070E08F2D0E94750DDA
:10415000C8010E94F91B873189F061E070E080E0BE
:1041600090E00E944E10C8010E94F91B8111F0CF0F
:1041700084E0F801848780E090E002C081E090E074
:10418000DF91CF911F910F91FF90DF90CF90089515
:10419000DC01ED91FC910488F589E02D199582ED03
:1041A0009EEF08954F925F926F927F928F929F92AF
:1041B000AF92BF92EF92FF920F931F93CF93DF9333
:1041C000CDB7DEB76A970FB6F894DEBF0FBECDBF8E
:1041D0007C014A015B012A013B01E89477F82FEF4B
:1041E0003FEF4FE75FE7C301B2010E941C3281112C
:1041F0000AC02FEF3FEF4FE75FE7C301B2010E9414
:10420000F42F1816A4F026E934ED48E653E5C5016D
:10421000B4010E9417321816F4F126E934ED48E68D
:1042200053EDC501B4010E94F42F87FD34C08E0107
:104230000F5F1F4F25E041E0C501B4010E94B92C7A
:10424000B801CE0145960E94A02497012150310962
:1042500028303105B0F4898D9A8D8F3F910509F092
:1042600098F446E0429FC001439F900D1124BE0187
:104270006B5E7F4F8458984F0E944B2408EC10E0EF
:1042800005C007E31FEF02C00BE91FEFCE01459603
:104290000E94622402C00BE91FEFC8016A960FB6A4
:1042A000F894DEBF0FBECDBFDF91CF911F910F916C
:1042B000FF90EF90BF90AF909F908F907F906F9006
:1042C0005F904F9008956DE374E08FEB96E00C944F
:1042D0009025CF93DF93BC018FEB96E00E94902551
:1042E000EC010E9463218C0F9D1FDF91CF910895F7
:1042F000AF92BF92CF92DF92EF92FF920F931F93F4
:10430000CF93DF93EC018B018091DD079091DE0765
:104310000E94EE1E8823A1F1BE018091DD079091DD
:10432000DE070E94C11E40E06EEB8091DD07909198
:10433000DE070E947F1EE801680189E0C80ED11CDB
:10434000A090DD07B090DE0788E0E82EF12C01E0B8
:1043500010E0C5010E942C1E8111102B000F81E07E
:10436000E81AF108B1F71993CC15DD0549F78091EA
:10437000DD079091DE070E94EE1E91E0813009F08A
:1043800090E0892FDF91CF911F910F91FF90EF90D7
:10439000DF90CF90BF90AF900895CF93DF93CDB7CC
:1043A000DEB729970FB6F894DEBF0FBECDBFFC0174
:1043B0002081203119F1BE016F5F7F4F0E9478216B
:1043C000882379F068E0CE0101960E941F1E99852E
:1043D000891307C008C0803458F08F3569F08F37D3
:1043E00069F080E00CC08D818F33A9F78AE007C0A7
:1043F0008F31B9F789E003C08BE001C08CE02996CA
:104400000FB6F894DEBF0FBECDBFDF91CF910895F8
:104410000F931F93CF93DF93CDB7DEB729970FB6D6
:10442000F894DEBF0FBECDBF8C01BE016F5F7F4F22
:104430000E947821882309F46EC068E0CE010196BD
:104440000E941F1E9985891366C0F8018081803102
:1044500009F45FC08FE18D838091DD079091DE07C5
:104460000E94EE1EB8018091DD079091DE070E9448
:10447000C11E40E06EE48091DD079091DE070E944E
:104480007F1E40E06B818091DD079091DE070E94E6
:104490007F1E40E06C818091DD079091DE070E94D5
:1044A0007F1EF8018081803141F040E06D81809174
:1044B000DD079091DE070E947F1E8091DD079091BD
:1044C000DE070E94EE1EB8018091DD079091DE07A5
:1044D0000E94C11E4091D80768E48091DD07909149
:1044E000DE070E947F1E64E170E080E090E00E94A1
:1044F0004E108091D807882331F06AE070E080E0A8
:1045000090E00E944E108091DD079091DE070E949E
:10451000EE1E81E001C080E029960FB6F894DEBF60
:104520000FBECDBFDF91CF911F910F910895AF9234
:10453000BF92CF92DF92EF92FF920F931F93CF9390
:10454000DF931F92CDB7DEB75C01D62EE72EFC01BC
:104550008585811105C0C5010E94EE1E811106C02E
:10456000F50113861586148680E065C040E060EF93
:10457000C5010E947F1E01E0F12CC12C11E0C50194
:104580000E942C1E682FC50169830E942C1E698120
:10459000613019F48130B9F433C04F2D50E0681305
:1045A0001BC0F5018385181730F4E40FF51F8381D4
:1045B000802349F402C0181731F060E0193058F434
:1045C000F501148708C0F501EF0DF11D8381802BE3
:1045D000838361E009C0C12EF501E40FF51F9381CB
:1045E000802F809589238383C5010E94501E1F5F01
:1045F000000F11F4F39401E0F7E0FF1508F0BFCFCE
:10460000113408F4ADCFF501C386C11002C081E0BA
:104610008587F5018381882309F4A2CFD5011396FC
:10462000ED2DFE2D9501255F3F4F8D918193A217B2
:10463000B307D9F781E00F90DF91CF911F910F91D0
:10464000FF90EF90DF90CF90BF90AF900895CF9202
:10465000DF92EF92FF920F931F93CF93DF936C0142
:104660007A018B01C0E0D0E0CE15DF0589F0D801DA
:104670006D918D01D601ED91FC910190F081E02DBD
:10468000C6011995892B11F47E0102C02196ECCF49
:10469000C701DF91CF911F910F91FF90EF90DF90B5
:1046A000CF900895CF93DF93EC0188819981009793
:1046B00011F00E94C532198218821D821C821B8251
:1046C0001A82DF91CF9108952FB7F89460912B084B
:1046D00070912C0880912D0890912E082FBF08957D
:1046E0001F920F920FB60F9211242F933F938F9327
:1046F0009F93AF93BF9380912B0890912C08A0912A
:104700002D08B0912E0830912A0823E0230F2D3771
:1047100020F40196A11DB11D05C026E8230F0296C5
:10472000A11DB11D20932A0880932B0890932C087B
:10473000A0932D08B0932E08809171059091720579
:10474000A0917305B09174050196A11DB11D8093D0
:10475000710590937205A0937305B0937405BF9192
:10476000AF919F918F913F912F910F900FBE0F901E
:104770001F9018950F931F93CF93DF93EC018881BF
:104780009981009729F02A813B812617370788F401
:104790008B016F5F7F4F0E945D33009761F09983BB
:1047A00088831B830A832C813D81232B11F4FC0118
:1047B000108281E001C080E0DF91CF911F910F91C5
:1047C0000895EF92FF920F931F93CF93DF93EC0125
:1047D000FB0184819581E080F1800C811D81E114D1
:1047E000F104B1F00097B9F0080F191FB801CE011C
:1047F0000E94BA23882361F0288139818C819D81B0
:10480000B701820F931F0E9461341D830C8303C084
:10481000CE010E945223CE01DF91CF911F910F91C3
:10482000FF90EF900895EF92FF920F931F93CF9315
:10483000DF93EC017B018A01BA010E94BA23811146
:1048400004C0CE010E94522307C01D830C83B70110
:10485000888199810E946134CE01DF91CF911F91AF
:104860000F91FF90EF900895CF93DF93EC016115C6
:10487000710559F0FB0101900020E9F73197AF0174
:10488000461B570B0E94132402C00E945223CE01E4
:10489000DF91CF910895CF93DF93EC01FB01861751
:1048A000970761F0608171816115710529F044817C
:1048B00055810E94132402C00E945223CE01DF9131
:1048C000CF910895FC01808191810C94C532EF92C3
:1048D000FF920F931F93CF93DF93CDB7DEB7A197CE
:1048E0000FB6F894DEBF0FBECDBF7C01CB01BA017D
:1048F000F70111821082138212821582148242E023
:10490000420F8E010F5F1F4F0E94B92CBC01C701DF
:104910000E943424A1960FB6F894DEBF0FBECDBF1F
:10492000DF91CF911F910F91FF90EF900895FC01BF
:104930001182108213821282158214820C944B24ED
:10494000FC01118210821382128215821482611579
:10495000710551F0FB0101900020E9F73197AF019B
:10496000461B570B0C94132408950F931F93CF935A
:10497000DF93EC010E946423688779878A879B878D
:10498000E881F9810484F585E02DCE01199597FF22
:1049900017C00E946423088519852A853B85DC01A0
:1049A000CB01801B910BA20BB30B0C811D812E81BF
:1049B0003F8180179107A207B30710F38FEF9FEF96
:1049C000DF91CF911F910F9108950F931F93CF9374
:1049D000DF93EC010E946423688779878A879B872D
:1049E000E881F9810284F385E02DCE01199597FFC6
:1049F00017C00E946423088519852A853B85DC0140
:104A0000CB01801B910BA20BB30B0C811D812E815E
:104A10003F8180179107A207B30710F38FEF9FEF35
:104A2000DF91CF911F910F910895AF92BF92CF92D6
:104A3000DF92EF92FF920F931F93CF93DF93FB01CF
:104A400001900020E9F731978F01061B170B19F42D
:104A500020E030E04FC0EB016C01E12CF12CC601ED
:104A60000E94E52497FD44C0FE01EE0DFF1D20814C
:104A7000022E000C330B8217930799F1E114F10415
:104A800021F420E030E07901EACF9701A9014150FB
:104A90005109FE01E40FF51F6081062E000C770B13
:104AA00086179707D1F44115510569F3DE01F70127
:104AB000E41BF50BEC0FFD1F60E070E0AD90B190D2
:104AC000AB1429F064177507F1F29A01DFCF6F5F1D
:104AD0007F4F6417750790F3F5CF41155105A9F77E
:104AE000D0CF97012F5F3F4F2017310761F6B0CF2E
:104AF0002FEF3FEF81E0232B09F080E0DF91CF9192
:104B00001F910F91FF90EF90DF90CF90BF90AF90EB
:104B10000895DC01ED91FC910190F081E02D199454
:104B20006115710579F0FB0101900020E9F73197DB
:104B3000AF01461B570BDC01ED91FC910280F38124
:104B4000E02D199480E090E008954F925F926F926B
:104B50007F92EF92FF920F931F93CF93DF93CDB786
:104B6000DEB7A1970FB6F894DEBF0FBECDBF7C01B4
:104B7000FA01CB0119A2223008F42AE08E010F5D60
:104B80001F4F422E512C612C712CBF01A3019201A9
:104B90000E944A31F901CA01015011096A3014F426
:104BA000605D01C0695CD8016C93232B242B252BFD
:104BB00061F7B801C7010E949025A1960FB6F8943D
:104BC000DEBF0FBECDBFDF91CF911F910F91FF9040
:104BD000EF907F906F905F904F9008950C94902588
:104BE000EF92FF920F931F93CF93DF93EC018C0111
:104BF000085F1F4F7E018881803130F467EF74E0D9
:104C00008FEB96E00E94EE252196F701408150E05F
:104C100060E070E020E18FEB96E00E94A525C017D0
:104C2000D10741F7DF91CF911F910F91FF90EF9046
:104C30000895EF92FF920F931F93CF93DF93EC01B0
:104C40008C01045F1F4F7C018CE3E80EF11C6FE3C5
:104C500074E0C8010E9434240A5F1F4F0E151F051F
:104C6000B1F780E090E0A0ECBFE78CAF9DAFAEAFB6
:104C7000BFAFFE01E05CFF4F80839183A283B383CB
:104C8000349680839183A283B3836FE374E0CE0173
:104C9000865B9F4F0E9434246FE374E0CE01805BFB
:104CA0009F4F0E9434246FE374E0CE018A5A9F4FD5
:104CB0000E9434246FE374E0CE01845A9F4FDF9149
:104CC000CF911F910F91FF90EF900C943424CF93CC
:104CD000DF93CDB7DEB765970FB6F894DEBF0FBE92
:104CE000CDBF789484B5826084BD84B5816084BD75
:104CF00085B5826085BD85B5816085BD80916E007A
:104D0000816080936E0010928100809181008260AA
:104D100080938100809181008160809381008091E7
:104D200080008160809380008091B10084608093D6
:104D3000B1008091B00081608093B00080919100BB
:104D400082608093910080919100816080939100B6
:104D5000809190008160809390008091A10082609A
:104D60008093A1008091A10081608093A100809137
:104D7000A00081608093A0008091210182608093D7
:104D80002101809121018160809321018091200186
:104D900081608093200180917A00846080937A0002
:104DA00080917A00826080937A0080917A0081609D
:104DB00080937A0080917A00806880937A001092C4
:104DC000C10010928B0510928A05109289051092ED
:104DD00088051092870511E01093860510928505CD
:104DE00084E10E946E0E85E10E946E0E8091B900F2
:104DF0008E7F8093B9008091B9008D7F8093B90038
:104E000088E48093B80085E48093BC008091EB0532
:104E1000811129C01092D3051092D20588EE93E03B
:104E2000A0E0B0E08093D4059093D505A093D6057B
:104E3000B093D70584E492E09093D1058093D00598
:104E40008AED92E09093DF058093DE051092E005F5
:104E50001092E1051092E2051092E30584E0809340
:104E6000E8051093EB058DE895E090936F0780932C
:104E70006E076CE271E080E090E00E944E101FB778
:104E8000F89480918C05811126C0E7EEF4E08491BE
:104E9000EDE2F5E09491E82FF0E0EE0FFF1FE25E07
:104EA000FC4FA591B491EC91E92319F485E30E949C
:104EB0006E0E61E085E30E94F30F8CB580618CBDBE
:104EC0008CB580648CBD61E084E30E94F30F61E0E7
:104ED00083E30E94F30F80918C058F5F80938C0594
:104EE0001FBF249A80E590E00E94C11F60E880E027
:104EF00090E00E94141965E58BE190E00E9414197E
:104F000065E58AE190E00E9414190E94C01F80E0CC
:104F100090E4909376058093750580E090E69093F9
:104F20007E0580937D0580E098E4909378058093DA
:104F3000770580E098E69093800580937F0580E078
:104F400090E590937A058093790580E090E79093BF
:104F500082058093810580E098E590937C0580939D
:104F60007B0580E098E7909384058093830580E536
:104F700090E00E94C11F46E050E060E072E089E0EE
:104F800090E00E94E5188AED92E09A8389831B8263
:104F90001C821D821E8244E050E0BE016D5F7F4F87
:104FA0008FE090E00E94E5180E94C01F00916E07FC
:104FB00010916F07D80192961D921D921D921C921E
:104FC0009597F80116A217A210A611A69A961D92FF
:104FD0001D921D921C929D9780E69AEEA0E0B0E093
:104FE00086AB97ABA0AFB1AF80EA9FE0A0E0B0E0A6
:104FF00082AF93AFA4AFB5AFD801189686E0FD019C
:10500000982F11929A95E9F79801225F3F4F94E10A
:10501000F90111929A95E9F7E0E0F2E001900D9222
:105020008A95E1F77801F2E4EF0EF11CD7011C92AA
:105030000E94262D2FEC37E040E050E00E9418310E
:10504000DC01CB010196A11DB11DF801848395837C
:10505000A683B78380839183A283B383C8018D5BCA
:105060009F4F9B8B8A8B0E94B41A64E470E08A89FC
:105070009B890E94C91A882309F487C10E9464236E
:105080002B013C011D8A1C8AD12C43E0342E58EEA2
:10509000852E53E0952EA12CB12C62E0C62ED701AF
:1050A0008C91833009F4FFC081111FC0F801848105
:1050B0009581A681B7810196A11DB11D8483958339
:1050C000A683B7830E94642364197509860997092A
:1050D000A50194010E944A31A90161E0C8010E9422
:1050E000E50E81E0D7018C93C0C08430F1F4F80163
:1050F00084819581A681B7810196A11DB11D84830C
:105100009583A683B7830E94642364197509860971
:105110009709A50194010E944A31A90163E0C801E1
:105120000E94E50ED701CC92A0C0813051F5F80164
:1051300042AD53AD64AD75AD9E012F5F3F4FC801C9
:105140000E940313D82EF2E08F138FC089819A81B9
:10515000AB81BC81F80184839583A683B7830E94C9
:1051600064236419750986099709A50194010E94B1
:105170004A31A90163E0C8010E94E50ED701DC9223
:105180007AC0823009F071C0F80142AD53AD64AD10
:1051900075AD9E012F5F3F4FC8010E940313D82EAB
:1051A000F5E08F135CC0D7013C92F80182A193A176
:1051B000A4A1B5A1892B8A2B8B2B41F484E893E021
:1051C000A0E0B0E082A393A3A4A3B5A3F80186A1B5
:1051D00097A1A0A5B1A5892B8A2B8B2B61F482A165
:1051E00093A1A4A1B5A1B695A7959795879586A3F8
:1051F00097A3A0A7B1A7F80182A593A5A4A5B5A5DB
:10520000892B8A2B8B2BA9F482A193A1A4A1B5A1F0
:10521000AC01BD0123E076956795579547952A9592
:10522000D1F7841B950BA60BB70B82A793A7A4A756
:10523000B5A7F80186A197A1A0A5B1A586A797A7B4
:10524000A0ABB1AB82A593A5A4A5B5A582AB93AB4A
:10525000A4ABB5AB81E090E09D8B8C8B0CC096E04D
:10526000891303C0D7011C9206C0BFEFDB1203C035
:10527000F7011082D12C8C899D89019709F40FCFF9
:105280000E946423DC01CB0184199509A609B709A2
:10529000F80126A937A940AD51AD281739074A07AB
:1052A0005B0708F0FCCE8A899B890E94B41AF8013A
:1052B00084819581A681B7810196A11DB11D84834A
:1052C0009583A683B7830E946423F801FE966083CA
:1052D0007183828393838C899D89019709F055C0DE
:1052E00080E590E00E94C11F60916E0770916F078A
:1052F000625F7F4FCE0101960E94D81644E050E0D5
:10530000BE016D5F7F4F8FE090E00E94E5186091D5
:105310006E0770916F076A5E7F4FCE0101960E9403
:10532000D81644E050E0BE016D5F7F4F81E090E011
:105330000E94E51860916E0770916F076E5E7F4F57
:10534000CE0101960E94D81644E050E0BE016D5F88
:105350007F4F85E090E00E94E5180E94C01F609199
:105360006E0770916F07625E7F4FCE0101960E94BB
:10537000D8168B819C81AD81BE8180936A07909302
:105380006B07A0936C07B0936D078BEE97E090933B
:105390007107809370078091FA079091FB07A091A5
:1053A000FC07B091FD078093760790937707A09351
:1053B0007807B0937907109273071092720780E50F
:1053C00090E090937B0780937A0780E797E00E94B4
:1053D000192688EC90E09093B9078093B807E09184
:1053E000DD07F091DE07138615861486DF011B9614
:1053F00033961E92AE17BF07E1F71092DC0711E05B
:10540000BE01665F7F4F8091DD079091DE070E94AD
:105410009722882309F451C067E0CE010A960E94C2
:105420001F1E99898913ECCF8091D807811127C05D
:105430008091DD079091DE070E94EE1EBE01665F3F
:105440007F4F8091DD079091DE070E94C11E40E0F2
:1054500064EB8091DD079091DE070E947F1E8091B2
:10546000DD079091DE070E942C1E082F8091DD073A
:105470009091DE070E94EE1E002309F4E3C0BE01F6
:105480006F5F7F4FCE010A960E9478210091D90765
:10549000CE010A960E94CD21801718F48091D90779
:1054A00004C0CE010A960E94CD218093D907809135
:1054B000DC078F5F8093DC07A3CFE091CF06F091EC
:1054C000D00682E08083E091CB06F091CC0610827A
:1054D000E091CD06F091CE068FEC80831092D70636
:1054E000E091D306F091D40686E08083E091D10666
:1054F000F091D206808180618083E091D106F091A5
:10550000D206808188608083E091D106F091D20636
:10551000808180688083E091D106F091D2068081FD
:105520008F7D808365E974E08FEB96E00E94EE2525
:1055300069EA74E08FEB96E00E94EE254091DC076B
:1055400050E060E070E02AE08FEB96E00E94A52535
:1055500080EB94E00E9469216AEB74E08FEB96E0A7
:105560000E94EE258091D807882319F08EEC94E0F4
:1055700002C081ED94E00E94692160E08BEF95E02C
:105580000E94400D811104C085ED94E00E946921C4
:1055900061E083EF95E00E94400D811104C089EF26
:1055A00094E00E9469216DE175E08FEB96E00E9426
:1055B000EE258BEF95E00E94F0250E94632160E3C9
:1055C00075E08FEB96E00E94EE2583EF95E00E9458
:1055D000F0250E9463218BEF95E00E94082283EF63
:1055E00095E00E94082263E475E08FEB96E00E944C
:1055F000EE258BEF95E00E94CD21482F50E060E032
:1056000070E02AE08FEB96E00E94A5250E946321BE
:1056100069E575E08FEB96E00E94EE2583EF95E05B
:105620000E94CD21482F50E060E070E02AE08FEB2F
:1056300096E00E94A5250E9463210E94D4020E9448
:10564000E015FBCF1093D8071ACFCF93DF938CECE4
:1056500097E00E94622486EC97E00E94622480EC2E
:1056600097E00E9462248AEB97E00E9462248CE714
:1056700097E0892B61F0C0E0D0E0CE018A55984FC9
:105680000E9462242697C03D8FEFD807B1F7DF91C3
:10569000CF910895CF93DF938AED92E09093BA066D
:1056A0008093B9061092BB061092BC061092BD06FC
:1056B0001092BE069093FF078093FE071092000899
:1056C00010920108109202081092030890930508A6
:1056D0008093040810920608109207081092080898
:1056E000109209081092C2061092C10648EE53E0CB
:1056F00060E070E04093C3065093C4066093C50613
:105700007093C60622E732E03093C0062093BF06AE
:1057100025EC30E03093CC062093CB0624EC30E02F
:105720003093CE062093CD0620EC30E03093D006A7
:105730002093CF0621EC30E03093D2062093D1069F
:1057400022EC30E03093D4062093D30626EC30E0F0
:105750003093D6062093D5061092D8061092D9061B
:105760001092DA061092DB0610925F0710925E0725
:1057700040936007509361076093620770936307DB
:1057800024E832E030935D0720935C0790930B0888
:1057900080930A0810920C0810920D0810920E08BF
:1057A00010920F089093110880931008109212081D
:1057B000109213081092140810921508909317086D
:1057C00080931608109218081092190810921A085F
:1057D00010921B08909369078093680710926A07DC
:1057E00010926B0710926C0710926D079093D3077D
:1057F0008093D2071092D4071092D5071092D60743
:105800001092D707109271071092700710927307C9
:105810001092720790937507809374078091D40754
:105820009091D507A091D607B091D70780937607BE
:1058300090937707A0937807B093790780E590E07D
:1058400090937B0780937A07C0E0D0E06FE374E029
:10585000CE018458984F0E94A0242696C033D105CB
:10586000A9F76FE374E08AEB97E00E94A0246FE34E
:1058700074E080EC97E00E94A0246FE374E086EC73
:1058800097E00E94A0246FE374E08CEC97E00E9404
:10589000A02480E797E00E94192688EC90E090937E
:1058A000B9078093B8078AED92E09093F907809347
:1058B000F8071092FA071092FB071092FC0710925B
:1058C000FD071092EE071092ED0788EE93E0A0E03E
:1058D000B0E08093EF079093F007A093F107B093A7
:1058E000F20784EB92E09093EC078093EB0784E05F
:1058F0008093F70760E082E00E94F30FEAEFF4E0A4
:10590000E491E0931C08E4EBF4E0E491F0E0EE0FA6
:10591000FF1FE856FB4F8591949190931E0880934A
:105920001D08109227081092290810922808E7E213
:10593000F8E0129288E0EF31F807D9F78DE69CE1A4
:105940009093EA078093E9078CE198E09093DE0753
:105950008093DD071092DC071092D80789E08093CE
:10596000D90781E08093DA078093DB07DF91CF913D
:105970000895EF920F931F93CF93DF93E80147FDB4
:1059800002C034E001C034E1E42F440FFF0BF7FF05
:1059900003C0F195E195F109E32E022F2E2FAE0100
:1059A0000E947E2DCE01DF91CF911F910F91EF903C
:1059B00008958F929F92AF92BF92CF92DF92EF9213
:1059C000FF92CF93DF93EC01688179818A819B817B
:1059D000611571058105910521F464E279ED8BE58E
:1059E00097E02DE133EF41E050E00E94183149018A
:1059F0005A019B01AC01A7EAB1E40E9437316B0167
:105A00007C01ACEEB4EFA50194010E944531DC01AC
:105A1000CB018C0D9D1DAE1DBF1DB7FF03C00197AF
:105A2000A109B04888839983AA83BB83BC01CD01B7
:105A30009F77DF91CF91FF90EF90DF90CF90BF9055
:105A4000AF909F908F9008950C94D92C88E092E0AD
:105A50000C94D92C609308027093090280930A0277
:105A600090930B020895BB272A3051F4992342F4F6
:105A7000BDE290958095709561957F4F8F4F9F4FB8
:105A80000C94432DBB27FA01A62F621771058105DF
:105A90009105330B30FB66F0AA27660F771F881F2E
:105AA000991FAA1FA21710F0A21B63953850A9F7DF
:105AB000A05DAA3308F0A95DA19336F7B111B193A7
:105AC0001082CA010C94E42FBB27FB015527AA279B
:105AD000880F991FAA1FA41710F0A41B839550517B
