:100000000C948D000C94BE000C94BE000C94BE00A9
:100010000C94BE000C94BE000C94BE000C94BE0068
:100020000C94BE000C94BE000C94BE000C94BE0058
:100030000C94BE000C94BE000C94BE000C94BE0048
:100040000C94BE000C94BE000C94BE000C94BE0038
:100050000C94BE000C94BE000C94BE000C948A0656
:100060000C94BE000C94FE060C94D4060C94BE00B6
:100070000C94BE000C94BE000C94BE000C94BE0008
:100080000C94BE000C94BE000C94BE000C94BE00F8
:100090000C94BE000C94BE000C94BE000C94BE00E8
:1000A0000C94BE000C94BE000C94BE000C94BE00D8
:1000B0000C94BE000C94BE000C94BE000C94BE00C8
:1000C0000C94BE000C94BE000C94BE000C94BE00B8
:1000D0000C94BE000C94BE000C94BE000C94BE00A8
:1000E0000C94BE000C94F8050C940A010C94630166
:1000F0000C9434070C94F0050C94FB000C94E80568
:100100000C941E010C94EC050C94AA010C94F405BB
:100110000C942C010C94CC00340711241FBECFEF9B
:10012000D1E2DEBFCDBF00E00CBF12E0A0E0B2E044
:10013000ECEDF3E100E00BBF02C007900D92AE3989
:10014000B107D9F723E0AEE9B2E001C01D92A33AAE
:10015000B207E1F710E0CDE8D0E000E006C021975B
:100160000109802FFE010E94D009CC38D10780E020
:100170000807A9F70E94B4070C94EC090C9400003E
:100180002FB7F8946091BE027091BF028091C002B7
:100190009091C1022FBF0895CF92DF92EF92FF920C
:1001A0000F931F93CF93DF936C017A018B01C0E013
:1001B000D0E0CE15DF0589F0D8016D918D01D60113
:1001C000ED91FC910190F081E02DC6011995892BEC
:1001D00011F47E0102C02196ECCFC701DF91CF91CF
:1001E0001F910F91FF90EF90DF90CF9008950895A9
:1001F00080E090E00895FC01538D448D252F30E080
:10020000842F90E0821B930B541710F0CF96089523
:1002100001970895FC01918D828D981761F0828D70
:10022000DF01A80FB11D5D968C91928D9F5F9F732A
:10023000928F90E008958FEF9FEF0895FC01918DCC
:10024000828D981731F0828DE80FF11D858D90E039
:1002500008958FEF9FEF0895FC01918D228D892FD6
:1002600090E0805C9F4F821B91098F7399270895BE
:1002700082EC92E00E942C0121E0892B09F420E01D
:10028000822F0895FC01848DDF01A80FB11DA35AB0
:10029000BF4F2C91848D90E001968F739927848FA6
:1002A000A689B7892C93A089B1898C9180648C939D
:1002B000938D848D981306C00288F389E02D808188
:1002C0008F7D80830895EF92FF920F931F93CF93BA
:1002D000DF93EC0181E0888F9B8D8C8D981305C096
:1002E000E889F989808185FD24C0F62E0B8D10E008
:1002F0000F5F1F4F0F731127E02E8C8DE8120CC07B
:100300000FB607FCFACFE889F989808185FFF5CF20
:10031000CE010E944201F1CF8B8DFE01E80FF11D4D
:10032000E35AFF4FF0820B8FEA89FB89808180625C
:1003300007C0EE89FF896083E889F989808180643C
:10034000808381E090E0DF91CF911F910F91FF902A
:10035000EF900895CF93DF93EC01888D8823C9F047
:10036000EA89FB89808185FD05C0A889B9898C91BE
:1003700086FD0FC00FB607FCF5CF808185FFF2CF59
:10038000A889B9898C9185FFEDCFCE010E944201E9
:10039000E7CFDF91CF91089580E090E0892B21F0A5
:1003A0000E943801811125C080E090E0892B41F046
:1003B00080E090E0892B21F00E94000081111CC098
:1003C00080E090E0892B41F080E090E0892B21F0E3
:1003D0000E940000811113C080E090E0892BA1F001
:1003E00080E090E0892B81F00E94000081110AC01A
:1003F00008950E940000D8CF0E940000E1CF0E9423
:100400000000EACF0C94000008956093AE02709350
:10041000AF028093B0029093B102DC01CB01845D06
:100420009E4FAF4FBF4F8093AA029093AB02A09311
:10043000AC02B093AD0282E090E09093A902809369
:10044000A8020E94C0006093A4027093A50280934A
:10045000A6029093A7020895CF92DF92EF92FF92A7
:100460000F931F930E94C000C090A402D090A502D9
:10047000E090A602F090A7028B019C010C191D09C7
:100480002E093F098091AE029091AF02A091B00277
:10049000B091B102083E134021053105D0F001961C
:1004A000A11DB11D8093AE029093AF02A093B00244
:1004B000B093B102B701A60148515C4F6F4F7F4F17
:1004C0004093A4025093A5026093A6027093A702E2
:1004D000C9CF4091AA025091AB026091AC027091D9
:1004E000AD0284179507A607B70788F1E091A2022D
:1004F000F091A302309759F11995611571058105A5
:10050000910519F00E94050222C08091AE029091DF
:10051000AF02A091B002B091B102845D9E4FAF4F87
:10052000BF4F8093AA029093AB02A093AC02B0930A
:10053000AD0281E090E02091A8023091A902232B26
:1005400011F480E090E09093A9028093A80260915A
:10055000AE027091AF028091B0029091B1021F91F2
:100560000F91FF90EF90DF90CF9008954F925F92A0
:100570006F927F928F929F92AF92BF92CF92DF92B3
:10058000EF92FF920F931F93CF93DF934B015C0188
:1005900080919E0290919F02A091A002B091A10231
:1005A00088169906AA06BB0609F4C2C08CE3C82EB9
:1005B000D12CE12CF12CC501B401A70196010E94B8
:1005C0008F096093B202CA01B901A70196010E9486
:1005D0008F096093B302CA01B90128E130E040E01D
:1005E00050E00E948F0969017A016093B402CA0148
:1005F000B9016C5F7F4F8F4F9F4F27E030E040E0A5
:1006000050E00E948F096F5F6093B502412C512C1E
:10061000320140E004E610E0C0E9D1E0242F30E0F0
:100620002E54384FF901E370FF27309789F4C90140
:10063000B8010E947B09892B31F4C901BE010E94D7
:100640007B09892B29F48EE691E0A0E0B0E004C09C
:100650008DE691E0A0E0B0E0480E591E6A1E7B1EB8
:10066000D301C201AA27BB27C816D906EA06FB0692
:1006700010F04F5FD3CF4093B802309799F4C9017F
:1006800064E670E00E947B09892B39F4C90160E9B6
:1006900071E00E947B09892B29F48EE691E0A0E0AD
:1006A000B0E004C08DE691E0A0E0B0E0481A590A3D
:1006B0006A0A7B0AC418D508E608F708C90164E687
:1006C00070E00E947B09EC01C90160E971E00E94C1
:1006D0007B09A0E0B2E020E0213039F4309749F402
:1006E000209729F4009729F402C04C9103C04DE1F2
:1006F00001C04CE150E060E070E0C416D506E606AB
:10070000F70640F0C41AD50AE60AF70A2F5F1196D9
:100710002C3011F72F5F2093B702C394C092B6021A
:1007200080929E0290929F02A092A002B092A1029B
:10073000DF91CF911F910F91FF90EF90DF90CF90BD
:10074000BF90AF909F908F907F906F905F904F90F1
:1007500008952F923F924F925F926F927F928F9265
:100760009F92AF92BF92CF92DF92EF92FF92CF9380
:10077000DF93CDB7DEB728970FB6F894DEBF0FBE74
:10078000CDBF1C010E942C026B017C01D1011A9685
:100790008C911A97982F9F702EE0290F2F7023307D
:1007A00008F039C116964D915D916D917C91199724
:1007B000C416D506E606F70608F42DC1923061F49A
:1007C00012968D919D910D90BC91A02DF101868383
:1007D0009783A087B1871FC1933009F050C0D10122
:1007E00012968D909D90AD90BC9015970E942C0212
:1007F00020E8422E21E5522E66246394712CA30139
:1008000092010E948F0960E871E581E090E00E940A
:100810006B09DC01CB01880D991DAA1DBB1DF101DF
:1008200082809380A480B580C816D906EA06FB06AC
:10083000A8F0C701B601A30192010E948F092F5FA2
:100840003F4F4F4F5F4F60E871E581E090E00E94BD
:100850006B09860E971EA81EB91EA5C0C701B6015A
:10086000A30192010E948F0960E871E581E090E0A8
:100870000E946B09860E971EA81EB91EC2C0943036
:1008800009F0C5C0D10112964D905D906D907C909D
:1008900015970E942C0269837A838B839C830E9424
:1008A0002C024B015C010E942C026D837E838F839E
:1008B000988729813A814B815C81240D351D461D25
:1008C000571D29833A834B835C8380E8482E81E55A
:1008D000582E66246394712CC501B401A3019201C2
:1008E0000E948F0989809A80AB80BC80861A970A03
:1008F000A80AB90A6D817E818F819885A301920132
:100900000E948F09CA01B9016C5F7F4F8F4F9F4FC3
:1009100027E030E040E050E00E948F099B01AC01ED
:1009200060E871E581E090E00E946B09A501940107
:10093000261B370B480B590BF10182809380A48052
:10094000B580C216D306E406F506A8F1F0E88F0ECE
:10095000FAE39F1EF9E0AF1EB11C8C0C9D1CAE1C6F
:10096000BF1CC701B601A30192010E948F09861A1C
:10097000970AA80AB90ACA01B9016C5F7F4F8F4F65
:100980009F4F27E030E040E050E00E948F099B013C
:10099000AC0160E871E581E090E00E946B09861A85
:1009A000970AA80AB90AD10116968D929D92AD9226
:1009B000BC92199730C08C0C9D1CAE1CBF1CC7018B
:1009C000B601A30192010E948F09861A970AA80A0C
:1009D000B90ACA01B9016C5F7F4F8F4F9F4F27E063
:1009E00030E040E050E00E948F099B01AC0160E8DC
:1009F00071E581E090E00E946B09861A970AA80AC7
:100A0000B90AF10186829782A086B18604C08F7EE2
:100A1000D1011A968C93F10182858F70813061F437
:100A200082819381A481B581C80ED91EEA1EFB1E66
:100A3000C682D782E086F18628960FB6F894DEBF8C
:100A40000FBECDBFDF91CF91FF90EF90DF90CF90A1
:100A5000BF90AF909F908F907F906F905F904F90DE
:100A60003F902F9008958F929F92BF92CF92DF92E6
:100A7000EF92FF920F931F93CF93DF931F92CDB707
:100A8000DEB76B017C014A01C8010297039728F089
:100A9000C8010197029788F40AC029830E942C029A
:100AA00029816115724E8F4D914090F755C0C11448
:100AB000D104E104F10409F44FC0E0E0F0E09BE070
:100AC000BE2E9E9FB0019F9F700D1124AB01475910
:100AD0005C4FDA018C918F70D1F5615A7C4FDB014C
:100AE0008D929C92DA018C9120FB85F90F70807FAA
:100AF000082B0C93DB011296CD92DD92ED92FC92C5
:100B000015970F7011F1015F0F70023020F4CD289E
:100B1000CE28CF2819F18BE08E9F90018F9F300D4A
:100B20001124C901815A9C4FDC014D915C911197B0
:100B3000452BA1F0F901E759FC4F2081206120836A
:100B40001A962C9124FD0E94A9038B2D14C0319676
:100B5000E630F10509F0B4CF8FEF0DC02BE02E9FEA
:100B6000C0012F9F900D1124FC01E759FC4F80819B
:100B70008F7E8083EACF0F90DF91CF911F910F91ED
:100B8000FF90EF90DF90CF90BF909F908F9008954F
:100B9000009769F0FC0101900020E9F73197AF015F
:100BA000481B590BBC0182EC92E00C94CC0080E015
:100BB00090E00895CF93DF930E94C805EC018EE189
:100BC00092E00E94C8058C0F9D1FDF91CF91089580
:100BD00081E292E00C94DA058AE392E00C94DA0563
:100BE00082E592E00C94DA058EE692E00C94DA0548
:100BF0008EE792E00C94DA058F929F92AF92BF92AB
:100C00000F931F93CF93DF93CDB7DEB7A1970FB6A6
:100C1000F894DEBF0FBECDBF19A2423008F44AE0FF
:100C20008E010F5D1F4F842E912CA12CB12CA5019C
:100C300094010E948F09E62FB901CA0101501109E0
:100C4000EA3014F4E05D01C0E95CD801EC93232B99
:100C5000242B252B61F7C8010E94C805A1960FB669
:100C6000F894DEBF0FBECDBFDF91CF911F910F91E2
:100C7000BF90AF909F908F900895CF92DF92EF92A8
:100C8000FF92CF93DF936B017C01E091C202F09160
:100C9000C3020190F081E02D6DE282EC92E01995A3
:100CA000EC0166277727CB016C197D098E099F0916
:100CB0004AE00E94FC058C0F9D1FDF91CF91FF90B1
:100CC000EF90DF90CF9008950E94E709CF93DF93D4
:100CD000EC018CE992E00E94C805CA30D1055CF4B1
:100CE000E091C202F091C3020190F081E02D60E337
:100CF00082EC92E01995BE01DD0F880B990B97FFEE
:100D000004C0DF91CF910C943D064AE0DF91CF9172
:100D10000C94FC051F920F920FB60F9211242F9383
:100D20003F938F939F93AF93BF938091BE02909117
:100D3000BF02A091C002B091C1023091BD0223E078
:100D4000230F2D3720F40196A11DB11D05C026E803
:100D5000230F0296A11DB11D2093BD028093BE02F8
:100D60009093BF02A093C002B093C1028091B902D8
:100D70009091BA02A091BB02B091BC020196A11D54
:100D8000B11D8093B9029093BA02A093BB02B093B5
:100D9000BC02BF91AF919F918F913F912F910F9086
:100DA0000FBE0F901F9018951F920F920FB60F92C3
:100DB00011240BB60F922F933F934F935F936F9332
:100DC0007F938F939F93AF93BF93EF93FF9382ECA7
:100DD00092E00E944201FF91EF91BF91AF919F91EC
:100DE0008F917F916F915F914F913F912F910F90D4
:100DF0000BBE0F900FBE0F901F9018951F920F9271
:100E00000FB60F9211240BB60F922F938F939F93CF
:100E1000EF93FF93E091D202F091D3028081E091B1
:100E2000D802F091D90282FD12C090818091DB023C
:100E30008F5F8F732091DC02821751F0E091DB020B
:100E4000F0E0EE53FD4F958F8093DB0201C080816F
:100E5000FF91EF919F918F912F910F900BBE0F906B
:100E60000FBE0F901F9018951092C5021092C402E9
:100E700088EE93E0A0E0B0E08093C6029093C702B2
:100E8000A093C802B093C90280E192E09093C3029C
:100E90008093C20285EC90E09093CF028093CE02C3
:100EA00084EC90E09093D1028093D00280EC90E0AB
:100EB0009093D3028093D20281EC90E09093D5027C
:100EC0008093D40282EC90E09093D7028093D60274
:100ED00086EC90E09093D9028093D8021092DB02C6
:100EE0001092DC021092DD021092DE02AFE5B3E058
:100EF000FD018285807C828716821782108611868A
:100F00001282138214821582118210823B9683E032
:100F1000E13AF80771F71092A10320E030E09BE07E
:100F2000929FF001939FF00D1124E759FC4F8081AF
:100F3000482F4F7039F42F5F3F4F1B9626303105F5
:100F400079F70895807E808311961C921E921296E6
:100F50001D921D921D921C92159716961D921D9220
:100F60001D921C921997E7CF789484B5826084BD56
:100F700084B5816084BD85B5826085BD85B581609D
:100F800085BD80916E00816080936E00109281001B
:100F900080918100826080938100809181008160D6
:100FA0008093810080918000816080938000809197
:100FB000B10084608093B1008091B0008160809323
:100FC000B0008091910082608093910080919100A7
:100FD0008160809391008091900081608093900067
:100FE0008091A10082608093A1008091A100816026
:100FF0008093A1008091A00081608093A0008091E7
:101000002101826080932101809121018160809380
:1010100021018091200181608093200180917A00DC
:10102000846080937A0080917A00826080937A0055
:1010300080917A00816080937A0080917A00806844
:1010400080937A001092C100E091D202F091D30215
:1010500082E08083E091CE02F091CF021082E09195
:10106000D002F091D1028FEC80831092DA02E091ED
:10107000D602F091D70286E08083E091D402F0910D
:10108000D502808180618083E091D402F091D50205
:10109000808188608083E091D402F091D5028081C4
:1010A00080688083E091D402F091D50280818F7DA9
:1010B000808389E28093B80281E08093B7028093B5
:1010C000B60288E08093B4028DE18093B30210925F
:1010D000B20222EB37E090E8892E9FE3992E91E14E
:1010E000A92E9DE4B92EE4E6F0E0C0E9D1E0C90103
:1010F00083709927892B99F4C901BF010E947B094C
:10110000892B31F4C901BE010E947B09892B39F476
:1011100080E8880E81E5981E81E0A81EB11C2F5F33
:101120003F4F2B3D87E0380711F7C501B401645BE1
:1011300078488F4F9F4F0E94050203E010E020E0A7
:1011400048EE55E068E877E780E090E00E943305DC
:1011500020E04CEE55E06CE979EF80E090E00E94F1
:10116000330504E010E020E040EF55E066EA70E669
:1011700088E090E00E94330501E010E020E044EFB9
:1011800055E06FE070E080E090E00E94330521E0E0
:1011900048EF55E06AE070E080E090E00E9433059F
:1011A0008BE0F82EEE24E3940E942C020E94B602FB
:1011B0006091B40270E080E090E04AE00E94FC059B
:1011C0000E942C020E94B6028091B30290E00E941D
:1011D00066060E942C020E94B6028091B20290E044
:1011E0000E9466068EE192E00E94C8050E94C0003F
:1011F0004B015C010E94C000DC01CB0188199909F8
:10120000AA09BB09893E9340A105B10508F041C078
:101210008091A1038111EECFE092A1031092A2036D
:10122000E091A203E63090F5FE9EF0011124E7590B
:10123000FC4F808184FF24C00E942C022091A203D5
:10124000F29EE0011124DE01A15ABC4F16964D908A
:101250005D906D907C9019976415750586059705CE
:1012600078F00D911C911197C759DC4F888185FF4B
:1012700017C0263088F00115110511F0F8011995F5
:101280008091A2038F5F8093A203CACF1092A10323
:10129000B1CF0E94CC0188CF982F9F7061F309C015
:1012A0001A968C911A9784FFE6CFCD010E94A9036C
:1012B000E2CF807E888311961C921E9212961D9218
:1012C0001D921D921C92159716961D921D921D92AD
:1012D0001C921997D0CFDB018F939F930E94B10985
:1012E000BF91AF91A29F800D911DA39F900DB29FC2
:1012F000900D1124089597FB072E16F4009407D043
:1013000077FD09D00E94BC0907FC05D03EF49095FA
:1013100081959F4F0895709561957F4F0895A1E243
:101320001A2EAA1BBB1BFD010DC0AA1FBB1FEE1F5F
:10133000FF1FA217B307E407F50720F0A21BB30BAA
:10134000E40BF50B661F771F881F991F1A9469F726
:1013500060957095809590959B01AC01BD01CF0182
:1013600008950E94D809A59F900DB49F900DA49F49
:10137000800D911D11240895AA1BBB1B51E107C0CC
:10138000AA1FBB1FA617B70710F0A61BB70B881F15
:10139000991F5A95A9F780959095BC01CD010895A4
:1013A000EE0FFF1F881F8BBF0790F691E02D199459
:1013B000A29FB001B39FC001A39F700D811D112496
:1013C000911DB29F700D811D1124911D089581E022
:0C13D00090E0F8940C94EC09F894FFCF26
:1013DC001F1C1F1E1F1E1F1F1E1F1E1F0000000094
:1013EC006301CC00FB00AA012C010A011E010D0AAD
:1013FC0000416C61726D3A202D207475726E206CF8
:10140C006967687473206F666600416C61726D3A2F
:10141C00202D207475726E206C6967687473206F50
:10142C006E00416C61726D3A202D20697473204DF1
:10143C006F6E646179204D6F726E696E6700313525
:10144C00207365636F6E642074696D6572005468F7
:10145C0069732074696D6572206F6E6C792074727B
:0E146C00696767657273206F6E6365003A00F2
:00000001FF
