:100000000C9472010C94A3010C94A3010C94A30111
:100010000C94A3010C94A3010C94A3010C94A301D0
:100020000C94A3010C94A3010C94A3010C94A301C0
:100030000C94A3010C94A3010C94A3010C94A301B0
:100040000C94A3010C94A3010C94A3010C94A301A0
:100050000C94A3010C94A3010C94A3010C947E05B1
:100060000C94A3010C94F2050C94C8050C94A30104
:100070000C94A3010C94A3010C94A3010C94A30170
:100080000C94A3010C94A3010C94A3010C94A30160
:100090000C94A3010C94A3010C94A3010C94A30150
:1000A0000C94A3010C94A3010C94A3010C94A30140
:1000B0000C94A3010C94A3010C94A3010C94A30130
:1000C0000C94A3010C94A3010C94A3010C94A30120
:1000D0000C94A3010C94A3010C94A3010C94A30110
:1000E0000C94A3010C941D020C94CB010C942806D3
:1000F0000C9409020C94A9020C9462020C94FA016B
:100100000C942B020C94A501005EBCE2613FDD83E0
:10011000C29C7E20A3FD1F419DC3217FFCA2401EE7
:100120005F01E3BD3E6082DC237D9FC1421CFEA0D7
:10013000E1BF5D0380DE3C62BEE0025CDF81633DC7
:100140007C22C09E1D43A1FF4618FAA427799BC5B7
:1001500084DA3866E5BB5907DB856739BAE40658A7
:100160001947A5FB7826C49A653BD987045AB8E697
:10017000A7F91B45C6987A24F8A6441A99C7257B87
:100180003A6486D85B05E7B98CD2306EEDB3510F77
:100190004E10F2AC2F7193CD114FADF3702ECC9267
:1001A000D38D6F31B2EC0E50AFF1134DCE90722C57
:1001B0006D33D18F0C52B0EE326C8ED0530DEFB147
:1001C000F0AE4C1291CF2D73CA947628ABF5174937
:1001D0000856B4EA6937D58B5709EBB536688AD427
:1001E00095CB2977F4AA4816E9B7550B88D6346A17
:1001F0002B7597C94A14F6A8742AC896154BA9F707
:10020000B6E80A54D7896B35000022002500280083
:100210002B002E003100340002010000050108010E
:100220000B0100002100240027002A002D003000CF
:10023000330001010000040107010A010000200051
:100240002300260029002C002F00320000010000AE
:100250000301060109010505050507050808080849
:10026000020202020A0A080804040404010101014E
:100270000101010103030303030303030407070749
:100280000C0C0C0C0C0C0C0C0202020206060606EE
:10029000060606060B0B0B0B0B0B0B0B01021020BB
:1002A00020080810204010204080020102010804AC
:1002B0000201010204081020408080402010080440
:1002C0000201800402018040201008040201080499
:1002D00002010102040810204080010204081020DD
:1002E0004080280611241FBECFEFD1E2DEBFCDBF74
:1002F00000E00CBF12E0A0E0B2E0E2E5F7E100E0D0
:100300000BBF02C007900D92AE39B107D9F723E0B9
:10031000AEE9B2E001C01D92A536B207E1F711E0E7
:10032000C2E7D1E000E006C021970109802FFE015D
:100330000E949A0BC137D10780E00807A9F70E94F5
:10034000C7060C94A70B0C94000008953FB7F894CF
:100350008091A3029091A402A091A502B091A6025F
:1003600026B5A89B05C02F3F19F00196A11DB11D10
:100370003FBFBA2FA92F982F8827820F911DA11D4B
:10038000B11DBC01CD0142E0660F771F881F991F88
:100390004A95D1F70895CF92DF92EF92FF920F9393
:1003A0001F93CF93DF936C017A018B01C0E0D0E003
:1003B000CE15DF0589F0D8016D918D01D601ED9143
:1003C000FC910190F081E02DC6011995892B11F463
:1003D0007E0102C02196ECCFC701DF91CF911F9122
:1003E0000F91FF90EF90DF90CF900895089580E0F7
:1003F00090E00895FC01538D448D252F30E0842F2B
:1004000090E0821B930B541710F0CF96089501973C
:100410000895FC01918D828D981761F0828DDF0126
:10042000A80FB11D5D968C91928D9F5F9F73928FE7
:1004300090E008958FEF9FEF0895FC01918D828DDC
:10044000981731F0828DE80FF11D858D90E00895A9
:100450008FEF9FEF0895FC01918D228D892F90E001
:10046000805C9F4F821B91098F739927089587EABB
:1004700092E00E942B0221E0892B09F420E0822FD8
:100480000895FC01848DDF01A80FB11DA35ABF4F51
:100490002C91848D90E001968F739927848FA68983
:1004A000B7892C93A089B1898C9180648C93938DAA
:1004B000848D981306C00288F389E02D80818F7D9A
:1004C00080830895EF92FF920F931F93CF93DF9352
:1004D000EC0181E0888F9B8D8C8D981305C0E88995
:1004E000F989808185FD24C0F62E0B8D10E00F5F09
:1004F0001F4F0F731127E02E8C8DE8120CC00FB622
:1005000007FCFACFE889F989808185FFF5CFCE0114
:100510000E944102F1CF8B8DFE01E80FF11DE35ADD
:10052000FF4FF0820B8FEA89FB898081806207C0D0
:10053000EE89FF896083E889F989808180648083FE
:1005400081E090E0DF91CF911F910F91FF90EF90AC
:100550000895CF93DF93EC01888D8823C9F0EA8951
:10056000FB89808185FD05C0A889B9898C9186FDAC
:100570000FC00FB607FCF5CF808185FFF2CFA889A9
:10058000B9898C9185FFEDCFCE010E944102E7CF62
:10059000DF91CF91089580E090E0892B21F00E94B7
:1005A0003702811125C080E090E0892B41F080E086
:1005B00090E0892B21F00E94000081111CC080E096
:1005C00090E0892B41F080E090E0892B21F00E949F
:1005D0000000811113C080E090E0892BA1F080E041
:1005E00090E0892B81F00E94000081110AC00895DB
:1005F0000E940000D8CF0E940000E1CF0E940000BE
:10060000EACF0C9400000895DC01E0E0615038F07E
:100610008D91E827F0E0E85FFE4FE491F7CF8E2F51
:100620000895FC0190810180F281E02DF894818190
:10063000892B81832281892F809528232283A7E01B
:10064000B0E01197F1F7218182238183A3E2B0E02A
:100650001197F1F780817894EFECF0E03197F1F7A2
:10066000982381E009F480E00895FC0190810180E5
:10067000F281E02D892F809560FF12C0F8942281CD
:10068000822382838181892B8183A3E2B0E0119749
:10069000F1F78281982B9283789487ED90E011C0D6
:1006A000F8942281822382838181892B8183AFEF19
:1006B000B0E01197F1F78281982B928378948FE0C4
:1006C00090E00197F1F70895CF92DF92EF92FF92B9
:1006D0000F931F93CF93DF931F92CDB7DEB76C01BB
:1006E000E62E08E010E0FF24F39461E08F2D8E21C8
:1006F00009F460E0C60149830E943503FF0C0150F4
:10070000110949810115110581F7411115C0F894AE
:10071000D6011196ED91FC91129791818C91809563
:10072000892381831196ED91FC91129792818C918E
:1007300080958923828378940F90DF91CF911F91C8
:100740000F91FF90EF90DF90CF900895CF92DF92BE
:10075000EF92FF920F931F93CF93DF931F92CDB72A
:10076000DEB78C01F62E40E065E579830E946403D4
:10077000CF2C7981D72E760188E0E80EF11CF601A6
:1007800061916F0140E0C8010E946403CE14DF0450
:10079000B1F70F90DF91CF911F910F91FF90EF90E4
:1007A000DF90CF900895FC0190810180F281E02DCF
:1007B000F8948181292F20958223818378948DE775
:1007C00043E050E0815021F1DA011197F1F73081D7
:1007D0003923C1F3F8948281822382838181892B1A
:1007E00081837894ABE7B7E01197F1F7F8948181B2
:1007F00028232183A3E1B1E01197F1F780819823A9
:1008000081E009F080E07894E3E6F6E03197F1F7D3
:100810000895AF92BF92CF92DF92EF92FF920F9323
:100820001F93CF93DF93EC018B018091490390914B
:100830004A030E94D3038823A1F1BE01809149039A
:1008400090914A030E94A60340E06EEB8091490319
:1008500090914A030E946403E801680189E0C80E90
:10086000D11CA0904903B0904A0388E0E82EF12CF7
:1008700001E010E0C5010E9411038111102B000F4F
:1008800081E0E81AF108B1F71993CC15DD0549F7B5
:100890008091490390914A030E94D30391E08130F3
:1008A00009F090E0892FDF91CF911F910F91FF9078
:1008B000EF90DF90CF90BF90AF900895CF93DF93EC
:1008C000CDB7DEB729970FB6F894DEBF0FBECDBF08
:1008D000FC012081203119F1BE016F5F7F4F0E9422
:1008E0000904882379F068E0CE0101960E94040390
:1008F0009985891307C008C0803458F08F3569F096
:100900008F3769F080E00CC08D818F33A9F78AE0C2
:1009100007C08F31B9F789E003C08BE001C08CE0DC
:1009200029960FB6F894DEBF0FBECDBFDF91CF91F1
:100930000895AF92BF92CF92DF92EF92FF920F9302
:100940001F93CF93DF931F92CDB7DEB75C01D62EF6
:10095000E72EFC018585811105C0C5010E94D303E6
:10096000811106C0F50113861586148680E065C0E6
:1009700040E060EFC5010E94640301E0F12CC12C4E
:1009800011E0C5010E941103682FC50169830E940F
:1009900011036981613019F48130B9F433C04F2DEE
:1009A00050E068131BC0F5018385181730F4E40F7D
:1009B000F51F8381802349F402C0181731F060E0ED
:1009C000193058F4F501148708C0F501EF0DF11D39
:1009D0008381802B838361E009C0C12EF501E40F80
:1009E000F51F9381802F809589238383C5010E9401
:1009F00035031F5F000F11F4F39401E0F7E0FF15DA
:100A000008F0BFCF113408F4ADCFF501C386C11093
:100A100002C081E08587F5018381882309F4A2CF94
:100A2000D5011396ED2DFE2D9501255F3F4F8D913C
:100A30008193A217B307D9F781E00F90DF91CF918F
:100A40001F910F91FF90EF90DF90CF90BF90AF90EC
:100A50000895009769F0FC0101900020E9F73197B3
:100A6000AF01481B590BBC0187EA92E00C94CB0103
:100A700080E090E008958F929F92AF92BF920F9383
:100A80001F93CF93DF93CDB7DEB7A1970FB6F8943E
:100A9000DEBF0FBECDBF19A2423008F44AE08E017E
:100AA0000F5D1F4F842E912CA12CB12CA501940118
:100AB0000E94640BE62FB901CA0101501109EA3006
:100AC00014F4E05D01C0E95CD801EC93232B242BE6
:100AD000252B61F7C8010E942905A1960FB6F8944D
:100AE000DEBF0FBECDBFDF91CF911F910F91BF90A1
:100AF000AF909F908F9008950E94A20B1F920F922B
:100B00000FB60F9211242F933F938F939F93AF9320
:100B1000BF9380919F029091A002A091A102B091F9
:100B2000A20230919E0223E0230F2D3720F401967C
:100B3000A11DB11D05C026E8230F0296A11DB11D00
:100B400020939E0280939F029093A002A093A10203
:100B5000B093A2028091A3029091A402A091A50259
:100B6000B091A6020196A11DB11D8093A30290939E
:100B7000A402A093A502B093A602BF91AF919F914A
:100B80008F913F912F910F900FBE0F901F9018954E
:100B90001F920F920FB60F9211240BB60F922F9344
:100BA0003F934F935F936F937F938F939F93AF93F5
:100BB000BF93EF93FF9387EA92E00E944102FF9177
:100BC000EF91BF91AF919F918F917F916F915F91C5
:100BD0004F913F912F910F900BBE0F900FBE0F9032
:100BE0001F9018951F920F920FB60F9211240BB6FB
:100BF0000F922F938F939F93EF93FF93E091B70200
:100C0000F091B8028081E091BD02F091BE0282FDB8
:100C100012C090818091C0028F5F8F732091C102BA
:100C2000821751F0E091C002F0E0E955FD4F958F39
:100C30008093C00201C08081FF91EF919F918F91BD
:100C40002F910F900BBE0F900FBE0F901F90189515
:100C5000CF93DF931092AA021092A90288EE93E03C
:100C6000A0E0B0E08093AB029093AC02A093AD0201
:100C7000B093AE028AE092E09093A8028093A7021C
:100C800085EC90E09093B4028093B30284EC90E002
:100C90009093B6028093B50280EC90E09093B802F6
:100CA0008093B70281EC90E09093BA028093B902EE
:100CB00082EC90E09093BC028093BB0286EC90E0C3
:100CC0009093BE028093BD021092C0021092C102A6
:100CD0001092C2021092C302EEE9F2E02491E8E51C
:100CE000F2E084918823C1F090E0880F991FFC0105
:100CF000EE5DFD4FC591D491FC01E85FFD4FA591DC
:100D0000B4919FB7F8948881E22FE0958E23888371
:100D10008C91E823EC939FBFEEE9F2E0E491E0933D
:100D20005703E8E5F2E0E491F0E0EE0FFF1FE45C2A
:100D3000FD4F85919491909359038093580310929D
:100D400062031092640310926303E2E6F3E01292EE
:100D500083E0EA35F807D9F785EA91E090935603E6
:100D60008093550387E593E090934A03809349036A
:100D7000109248031092440389E08093450381E078
:100D80008093460380934703DF91CF910895CF93DB
:100D9000DF93CDB7DEB761970FB6F894DEBF0FBE15
:100DA000CDBF789484B5826084BD84B5816084BDF4
:100DB00085B5826085BD85B5816085BD80916E00F9
:100DC000816080936E00109281008091810082602A
:100DD0008093810080918100816080938100809167
:100DE00080008160809380008091B1008460809356
:100DF000B1008091B00081608093B000809191003B
:100E00008260809391008091910081608093910035
:100E1000809190008160809390008091A100826019
:100E20008093A1008091A10081608093A1008091B6
:100E3000A00081608093A000809121018260809356
:100E40002101809121018160809321018091200105
:100E500081608093200180917A00846080937A0081
:100E600080917A00826080937A0080917A0081601C
:100E700080937A0080917A00806880937A00109243
:100E8000C100E091B702F091B80282E08083E09166
:100E9000B302F091B4021082E091B502F091B60273
:100EA0008FEC80831092BF02E091BB02F091BC02F4
:100EB00086E08083E091B902F091BA02808180617E
:100EC0008083E091B902F091BA02808188608083CA
:100ED000E091B902F091BA02808180688083E0914C
:100EE000B902F091BA0280818F7D808388E192E01F
:100EF0000E94290583E492E00E942905E0914903BC
:100F0000F0914A03138615861486DF011B963396EB
:100F10001E92AE17BF07E1F71092480311E0BE0121
:100F2000665F7F4F8091490390914A030E94990424
:100F3000882309F4FBC067E0CE010A960E940403EF
:100F400099898913ECCF80914403811127C0809146
:100F5000490390914A030E94D303BE01665F7F4F0D
:100F60008091490390914A030E94A60340E064EBFC
:100F70008091490390914A030E9464038091490340
:100F800090914A030E941103F82E80914903909199
:100F90004A030E94D303FF2009F4B0C1BE016F5F72
:100FA0007F4FCE010A960E940904F0904503CE01BE
:100FB0000A960E945E048F1518F48091450304C0C0
:100FC000CE010A960E945E048093450380914803F7
:100FD0008F5F80934803A3CFE0914503E950E3304E
:100FE00008F0C5C0F0E0EE0FFF1FE050FE4F80811B
:100FF00091816C01990FEE08FF080E94A6014B0138
:101000005C01C114D104E104F10409F0C4C081E61B
:1010100092E00E94290583E492E00E94290586E679
:1010200092E00E942905E0914903F0914A0313865A
:1010300015861486DF011B96CF0103961E92A81712
:10104000B907E1F7BE01665F7F4FCF010E949904A7
:10105000882309F4AEC067E0CE010A960E9404031B
:1010600099898913A6C0BE016F5F7F4FCE010A9692
:101070000E940904882309F446C168E0CE01019664
:101080000E940403998589133EC1698188E0689FA5
:10109000B00111248A81282F30E0322F2227330F0C
:1010A000330F330F262B372B8A85803109F029C166
:1010B000688570E08F81AB01481B5109CA01969584
:1010C000982F8827979587950E94500B605171093A
:1010D000207F53E0220F331F5A95E1F7620F731FF1
:1010E000613854EE75070CF464C0072E000C880BB1
:1010F000990B0E94290A20E030E040E05CE30E9466
:10110000DE0A6B017C01A7019601C701B6010E94AE
:101110004B0B882309F454C082E992E00E94290510
:1011200083E492E00E9429050E94CB0286E492E0CB
:101130000E9429058091490390914A030E94D3039C
:1011400040E06CEC8091490390914A030E94640353
:101150004091440364E48091490390914A030E94C2
:10116000640380914603882309F451CF35CF8EEE76
:1011700092E03FCF21E0C21AD108E108F10848EE21
:10118000840E43E0941EA11CB11CC114D104E104DF
:10119000F10409F436CF0E94A601DC01CB018819C5
:1011A0009909AA09BB09883E9340A105B10510F72A
:1011B00028CFC12CD12C9EEFE92E92ECF92EA3CF93
:1011C00046015701E894B7F82FEF3FEF4FE75FE78D
:1011D000C501B4010E944B0B81110DC02FEF3FEFF1
:1011E0004FE75FE7C501B4010E94F30918161CF42C
:1011F00086E992E093CF2FEF3FEF4FE75FE4C7011F
:10120000B6010E94D90A18161CF48AE992E086CF2A
:101210002FEF3FEF4FE75FECC701B6010E94F309E4
:1012200087FDF3CF20E030E0A901C701B6010E949D
:10123000F30987FF0FC0E091A702F091A802019087
:10124000F081E02D6DE287EA92E01995F7FAF094CB
:10125000F7F8F0942AE037ED43EA5BE3C701B60103
:101260000E9487094B015C010E94F8096B017C0117
:101270000E94270A9B01AC01C501B4010E948609A6
:101280004B015C014AE0C701B6010E943B05E091B9
:10129000A702F091A8020190F081E02D6EE287EAAA
:1012A00092E0199520E030E040E251E4C501B4013C
:1012B0000E94DE0A4B015C010E94F8096B01E12CDF
:1012C000F12C4AE0C701B6010E943B05C701B601F7
:1012D0000E94270A9B01AC01C501B4010E94860946
:1012E00020E030E040E251E40E94DE0A0E94F8096A
:1012F00080E090E04AE00E943B0512CF1093440347
:101300004DCEB901EDCE60E874EEEACE5058BB2761
:10131000AA270E949E090C949F0A0E94910A38F005
:101320000E94980A20F039F49F3F19F426F40C9497
:101330008E0A0EF4E095E7FB0C94880AE92F0E94D0
:10134000B00A58F3BA17620773078407950720F0AD
:1013500079F4A6F50C94D20A0EF4E0950B2EBA2F70
:10136000A02D0B01B90190010C01CA01A0011124AB
:10137000FF27591B99F0593F50F4503E68F11A1657
:10138000F040A22F232F342F4427585FF3CF4695E8
:1013900037952795A795F0405395C9F77EF41F160A
:1013A000BA0B620B730B840BBAF09150A1F0FF0FD4
:1013B000BB1F661F771F881FC2F70EC0BA0F621FC0
:1013C000731F841F48F4879577956795B795F795B0
:1013D0009E3F08F0B0CF9395880F08F09927EE0F45
:1013E0009795879508950E94640A08F481E008950E
:1013F0000E94B80A88F09F5798F0B92F9927B751E3
:10140000B0F0E1F0660F771F881F991F1AF0BA95A8
:10141000C9F714C0B13091F00E94D20AB1E008952A
:101420000C94D20A672F782F8827B85F39F0B93F1C
:10143000CCF3869577956795B395D9F73EF490955B
:101440008095709561957F4F8F4F9F4F0895E894D9
:1014500009C097FB3EF490958095709561957F4FFC
:101460008F4F9F4F9923A9F0F92F96E9BB279395AA
:10147000F695879577956795B795F111F8CFFAF4BA
:10148000BB0F11F460FF1BC06F5F7F4F8F4F9F4FEB
:1014900016C0882311F096E911C0772321F09EE849
:1014A000872F762F05C0662371F096E8862F70E0AF
:1014B00060E02AF09A95660F771F881FDAF7880F89
:1014C0009695879597F90895990F0008550FAA0BDF
:1014D000E0E8FEEF16161706E807F907C0F0121647
:1014E0001306E407F50798F0621B730B840B950B4A
:1014F00039F40A2661F0232B242B252B21F408959F
:101500000A2609F4A140A6958FEF811D811D08953B
:1015100097F99F6780E870E060E008959FEF80ECA6
:10152000089500240A941616170618060906089549
:1015300000240A9412161306140605060895092EAF
:101540000394000C11F4882352F0BB0F40F4BF2B1E
:1015500011F460FF04C06F5F7F4F8F4F9F4F08955E
:1015600057FD9058440F551F59F05F3F71F0479554
:10157000880F97FB991F61F09F3F79F08795089539
:10158000121613061406551FF2CF4695F1DF08C058
:10159000161617061806991FF1CF86957105610575
:1015A00008940895E894BB2766277727CB0197F91D
:1015B00008950E94640A08F48FEF08950E94F10ACA
:1015C0000C949F0A0E94910A38F00E94980A20F019
:1015D000952311F00C94880A0C948E0A11240C9413
:1015E000D30A0E94B00A70F3959FC1F3950F50E0A3
:1015F000551F629FF001729FBB27F00DB11D639FC5
:10160000AA27F00DB11DAA1F649F6627B00DA11D6A
:10161000661F829F2227B00DA11D621F739FB00D10
:10162000A11D621F839FA00D611D221F749F332780
:10163000A00D611D231F849F600D211D822F762F19
:101640006A2F11249F5750409AF0F1F088234AF0F6
:10165000EE0FFF1FBB1F661F771F881F9150504062
:10166000A9F79E3F510580F00C94880A0C94D30A88
:101670005F3FE4F3983ED4F3869577956795B795E9
:10168000F795E7959F5FC1F7FE2B880F911D969503
:10169000879597F908950E94640A880B990B08951D
:1016A00097FB072E16F4009407D077FD09D00E940F
:1016B000860B07FC05D03EF4909581959F4F0895C9
:1016C000709561957F4F0895A1E21A2EAA1BBB1B4E
:1016D000FD010DC0AA1FBB1FEE1FFF1FA217B307FE
:1016E000E407F50720F0A21BB30BE40BF50B661F14
:1016F000771F881F991F1A9469F7609570958095D8
:1017000090959B01AC01BD01CF010895AA1BBB1BA5
:1017100051E107C0AA1FBB1FA617B70710F0A61BF1
:10172000B70B881F991F5A95A9F780959095BC0112
:10173000CD010895EE0FFF1F881F8BBF0790F69114
:10174000E02D199481E090E0F8940C94A70BF894A4
:02175000FFCFC9
:101752005E00BC007701000000006202CB01FA01CA
:10176200A9022B0209021D0244616C6C61732054B0
:10177200656D706572617475726520494320436FAF
:101782006E74726F6C204C6962726172792044656A
:101792006D6F000D0A0052657175657374696E672D
:1017A2002074656D7065726174757265732E2E2E6C
:1017B20000444F4E450054656D70657261747572D8
:1017C2006520666F7220746865206465766963655A
:1017D20020312028696E6465782030292069733AA7
:0E17E20020006E616E00696E66006F76660014
:00000001FF
