:100000000C94FA010C942B020C942B020C942B02EE
:100010000C942B020C942B020C942B020C942B02AC
:100020000C942B020C942B020C942B020C942B029C
:100030000C942B020C942B020C942B020C942B028C
:100040000C942B020C942B020C942B020C942B027C
:100050000C942B020C942B020C942B020C94E4179E
:100060000C942B020C942B020C942B020C942B025C
:100070000C942B020C942B020C942B020C942B024C
:100080000C942B020C942B020C942B020C942B023C
:100090000C942B020C942B020C942B020C942B022C
:1000A0000C942B020C942B020C942B020C942B021C
:1000B0000C942B020C942B020C942B020C942B020C
:1000C0000C942B020C942B020C942B020C942B02FC
:1000D0000C942B020C942B020C942B020C942B02EC
:1000E0000C942B022E1C311C201C241C281C681C68
:1000F000351C391C3F1C431C471C4D1C511C551CF6
:10010000681C5B1C5F1C631C0C946F020C94E20D5A
:100110000C94551C0C945B1C0C9447020C943E0EE2
:100120000C94CA020C944B020C941C0F0C946202A7
:100130000C942E1C0C9471040C94351C0C94241CEF
:100140000C94F1020C9430040C942C0E0C949E022E
:100150000C94431C0C9464020C943C050C946E05A6
:100160000C94631C0C9466060C9434160C944A038D
:100170000C94681C0C945F1C0C94311C0C948E0223
:100180000C94BD030C9478020C94201C0C94CE02A9
:100190000C944D1C0C949A020C94AA0F0C948B1F77
:1001A0000C943F1C0C94281C0C9406050C94471CC2
:1001B0000C94E8020C9498020C949D020C942D026D
:1001C0000C94131B0C94AC050C944D040C94770206
:1001D0000C949E040C94391C0C94511C0C945B02DE
:1001E0000C94A1020C9443020C9422100C94F2057E
:1001F00000407A10F35A00A0724E18090010A5D4DE
:10020000E80000E87648170000E40B54020000CA3A
:100210009A3B000000E1F505000080969800000080
:1002200040420F000000A0860100000010270000DF
:100230000000E803000000006400000000000A0065
:10024000000000000100000000002C76D888DC6768
:100250004F0823DFC1DFAE59E1B1B796E5E3E453C0
:10026000C63AE651997696E8E6C28426EB898C9BDD
:1002700062ED407C6FFCEFBC9C9F40F2BAA56FA57D
:10028000F490055A2AF75C936B6CF9676DC11BFCFF
:10029000E0E40D47FEF520E6B500D0ED902E03001A
:1002A000943577050080841E080000204E0A000067
:1002B00000C80C333333330F986E12831141EF8D26
:1002C0002114893BE65516CFFEE6DB18D1844B3866
:1002D0001BF77C1D901DA4BBE424203284725E2297
:1002E0008100C9F124ECA1E53D2700000A0B0209B9
:1002F0000C0D0E08070304010000000000000000C0
:1003000000000000000000000000000000000000ED
:1003100000000000000012111000000000000000AA
:1003200000000000000000000000000000000000CD
:1003300000002200250028002B002E003100340090
:1003400002010000050108010B010000210024004A
:1003500027002A002D0030003300010100000401B5
:1003600007010A0105050505070508080808020236
:1003700002020A0A0808040404040101010101013F
:1003800001010303030303030303040707070C0C22
:100390000C0C0C0C0C0C02020202060606060606E9
:1003A00006060B0B0B0B0B0B0B0B0102102020088E
:1003B00008102040102040800201020108040201C0
:1003C000010204081020408080402010080402012F
:1003D0008004020180402010080402010804020188
:1003E000010204081020408001020408102040800F
:1003F0008B1F131B11241FBECFEFD1E2DEBFCDBF79
:1004000000E00CBF14E0A0E0B2E0E6E9FFE400E0A9
:100410000BBF02C007900D92A635B107D9F725E0B2
:10042000A6E5B4E001C01D92AB38B207E1F711E0D8
:10043000C9EFD1E000E006C021970109802FFE013D
:100440000E947225C83FD10780E00807A9F70E94E3
:10045000381B0C94B9270C940000CF93DF931F92A4
:10046000CDB7DEB76983DC01ED91FC910280F381A9
:10047000E02D41E050E0BE016F5F7F4F19950F9076
:10048000DF91CF910895FC01818D928D0895FC013B
:1004900084899589089520EB32E0FC013183208323
:1004A000FB014089518962897389FC01428353832E
:1004B000648375830895DC01ED91FC91048CF58DC6
:1004C000E02D199480E00895FC019485FB0184855A
:1004D000981303C081E0943009F480E0089521E08E
:1004E000FC018485843009F420E0822F089508956A
:1004F000CF93DF931F92CDB7DEB76983DC01ED9117
:10050000FC910280F381E02D41E050E0BE016F5F7D
:100510007F4F19950F90DF91CF910895DC01ED91F8
:10052000FC91068CF78DE02D199591E089270895AF
:10053000862F089581E086270895089580E090E051
:1005400008950F931F93CF93DF931F92CDB7DEB71C
:10055000FC01218D328D232B61F08C0141E050E0B4
:10056000BE016F5F7F4F808D0E94570F18161906CE
:100570001CF08FEF9FEF08C0F801818D928D0197DD
:10058000928F818F898190E00F90DF91CF911F91A1
:100590000F910895FC0184850C94570FCF93DF933E
:1005A0001F92CDB7DEB741E050E0BE016F5F7F4FD5
:1005B000FC0184850E94570F181619061CF48981C6
:1005C00090E002C08FEF9FEF0F90DF91CF910895E1
:1005D000FC018485843011F00C94350F80E090E0AC
:1005E00008950F931F93CF93DF93CDB7DEB728976E
:1005F0000FB6F894DEBF0FBECDBF8C01F801818D20
:10060000928D892B49F0D801ED91FC910284F385FC
:10061000E02DC8011995F2CF808D0E94350F181674
:1006200019065CF548E050E0BE016F5F7F4FD801CE
:1006300058968C910E94570F9C0118161906DCF4ED
:1006400089819A81AB81BC81F801808B918BA28BCF
:10065000B38B8D8190E0982F88272E81820F911D7A
:10066000958B848B2F8130E0322F22278885280FAD
:10067000311D328F218FC90102C080E090E02896A1
:100680000FB6F894DEBF0FBECDBFDF91CF911F91A3
:100690000F910895CF92DF92EF92FF920F931F93E5
:1006A000CF93DF93CDB7DEB7AF970FB6F894DEBF29
:1006B0000FBECDBF7C016A0100EB12E01A830983F3
:1006C0001C861B8688EE93E0A0E0B0E08D879E87B5
:1006D000AF87B88B8EE392E09A878987188F0F8B4C
:1006E000198E1A8E1B8E1C8E84E089A31DA30CA369
:1006F0001EA21FA218A619A68091E8049091E904F1
:10070000A091EA04B091EB048CA79DA7AEA7BFA768
:100710008B839C83AD83BE8318861F82AE014C5DA4
:100720005F4FCE0101960E94B91181309105B1F45D
:10073000D701ED91FC910488F589E02D1BA70AA74C
:100740008EA19FA1A8A5B9A58CA79DA7AEA7BFA75D
:10075000A601BE01665D7F4FC7011995AF960FB622
:10076000F894DEBF0FBECDBFDF91CF911F910F91E7
:10077000FF90EF90DF90CF900895CF92DF92EF92AD
:10078000FF920F931F93CF93DF93CDB7DEB7AF9751
:100790000FB6F894DEBF0FBECDBF7C016A0100EB3F
:1007A00012E01A8309831C861B8688EE93E0A0E082
:1007B000B0E08D879E87AF87B88B8EE392E09A87F3
:1007C0008987188F0F8B198E1A8E1B8E1C8E84E0D2
:1007D00089A31DA30CA31EA21FA218A619A680916F
:1007E000E8049091E904A091EA04B091EB048CA78D
:1007F0009DA7AEA7BFA78B839C83AD83BE831886BE
:100800001F82AE014C5D5F4FCE0101960E94B9116F
:1008100081309105B1F4D701ED91FC910684F78503
:10082000E02D1BA70AA78EA19FA1A8A5B9A58CA7FB
:100830009DA7AEA7BFA7A601BE01665D7F4FC701FA
:100840001995AF960FB6F894DEBF0FBECDBFDF91FE
:10085000CF911F910F91FF90EF90DF90CF9008956F
:10086000CF93DF93EC01888D843061F00E94C90F33
:10087000E88DF0E0EE0FFF1FEA5AFB4F1182108265
:1008800084E0888FDF91CF910895FC0184858430C6
:1008900011F00C94981080E00895CF93DF93FC0141
:1008A00024852430D1F0EC010E944504843181F08C
:1008B000882371F0883161F08C3161F4E881F9812D
:1008C0000084F185E02DCE01199521E0892B19F4E2
:1008D00020E001C021E0822F01C080E0DF91CF91B4
:1008E0000895EF92FF921F93CF93DF93FC01208D29
:1008F000243011F080E01CC07B01EC0110E0812F5E
:100900000E949810811102C0188F05C08831E1F350
:100910001F5F1430A1F7888D843061F3FD86EC866B
:100920001A8E198E20E0A70162E00E94DD0F81E09F
:10093000DF91CF911F91FF90EF9008950F931F9338
:10094000CF93DF931F92CDB7DEB78C01DC01ED9121
:10095000FC910084F185E02D1995892B51F0BE01A1
:100960006F5F7F4FF80184850E94FC0E898190E0C3
:1009700002C08FEF9FEF0F90DF91CF911F910F91EA
:1009800008959B0190E00496982F8827642F820F8A
:10099000931F0C94D90E0F931F93CF93DF931F9245
:1009A000CDB7DEB790E00496982F88278C01060F0C
:1009B000171F0E94590E8FE00E94730E812F0E9414
:1009C000730E802F0E94730E80E00E94730E898345
:1009D0000E94570E89810F90DF91CF911F910F9147
:1009E0000895CF93DF93C82FD62F472F60E170E093
:1009F0000E94C1044D2F61E170E08C2FDF91CF91F7
:100A00000C94C10408958CBD9DBD0895AF92BF9212
:100A1000CF92DF92FF920F931F93CF93DF938C01BE
:100A20005B01EA01FC01C688D788F08C80E590E084
:100A30000E9403058F2D0E947E118C179D0720F4C4
:100A40008F2D0E947E11EC019E01A501B6018F2D14
:100A50000E941911F801868997898C0F9D1F978B29
:100A6000868BCE01DF91CF911F910F91FF90DF9088
:100A7000CF90BF90AF900895CF93FC01C08D80E5DB
:100A800090E00E94030560E270E08C2F0E94D20D7E
:100A900062E070E08C2F0E94CB0484FD15C062E000
:100AA00070E08C2F0E94CB0483FF09C048E162E014
:100AB00070E08C2F0E94C10480E090E00DC080E5C2
:100AC00090E00E940305E4CF40E162E070E08C2FEB
:100AD0000E94C10481E090E0CF910895FF920F93AE
:100AE0001F93CF93DF93FB01DC0157961C921E925C
:100AF00056975896FC908281811109C0838181119B
:100B000006C08481811103C085818823E9F04115E5
:100B10005105D1F08A01EF0180E590E00E940305C4
:100B2000BE016E5F7F4F2F2D30E0922F882744E06B
:100B300050E0845F9B4F0E94AA0EB8018F2D0E9447
:100B4000F10481E090E002C080E090E0DF91CF917D
:100B50001F910F91FF900895CF92DF92EF92FF9235
:100B60001F93CF93DF93FC011485143099F1EC01AE
:100B700080E590E00E94030568E070E0812F0E940C
:100B8000D20D0E94D8176B017C01CE010E94450452
:100B90008823B1F061E070E080E090E00E949E1751
:100BA0000E94D817DC01CB018C199D09AE09BF0941
:100BB000883E9340A105B10540F38C850E94C90F82
:100BC000EC85F0E0EE0FFF1FEA5AFB4F1182108216
:100BD00084E08C87DF91CF911F91FF90EF90DF90A1
:100BE000CF9008958F929F92AF92BF92CF92DF9253
:100BF000EF92FF920F931F93CF936C015B017A01E9
:100C0000FC01C485C43041F481E090E0F601938397
:100C1000828380E090E04EC08A014130584010F05D
:100C200000E018E080E590E00E9403058C2F0E9410
:100C30007E114C0163E070E08C2F0E94CB04873161
:100C400011F08C3121F48016910660F302C000E0AF
:100C500010E080E590E00E9403059801A50160E0A6
:100C600070E08C2F0E94191160E270E08C2F0E94BE
:100C7000D20D62E070E08C2F0E94CB0484FD10C086
:100C800063E070E08C2F0E94CB04811104C08C2F94
:100C90000E94C90FB9CF80E590E00E940305E9CF1B
:100CA00040E162E070E08C2F0E94C104012B09F446
:100CB000ABCFC701CF911F910F91FF90EF90DF90C5
:100CC000CF90BF90AF909F908F900895CF92DF927A
:100CD000FF920F931F93CF93DF93FC012485243061
:100CE00009F077C06A01EB018C01F12C8F2D0E9475
:100CF0009810811103C0F801F48607C08B7F8831FA
:100D0000D1F3F394F4E0FF12F1CFF801848584303D
:100D100009F45FC020910002309101022F5F3F4F24
:100D200011F420E030EC3093010220930002409156
:100D300000025091010220E061E00E94DD0FF80105
:100D4000F4848A818F3F51F48B818F3F91F48C81A1
:100D50008F3F79F48D818F3F61F438C0811109C0D4
:100D60008B81811106C08C81811103C08D81882304
:100D700069F1C114D10451F180E590E00E940305AE
:100D8000BE016E5F7F4F8F2D90E0982F882744E043
:100D900050E0845F9B4F0E94AA0EB6018F2D0E94E7
:100DA000F10464E070E08F2D0E94D20DC8010E9412
:100DB0004504873189F061E070E080E090E00E94B6
:100DC0009E17C8010E9445048111F0CF84E0F8010C
:100DD000848780E090E002C081E090E0DF91CF91D5
:100DE0001F910F91FF90DF90CF900895DC01ED915E
:100DF000FC910488F589E02D199582ED9EEF089508
:100E0000EF92FF920F931F93CF93DF93EC018C012E
:100E1000045F1F4F7C018CE3E80EF11C66EB73E06E
:100E2000C8010E94A8180A5F1F4F0E151F05B1F7D1
:100E300080E090E0A0ECBFE78CAF9DAFAEAFBFAF5E
:100E4000FE01E05CFF4F80839183A283B3833496DD
:100E500080839183A283B38366EB73E0CE01865BCC
:100E60009F4F0E94A81866EB73E0CE01805B9F4FF6
:100E70000E94A81866EB73E0CE018A5A9F4F0E9429
:100E8000A81866EB73E0CE01845A9F4FDF91CF9193
:100E90001F910F91FF90EF900C94A8188F929F9242
:100EA000AF92BF92CF92DF92EF92FF920F931F9378
:100EB000CF93DF93CDB7DEB7AD970FB6F894DEBF13
:100EC0000FBECDBF5A0166EB73E0CE0184960E943F
:100ED00014198AEFE82E84E0F82ECC24C394D12C88
:100EE00011E0D70114968D919C911597892B09F4E7
:100EF00079C0111121C068EB72E0CE0101960E9409
:100F00001419BE016C5D7F4FCE0142960E940B19F1
:100F1000BE016F5F7F4FCE0142960E945518BC0103
:100F2000CE0184960E94BF18CE0142960E94D61828
:100F3000CE0101960E94D61869EC72E0CE0142966D
:100F40000E941419198E188E1B8E1A8E1D8E1C8EDF
:100F50004AE0BE016F5F7F4FC6010E945121BE0172
:100F60006F5F7F4FCE0148960E94A8186AEB72E02F
:100F7000CE0101960E941419BE016C5D7F4FCE0117
:100F80004E960E940B19BE016F5F7F4FCE014E96A9
:100F90000E945518BE01685E7F4F0E945518BE0121
:100FA0006E5E7F4F0E945518B7010E945518BC0114
:100FB000CE0184960E94BF18CE014E960E94D6188C
:100FC000CE0101960E94D618CE0148960E94D618EE
:100FD000CE0142960E94D61866EB73E0C7010E94CC
:100FE000A81810E0BFEFCB1ADB0AE6E0EE0EF11C0A
:100FF000F9E0CF16D10409F074CF60912A05709101
:101000002B0580912C0590912D059B01AC010E9430
:101010006D25811167C0111121C068EB72E0CE010E
:1010200001960E941419BE016C5D7F4FCE0142965D
:101030000E940B19BE016F5F7F4FCE0142960E9446
:101040005518BC01CE0184960E94BF18CE0142966D
:101050000E94D618CE0101960E94D61840912A050A
:1010600050912B0560912C0570912D0522E0CE0149
:1010700001960E94DB1860EC72E0CE0142960E945D
:101080001419BE016C5D7F4FCE0148960E940B196A
:10109000BE016E5E7F4FCE0148960E945518BE017C
:1010A0006F5F7F4F0E945518BC01CE0184960E944D
:1010B000BF18CE0148960E94D618CE0142960E94D3
:1010C000D618CE0101960E94D61880E090E0A0ECE0
:1010D000BFE780932A0590932B05A0932C05B0932E
:1010E0002D0510E060912E0570912F05809130053F
:1010F000909131059B01AC010E946D25811167C063
:10110000111121C068EB72E0CE0101960E94141902
:10111000BE016C5D7F4FCE0142960E940B19BE014D
:101120006F5F7F4FCE0142960E945518BC01CE01E1
:1011300084960E94BF18CE0142960E94D618CE0116
:1011400001960E94D61840912E0550912F0560916E
:1011500030057091310522E0CE0101960E94DB1826
:1011600065EC72E0CE0142960E941419BE016C5DDE
:101170007F4FCE0148960E940B19BE016E5E7F4FD5
:10118000CE0148960E945518BE016F5F7F4F0E94A6
:101190005518BC01CE0184960E94BF18CE01489616
:1011A0000E94D618CE0142960E94D618CE01019612
:1011B0000E94D61880E090E0A0ECBFE780932E0557
:1011C00090932F05A0933005B093310510E0609106
:1011D00032057091330580913405909135059B015E
:1011E000AC010E946D25811167C0111121C068EB0F
:1011F00072E0CE0101960E941419BE016C5D7F4F12
:10120000CE0142960E940B19BE016F5F7F4FCE0147
:1012100042960E945518BC01CE0184960E94BF18C8
:10122000CE0142960E94D618CE0101960E94D61891
:101230004091320550913305609134057091350528
:1012400022E0CE0101960E94DB186BEC72E0CE0129
:1012500042960E941419BE016C5D7F4FCE014896E4
:101260000E940B19BE016E5E7F4FCE0148960E9410
:101270005518BE016F5F7F4F0E945518BC01CE010B
:1012800084960E94BF18CE0148960E94D618CE01BF
:1012900042960E94D618CE0101960E94D61880E090
:1012A00090E0A0ECBFE78093320590933305A093C4
:1012B0003405B093350510E080913C0590913D05D3
:1012C000892B09F45AC0111121C068EB72E0CE01DC
:1012D00001960E941419BE016C5D7F4FCE014296AB
:1012E0000E940B19BE016F5F7F4FCE0142960E9494
:1012F0005518BC01CE0184960E94BF18CE014296BB
:101300000E94D618CE0101960E94D61868E375E0B7
:10131000CE0101960E940B1966ED72E0CE01429655
:101320000E941419BE016C5D7F4FCE0148960E9449
:101330000B19BE016E5E7F4FCE0148960E94551874
:10134000BE016F5F7F4F0E945518BC01CE0184968D
:101350000E94BF18CE0148960E94D618CE01429630
:101360000E94D618CE0101960E94D61866EB73E053
:1013700088E395E00E94A81810E0809142059091C2
:101380004305892B09F45AC0111121C068EB72E0A2
:10139000CE0101960E941419BE016C5D7F4FCE01F3
:1013A00042960E940B19BE016F5F7F4FCE0142969D
:1013B0000E945518BC01CE0184960E94BF18CE0130
:1013C00042960E94D618CE0101960E94D6186EE36E
:1013D00075E0CE0101960E940B196EED72E0CE0110
:1013E00042960E941419BE016C5D7F4FCE01489653
:1013F0000E940B19BE016E5E7F4FCE0148960E947F
:101400005518BE016F5F7F4F0E945518BC01CE0179
:1014100084960E94BF18CE0148960E94D618CE012D
:1014200042960E94D618CE0101960E94D61866EB0D
:1014300073E08EE395E00E94A81810E080914805C3
:1014400090914905892B09F45AC0111121C068EB0C
:1014500072E0CE0101960E941419BE016C5D7F4FAF
:10146000CE0142960E940B19BE016F5F7F4FCE01E5
:1014700042960E945518BC01CE0184960E94BF1866
:10148000CE0142960E94D618CE0101960E94D6182F
:1014900064E475E0CE0101960E940B1967EE72E0DC
:1014A000CE0142960E941419BE016C5D7F4FCE01A1
:1014B00048960E940B19BE016E5E7F4FCE01489682
:1014C0000E945518BE016F5F7F4F0E945518BC01E6
:1014D000CE0184960E94BF18CE0148960E94D6186D
:1014E000CE0142960E94D618CE0101960E94D618CF
:1014F00066EB73E084E495E00E94A81810E0809108
:101500004E0590914F05892B09F45AC0111121C045
:1015100068EB72E0CE0101960E941419BE016C5D69
:101520007F4FCE0142960E940B19BE016F5F7F4F25
:10153000CE0142960E945518BC01CE0184960E94AD
:10154000BF18CE0142960E94D618CE0101960E9485
:10155000D6186AE475E0CE0101960E940B196EEE72
:1015600072E0CE0142960E941419BE016C5D7F4F5D
:10157000CE0148960E940B19BE016E5E7F4FCE01D0
:1015800048960E945518BE016F5F7F4F0E94551804
:10159000BC01CE0184960E94BF18CE0148960E94DD
:1015A000D618CE0142960E94D618CE0101960E940E
:1015B000D61866EB73E08AE495E00E94A81802C092
:1015C00011112EC1BE016C5D7F4FCE0148960E9465
:1015D0000B190091F4041091F5042091F604309158
:1015E000F7048091650590916605A0916705B0911B
:1015F0006805081719072A073B0739F48091F0049A
:101600009091F104892BF1F40EC18091EE04909138
:10161000EF04DC01ED91FC910684F785E02D40910B
:10162000F8045091F90460EB72E07A8369830B83CC
:101630001C832D833E83BE016F5F7F4F199521E090
:10164000892B09F420E06091F0047091F104611598
:10165000710591F08091EE049091EF04DC01ED9121
:10166000FC914091F8045091F9040088F189E02D33
:101670001995892B21F4CDC0222309F4CAC06AEF41
:1016800072E0CE0142960E941419BE01685E7F4F3F
:10169000CE0101960E940B19BE016E5E7F4FCE01F6
:1016A00001960E945518BC01CE0148960E94BF18B1
:1016B000CE0101960E94D618CE0142960E94D618FD
:1016C00065EB73E0CE0142960E941419BE01685E7C
:1016D0007F4FCE0101960E940B19BE016E5E7F4FB7
:1016E000CE0101960E945518BC01CE0148960E9479
:1016F000BF18CE0101960E94D618CE0142960E94D4
:10170000D61869E073E08091EE049091EF040E9496
:10171000FD19892B09F4C9C02091F0043091F1041E
:101720008091EE049091EF04232B59F161E273E074
:101730000E94FD19892B09F4B8C06091F0047091E2
:10174000F1048091EE049091EF040E94FD19892B21
:1017500009F4ABC064EB73E08091EE049091EF0468
:101760000E94FD19892B09F4A0C068E273E0809102
:10177000EE049091EF040E94FD19892B09F495C0A5
:1017800003C06CE373E0ECCF67E573E08091EE0497
:101790009091EF040E94FD19892B09F486C064E63C
:1017A00073E08091EE049091EF040E94FD19892B63
:1017B00009F47BC064EB73E08091EE049091EF0438
:1017C0000E94FD19892B09F470C0A114B10409F419
:1017D00058C06CE873E08091EE049091EF040E9491
:1017E000FD19892B09F461C0B5018091EE04909137
:1017F000EF040E94FD19892B09F457C064EB73E0D4
:101800008091EE049091EF040E94FD19892BC9F597
:101810004CC003ED1EEFCE0148960E94D618AAC117
:101820000EE21FEFA7C18091EE049091EF04DC015E
:10183000ED91FC910088F189E02D40E550E060ECED
:1018400073E01995892B09F01ACF8091EE049091DD
:10185000EF04DC01ED91FC910684F785E02D20EB8F
:1018600032E03A83298328EB2B832AE62C8329E96B
:101870002D8325E92E8340E550E0BE016F5F7F4F49
:10188000F7CE63ED73E08091EE049091EF040E9437
:10189000FD19892B51F061EA73E08091EE0490917B
:1018A000EF040E94FD19892B41F48091EE04909180
:1018B000EF040E94F6068C01AECF4C8D5D8D60E08A
:1018C00070E02AE08091EE049091EF040E94121AD9
:1018D000892B59F362EB73E08091EE049091EF0451
:1018E0000E94FD19892B09F38091EE049091EF0479
:1018F000DC01ED91FC914C8D5D8D688D798D0280C0
:10190000F381E02D1995892B81F266EB73E0CE010E
:1019100042960E9414190E94D8176B017C01809195
:10192000EE049091EF04DC01ED91FC910084F185CF
:10193000E02D1995892BA1F40E94D817DC01CB0169
:101940008C199D09AE09BF0988389341A105B105DD
:1019500038F464E670E080E090E00E949E17DFCFEC
:101960008091EE049091EF04DC01ED91FC910084F4
:10197000F185E02D1995892B09F4A8C067EB73E078
:101980008091EE049091EF040E948919811103C0A7
:1019900001ED1EEF9DC00091EE041091EF04C8010F
:1019A0000E942919FC0197FD0FC08D32910581F02D
:1019B000C0970A9768F0D801ED91FC910284F385F5
:1019C000E02DC8011995EBCF80E090E0DC012CC040
:1019D00020E030E0A901F12CE130F10509F0A7C0C9
:1019E000D801ED91FC910284F385E02DC8012AA76E
:1019F0003BA74CA75DA71995C8010E942919FC01B6
:101A0000C0972AA53BA54CA55DA50A9728F3E13010
:101A1000F10511F3FF2009F4AAC088279927DC01FA
:101A2000821B930BA40BB50B8C01883C910509F02C
:101A30004FC064EB73E08091EE049091EF040E943C
:101A40008919882309F4A4CF63EB73E08091EE0435
:101A50009091EF040E948919882309F499CFC090CE
:101A6000EE04D090EF0466EB73E0CE0101960E9485
:101A70001419C6010E94591997FD1CC08E8F1F8E24
:101A8000ED80FE80BFEFEB1AFB0AB701CE01019695
:101A90000E942E18882369F329813A818D819E81C5
:101AA000BE01625E7F4F820F931F0E94B227FE82AB
:101AB000ED82DFCFBE016F5F7F4FCE0142960E9465
:101AC000BF18CE0101960E94D61802C000ED1EEF8D
:101AD000E090EE04F090EF04083C110549F0D701C6
:101AE000ED91FC910488F589E02DC70119951AC084
:101AF0008A899B89009729F00E94E4204B015C01B0
:101B000003C0812C912C5401D701ED91FC910488E4
:101B1000F589E02DC701199589288A288B2811F4A9
:101B20000FE61EEFCE0142960E94D61874CEED321B
:101B3000F105D1F0CF01C0970A9708F051CFAAE084
:101B4000B0E00E9424254F01FF0FAA08BB08DC016A
:101B5000CB01880D991DAA1DBB1D9C01AD01205311
:101B60003109410951093CCFFF24F39439CFDA01FF
:101B7000C9015ACFCE0184960E94D618C801AD96ED
:101B80000FB6F894DEBF0FBECDBFDF91CF911F918E
:101B90000F91FF90EF90DF90CF90BF90AF909F900C
:101BA0008F900895CF93C82F462F61E070E00E9478
:101BB000C10461E070E08C2F0E94CB048111F9CF49
:101BC000CF9108958F929F92AF92BF92CF92DF9262
:101BD000EF92FF920F931F93CF93DF937C01EB0162
:101BE0006C0182E0C80ED11C4701E5E08E0E911C0D
:101BF00000E010E0F60141916F0150E060E070E01C
:101C00002AE0CE010E94121A5C01E881F98101905C
:101C1000F081E02D6EE2CE0119958A0D9B1D080F13
:101C2000191FC814D90431F7F701458150E060E06D
:101C300070E02AE0CE010E94121A800F911FDF91FE
:101C4000CF911F910F91FF90EF90DF90CF90BF90B9
:101C5000AF909F908F9008950E94972720EB32E0DD
:101C6000FC0131832083FB014081518162817381BA
:101C7000FC014283538364837583089508951F9301
:101C8000CF93DF93182F66E270E00E94CB04C82F39
:101C9000D0E067E270E0812F0E94CB04DC2FCC27DC
:101CA0009E01282BC901DF91CF911F9108952C9A95
:101CB00008952C9808951F93CF93DF93182F60E217
:101CC00070E00E94CB04C82FD0E061E270E0812F69
:101CD0000E94CB04DC2FCC279E01282BC901DF9169
:101CE000CF911F9108958EBD00000DB407FEFDCF6A
:101CF0008EB50895CF92DF92EF92FF920F931F93CC
:101D0000CF93DF93EC017A018B016C01C40ED51ED9
:101D1000CC15DD05A9F00E94590E8FE00E94730ECC
:101D20008D2F0E94730E8C2F0E94730E219680E0DF
:101D30000E94730EF80181938F010E94570EE8CF25
:101D4000C701DF91CF911F910F91FF90EF90DF902E
:101D5000CF900895CF92DF92EF92FF920F931F934F
:101D6000CF93DF93EC017A018B016C01C40ED51E79
:101D7000CC15DD05A1F00E94590E80EF0E94730E74
:101D80008D2F0E94730E8C2F0E94730E2196F801E6
:101D900081918F010E94730E0E94570EE9CFC701F7
:101DA000DF91CF911F910F91FF90EF90DF90CF9037
:101DB00008951F93CF93DF931F921F92CDB7DEB785
:101DC000182F6A8399830E94590E80EF0E94730E28
:101DD0009981892F0E94730E812F0E94730E6A8150
:101DE000862F0E94730E0E94570E81E00F900F9075
:101DF000DF91CF911F9108951F93CF93DF931F928F
:101E00001F92CDB7DEB7182F80E590E069837A8303
:101E10000E94030521E041E050E069817A81812F31
:101E20000E94B1100E94020581E090E00F900F9097
:101E3000DF91CF911F910895CF93DF931F92CDB77C
:101E4000DEB7FC01218D328D232B49F0BE016F5F7F
:101E50007F4F808D0E94FC0E898190E002C08FEF41
:101E60009FEF0F90DF91CF910895FF920F931F93F3
:101E7000CF93DF93F82E80E590E00E940305C0E049
:101E8000D0E08F2D0E943F0E8C01892B21F08F2DE9
:101E90000E943F0EEC01C017D10799F70E9402057E
:101EA000CE01DF91CF911F910F91FF900895AF92D6
:101EB000BF92CF92DF92EF92FF921F93CF93DF9367
:101EC000182F5B017A0180E590E00E940305C0E0D5
:101ED000D0E0812F0E943F0E6C01892B21F0812FD1
:101EE0000E943F0EEC01CC15DD0599F7209799F47F
:101EF00063E070E0812F0E94CB048431F1F08823ED
:101F0000E1F0C1E0D0E08C3111F4C0E0D0E0D19537
:101F1000C195D10912C0EC16FD060CF4E7011C16A0
:101F20001D065CF420E0AE01B501812F0E94B110C6
:101F300060E470E0812F0E94D20D0E940205CE0164
:101F4000DF91CF911F91FF90EF90DF90CF90BF90E6
:101F5000AF900895CF93DF93FC01218D328D211531
:101F6000310519F48FEF9FEF11C0EC0142175307B1
:101F700008F0A901888D0E94570F1816190694F7CA
:101F8000298D3A8D281B390B3A8F298FDF91CF91FC
:101F90000895CF93C82F80E590E00E94030560E18B
:101FA00070E08C2F0E94D20D4FEF62E070E08C2F1A
:101FB0000E94C104CF910C940205FF920F931F93CE
:101FC000CF93DF931F921F92CDB7DEB7F82E8A0111
:101FD0002A8369830E94C90F80E590E00E9403056F
:101FE0002A816981462F422B60E070E08F2D0E948C
:101FF000C1040115110551F40091D5041091D604C6
:102000000F5F1F4F1093D6040093D504412F64E057
:1020100070E08F2D0E94C104402F65E070E08F2D8D
:102020000E94C10461E070E08F2D0E94D20D0E94D9
:10203000020581E00F900F90DF91CF911F910F91DA
:10204000FF900895BF92CF92DF92EF92FF920F938D
:102050001F93CF93DF9300D000D0CDB7DEB7FC0144
:10206000208D243009F053C06A017B018C01B12C12
:1020700063E070E08B2D0E94CB04811103C0F80156
:10208000B08E06C08831D9F3B394F4E0BF12F0CF1C
:10209000F801808D8430D9F196E0E2E6F2E0DE01CD
:1020A000119601900D929A95E1F7F70193819F7730
:1020B0009C8394819D8395819E83B7016E5F7F4F42
:1020C00090E0982F882744E050E0845F9B4F0E9467
:1020D000AA0EB601F801808D0E94F104F801808DEE
:1020E00090E0982F882746E050E0BE016F5F7F4F59
:1020F0008A5F9B4F0E94AA0EF801128E118E20E873
:10210000A60162E0808D0E94DD0F81E001C080E0C9
:1021100026960FB6F894DEBF0FBECDBFDF91CF91EC
:102120001F910F91FF90EF90DF90CF90BF90089597
:102130001F93CF93DF931F92CDB7DEB7182F80E5A3
:1021400090E00E94030563E070E0812F0E94CB04C1
:1021500089830E94020589810F90DF91CF911F91A1
:1021600008958F929F92AF92BF92CF92DF92EF929B
:10217000FF920F931F93CF93DF93B82E4B018A01E9
:10218000A22E68E270E00E94CB04C82FD0E069E282
:1021900070E08B2D0E94CB04DC2FCC27C82B9E0136
:1021A0003770CB2CD12CC601880F991FAC014A592E
:1021B0005B4F6A01FA0180819181820F931FA80110
:1021C000420F531F4130584098F060E078E07B01A7
:1021D000E21AF30AA701B4010E947A0EA8014E196F
:1021E0005F09B4016E0D7F1DF6018081918102C0EF
:1021F000A801B4010E947A0EA1100EC0C00FD11F19
:102200004D2F68E270E08B2D0E94C1044C2F69E2D3
:1022100070E08B2D0E94C104DF91CF911F910F912F
:10222000FF90EF90DF90CF90BF90AF909F908F90F6
:1022300008959F92AF92BF92CF92DF92EF92FF925A
:102240000F931F93CF93DF93982E8B015A0169014F
:1022500064E270E00E94CB04E82EF12C65E270E0AD
:10226000892D0E94CB04FE2CEE24E82AE701C00F42
:10227000D11F9E013770E92CF12CC701880F991FDF
:10228000AC01425A5B4F7A01FA0180819181820F41
:10229000931FA9014C0D5D1D4130584090F000E0A6
:1022A00018E0021B130BA801B5010E94AA0EA6019B
:1022B000401B510BB501600F711FF70180819181A7
:1022C00002C0A601B5010E94AA0ECC0DDD1D4D2F46
:1022D00064E270E0892D0E94C1044C2F65E270E039
:1022E000892DDF91CF911F910F91FF90EF90DF909B
:1022F000CF90BF90AF909F900C94C104FF920F932A
:102300001F93CF93DF93F82EC0E0D0E08F2D0E9473
:102310005B0E8C01892B21F08F2D0E945B0EEC014E
:10232000C017D10799F7CE01DF91CF911F910F917F
:10233000FF90089590E0FC01E655FC4F2491FC01CC
:10234000EC59FC4F8491882399F090E0880F991FF5
:10235000FC01E65BFC4FA591B491FC01E05DFC4FF4
:10236000859194918FB7F894EC91E22BEC938FBF09
:1023700008952F923F924F925F926F927F928F9229
:102380009F92AF92BF92CF92DF92EF92FF920F9304
:102390001F93CF93DF93CDB7DEB765970FB6F89451
:1023A000DEBF0FBECDBF7C016B013A01FB0120E017
:1023B00080E090E06AE03191332309F140ED430F72
:1023C0004A3080F4689FA001699F500D1124CA0112
:1023D000C097830F911D37FD9A958F3F910559F353
:1023E00050F313C03E3289F4233079F0D301A20FA9
:1023F000B11D12968C932F5F80E090E0DCCF2330EC
:1024000021F4F301858381E021C0F70142815381EA
:10241000648175818091E2049091E304A091E404C9
:10242000B091E504481759076A077B0709F49EC174
:102430000E94D8178701085F1F4F6F7077277C5F56
:10244000C8010E947104813019F080E090E0F3C16E
:1024500080EB92E09A838983F70182819381A48142
:10246000B5818B839C83AD83BE8345E350E0BE0181
:102470006F5F7F4FC8010E946E05892B19F4C12C34
:10248000D12C6FC10E94D817F70177836683762716
:10249000672776277A83698342E050E0BE016F5F49
:1024A0007F4FC8010E94060581E090E09E878D87DE
:1024B00042E050E0BE01635F7F4FC8010E94060505
:1024C00080E091E09E878D8742E050E0BE01635F2F
:1024D0007F4FC8010E9406051E861D8642E050E01F
:1024E000BE01635F7F4FC8010E94060542E050E0D5
:1024F000BE01635F7F4FC8010E94060542E050E0C5
:10250000BE01635F7F4FC8010E9406055601F501B9
:102510008081882311F1F6015F018191811115C03D
:1025200045018C189D081814190494F48F8641E015
:1025300050E0BE01615F7F4FC8010E940605A40103
:10254000B601C8010E94060503C08E3229F7E8CF04
:102550006501FFEFCF1ADF0ADACF1F8641E050E0B6
:10256000BE01615F7F4FC8010E940605C12CDD24BA
:10257000D394DE86CD8642E050E0BE01635F7F4F9C
:10258000C8010E940605DE86CD8642E050E0BE010D
:10259000635F7F4FC8010E940605C8010E943C0589
:1025A000892B09F46CCF63E0A62EB12CF2E06F0EFC
:1025B000711C0E94D8171B012C01C8010E94F10256
:1025C00018161906A4F00E94D817DC01CB01821955
:1025D0009309A409B50989389341A105B105D0F43F
:1025E00062E370E080E090E00E949E17E6CFF70182
:1025F0004281538164817581808D918DA28DB38DCF
:10260000481759076A077B0741F4848D958DC59754
:1026100021F406C02FEF3FEF9AC02EEF3FEF97C097
:10262000F70181A192A10C970CF4A6C04CE050E0F8
:10263000BE016F5F7F4FC8010E94AA0F8B8190E09F
:10264000982F88272C81822B9A8B898B298130E0C7
:10265000322F22274A81242BF701468157814217C6
:10266000530709F086C097FF84C08F709270892B42
:1026700009F0DEC0CF80D12CDC2CCC248885C82A80
:10268000C114D10409F4D1C0812C912C8D8190E02A
:10269000982F88272E81822B8816990608F46FC000
:1026A000812C912C41E050E0BE016D5E7F4FC8014E
:1026B0000E94AA0F8B89982F907C09F093C08111FA
:1026C00086C08B898111EECF42E050E0BE01615F90
:1026D0007F4FC8010E94AA0F42E050E0BE01635F35
:1026E0007F4FC8010E94AA0FC8010E94A102C80121
:1026F0000E94A102C8010E94A102C8010E94A10279
:1027000042E050E0BE016F5E7F4FC8010E94AA0FF9
:102710008F8598898115914009F069C02D853E8586
:102720003227232732272130310509F060C08989FB
:102730009A898115944009F075C044E050E0B301D6
:10274000C8012C8B3D8B0E94AA0F2C893D89690101
:10275000F1E0AF1AB10829F02FEFC216D20609F442
:1027600028CFC8010E943004C60165C08EEF9FEFDC
:1027700062C02CEF3FEFEBCF2DEF3FEFE8CF41E012
:1027800050E0BE01635F7F4FC8010E94AA0F8D8594
:10279000811113C08D858111F2CFC8010E94A10261
:1027A000C8010E94A102C8010E94A102C8010E94A2
:1027B000A102FFEF8F1A9F0A69CF8D859FEF980FB7
:1027C0009D87882339F3C8010E94A102F6CF8B8927
:1027D0009FEF980F9B8B882309F473CFC8010E9449
:1027E000A102F5CFC8010E94A1021B8A6ACF412C29
:1027F000512C89899A89982789279827481659063C
:1028000038F4C8010E94A1028FEF481A580AF1CF8C
:10281000EFEF8E1A9E0A8C149D0409F043CF26EF29
:102820003FEF95CF27EF3FEF92CF2AEF3FEF8FCFCC
:102830002BEF3FEF8CCF65960FB6F894DEBF0FBE3F
:10284000CDBFDF91CF911F910F91FF90EF90DF905F
:10285000CF90BF90AF909F908F907F906F905F9040
:102860004F903F902F90089580E3FB018083329634
:10287000842F82958F7090E1899F401911244A30EE
:1028800014F4405D01C0495C4293482F8111F0CFA0
:1028900008952F923F924F925F926F927F928F9204
:1028A0009F92AF92BF92CF92DF92EF92FF920F93DF
:1028B0001F93CF93DF93CDB7DEB7E3970FB6F894AE
:1028C000DEBF0FBECDBF7C011A012B0139010E9472
:1028D000D8174B015C0187010D5B1F4FC8010E9497
:1028E000F10218161906A4F00E94D817DC01CB01DA
:1028F00088199909AA09BB09281639064A065B06F0
:10290000D8F062E370E080E090E00E949E17E6CF8E
:1029100042E250E0BE016F5F7F4FC8010E94AA0FE4
:102920008981823011F080E061C1F8018489958944
:1029300083349105C1F702C08FEF58C16D817E814C
:102940008F8198850E947A254B015C01F301608399
:1029500071838283938346E050E0B701685F7F4FC5
:10296000CE014D960E949C27892BE9F6F7018081C4
:102970009181A281B38188169906AA06BB0698F2B6
:1029800084819581A681B78188159905AA05BB0523
:1029900050F289899A89AB89BC8986879787A08BF1
:1029A000B18B8EECA82EB12CC8010E94A102F1E0DF
:1029B000AF1AB108C9F719A6670182E2C80ED11C87
:1029C000F701B696FBA7EAA7C7018A969DA78CA731
:1029D0003C974F0189969FA78EA73897F9ABE8AB34
:1029E0001701F6E12F0E311CC5979BAB8AABF8019E
:1029F000818D928D181619060CF0F7C0C8010E943F
:102A0000A1028333910509F4CBC0FCF48130910518
:102A1000C9F11CF4892B59F3DCC083309105D1F145
:102A2000069709F0D6C0C8010E94A1025C0144E0EB
:102A300050E06AA97BA9C8010E94AA0F412C512C21
:102A4000BB24F4E0AF1AB10840C08A33910509F401
:102A50007BC03CF48533910569F0C69709F440C00A
:102A6000B8C08B33910509F485C08F3F910509F4F7
:102A7000BECFAFC0C8010E94A102C8010E94A1023E
:102A800089A7B5CFC8010E94A10244E050E068A91F
:102A900079A93AC0C8010E94A1025C0144E050E05B
:102AA000B101C8010E94AA0F412C512CBB2494E013
:102AB000A91AB1084A145B040CF099CFC8010E940E
:102AC000A102EFEF4E1A5E0AF5CF4A145B040CF038
:102AD0008ECFC8010E94A1028FEF481A580AF5CF85
:102AE000C8010E94A102B82EF701828D811110C089
:102AF000838D81110DC0848D81110AC0858D811156
:102B000007C044E050E0B401C8010E94AA0F6FCF93
:102B1000EEA5FFA54080518062807380B401CE0194
:102B200083960E942E0E8DA19EA1AFA1B8A58415FB
:102B30009505A605B70529F3BB2009F458CFC801B0
:102B40000E94A102BA94F8CFC8010E94A10244E0F9
:102B500050E06AA57BA5C8010E94AA0FF70166A1F3
:102B600077A180A591A50E947A2566A377A380A767
:102B700091A73DCFC8010E94A10244E050E06CA59E
:102B80007DA5C8010E94AA0FF70162A573A584A5BF
:102B900095A50E947A2562A773A784A795A727CF3A
:102BA000C8010E94A10244E050E0B601C8010E94A1
:102BB000AA0FF70162A173A184A195A10E947A25B1
:102BC00062A373A384A395A366A777A780AB91ABF9
:102BD0000ECFC8010E94A102B82EBB2009F407CF76
:102BE000C8010E94A102BA94F8CF89A5E3960FB656
:102BF000F894DEBF0FBECDBFDF91CF911F910F9133
:102C0000FF90EF90DF90CF90BF90AF909F908F900C
:102C10007F906F905F904F903F902F9008953FB7B7
:102C2000F8948091DC049091DD04A091DE04B091D1
:102C3000DF0426B5A89B05C02F3F19F00196A11D02
:102C4000B11D3FBFBA2FA92F982F8827820F911D42
:102C5000A11DB11DBC01CD0142E0660F771F881F89
:102C6000991F4A95D1F70895CF92DF92EF92FF9284
:102C70000F931F93CF93DF936C017A018B01C0E018
:102C8000D0E0CE15DF0589F0D8016D918D01D60118
:102C9000ED91FC910190F081E02DC6011995892BF1
:102CA00011F47E0102C02196ECCFC701DF91CF91D4
:102CB0001F910F91FF90EF90DF90CF900895CF93E9
:102CC000DF93EC0188819981009711F00E9416260C
:102CD000198218821D821C821B821A82DF91CF9179
:102CE00008957F928F929F92AF92BF92CF92DF9280
:102CF000EF92FF920F931F93CF93DF93CDB7DEB781
:102D0000A6970FB6F894DEBF0FBECDBF8C01762E0E
:102D1000942E852E20E2B22ECE0101967C01FC017C
:102D20002B2D11922A95E9F780EB92E09AA389A3C3
:102D30008FEF8BA38CA38DA38EA3680183E4C80EB1
:102D4000D11C43E450E0BE016F5D7F4FC6010E947D
:102D50006E05019609F4BFC081E089838A8386E00D
:102D6000A82EAB821C82F8016481758186819781CF
:102D70000E947A256D837E838F83988789869A86C1
:102D800080E890E09C878B874CE150E0B701C6015A
:102D90000E940605F7012B2D11922A95E9F74801AB
:102DA00088E0880E911CF401D70101900D92AA943D
:102DB000E1F740E150E0B701C6010E940605F701C6
:102DC0001192BA94E9F796E0A92EB12C40E250E0B6
:102DD000B701C6010E940605F1E0AF1AB108B1F7CC
:102DE00083E6898392E89A8393E59B838C8385E3CA
:102DF0008D8381E08E837F829DE3988797E099871A
:102E00008A8786E0F401DE011B9601900D928A9577
:102E1000E1F78CE0898B8A8B6FE474E0CE014396F6
:102E20000E94B227F8014385BE01675E7F4FC8014B
:102E30000E943414F8014485BE01655E7F4FC801CD
:102E40000E943414F8014585BE01635E7F4FC801BE
:102E50000E9434144EE150E0B701C6010E940605FD
:102E6000F3E07F121EC082E3898384E08A83F80145
:102E700096859B8397859C8390899D8391899E836A
:102E800096E39F838887828D8987838D8A87848D47
:102E90008B87858D8C874CE050E0B701C6010E947E
:102EA000060587E3898386E08A8391E09B8393E02C
:102EB0009C838D838FE08E838AE38F838BE3888767
:102EC0008FEF898749E050E0B701C6010E940605EF
:102ED000C6010E943C05A6960FB6F894DEBF0FBE51
:102EE000CDBFDF91CF911F910F91FF90EF90DF90B9
:102EF000CF90BF90AF909F908F907F900895863332
:102F000008F0865390917B00282F2870977F922B92
:102F100090937B008770806480937C0080917A001E
:102F2000806480937A0080917A0086FDFCCF809146
:102F300078002091790090E0922B08958F929F92D3
:102F4000AF92BF92CF92DF92EF92FF926B017C0122
:102F50000E940F164B015C01C114D104E104F1047D
:102F6000F1F00E940F16DC01CB0188199909AA091A
:102F7000BB09883E9340A105B10570F321E0C21A58
:102F8000D108E108F10888EE880E83E0981EA11CA4
:102F9000B11CC114D104E104F10419F7DDCFFF9095
:102FA000EF90DF90CF90BF90AF909F908F9008955B
:102FB0002FB7F8946091D8047091D9048091DA0405
:102FC0009091DB042FBF08951F920F920FB60F92BE
:102FD00011242F933F938F939F93AF93BF9380912F
:102FE000D8049091D904A091DA04B091DB04309117
:102FF000D70423E0230F2D3720F40196A11DB11D26
:1030000005C026E8230F0296A11DB11D2093D70409
:103010008093D8049093D904A093DA04B093DB048E
:103020008091DC049091DD04A091DE04B091DF0476
:103030000196A11DB11D8093DC049093DD04A09343
:10304000DE04B093DF04BF91AF919F918F913F91C8
:103050002F910F900FBE0F901F9018950F931F93F5
:10306000CF93DF93EC0188819981009729F02A8121
:103070003B812617370788F48B016F5F7F4F0E94D3
:10308000AE26009761F0998388831B830A832C8185
:103090003D81232B11F4FC01108281E001C080E00E
:1030A000DF91CF911F910F910895EF92FF920F93AF
:1030B0001F93CF93DF93EC01FB0184819581E08026
:1030C000F1800C811D81E114F104B1F00097B9F099
:1030D000080F191FB801CE010E942E18882361F035
:1030E000288139818C819D81B701820F931F0E94B5
:1030F000B2271D830C8303C0CE010E945F16CE0150
:10310000DF91CF911F910F91FF90EF900895EF9273
:10311000FF920F931F93CF93DF93EC017B018A0102
:10312000BA010E942E18811104C0CE010E945F16C0
:1031300007C01D830C83B701888199810E94B22743
:10314000CE01DF91CF911F910F91FF90EF900895E5
:10315000CF93DF93EC016115710559F0FB010190EC
:103160000020E9F73197AF01461B570B0E948718E3
:1031700002C00E945F16CE01DF91CF910895CF93D8
:10318000DF93EC01FB018617970761F06081718185
:103190006115710529F0448155810E94871802C08C
:1031A0000E945F16CE01DF91CF910895FC018081CE
:1031B00091810C941626EF92FF920F931F93CF9359
:1031C000DF93CDB7DEB7A1970FB6F894DEBF0FBE81
:1031D000CDBF7C01CB01BA01F701118210821382AD
:1031E00012821582148242E0420F8E010F5F1F4F40
:1031F0000E946A20BC01C7010E94A818A1960FB6C0
:10320000F894DEBF0FBECDBFDF91CF911F910F911C
:10321000FF90EF900895FC011182108213821282B8
:10322000158214820C94BF18FC0111821082138243
:103230001282158214826115710551F0FB01019013
:103240000020E9F73197AF01461B570B0C94871804
:1032500008950F931F93CF93DF93EC010E94D8172B
:10326000688779878A879B87E881F9810484F58557
:10327000E02DCE01199597FF17C00E94D817088539
:1032800019852A853B85DC01CB01801B910BA20BA4
:10329000B30B0C811D812E813F8180179107A207FE
:1032A000B30710F38FEF9FEFDF91CF911F910F9135
:1032B00008950F931F93CF93DF93EC010E94D817CB
:1032C000688779878A879B87E881F9810284F385FB
:1032D000E02DCE01199597FF17C00E94D8170885D9
:1032E00019852A853B85DC01CB01801B910BA20B44
:1032F000B30B0C811D812E813F8180179107A2079E
:10330000B30710F38FEF9FEFDF91CF911F910F91D4
:103310000895AF92BF92CF92DF92EF92FF920F93F8
:103320001F93CF93DF93FB0101900020E9F73197C2
:103330008F01061B170B19F420E030E04FC0EB01A2
:103340006C01E12CF12CC6010E94591997FD44C073
:10335000FE01EE0DFF1D2081022E000C330B8217A3
:10336000930799F1E114F10421F420E030E07901B0
:10337000EACF9701A90141505109FE01E40FF51F61
:103380006081062E000C770B86179707D1F4411544
:10339000510569F3DE01F701E41BF50BEC0FFD1F8E
:1033A00060E070E0AD90B190AB1429F06417750740
:1033B000F1F29A01DFCF6F5F7F4F6417750790F3CB
:1033C000F5CF41155105A9F7D0CF97012F5F3F4F9A
:1033D0002017310761F6B0CF2FEF3FEF81E0232BAD
:1033E00009F080E0DF91CF911F910F91FF90EF9056
:1033F000DF90CF90BF90AF9008956115710579F07F
:10340000FB0101900020E9F73197AF01461B570BF4
:10341000DC01ED91FC910280F381E02D199480E0B4
:1034200090E008954F925F926F927F92EF92FF9299
:103430000F931F93CF93DF93CDB7DEB7A1970FB64E
:10344000F894DEBF0FBECDBF7C01FA01CB0119A2FB
:10345000223008F42AE08E010F5D1F4F422E512CBE
:10346000612C712CBF01A30192010E943725F90143
:10347000CA01015011096A3014F4605D01C0695C31
:10348000D8016C93232B242B252B61F7B801C7019E
:103490000E94FD19A1960FB6F894DEBF0FBECDBFF6
:1034A000DF91CF911F910F91FF90EF907F906F90E0
:1034B0005F904F9008950F931F93CF93DF93CDB7F5
:1034C000DEB765970FB6F894DEBF0FBECDBF2AE01A
:1034D000AE014F5F5F4F0E940B21BE016F5F7F4FB8
:1034E000CE0140960E9414198C899D898F3F9105C9
:1034F00009F050F4BE01605F7F4F8CE095E00E94C0
:10350000BF1808EC10E002C00BE91FEFCE01409697
:103510000E94D618C80165960FB6F894DEBF0FBE9C
:10352000CDBFDF91CF911F910F9108958F929F9200
:10353000AF92BF92CF92DF92EF92FF920F931F93C1
:10354000CF93DF93CDB7DEB76A970FB6F894DEBF9F
:103550000FBECDBF6B017C014B015C01E894B7F855
:103560002FEF3FEF4FE75FE7C501B4010E946D25E4
:1035700081110AC02FEF3FEF4FE75FE7C501B401AC
:103580000E94E1231816A4F026E934ED48E653E53D
:10359000C701B6010E94682518167CF126E934EDB2
:1035A00048E653EDC701B6010E94E12387FD25C01F
:1035B0008E010F5F1F4F25E041E0C701B6010E9459
:1035C0006A20B801CE0145960E941419898D9A8D02
:1035D0008F3F910509F050F4BE016B5E7F4F8AEF7B
:1035E00094E00E94BF1808EC10E002C00BE91FEF46
:1035F000CE0145960E94D61802C00BE91FEFC80104
:103600006A960FB6F894DEBF0FBECDBFDF91CF91A3
:103610001F910F91FF90EF90DF90CF90BF90AF90F0
:103620009F908F900895CF93DF938AE495E00E9456
:10363000D61884E495E00E94D6188EE395E00E94A7
:10364000D61888E395E00E94D6188AEF94E0892B7B
:1036500061F0C0E0D0E0CE018C5D9A4F0E94D61898
:103660002697C03D8FEFD807B1F7DF91CF9108952E
:10367000CF93DF93CDB7DEB72A970FB6F894DEBFAE
:103680000FBECDBF789484B5826084BD84B581605F
:1036900084BD85B5826085BD85B5816085BD80911D
:1036A0006E00816080936E00109281008091810095
:1036B000826080938100809181008160809381008D
:1036C000809180008160809380008091B10084604F
:1036D0008093B1008091B00081608093B0008091B0
:1036E000910082608093910080919100816080932D
:1036F0009100809190008160809390008091A10062
:1037000082608093A1008091A10081608093A100DC
:103710008091A00081608093A0008091210182604F
:10372000809321018091210181608093210180910A
:10373000200181608093200180917A0084608093D1
:103740007A0080917A00826080937A0080917A007A
:10375000816080937A0080917A00806880937A00FB
:103760001092C1008091CD0481112AC01092B5043D
:103770001092B40488EE93E0A0E0B0E08093B60429
:103780009093B704A093B804B093B9048EE392E089
:103790009093B3048093B20480EB92E09093C104C1
:1037A0008093C0041092C2041092C3041092C40407
:1037B0001092C50484E08093CA0481E08093CD0414
:1037C0008FE694E09093ED048093EC046CE271E05A
:1037D00080E090E00E949E171FB7F89480916E04DD
:1037E000811193C069E973E0FB0184912FED33E00F
:1037F000F901449190E0880F991F865B9C4FFC0172
:10380000A591B4918C91482309F070C0EFE1F3E0E9
:103810004491F9012491FB019491992309F466C024
:10382000442309F455C050E0FA013197E231F10523
:1038300008F04EC08827EE58FF4F8F4F0C9472252A
:10384000809180008F7707C0809180008F7D03C0BA
:1038500080918000877F809380003AC084B58F7705
:1038600002C084B58F7D84BD33C08091B0008F7756
:1038700003C08091B0008F7D8093B00029C08091FB
:1038800090008F7707C0809190008F7D03C080915A
:103890009000877F809390001BC08091A0008F775D
:1038A00007C08091A0008F7D03C08091A000877F1A
:1038B0008093A0000DC0809120018F7707C0809178
:1038C00020018F7D03C080912001877F809320019C
:1038D000E92FF0E0EE0FFF1FE05DFC4FA591B491E2
:1038E0008FB7F8949C91292B2C938FBF85E30E946E
:1038F0009A118CB580618CBD8CB580648CBD84E3DD
:103900000E949A1183E30E949A1180916E048F5F46
:1039100080936E041FBF249A80E590E00E94030507
:1039200060E880E090E00E94D90E65E58BE190E0D0
:103930000E94D90E65E58AE190E00E94D90E0E94AE
:10394000020580E090E490935F0480935E0480E041
:1039500090E6909367048093660480E098E49093E7
:1039600061048093600480E098E6909369048093FA
:10397000680480E090E5909363048093620480E0A3
:1039800090E790936B0480936A0480E098E59093AD
:1039900065048093640480E098E790936D048093BD
:1039A0006C0480E590E00E94030546E050E062E090
:1039B00072E089E090E00E94AA0E80EB92E09A8388
:1039C00089831B821C821D821E8244E050E0BE015E
:1039D0006D5F7F4F8FE090E00E94AA0E0E9402056B
:1039E0000091EC041091ED04D80192961D921D9265
:1039F0001D921C929597F80116A217A210A611A667
:103A00009A961D921D921D921C929D9780E69AEEA9
:103A1000A0E0B0E086AB97ABA0AFB1AF80EA9FE08B
:103A2000A0E0B0E082AF93AFA4AFB5AFD8011896D5
:103A300086E0FD01982F11929A95E9F79801225F8F
:103A40003F4F94E1F90111929A95E9F7E2E0F2E033
:103A500001900D928A95E1F77801F2E4EF0EF11CE6
:103A6000D7011C920E94D7202FEC37E040E050E0B5
:103A70000E940525DC01CB010196A11DB11DF801B5
:103A800084839583A683B78380839183A283B38342
:103A9000C8018D5B9F4F98878F830E94300464E438
:103AA00070E08F8198850E947104882309F487C192
:103AB0000E94D8172B013C011A861986D12C43E0AD
:103AC000342E58EE852E53E0952EA12CB12C62E0B9
:103AD000C62ED7018C91833009F4FFC081111FC01D
:103AE000F80184819581A681B7810196A11DB11D40
:103AF00084839583A683B7830E94D81764197509B8
:103B000086099709A50194010E943725A90161E062
:103B1000C8010E94711681E0D7018C93C0C0843027
:103B2000F1F4F80184819581A681B7810196A11DE8
:103B3000B11D84839583A683B7830E94D817641927
:103B4000750986099709A50194010E943725A901E5
:103B500063E0C8010E947116D701CC92A0C08130E9
:103B600051F5F80142AD53AD64AD75AD9E012F5FC7
:103B70003F4FC8010E944914D82EF2E08F138FC026
:103B800089819A81AB81BC81F80184839583A68366
:103B9000B7830E94D8176419750986099709A5018A
:103BA00094010E943725A90163E0C8010E947116A3
:103BB000D701DC927AC0823009F071C0F80142ADC1
:103BC00053AD64AD75AD9E012F5F3F4FC8010E949C
:103BD0004914D82EF5E08F135CC0D7013C92F80150
:103BE00082A193A1A4A1B5A1892B8A2B8B2B41F48F
:103BF00084E893E0A0E0B0E082A393A3A4A3B5A3DC
:103C0000F80186A197A1A0A5B1A5892B8A2B8B2BA2
:103C100061F482A193A1A4A1B5A1B695A7959795AA
:103C2000879586A397A3A0A7B1A7F80182A593A51E
:103C3000A4A5B5A5892B8A2B8B2BA9F482A193A1CE
:103C4000A4A1B5A1AC01BD0123E076956795579578
:103C500047952A95D1F7841B950BA60BB70B82A726
:103C600093A7A4A7B5A7F80186A197A1A0A5B1A580
:103C700086A797A7A0ABB1AB82A593A5A4A5B5A530
:103C800082AB93ABA4ABB5AB81E090E09A87898718
:103C90000CC096E0891303C0D7011C9206C0BFEF89
:103CA000DB1203C0F7011082D12C89859A85019718
:103CB00009F40FCF0E94D817DC01CB0184199509B4
:103CC000A609B709F80126A937A940AD51AD2817B3
:103CD00039074A075B0708F0FCCE8F8198850E9460
:103CE0003004F80184819581A681B7810196A11DD8
:103CF000B11D84839583A683B7830E94D817F801EA
:103D0000FE96608371838283938389859A85019768
:103D100009F055C080E590E00E9403056091EC0435
:103D20007091ED04625F7F4FCE0101960E942E0ECE
:103D300044E050E0BE016D5F7F4F8FE090E00E9455
:103D4000AA0E6091EC047091ED046A5E7F4FCE0183
:103D500001960E942E0E44E050E0BE016D5F7F4F41
:103D600081E090E00E94AA0E6091EC047091ED0455
:103D70006E5E7F4FCE0101960E942E0E44E050E011
:103D8000BE016D5F7F4F85E090E00E94AA0E0E9409
:103D900002056091EC047091ED04625E7F4FCE01EC
:103DA00001960E942E0E8B819C81AD81BE818093F5
:103DB000E8049093E904A093EA04B093EB0486E549
:103DC00095E09093EF048093EE04809165059091C7
:103DD0006605A0916705B09168058093F4049093FF
:103DE000F504A093F604B093F7041092F104109236
:103DF000F00480E590E09093F9048093F8048EEE4F
:103E000094E00E94000788EC90E09093370580933F
:103E1000360580E0A82E80E0B82E0E94D8176B01EE
:103E20007C0186E30E947F178C0187E30E947F1745
:103E3000BC01990F880B990B0E94E8232AE038E215
:103E400040EA5BE30E9447242B013C01B801110FBB
:103E5000880B990B0E94E8232AE038E240EA5BE3F2
:103E60000E9447240E94961AC701B6010E945B1A5D
:103E700065E074E0CE0101960E9414198D819E8147
:103E80008F3F910509F038F4BE016F5F7F4F8AE4E0
:103E900095E00E94BF18CE0101960E94D61849E114
:103EA00054E06BEB75E585E090E00E944E07C3019E
:103EB000B2010E94961AC701B6010E945B1A6AE21B
:103EC00074E0CE0101960E9414198D819E818F3F6E
:103ED000910509F038F4BE016F5F7F4F8AE495E0E9
:103EE0000E94BF18CE0101960E94D6184EE354E0FE
:103EF0006CEB75E585E090E00E944E0760E27EE4A1
:103F000080E090E00E949E17A114B10409F485CFCF
:103F10000E94000082CFCF93DF9380EB92E09093DA
:103F2000E1048093E0041092E2041092E304109202
:103F3000E4041092E50490936A0580936905109259
:103F40006B0510926C0510926D0510926E059093A2
:103F5000700580936F051092710510927205109292
:103F600073051092740590937605809375051092F1
:103F70007705109278051092790510927A05909342
:103F80007C0580937B0510927D0510927E05109232
:103F90007F05109280059093820580938105109291
:103FA00083051092840510928505109286059093E2
:103FB000E7048093E6041092E8041092E90410925A
:103FC000EA041092EB0490935105809350051092EF
:103FD00052051092530510925405109255051092F7
:103FE000EF041092EE041092F1041092F0049093FA
:103FF000F3048093F2048091520590915305A091AF
:104000005405B09155058093F4049093F504A09362
:10401000F604B093F70480E590E09093F904809360
:10402000F804C0E0D0E066EB73E0CE0186509B4F11
:104030000E9414192696C033D105A9F766EB73E0E8
:1040400088E395E00E94141966EB73E08EE395E037
:104050000E94141966EB73E084E495E00E94141941
:1040600066EB73E08AE495E00E9414198EEE94E00A
:104070000E94000788EC90E0909337058093360506
:1040800080EB92E090936405809363051092650540
:1040900010926605109267051092680510925905F6
:1040A0001092580588EE93E0A0E0B0E080935A05A6
:1040B00090935B05A0935C05B0935D058AE892E060
:1040C000909357058093560584E080936205DF91B5
:1040D000CF910895EF920F931F93CF93DF93E80151
:1040E00047FD02C034E001C034E1E42F440FFF0B70
:1040F000F7FF03C0F195E195F109E32E022F2E2F72
:10410000AE010E946B21CE01DF91CF911F910F91E3
:10411000EF9008958F929F92AF92BF92CF92DF92CD
:10412000EF92FF92CF93DF93EC01688179818A81CE
:104130009B81611571058105910521F464E279ED9A
:104140008BE597E02DE133EF41E050E00E9405253B
:1041500049015A019B01AC01A7EAB1E40E94242560
:104160006B017C01ACEEB4EFA50194010E943225F5
:10417000DC01CB018C0D9D1DAE1DBF1DB7FF03C023
:104180000197A109B04888839983AA83BB83BC01A6
:10419000CD019F77DF91CF91FF90EF90DF90CF908F
:1041A000BF90AF909F908F9008950C948A2088E0E4
:1041B00092E00C948A206093080270930902809325
:1041C0000A0290930B0208951F93FC0199278827F8
:1041D000BC01E89411911032E9F3193010F01E304F
:1041E000C8F31B3251F01D3249F4689406C00E9496
:1041F0001A21610F711D811D911D119110531A30EB
:10420000B0F33EF490958095709561957F4F8F4FF8
:104210009F4F1F910895BB272A3051F4992342F4F0
:10422000BDE290958095709561957F4F8F4F9F4F20
:104230000C943021592F482F372F262F660F771FC8
:10424000881F991F660F771F881F991F620F731FA2
:10425000841F951F660F771F881F991F0895BB271E
:10426000FA01A62F6217710581059105330B30FB0A
:1042700066F0AA27660F771F881F991FAA1FA2172B
:1042800010F0A21B63953850A9F7A05DAA3308F07F
:10429000A95DA19336F7B111B1931082CA010C94B4
:1042A000D123BB27FB015527AA27880F991FAA1FD7
:1042B000A41710F0A41B83955051B9F7A05DAA3341
:1042C00008F0A95DA193009779F7B111B19311920C
:1042D000CB010C94D1234F925F926F927F929F9269
:1042E000AF92BF92CF92DF92EF92FF920F931F9304
:1042F000CF93DF93CDB7DEB729970FB6F894DEBF23
:104300000FBECDBF6A01122FB02E2BE3201720F075
:10431000FF24F394F00E02C0BCE3FB2E0F2D27E028
:10432000AE014F5F5F4F0E94F922AC018981982F47
:104330009970913031F0E1FC06C0E0FE06C090E2D9
:1043400005C09DE203C09BE201C090E0EE2DE0714C
:1043500083FF3CC0911102C083E001C084E081175B
:1043600018F4212F281B01C020E0E1110BC0F60139
:10437000822F30E2882319F031938150FBCFC20E97
:10438000D11C20E0992329F0D6019C93F6013196A7
:104390006F01C6010396E2FE0AC03EE4D6013C93DB
:1043A00041E411964C93119712963C9306C03EE659
:1043B000F601308341E641833283FC01322F40E233
:1043C000332309F442C041933150FACF82FF44C0F5
:1043D000911102C083E001C084E0811718F4212FFD
:1043E000281B01C020E0E1110BC0F601822F30E252
:1043F000882319F031938150FBCFC20ED11C20E0ED
:10440000992329F0D6019C93F60131966F01C601DC
:104410000396E2FE0BC039E4D6013C933EE41196CC
:104420003C93119736E412963C9307C039E6F601A7
:1044300030833EE6318336E63283FC01322F40E2A0
:10444000332319F041933150FBCFFC01E20FF11DF2
:1044500010828EEF9FEFB7C0F1E0911101C0F0E044
:104460006F2F70E01416150624F49A012F5F3F4F4A
:1044700002C021E030E0260F371FBB2029F06B2D52
:1044800070E06F5F7F4F02C060E070E0260F371F63
:10449000612F70E0261737071CF4121B212F01C073
:1044A00020E03E2D387159F4D601322F60E23323DB
:1044B00019F06D933150FBCFC20ED11C20E0FF23C9
:1044C00031F0D6019C93B6016F5F7F4F6B01E11114
:1044D0000BC0F601922F30E3992319F031939150DC
:1044E000FBCFC20ED11C20E09F2D940F3A81782F74
:1044F0007071A72E84FF03C0313309F4915019164F
:1045000024F4993018F098E001C091E0E42F852F51
:1045100057FF02C0E0E080E06E2F782FE0E0F0E08F
:10452000AEE29A2E3A01691A71082A01461A570A10
:104530000B2D10E01195019511096F3F8FEF780752
:1045400029F4D6019C92C60101966C0146175707C3
:1045500084F0661677066CF47F01E40CF51CA1E08C
:10456000B0E0AC0FBD1FEA0EFB1ED7011196BC9048
:1045700002C090E3B92E615071093196C6010196CF
:104580007C016017710724F0D601BC926C01D5CF75
:104590006417750741F4363320F4353321F4A11044
:1045A00002C081E3B82EF601B082F701822F90E2BB
:1045B000882319F091938150FBCFF701E20FF11D91
:1045C000108280E090E029960FB6F894DEBF0FBE0F
:1045D000CDBFDF91CF911F910F91FF90EF90DF90B2
:1045E000CF90BF90AF909F907F906F905F904F90D3
:1045F0000895283008F027E03327DA01990F311D9C
:1046000087FD916000966105710539F432602E5F77
:104610003D9330E32A95E1F708959F3F30F08038CD
:104620007105610509F03C5F3C5F3D93913008F0F6
:104630008068911DDF93CF931F930F93FF92EF92AA
:10464000192F987F9695E92F96959695E90FFF2754
:10465000E65BFD4F99273327EE24FF24A701E701EE
:1046600005900894079428F4360FE71EF81E491F9A
:10467000511D660F771F881F991F0694A1F705909B
:10468000079428F4E70EF81E491F561FC11D770F27
:10469000881F991F661F0694A1F70590079428F4B8
:1046A000F80E491F561FC71FD11D880F991F661F7F
:1046B000771F0694A1F70590079420F4490F561F21
:1046C000C71FD81F990F661F771F881F0694A9F769
:1046D00084911095177041F0D695C79557954795D9
:1046E000F794E7941A95C1F7E0EFF1E0689415901C
:1046F000159135916591959105907FE27395E1183B
:10470000F10A430B560BC90BD009C0F7E10CF11E9F
:10471000431F561FC91FD01D7EF4703311F48A95B4
:10472000E6CFE894015030F0080F0AF40027021792
:1047300008F4202F2395022F7A3328F079E37D9314
:104740002A95E9F710C07D932A9589F606949795E6
:104750006795379517951794E118F10A430B560B97
:10476000C90BD00998F023957E9173957A3308F0A0
:1047700070E37C932013B8F77E9170617D9330F0E5
:10478000839571E37D9370E32A95E1F71124EF900F
:10479000FF900F911F91CF91DF91992787FD909501
:1047A0000895DC01FC01672F71917723E1F73297BF
:1047B00004C07C916D9370836291AE17BF07C8F3FC
:1047C00008950E94232408F481E00895E89409C024
:1047D00097FB3EF490958095709561957F4F8F4F34
:1047E0009F4F9923A9F0F92F96E9BB279395F6954A
:1047F000879577956795B795F111F8CFFAF4BB0FC8
:1048000011F460FF1BC06F5F7F4F8F4F9F4F16C02B
:10481000882311F096E911C0772321F09EE8872FB5
:10482000762F05C0662371F096E8862F70E060E071
:104830002AF09A95660F771F881FDAF7880F9695EA
:10484000879597F90895990F0008550FAA0BE0E88E
:10485000FEEF16161706E807F907C0F01216130642
:10486000E407F50798F0621B730B840B950B39F482
:104870000A2661F0232B242B252B21F408950A26E8
:1048800009F4A140A6958FEF811D811D08950E9416
:104890005A240C94CB240E94BD2438F00E94C424D6
:1048A00020F0952311F00C94B4240C94BA24112414
:1048B0000C94FF240E94DC2470F3959FC1F3950FA4
:1048C00050E0551F629FF001729FBB27F00DB11D94
:1048D000639FAA27F00DB11DAA1F649F6627B00D24
:1048E000A11D661F829F2227B00DA11D621F739F0D
:1048F000B00DA11D621F839FA00D611D221F749F1B
:104900003327A00D611D231F849F600D211D822F61
:10491000762F6A2F11249F5750409AF0F1F0882388
:104920004AF0EE0FFF1FBB1F661F771F881F9150B5
:104930005040A9F79E3F510580F00C94B4240C948C
:10494000FF245F3FE4F3983ED4F38695779567950F
:10495000B795F795E7959F5FC1F7FE2B880F911DDF
:104960009695879597F9089597F99F6780E870E085
:1049700060E008959FEF80EC089500240A941616D5
:10498000170618060906089500240A94121613063D
:10499000140605060895092E0394000C11F48823CB
:1049A00052F0BB0F40F4BF2B11F460FF04C06F5FE7
:1049B0007F4F8F4F9F4F089557FD9058440F551FBD
:1049C00059F05F3F71F04795880F97FB991F61F091
:1049D0009F3F79F087950895121613061406551F08
:1049E000F2CF4695F1DF08C0161617061806991F74
:1049F000F1CF86957105610508940895E894BB2769
:104A000066277727CB0197F90895052E97FB1EF4AB
:104A100000940E941C2557FD07D00E94372507FCF3
:104A200003D04EF40C941C2550954095309521955B
:104A30003F4F4F4F5F4F08959095809570956195CA
:104A40007F4F8F4F9F4F08950E945925A59F900D2E
:104A5000B49F900DA49F800D911D11240895B7FF60
:104A60000C9424250E942425821B930B0895A1E217
:104A70001A2EAA1BBB1BFD010DC0AA1FBB1FEE1FD8
:104A8000FF1FA217B307E407F50720F0A21BB30B23
:104A9000E40BF50B661F771F881F991F1A9469F79F
:104AA00060957095809590959B01AC01BD01CF01FB
:104AB0000895A29FB001B39FC001A39F700D811DF7
:104AC0001124911DB29F700D811D1124911D089517
:104AD0000E94232408F48FEF08950E942324880B5A
:104AE000990B0895EE0FFF1F881F8BBF0790F6915B
:104AF000E02D199469279627692778278727782733
:104B00000895CF93DF938230910510F482E090E016
:104B1000E0918905F0918A0520E030E0C0E0D0E026
:104B2000309711F14081518148175907C0F048175B
:104B3000590761F482819381209719F09B838A83BE
:104B40002BC090938A058093890526C021153105D5
:104B500019F04217530718F49A01BE01DF01EF0163
:104B60000280F381E02DDCCF2115310509F1281BEE
:104B7000390B2430310590F412968D919C91139746
:104B80006115710521F0FB019383828304C090932A
:104B90008A0580938905FD01329644C0FD01E20F2C
:104BA000F31F81939193225031092D933C933AC086
:104BB0002091870530918805232B41F420910E0226
:104BC00030910F02309388052093870520910C02C5
:104BD00030910D022115310541F42DB73EB74091BA
:104BE000100250911102241B350BE0918705F091C2
:104BF0008805E217F307A0F42E1B3F0B281739078F
:104C000078F0AC014E5F5F4F2417350748F04E0F28
:104C10005F1F50938805409387058193919302C04D
:104C2000E0E0F0E0CF01DF91CF9108950F931F9363
:104C3000CF93DF93009709F48CC0FC013297138265
:104C400012820091890510918A050115110581F4E0
:104C500020813181820F931F209187053091880533
:104C60002817390779F5F0938805E093870571C017
:104C7000D80140E050E0AE17BF0750F412962D91D6
:104C80003C911397AD012115310509F1D901F3CFFD
:104C90009D01DA013383228360817181860F971F22
:104CA0008217930769F4EC0128813981260F371F99
:104CB0002E5F3F4F318320838A819B819383828340
:104CC000452B29F4F0938A05E093890542C0139699
:104CD000FC93EE931297ED01499159919E01240F97
:104CE000351FE217F30771F480819181840F951FBE
:104CF000029611969C938E938281938113969C9336
:104D00008E931297E0E0F0E0D80112968D919C917D
:104D10001397009719F0F8018C01F6CF8D919C91B3
:104D200098012E5F3F4F820F931F2091870530918E
:104D300088052817390769F4309729F410928A05F5
:104D40001092890502C01382128210938805009385
:104D50008705DF91CF911F910F9108956F927F92F8
:104D60008F929F92AF92BF92CF92DF92EF92FF927B
:104D70000F931F93CF93DF93EC01009789F4CB013E
:104D8000DF91CF911F910F91FF90EF90DF90CF9027
:104D9000BF90AF909F908F907F906F900C948125E3
:104DA000FC01E60FF71F9C0122503109E217F307BF
:104DB00008F4ACC0D9010D911C9111970617170783
:104DC000B0F00530110508F49FC0C801049786179C
:104DD000970708F499C002501109061B170B01939D
:104DE00011936D937C93CF010E9416268DC05B01B9
:104DF000A01AB10A4C01800E911EA0918905B091B4
:104E00008A0540E050E0E12CF12C109709F44AC0EB
:104E1000A815B905D1F56D907C901197630182E0DA
:104E2000C80ED11CCA14DB0480F1A3014A195B0926
:104E30006A0182E0C80ED11C1296BC90129713969C
:104E4000AC91B5E0CB16D10440F0B282A38351837C
:104E50004083D9016D937C930AC00E5F1F4FC3013D
:104E6000800F911FF90191838083EB2DFA2FE114BC
:104E7000F10431F0D7011396FC93EE93129744C0DE
:104E8000F0938A05E09389053FC08D919C9111971D
:104E90004817590708F4AC017D0112960D90BC919A
:104EA000A02DB3CF8091870590918805881599052D
:104EB000E1F446175707C8F480910C0290910D0257
:104EC000009741F48DB79EB74091100250911102A6
:104ED000841B950BE817F907C8F4F0938805E09355
:104EE0008705F901718360830FC0CB010E94812582
:104EF0007C01009759F0A801BE010E94A927CE01AC
:104F00000E941626C70104C0CE0102C080E090E0D6
:104F1000DF91CF911F910F91FF90EF90DF90CF9095
:104F2000BF90AF909F908F907F906F90089581E099
:104F300090E0F8940C94B927FB01DC0104C08D913A
:104F40000190801921F441505040C8F7881B990BFB
:104F50000895FB01DC0102C001900D9241505040C8
:104F6000D8F70895FB01DC0101900D920020E1F7D4
:104F7000089511E0C9EFD1E000E006C0802FFE01E6
:104F80000E9472252196011DCA3FD10780E00807C3
:064F9000A9F7F894FFCF21
:104F960000C0D428B2FFA0A10100000000008B05CC
:104FA6008000000000002C0E2C0E9E022C0E2C0EF3
:104FB6002C0E2C0E2C0E62022C0E2C0E2C0E2C0EF1
:104FC6002C0E2C0E2C0E2C0E2C0E000000002D028A
:104FD60006059E023E0E4302A1021C0F710422101A
:104FE60030046E054A033C05F102AA0F5B024B0230
:104FF600470201005E000000000000002C0E34167F
:105006009E029D022C0E2C0E2C0E000000002C0E73
:1050160034169E029D02000000007802F2059E02F0
:105026007702E802CE029E046606BD03CA02AC05FC
:105036004D046F029A02980264028E02000000007C
:10504600E20D000000002C0E26006669656C640007
:105056006C61743D006C6F6E673D00656C657661D2
:1050660074696F6E3D007374617475733D00747777
:1050760069747465723D0074776565743D0063728A
:1050860065617465645F61743D0026686561646589
:1050960072733D66616C736500504F5354202F75D3
:1050A600706461746520485454502F312E310D0AB6
:1050B60000486F73743A2000436F6E6E65637469BF
:1050C6006F6E3A20636C6F73650D0A00486F7374D8
:1050D6003A206170692E7468696E67737065616BDA
:1050E6002E636F6D0D0A00557365722D4167656EEF
:1050F600743A200074736C69622D61726475696E0E
:105106006F2F312E33202861726475696E6F20759A
:105116006E6F206F72206D6567612900582D5448A7
:10512600494E47535045414B4150494B45593A200A
:1051360000436F6E74656E742D4C656E6774683AC5
:1051460020000D0A0D0A00485454502F312E31000C
:105156006170692E7468696E67737065616B2E6322
:105166006F6D00436F6E74656E742D547970653A79
:10517600206170706C69636174696F6E2F782D772A
:1051860077772D666F726D2D75726C656E636F64C1
:1051960065640D0A00323031372D30312D303754E9
:1051A60031333A35363A323800515647453134486C
:1051B60052594E5232344C505600323031372D301F
:1051C600312D30385431333A35363A323800444F7F
:1051D6005A45415635573141564431474F4100579C
:0651E600495A6E657400D9
:00000001FF
