:100000000C9486010C94B7010C94B7010C94B701C1
:100010000C94B7010C94B7010C94B7010C94B70180
:100020000C94B7010C94B7010C94B7010C94B70170
:100030000C94B7010C94B7010C94B7010C94B70160
:100040000C94B7010C94B7010C94B7010C94B70150
:100050000C94B7010C94B7010C94B7010C94E21105
:100060000C94B7010C948E060C9464060C94B701A2
:100070000C94B7010C94B7010C94B7010C94B70120
:100080000C94B7010C94B7010C94B7010C94B70110
:100090000C94B7010C94B7010C94B7010C94B70100
:1000A0000C94B7010C94B7010C94B7010C94B701F0
:1000B0000C94B7010C94B7010C94B7010C94B701E0
:1000C0000C94B7010C94B7010C94B7010C94B701D0
:1000D0000C94B7010C94B7010C94B7010C94B701C0
:1000E0000C94B701C313C613B513B913BD13FD1395
:1000F000CA13CE13D413D813DC13E213E613EA1396
:10010000FD13F013F413F8130C9429020C94130349
:100110000C94CA130C94F0010C94E7060C94A403FD
:100120000C94FB010C94B9130C9476070C94B60450
:100130000C94F8130C94A8030C94C3130C94A716F6
:100140000C94D3010C9432090C94D7010C947804CC
:100150000C94F4130C94EE010C94E6130C943A07EF
:100160000C9403020C9446040C94FD130C94D413C9
:100170000C9470050C94B9010C942A020C9451094A
:100180000C9463100C94CF010C942D020C94EA1380
:100190000C947A090C94A0020C94F0130C94C203F2
:1001A0000C94BD070C943B070C94B5130C9481037D
:1001B0000C94E2130C94C6130C94D3060C94E70130
:1001C0000C9424020C942C0A0C94CE130C941A0256
:1001D0000C9426020C9410040C94D8130C94BD13A8
:1001E0000C94A4080C94FC040C94F5060C943003B5
:1001F0000C9454030C94DC130C9400060C9404022D
:100200000C94C40600000A0B02090C0D0E0807032B
:1002100004010000000000000000000000000000D9
:1002200000000000000000000000000000000000CE
:10023000121110000000000000000000000000008B
:100240000000000000000000000000002200250067
:1002500028002B002E0031003400020100000501AF
:1002600008010B0100002100240027002A002D00B6
:100270003000330001010000040107010A010505F7
:100280000505070508080808020202020A0A08080C
:10029000040404040101010101010101030303033A
:1002A00003030303040707070C0C0C0C0C0C0C0CC9
:1002B0000202020206060606060606060B0B0B0BDA
:1002C0000B0B0B0B010210202008081020401020FF
:1002D000408002010201080402010102040810200A
:1002E0004080804020100804020180040201804008
:1002F0002010080402010804020101020408102071
:1003000040800102040810204080A71611241FBE5F
:10031000CFEFD1E2DEBFCDBF00E00CBF13E0A0E025
:10032000B2E0E6E1F0E300E00BBF02C007900D92FF
:10033000A034B107D9F724E0A0E4B3E001C01D92D6
:10034000A63AB207E1F711E0C6E8D1E000E006C046
:1003500021970109802FFE010E94E117C538D107BE
:1003600080E00807A9F70E948A120C9409180C94DF
:100370000000CF93DF931F92CDB7DEB76983DC0116
:10038000ED91FC910280F381E02D41E050E0BE014F
:100390006F5F7F4F19950F90DF91CF910895FC010A
:1003A000818D928D0895FC018489958908952CEBA7
:1003B00032E0FC0131832083FB014089518962894D
:1003C0007389FC0142835383648375830895DC0140
:1003D000ED91FC91048CF58DE02D199480E0089549
:1003E000FC019485FB018485981303C081E094305F
:1003F00009F480E0089521E0FC018485843009F44B
:1004000020E0822F08950895CF93DF931F92CDB7F8
:10041000DEB76983DC01ED91FC910280F381E02D70
:1004200041E050E0BE016F5F7F4F19950F90DF9163
:10043000CF910895DC01ED91FC91068CF78DE02DB4
:10044000199591E089270895862F089581E08627E0
:100450000895089580E090E00895CF92DF92EF92A2
:10046000FF920F931F93CF93DF93CDB7DEB7AF9774
:100470000FB6F894DEBF0FBECDBF7C016A010CEB56
:1004800012E01A8309831C861B8688EE93E0A0E0A5
:10049000B0E08D879E87AF87B88B88E392E09A871C
:1004A0008987188F0F8B198E1A8E1B8E1C8E84E0F5
:1004B00089A31DA30CA31EA21FA218A619A6809192
:1004C000600490916104A0916204B09163048CA7D0
:1004D0009DA7AEA7BFA78B839C83AD83BE831886E1
:1004E0001F82AE014C5D5F4FCE0101960E94E80B6A
:1004F00081309105B1F4D701ED91FC910488F58923
:10050000E02D1BA70AA78EA19FA1A8A5B9A58CA71E
:100510009DA7AEA7BFA7A601BE01665D7F4FC7011D
:100520001995AF960FB6F894DEBF0FBECDBFDF9121
:10053000CF911F910F91FF90EF90DF90CF90089592
:10054000CF92DF92EF92FF920F931F93CF93DF939F
:10055000CDB7DEB7AF970FB6F894DEBF0FBECDBFF5
:100560007C016A010CEB12E01A8309831C861B864E
:1005700088EE93E0A0E0B0E08D879E87AF87B88BD0
:1005800088E392E09A878987188F0F8B198E1A8ECD
:100590001B8E1C8E84E089A31DA30CA31EA21FA288
:1005A00018A619A68091600490916104A09162043C
:1005B000B09163048CA79DA7AEA7BFA78B839C8334
:1005C000AD83BE8318861F82AE014C5D5F4FCE01A6
:1005D00001960E94E80B81309105B1F4D701ED91AD
:1005E000FC910684F785E02D1BA70AA78EA19FA189
:1005F000A8A5B9A58CA79DA7AEA7BFA7A601BE01B8
:10060000665D7F4FC7011995AF960FB6F894DEBFB0
:100610000FBECDBFDF91CF911F910F91FF90EF9053
:10062000DF90CF900895CF93DF93EC01888D8430D5
:1006300061F00E94D309E88DF0E0EE0FFF1FE05C4F
:10064000FC4F1182108284E0888FDF91CF91089552
:10065000FC018485843011F00C94A20A80E0089596
:10066000CF93DF93FC0124852430D1F0EC010E946C
:100670002803843181F0882371F0883161F08C3156
:1006800061F4E881F9810084F185E02DCE011995AE
:1006900021E0892B19F420E001C021E0822F01C064
:1006A00080E0DF91CF910895EF92FF921F93CF9357
:1006B000DF93FC01208D243011F080E01CC07B0111
:1006C000EC0110E0812F0E94A20A811102C0188F54
:1006D00005C08831E1F31F5F1430A1F7888D8430A5
:1006E00061F3FD86EC861A8E198E20E0A70162E088
:1006F0000E94E70981E0DF91CF911F91FF90EF9079
:1007000008950F931F93CF93DF931F92CDB7DEB75A
:100710008C01DC01ED91FC910084F185E02D1995AF
:10072000892B51F0BE016F5F7F4FF80184850E94D5
:100730008408898190E002C08FEF9FEF0F90DF91D6
:10074000CF911F910F910895FC0184850C94DF08CF
:10075000CF93DF931F92CDB7DEB741E050E0BE01EB
:100760006F5F7F4FFC0184850E94DF081816190611
:100770001CF4898190E002C08FEF9FEF0F90DF9112
:10078000CF910895FC018485843011F00C94BD084C
:1007900080E090E008959B0190E00496982F8827D0
:1007A000642F820F931F0C9461080F931F93CF93B4
:1007B000DF931F92CDB7DEB790E00496982F88277D
:1007C0008C01060F171F0E94E1078FE00E94FB07B4
:1007D000812F0E94FB07802F0E94FB0780E00E9470
:1007E000FB0789830E94DF0789810F90DF91CF91FA
:1007F0001F910F910895CF93DF93C82FD62F472FC6
:1008000060E170E00E94CB034D2F61E170E08C2F1E
:10081000DF91CF910C94CB0308958CBD9DBD0895BD
:10082000AF92BF92CF92DF92FF920F931F93CF931D
:10083000DF938C015B01EA01FC01C688D788F08C4C
:1008400080E590E00E940D048F2D0E94AD0B8C1767
:100850009D0720F48F2D0E94AD0BEC019E01A50198
:10086000B6018F2D0E94480BF801868997898C0F5D
:100870009D1F978B868BCE01DF91CF911F910F919A
:10088000FF90DF90CF90BF90AF900895CF93FC0181
:10089000C08D80E590E00E940D0460E270E08C2F36
:1008A0000E94D00A62E070E08C2F0E94D50384FD84
:1008B00015C062E070E08C2F0E94D50383FF09C051
:1008C00048E162E070E08C2F0E94CB0380E090E072
:1008D0000DC080E590E00E940D04E4CF40E162E0AD
:1008E00070E08C2F0E94CB0381E090E0CF910895BF
:1008F000FF920F931F93CF93DF93FB01DC01579679
:100900001C921E9256975896FC908281811109C0C4
:100910008381811106C08481811103C08581882370
:10092000E9F041155105D1F08A01EF0180E590E031
:100930000E940D04BE016E5F7F4F2F2D30E0922F7D
:10094000882744E050E0845F9B4F0E943208B80142
:100950008F2D0E94FB0381E090E002C080E090E0D8
:10096000DF91CF911F910F91FF900895CF92DF9269
:10097000EF92FF921F93CF93DF93FC011485143005
:1009800099F1EC0180E590E00E940D0468E070E0D0
:10099000812F0E94D00A0E94D6116B017C01CE01EA
:1009A0000E9428038823B1F061E070E080E090E0CD
:1009B0000E949C110E94D611DC01CB018C199D096B
:1009C000AE09BF09883E9340A105B10540F38C856F
:1009D0000E94D309EC85F0E0EE0FFF1FE05CFC4FB6
:1009E0001182108284E08C87DF91CF911F91FF905C
:1009F000EF90DF90CF9008958F929F92AF92BF9229
:100A0000CF92DF92EF92FF920F931F93CF936C01DF
:100A10005B017A01FC01C485C43041F481E090E0BF
:100A2000F6019383828380E090E04EC08A014130DA
:100A3000584010F000E018E080E590E00E940D04BE
:100A40008C2F0E94AD0B4C0163E070E08C2F0E9454
:100A5000D503873111F08C3121F48016910660F3B3
:100A600002C000E010E080E590E00E940D049801D3
:100A7000A50160E070E08C2F0E94480B60E270E0FE
:100A80008C2F0E94D00A62E070E08C2F0E94D50368
:100A900084FD10C063E070E08C2F0E94D5038111AB
:100AA00004C08C2F0E94D309B9CF80E590E00E944A
:100AB0000D04E9CF40E162E070E08C2F0E94CB038F
:100AC000012B09F4ABCFC701CF911F910F91FF907C
:100AD000EF90DF90CF90BF90AF909F908F90089550
:100AE000CF92DF92FF920F931F93CF93DF93FC017E
:100AF0002485243009F077C06A01EB018C01F12CC8
:100B00008F2D0E94A20A811103C0F801F48607C04C
:100B10008B7F8831D1F3F394F4E0FF12F1CFF80129
:100B20008485843009F45FC0209100023091010275
:100B30002F5F3F4F11F420E030EC309301022093FF
:100B40000002409100025091010220E061E00E9409
:100B5000E709F801F4848A818F3F51F48B818F3F3C
:100B600091F48C818F3F79F48D818F3F61F438C08F
:100B7000811109C08B81811106C08C81811103C054
:100B80008D81882369F1C114D10451F180E590E091
:100B90000E940D04BE016E5F7F4F8F2D90E0982F55
:100BA000882744E050E0845F9B4F0E943208B601E2
:100BB0008F2D0E94FB0364E070E08F2D0E94D00A0D
:100BC000C8010E942803873189F061E070E080E06D
:100BD00090E00E949C11C8010E9428038111F0CF6F
:100BE00084E0F801848780E090E002C081E090E03A
:100BF000DF91CF911F910F91FF90DF90CF900895DB
:100C00008F929F92AF92BF92CF92DF92EF92FF921C
:100C10000F931F93CF93DF937C01EB016C0182E074
:100C2000C80ED11C4701E5E08E0E911C00E010E0DB
:100C3000F60141916F0150E060E070E02AE0CE01E2
:100C40000E9441125C01E881F9810190F081E02D60
:100C50006EE2CE0119958A0D9B1D080F191FC8144D
:100C6000D90431F7F701458150E060E070E02AE0F7
:100C7000CE010E944112800F911FDF91CF911F91F1
:100C80000F91FF90EF90DF90CF90BF90AF909F902B
:100C90008F90089581EC93E00E94F50621E0892B66
:100CA00009F420E0822F08952CEB32E0FC0131831F
:100CB0002083FB014081518162817381FC01428369
:100CC00053836483758308951F920F920FB60F921A
:100CD00011240BB60F922F933F934F935F936F9313
:100CE0007F938F939F93AF93BF93EF93FF9381EC89
:100CF00093E00E945507FF91EF91BF91AF919F91B3
:100D00008F917F916F915F914F913F912F910F90B4
:100D10000BBE0F900FBE0F901F9018951F920F9251
:100D20000FB60F9211240BB60F922F938F939F93B0
:100D3000EF93FF93E091D103F091D2038081E09192
:100D4000D703F091D80382FD12C090818091DA031D
:100D50008F5F8F732091DB03821751F0E091DA03EC
:100D6000F0E0EF53FC4F958F8093DA0301C0808150
:100D7000FF91EF919F918F912F910F900BBE0F904C
:100D80000FBE0F901F901895FC01538D448D252F99
:100D900030E0842F90E0821B930B541710F0CF9615
:100DA000089501970895FC01918D828D981761F047
:100DB000828DDF01A80FB11D5D968C91928D9F5F92
:100DC0009F73928F90E008958FEF9FEF0895FC013D
:100DD000918D828D981731F0828DE80FF11D858DF0
:100DE00090E008958FEF9FEF0895FC01918D228D83
:100DF000892F90E0805C9F4F821B91098F73992708
:100E0000089580E090E0892B21F00E944A0681112C
:100E100025C080E090E0892B41F080E090E0892BB4
:100E200021F00E94000081111CC080E090E0892B1D
:100E300041F080E090E0892B21F00E9400008111B8
:100E400013C080E090E0892BA1F080E090E0892B36
:100E500081F00E94000081110AC008950E940000E4
:100E6000D8CF0E940000E1CF0E940000EACF0C948E
:100E70000000089508950E94F0171F93CF93DF9309
:100E8000182F66E270E00E94D503C82FD0E067E219
:100E900070E0812F0E94D503DC2FCC279E01282BE8
:100EA000C901DF91CF911F910895FC01848DDF016D
:100EB000A80FB11DA35ABF4F2C91848D90E00196CD
:100EC0008F739927848FA689B7892C93A089B189BC
:100ED0008C9180648C93938D848D981306C00288C6
:100EE000F389E02D80818F7D80830895EF92FF92BA
:100EF0000F931F93CF93DF93EC0181E0888F9B8D3D
:100F00008C8D981305C0E889F989808185FD24C0FE
:100F1000F62E0B8D10E00F5F1F4F0F731127E02E81
:100F20008C8DE8120CC00FB607FCFACFE889F9895E
:100F3000808185FFF5CFCE010E945507F1CF8B8DC3
:100F4000FE01E80FF11DE35AFF4FF0820B8FEA8993
:100F5000FB898081806207C0EE89FF896083E88910
:100F6000F98980818064808381E090E0DF91CF9176
:100F70001F910F91FF90EF900895CF93DF93EC01B5
:100F8000888D8823C9F0EA89FB89808185FD05C0A9
:100F9000A889B9898C9186FD0FC00FB607FCF5CFE3
:100FA000808185FFF2CFA889B9898C9185FFEDCF2B
:100FB000CE010E945507E7CFDF91CF9108952C9A7B
:100FC00008952C9808951F93CF93DF93182F60E214
:100FD00070E00E94D503C82FD0E061E270E0812F5D
:100FE0000E94D503DC2FCC279E01282BC901DF915D
:100FF000CF911F9108958EBD00000DB407FEFDCF67
:101000008EB50895CF92DF92EF92FF920F931F93C8
:10101000CF93DF93EC017A018B016C01C40ED51ED6
:10102000CC15DD05A9F00E94E1078FE00E94FB07C7
:101030008D2F0E94FB078C2F0E94FB07219680E0DA
:101040000E94FB07F80181938F010E94DF07E8CF20
:10105000C701DF91CF911F910F91FF90EF90DF902B
:10106000CF900895CF92DF92EF92FF920F931F934C
:10107000CF93DF93EC017A018B016C01C40ED51E76
:10108000CC15DD05A1F00E94E10780EF0E94FB076F
:101090008D2F0E94FB078C2F0E94FB072196F801E1
:1010A00081918F010E94FB070E94DF07E9CFC701F2
:1010B000DF91CF911F910F91FF90EF90DF90CF9034
:1010C00008951F93CF93DF931F921F92CDB7DEB782
:1010D000182F6A8399830E94E10780EF0E94FB0723
:1010E0009981892F0E94FB07812F0E94FB076A814B
:1010F000862F0E94FB070E94DF0781E00F900F9070
:10110000DF91CF911F9108951F93CF93DF931F928B
:101110001F92CDB7DEB7182F80E590E069837A8300
:101120000E940D0421E041E050E069817A81812F25
:101130000E94E00A0E940C0481E090E00F900F9062
:10114000DF91CF911F910895CF93DF931F92CDB779
:10115000DEB7FC01218D328D232B49F0BE016F5F7C
:101160007F4F808D0E948408898190E002C08FEFBC
:101170009FEF0F90DF91CF910895FF920F931F93F0
:10118000CF93DF93F82E80E590E00E940D04C0E03D
:10119000D0E08F2D0E943D078C01892B21F08F2DEF
:1011A0000E943D07EC01C017D10799F70E940C047B
:1011B000CE01DF91CF911F910F91FF900895AF92D3
:1011C000BF92CF92DF92EF92FF921F93CF93DF9364
:1011D000182F5B017A0180E590E00E940D04C0E0C9
:1011E000D0E0812F0E943D076C01892B21F0812FD7
:1011F0000E943D07EC01CC15DD0599F7209799F485
:1012000063E070E0812F0E94D5038431F1F08823E0
:10121000E1F0C1E0D0E08C3111F4C0E0D0E0D19534
:10122000C195D10912C0EC16FD060CF4E7011C169D
:101230001D065CF420E0AE01B501812F0E94E00A9A
:1012400060E470E0812F0E94D00A0E940C04CE015D
:10125000DF91CF911F91FF90EF90DF90CF90BF90E3
:10126000AF900895CF93DF93FC01218D328D21152E
:10127000310519F48FEF9FEF11C0EC0142175307AE
:1012800008F0A901888D0E94DF081816190694F746
:10129000298D3A8D281B390B3A8F298FDF91CF91F9
:1012A00008950F931F93CF93DF931F92CDB7DEB7AF
:1012B000FC01218D328D232B61F08C0141E050E047
:1012C000BE016F5F7F4F808D0E94DF0818161906E0
:1012D0001CF08FEF9FEF08C0F801818D928D019770
:1012E000928F818F898190E00F90DF91CF911F9134
:1012F0000F9108950F931F93CF93DF93CDB7DEB770
:1013000028970FB6F894DEBF0FBECDBF8C01F80151
:10131000818D928D892B49F0D801ED91FC91028449
:10132000F385E02DC8011995F2CF808D0E94BD088C
:10133000181619065CF548E050E0BE016F5F7F4F5C
:10134000D80158968C910E94DF089C011816190646
:10135000DCF489819A81AB81BC81F801808B918B0F
:10136000A28BB38B8D8190E0982F88272E81820FDE
:10137000911D958B848B2F8130E0322F2227888519
:10138000280F311D328F218FC90102C080E090E00B
:1013900028960FB6F894DEBF0FBECDBFDF91CF9178
:1013A0001F910F910895CF93C82F80E590E00E9480
:1013B0000D0460E170E08C2F0E94D00A4FEF62E0D4
:1013C00070E08C2F0E94CB03CF910C940C04FF9201
:1013D0000F931F93CF93DF931F921F92CDB7DEB76A
:1013E000F82E8A012A8369830E94D30980E590E060
:1013F0000E940D042A816981462F422B60E070E033
:101400008F2D0E94CB030115110551F40091AF03FC
:101410001091B0030F5F1F4F1093B0030093AF0301
:10142000412F64E070E08F2D0E94CB03402F65E0D8
:1014300070E08F2D0E94CB0361E070E08F2D0E9441
:10144000D00A0E940C0481E00F900F90DF91CF91A1
:101450001F910F91FF900895BF92CF92DF92EF926C
:10146000FF920F931F93CF93DF9300D000D0CDB79F
:10147000DEB7FC01208D243009F053C06A017B01E6
:101480008C01B12C63E070E08B2D0E94D50381119B
:1014900003C0F801B08E06C08831D9F3B394F4E0EC
:1014A000BF12F0CFF801808D8430D9F196E0ECE5E1
:1014B000F2E0DE01119601900D929A95E1F7F701A5
:1014C00093819F779C8394819D8395819E83B701AF
:1014D0006E5F7F4F90E0982F882744E050E0845F54
:1014E0009B4F0E943208B601F801808D0E94FB03D9
:1014F000F801808D90E0982F882746E050E0BE01EB
:101500006F5F7F4F8A5F9B4F0E943208F801128EF7
:10151000118E20E8A60162E0808D0E94E70981E03B
:1015200001C080E026960FB6F894DEBF0FBECDBF97
:10153000DF91CF911F910F91FF90EF90DF90CF90AF
:10154000BF9008951F93CF93DF931F92CDB7DEB75F
:10155000182F80E590E00E940D0463E070E0812F79
:101560000E94D50389830E940C0489810F90DF912A
:10157000CF911F91089565E373E081EC93E00C94A3
:101580002C12CF93DF93BC0181EC93E00E942C12CC
:10159000EC010E94BB0A8C0F9D1FDF91CF91089533
:1015A000CF93C82F462F61E070E00E94CB0361E02B
:1015B00070E08C2F0E94D5038111F9CFCF9108954F
:1015C0008F929F92AF92BF92CF92DF92EF92FF9253
:1015D0000F931F93CF93DF93B82E4B018A01A22E56
:1015E00068E270E00E94D503C82FD0E069E270E0A5
:1015F0008B2D0E94D503DC2FCC27C82B9E01377082
:10160000CB2CD12CC601880F991FAC0147545C4FDD
:101610006A01FA0180819181820F931FA801420F14
:10162000531F4130584098F060E078E07B01E21AA7
:10163000F30AA701B4010E940208A8014E195F092C
:10164000B4016E0D7F1DF6018081918102C0A80159
:10165000B4010E940208A1100EC0C00FD11F4D2F6F
:1016600068E270E08B2D0E94CB034C2F69E270E0A2
:101670008B2D0E94CB03DF91CF911F910F91FF9093
:10168000EF90DF90CF90BF90AF909F908F90089594
:101690009F92AF92BF92CF92DF92EF92FF920F9301
:1016A0001F93CF93DF93982E8B015A01690164E257
:1016B00070E00E94D503E82EF12C65E270E0892DE0
:1016C0000E94D503FE2CEE24E82AE701C00FD11FAB
:1016D0009E013770E92CF12CC701880F991FAC01CE
:1016E0004F545C4F7A01FA0180819181820F931FE0
:1016F000A9014C0D5D1D4130584090F000E018E00C
:10170000021B130BA801B5010E943208A601401B61
:10171000510BB501600F711FF7018081918102C0EB
:10172000A601B5010E943208CC0DDD1D4D2F64E2EB
:1017300070E0892D0E94CB034C2F65E270E0892D6B
:10174000DF91CF911F910F91FF90EF90DF90CF909D
:10175000BF90AF909F900C94CB03FF920F931F9379
:10176000CF93DF93F82EC0E0D0E08F2D0E94E307E7
:101770008C01892B21F08F2D0E94E307EC01C0170B
:10178000D10799F7CE01DF91CF911F910F91FF9073
:10179000089590E0FC01EC53FD4F2491FC01E258C8
:1017A000FD4F8491882399F090E0880F991FFC01E8
:1017B000EC59FD4FA591B491FC01E65BFD4F85917D
:1017C00094918FB7F894EC91E22BEC938FBF08952E
:1017D0002F923F924F925F926F927F928F929F9241
:1017E000AF92BF92CF92DF92EF92FF920F931F932F
:1017F000CF93DF93CDB7DEB765970FB6F894DEBF12
:101800000FBECDBF7C016B013A01FB0120E080E0FF
:1018100090E06AE03191332309F140ED430F4A3003
:1018200080F4689FA001699F500D1124CA01C097E0
:10183000830F911D37FD9A958F3F910559F350F312
:1018400013C03E3289F4233079F0D301A20FB11DC9
:1018500012968C932F5F80E090E0DCCF233021F450
:10186000F301858381E021C0F701428153816481C6
:1018700075818091750490917604A0917704B09160
:101880007804481759076A077B0709F49EC10E942C
:10189000D6118701085F1F4F6F7077277C5FC801E3
:1018A0000E945403813019F080E090E0F3C18CEB8A
:1018B00092E09A838983F70182819381A481B58123
:1018C0008B839C83AD83BE8345E350E0BE016F5F95
:1018D0007F4FC8010E947804892B19F4C12CD12CA8
:1018E0006FC10E94D611F701778366837627672739
:1018F00076277A83698342E050E0BE016F5F7F4FB5
:10190000C8010E94100481E090E09E878D8742E02C
:1019100050E0BE01635F7F4FC8010E94100480E069
:1019200091E09E878D8742E050E0BE01635F7F4F6C
:10193000C8010E9410041E861D8642E050E0BE01D0
:10194000635F7F4FC8010E94100442E050E0BE0177
:10195000635F7F4FC8010E94100442E050E0BE0167
:10196000635F7F4FC8010E9410045601F50180811A
:10197000882311F1F6015F018191811115C04501A4
:101980008C189D081814190494F48F8641E050E0D7
:10199000BE01615F7F4FC8010E941004A401B6011F
:1019A000C8010E94100403C08E3229F7E8CF6501F8
:1019B000FFEFCF1ADF0ADACF1F8641E050E0BE0109
:1019C000615F7F4FC8010E941004C12CDD24D394B5
:1019D000DE86CD8642E050E0BE01635F7F4FC801E6
:1019E0000E941004DE86CD8642E050E0BE01635FB7
:1019F0007F4FC8010E941004C8010E944604892B31
:101A000009F46CCF63E0A62EB12CF2E06F0E711CCE
:101A10000E94D6111B012C01C8010E947A091816D8
:101A20001906A4F00E94D611DC01CB01821993099A
:101A3000A409B50989389341A105B105D0F462E341
:101A400070E080E090E00E949C11E6CFF7014281B7
:101A5000538164817581808D918DA28DB38D4817DE
:101A600059076A077B0741F4848D958DC59721F44A
:101A700006C02FEF3FEF9AC02EEF3FEF97C0F70160
:101A800081A192A10C970CF4A6C04CE050E0BE01DD
:101A90006F5F7F4FC8010E9432098B8190E0982FC1
:101AA00088272C81822B9A8B898B298130E0322FD9
:101AB00022274A81242BF701468157814217530779
:101AC00009F086C097FF84C08F709270892B09F04F
:101AD000DEC0CF80D12CDC2CCC248885C82AC11450
:101AE000D10409F4D1C0812C912C8D8190E0982FE4
:101AF00088272E81822B8816990608F46FC0812CC6
:101B0000912C41E050E0BE016D5E7F4FC8010E9404
:101B100032098B89982F907C09F093C0811186C07F
:101B20008B898111EECF42E050E0BE01615F7F4FB3
:101B3000C8010E94320942E050E0BE01635F7F4F5E
:101B4000C8010E943209C8010E945109C8010E94BF
:101B50005109C8010E945109C8010E94510942E07F
:101B600050E0BE016F5E7F4FC8010E9432098F8531
:101B700098898115914009F069C02D853E853227ED
:101B8000232732272130310509F060C089899A89DD
:101B90008115944009F075C044E050E0B301C801DC
:101BA0002C8B3D8B0E9432092C893D896901F1E023
:101BB000AF1AB10829F02FEFC216D20609F428CFC8
:101BC000C8010E941303C60165C08EEF9FEF62C07B
:101BD0002CEF3FEFEBCF2DEF3FEFE8CF41E050E0B0
:101BE000BE01635F7F4FC8010E9432098D8581115C
:101BF00013C08D858111F2CFC8010E945109C8011F
:101C00000E945109C8010E945109C8010E9451094E
:101C1000FFEF8F1A9F0A69CF8D859FEF980F9D87E1
:101C2000882339F3C8010E945109F6CF8B899FEFB1
:101C3000980F9B8B882309F473CFC8010E94510928
:101C4000F5CFC8010E9451091B8A6ACF412C512C43
:101C500089899A899827892798274816590638F438
:101C6000C8010E9451098FEF481A580AF1CFEFEFCF
:101C70008E1A9E0A8C149D0409F043CF26EF3FEF85
:101C800095CF27EF3FEF92CF2AEF3FEF8FCF2BEF8C
:101C90003FEF8CCF65960FB6F894DEBF0FBECDBF79
:101CA000DF91CF911F910F91FF90EF90DF90CF9038
:101CB000BF90AF909F908F907F906F905F904F906C
:101CC0003F902F90089580E3FB0180833296842F0C
:101CD00082958F7090E1899F401911244A3014F445
:101CE000405D01C0495C4293482F8111F0CF0895B7
:101CF0002F923F924F925F926F927F928F929F921C
:101D0000AF92BF92CF92DF92EF92FF920F931F9309
:101D1000CF93DF93CDB7DEB7E3970FB6F894DEBF6E
:101D20000FBECDBF7C011A012B0139010E94D611D3
:101D30004B015C0187010D5B1F4FC8010E947A09AE
:101D400018161906A4F00E94D611DC01CB018819DF
:101D50009909AA09BB09281639064A065B06D8F074
:101D600062E370E080E090E00E949C11E6CF42E2E6
:101D700050E0BE016F5F7F4FC8010E943209898128
:101D8000823011F080E061C1F80184899589833443
:101D90009105C1F702C08FEF58C16D817E818F819F
:101DA00098850E94E9174B015C01F3016083718300
:101DB0008283938346E050E0B701685F7F4FCE0196
:101DC0004D960E94F517892BE9F6F70180819181E4
:101DD000A281B38188169906AA06BB0698F284816F
:101DE0009581A681B78188159905AA05BB0550F292
:101DF00089899A89AB89BC8986879787A08BB18BA3
:101E00008EECA82EB12CC8010E945109F1E0AF1A46
:101E1000B108C9F719A6670182E2C80ED11CF70103
:101E2000B696FBA7EAA7C7018A969DA78CA73C9701
:101E30004F0189969FA78EA73897F9ABE8AB17019A
:101E4000F6E12F0E311CC5979BAB8AABF801818D53
:101E5000928D181619060CF0F7C0C8010E9451099E
:101E60008333910509F4CBC0FCF481309105C9F1AD
:101E70001CF4892B59F3DCC083309105D1F106970E
:101E800009F0D6C0C8010E9451095C0144E050E04D
:101E90006AA97BA9C8010E943209412C512CBB249C
:101EA000F4E0AF1AB10840C08A33910509F47BC051
:101EB0003CF48533910569F0C69709F440C0B8C079
:101EC0008B33910509F485C08F3F910509F4BECF8E
:101ED000AFC0C8010E945109C8010E94510989A7D9
:101EE000B5CFC8010E94510944E050E068A979A922
:101EF0003AC0C8010E9451095C0144E050E0B101C0
:101F0000C8010E943209412C512CBB2494E0A91A2B
:101F1000B1084A145B040CF099CFC8010E94510922
:101F2000EFEF4E1A5E0AF5CF4A145B040CF08ECF29
:101F3000C8010E9451098FEF481A580AF5CFC8010D
:101F40000E945109B82EF701828D811110C0838D36
:101F500081110DC0848D81110AC0858D811107C04A
:101F600044E050E0B401C8010E9432096FCFEEA5F1
:101F7000FFA54080518062807380B401CE018396BA
:101F80000E9454068DA19EA1AFA1B8A58415950508
:101F9000A605B70529F3BB2009F458CFC8010E9454
:101FA0005109BA94F8CFC8010E94510944E050E0A9
:101FB0006AA57BA5C8010E943209F70166A177A135
:101FC00080A591A50E94E91766A377A380A791A792
:101FD0003DCFC8010E94510944E050E06CA57DA5A9
:101FE000C8010E943209F70162A573A584A595A5D1
:101FF0000E94E91762A773A784A795A727CFC801F6
:102000000E94510944E050E0B601C8010E94320923
:10201000F70162A173A184A195A10E94E91762A3AF
:1020200073A384A395A366A777A780AB91AB0ECFCC
:10203000C8010E945109B82EBB2009F407CFC8017E
:102040000E945109BA94F8CF89A5E3960FB6F89487
:10205000DEBF0FBECDBFDF91CF911F910F91FF90DB
:10206000EF90DF90CF90BF90AF909F908F907F9038
:102070006F905F904F903F902F9008953FB7F894E6
:102080008091A2049091A304A091A404B091A5040E
:1020900026B5A89B05C02F3F19F00196A11DB11DC3
:1020A0003FBFBA2FA92F982F8827820F911DA11DFE
:1020B000B11DBC01CD0142E0660F771F881F991F3B
:1020C0004A95D1F70895CF92DF92EF92FF920F9346
:1020D0001F93CF93DF936C017A018B01C0E0D0E0B6
:1020E000CE15DF0589F0D8016D918D01D601ED91F6
:1020F000FC910190F081E02DC6011995892B11F416
:102100007E0102C02196ECCFC701DF91CF911F91D4
:102110000F91FF90EF90DF90CF9008957F928F9274
:102120009F92AF92BF92CF92DF92EF92FF920F9366
:102130001F93CF93DF93CDB7DEB7A6970FB6F89472
:10214000DEBF0FBECDBF8C01762E942E852E20E2F1
:10215000B22ECE0101967C01FC012B2D11922A9505
:10216000E9F78CEB92E09AA389A38FEF8BA38CA362
:102170008DA38EA3680183E4C80ED11C43E450E014
:10218000BE016F5D7F4FC6010E947804019609F47D
:10219000BFC081E089838A8386E0A82EAB821C823F
:1021A000F80164817581868197810E94E9176D83AA
:1021B0007E838F83988789869A8680E890E09C87C3
:1021C0008B874CE150E0B701C6010E941004F70173
:1021D0002B2D11922A95E9F7480188E0880E911C71
:1021E000F401D70101900D92AA94E1F740E150E08B
:1021F000B701C6010E941004F7011192BA94E9F7E1
:1022000096E0A92EB12C40E250E0B701C6010E9431
:102210001004F1E0AF1AB108B1F783E6898392E8C0
:102220009A8393E59B838C8385E38D8381E08E8302
:102230007F829DE3988797E099878A8786E0F401FB
:10224000DE011B9601900D928A95E1F78CE0898B57
:102250008A8B68E373E0CE0143960E940218F8016E
:102260004385BE01675E7F4FC8010E94630EF8017F
:102270004485BE01655E7F4FC8010E94630EF80170
:102280004585BE01635E7F4FC8010E94630E4EE12B
:1022900050E0B701C6010E941004F3E07F121EC097
:1022A00082E3898384E08A83F80196859B839785FE
:1022B0009C8390899D8391899E8396E39F838887E1
:1022C000828D8987838D8A87848D8B87858D8C8786
:1022D0004CE050E0B701C6010E94100487E38983F7
:1022E00086E08A8391E09B8393E09C838D838FE0DB
:1022F0008E838AE38F838BE388878FEF898749E01A
:1023000050E0B701C6010E941004C6010E944604B5
:10231000A6960FB6F894DEBF0FBECDBFDF91CF916A
:102320001F910F91FF90EF90DF90CF90BF90AF90F3
:102330009F908F907F9008958F929F92AF92BF92BF
:10234000CF92DF92EF92FF926B017C010E943E10D0
:102350004B015C01C114D104E104F104F1F00E94CD
:102360003E10DC01CB0188199909AA09BB09883EF6
:102370009340A105B10570F321E0C21AD108E1082C
:10238000F10888EE880E83E0981EA11CB11CC114D0
:10239000D104E104F10419F7DDCFFF90EF90DF9055
:1023A000CF90BF90AF909F908F9008952FB7F894E3
:1023B00060919E0470919F048091A0049091A1046B
:1023C0002FBF08951F920F920FB60F9211242F93D3
:1023D0003F938F939F93AF93BF9380919E0490916F
:1023E0009F04A091A004B091A10430919D0423E02A
:1023F000230F2D3720F40196A11DB11D05C026E83D
:10240000230F0296A11DB11D20939D0480939E046D
:1024100090939F04A093A004B093A1048091A20480
:102420009091A304A091A404B091A5040196A11DCC
:10243000B11D8093A2049093A304A093A404B0932D
:10244000A504BF91AF919F918F913F912F910F90D4
:102450000FBE0F901F9018956115710579F0FB0163
:1024600001900020E9F73197AF01461B570BDC01C3
:10247000ED91FC910280F381E02D199480E090E0D1
:1024800008954F925F926F927F92EF92FF920F9317
:102490001F93CF93DF93CDB7DEB7A1970FB6F89414
:1024A000DEBF0FBECDBF7C01FA01CB0119A22230E5
:1024B00008F42AE08E010F5D1F4F422E512C612C33
:1024C000712CBF01A30192010E94B017F901CA014A
:1024D000015011096A3014F4605D01C0695CD801D3
:1024E0006C93232B242B252B61F7B801C7010E9485
:1024F0002C12A1960FB6F894DEBF0FBECDBFDF91B0
:10250000CF911F910F91FF90EF907F906F905F9010
:102510004F900895CF93DF9300D000D0CDB7DEB7B2
:10252000789484B5826084BD84B5816084BD85B5AE
:10253000826085BD85B5816085BD80916E008160BA
:1025400080936E0010928100809181008260809360
:102550008100809181008160809381008091800062
:102560008160809380008091B10084608093B1008D
:102570008091B00081608093B00080919100826072
:10258000809391008091910081608093910080916F
:1025900090008160809390008091A1008260809380
:1025A000A1008091A10081608093A1008091A00092
:1025B00081608093A000809121018260809321013D
:1025C00080912101816080932101809120018160AF
:1025D0008093200180917A00846080937A008091BA
:1025E0007A00826080937A0080917A008160809383
:1025F0007A0080917A00806880937A001092C100FE
:10260000E091D103F091D20382E08083E091CD0389
:10261000F091CE031082E091CF03F091D0038FECC4
:1026200080831092D903E091D503F091D60386E020
:102630008083E091D303F091D40380818061808313
:10264000E091D303F091D403808188608083E0918E
:10265000D303F091D403808180688083E091D30319
:10266000F091D40380818F7D80830E94BB0A86E62F
:1026700094E00E94B60484EC92E00E94C10A0E9499
:10268000BB0A68EE73E080E090E00E949C118091AC
:10269000A70381112AC010928F0310928E0388EE37
:1026A00093E0A0E0B0E08093900390939103A09317
:1026B0009203B093930388E392E090938D03809309
:1026C0008C038CEB92E090939B0380939A0310927F
:1026D0009C0310929D0310929E0310929F0384E02E
:1026E0008093A40381E08093A70389E493E090930F
:1026F0006504809364046CE271E080E090E00E94E5
:102700009C111FB7F89480914803811193C063EB2B
:1027100072E0FB01849129EF32E0F901449190E0ED
:10272000880F991F8C599D4FFC01A591B4918C91F4
:10273000482309F070C0E9E3F2E04491F9012491E3
:10274000FB019491992309F466C0442309F455C010
:1027500050E0FA013197E231F10508F04EC08827C8
:10276000EE58FF4F8F4F0C94E117809180008F77C8
:1027700007C0809180008F7D03C080918000877F9B
:10278000809380003AC084B58F7702C084B58F7D76
:1027900084BD33C08091B0008F7703C08091B000BA
:1027A0008F7D8093B00029C0809190008F7707C003
:1027B000809190008F7D03C080919000877F8093EF
:1027C00090001BC08091A0008F7707C08091A0006F
:1027D0008F7D03C08091A000877F8093A0000DC0F3
:1027E000809120018F7707C0809120018F7D03C0E9
:1027F00080912001877F80932001E92FF0E0EE0F88
:10280000FF1FE65BFD4FA591B4918FB7F8949C91A3
:10281000292B2C938FBF85E30E94C90B8CB5806157
:102820008CBD8CB580648CBD84E30E94C90B83E3AE
:102830000E94C90B809148038F5F809348031FBF9C
:10284000249A80E590E00E940D0460E880E090E02A
:102850000E94610865E58BE190E00E94610865E5F2
:102860008AE190E00E9461080E940C0480E090E4FC
:102870009093B2038093B10380E090E69093BA0303
:102880008093B90380E098E49093B4038093B303FA
:1028900080E098E69093BC038093BB0380E090E5D2
:1028A0009093B6038093B50380E090E79093BE03C6
:1028B0008093BD0380E098E59093B8038093B703BD
:1028C00080E098E79093C0038093BF0380E590E099
:1028D0000E940D0446E050E062E072E089E090E082
:1028E0000E9432088CEB92E09A8389831B821C82BF
:1028F0001D821E8244E050E0BE016D5F7F4F8FE07D
:1029000090E00E9432080E940C040091640410912F
:102910006504D80192961D921D921D921C92959766
:10292000F80116A217A210A611A69A961D921D9242
:102930001D921C929D9780E69AEEA0E0B0E086ABD7
:1029400097ABA0AFB1AF80EA9FE0A0E0B0E082AF6C
:1029500093AFA4AFB5AFD801189686E0FD01982FCC
:1029600011929A95E9F79801225F3F4F94E1F9019E
:1029700011929A95E9F7E2E0F2E001900D928A95C2
:10298000E1F77801F2E4EF0EF11CD7011C920E94EE
:1029900071172FEC37E040E050E00E947E17DC0119
:1029A000CB010196A11DB11DF80184839583A683F7
:1029B000B78380839183A283B3835801F3E4AF0E7E
:1029C000B11CC5010E94130364E470E0C5010E94BC
:1029D0005403811105C085EE92E00E94C10AACC18A
:1029E0000E94D6112B013C01812C912CD12C43E06B
:1029F000342E52E0C52ED7018C91833009F404C1E6
:102A0000811121C0F80184819581A681B781019649
:102A1000A11DB11D84839583A683B7830E94D6111F
:102A2000641975098609970928EE33E040E050E003
:102A30000E94B017A90161E0C8010E948E1081E0D8
:102A4000D7018C93C3C0843001F5F801848195814E
:102A5000A681B7810196A11DB11D84839583A683AC
:102A6000B7830E94D611641975098609970928EE63
:102A700033E040E050E00E94B017A90163E0C801D4
:102A80000E948E10D701CC92A1C0813061F5F8016F
:102A900042AD53AD64AD75AD9E012F5F3F4FC80190
:102AA0000E94780ED82EF2E08F1390C089819A810F
:102AB000AB81BC81F80184839583A683B7830E9490
:102AC000D611641975098609970928EE33E040E0AC
:102AD00050E00E94B017A90163E0C8010E948E1067
:102AE000D701DC9279C0823009F070C0F80142ADA4
:102AF00053AD64AD75AD9E012F5F3F4FC8010E947D
:102B0000780ED82EF5E08F135BC0D7013C92F80108
:102B100082A193A1A4A1B5A1892B8A2B8B2B41F46F
:102B200084E893E0A0E0B0E082A393A3A4A3B5A3BC
:102B3000F80186A197A1A0A5B1A5892B8A2B8B2B83
:102B400061F482A193A1A4A1B5A1B695A79597958B
:102B5000879586A397A3A0A7B1A7F80182A593A5FF
:102B6000A4A5B5A5892B8A2B8B2BA9F482A193A1AF
:102B7000A4A1B5A1AC01BD0123E076956795579559
:102B800047952A95D1F7841B950BA60BB70B82A707
:102B900093A7A4A7B5A7F80186A197A1A0A5B1A561
:102BA00086A797A7A0ABB1AB82A593A5A4A5B5A511
:102BB00082AB93ABA4ABB5AB88248394912C0CC0AF
:102BC000F6E08F1303C0D7011C9206C0BFEFDB12E3
:102BD00003C0F7011082D12CF1E08F16910409F4A3
:102BE0000ACF0E94D611DC01CB0184199509A609F0
:102BF000B709F80126A937A940AD51AD2817390703
:102C00004A075B0708F0F7CEC5010E941303F801DD
:102C100084819581A681B7810196A11DB11D848310
:102C20009583A683B7830E94D611F801FE96608330
:102C3000718382839383F1E08F16910409F056C06B
:102C400080E590E00E940D04609164047091650439
:102C5000625F7F4FCE0101960E94540644E050E02F
:102C6000BE016D5F7F4F8FE090E00E94320860915F
:102C70006404709165046A5E7F4FCE0101960E94E4
:102C8000540644E050E0BE016D5F7F4F81E090E06C
:102C90000E94320860916404709165046E5E7F4FFB
:102CA000CE0101960E94540644E050E0BE016D5FE3
:102CB0007F4F85E090E00E9432080E940C046091F2
:102CC000640470916504625E7F4FCE0101960E949C
:102CD00054068B819C81AD81BE818093600490936A
:102CE0006104A0936204B093630403C0892809F4CB
:102CF00072CE8DE093E00E94C10A8CEB92E09A8341
:102D000089831B821C821D821E8280E590E00E94C6
:102D10000D0444E050E0BE016D5F7F4F8FE090E016
:102D20000E9402080E940C0461EC73E0CE0101963F
:102D30000E9400060E94BB0A0E94BB0A68EE73E074
:102D400080E090E00E949C110E940107FDCFE3E724
:102D5000F4E08CEB92E091838083128213821482E0
:102D60001582E9E7F4E09183808312821382148252
:102D70001582EFE7F4E0918380831282138214823C
:102D80001582E1ECF3E01382128248EE53E060E03A
:102D900070E0448355836683778326E632E031838F
:102DA000208325EC30E03587248724EC30E037871A
:102DB000268720EC30E0318B208B21EC30E0338B08
:102DC000228B22EC30E0358B248B26EC30E0378BE5
:102DD000268B118E128E138E148EE5E8F4E091830B
:102DE00080831282138214821582EBE8F4E09183CF
:102DF00080831282138214821582E1E9F4E09183C8
:102E000080831282138214821582EEE5F4E09183AE
:102E100080831282138214821582E7E9F4E09183A1
:102E200080831282138214821582E6E6F4E0138214
:102E30001282448355836683778386E992E0918387
:102E4000808384E0848708958F929F92AF92BF928F
:102E5000CF92DF92EF92FF92CF93DF93EC016881E4
:102E600079818A819B81611571058105910521F424
:102E700064E279ED8BE597E02DE133EF41E050E03E
:102E80000E947E1749015A019B01AC01A7EAB1E4F7
:102E90000E949D176B017C01ACEEB4EFA50194017B
:102EA0000E94AB17DC01CB018C0D9D1DAE1DBF1D1B
:102EB000B7FF03C00197A109B04888839983AA830B
:102EC000BB83BC01CD019F77DF91CF91FF90EF9045
:102ED000DF90CF90BF90AF909F908F9008950C940B
:102EE000241788E092E00C942417609308027093F2
:102EF000090280930A0290930B020895052E97FB16
:102F00001EF400940E94951757FD07D00E94B01739
:102F100007FC03D04EF40C949517509540953095CE
:102F200021953F4F4F4F5F4F089590958095709535
:102F300061957F4F8F4F9F4F08950E94D217A59F95
:102F4000900DB49F900DA49F800D911D11240895A4
:102F5000B7FF0C949D170E949D17821B930B089539
:102F6000A1E21A2EAA1BBB1BFD010DC0AA1FBB1F8D
:102F7000EE1FFF1FA217B307E407F50720F0A21BFF
:102F8000B30BE40BF50B661F771F881F991F1A946C
:102F900069F760957095809590959B01AC01BD0196
:102FA000CF010895A29FB001B39FC001A39F700DF0
:102FB000811D1124911DB29F700D811D1124911D41
:102FC0000895EE0FFF1F881F8BBF0790F691E02D2D
:102FD00019946927962769277827872778270895DE
:102FE00081E090E0F8940C940918FB01DC0104C026
:102FF0008D910190801921F441505040C8F7881BF1
:10300000990B0895FB01DC0101900D920020E1F77E
:063010000895F894FFCFC3
:1030160000C0D428B2FFA0A10100000000000000FB
:103026003B073B072A023B073B073B073B073B07A0
:10303600EE013B073B073B073B073B073B073B07CD
:103046003B073B0700000000B90110042A023A07BB
:10305600CF015109A40854032C0A130378042D0246
:1030660046047A093209E701D701D30101005E005F
:1030760000000000000076076310C406BD07F506D1
:10308600D306E706000000003B0763102A02290268
:103096003B073B073B07000000003B0763102A0283
:1030A6002902000000000402FC042A020302C203F3
:1030B600A80381037005A002A403B6043003FB0134
:1030C60026022402F0011A02000000000006000099
:1030D60000003B07436F6E6E656374696E6720413F
:1030E600726475696E6F20746F206E6574776F7287
:1030F6006B2E2E2E0044484350204661696C656451
:103106002C2072657365742041726475696E6F2038
:10311600746F2074727920616761696E0041726410
:1031260075696E6F20636F6E6E6563746564207477
:103136006F206E6574776F726B207573696E67208A
:1031460044484350000D0A0057495A6E6574000002
:00000001FF
