:100000000C9456010C9487010C9487010C94870181
:100010000C9487010C9487010C9487010C94870140
:100020000C9487010C9487010C9487010C94870130
:100030000C9487010C9487010C9487010C94870120
:100040000C9487010C9487010C9487010C94870110
:100050000C9487010C9487010C9487010C94B911BE
:100060000C9487010C94DD0D0C94B30D0C94870156
:100070000C9487010C9487010C9487010C948701E0
:100080000C9487010C9487010C9487010C948701D0
:100090000C9487010C9487010C9487010C948701C0
:1000A0000C9487010C9487010C9487010C948701B0
:1000B0000C9487010C9487010C9487010C948701A0
:1000C0000C9487010C9487010C9487010C94870190
:1000D0000C9487010C9487010C9487010C94870180
:1000E0000C9487015F116211511155115911991129
:1000F00066116A117011741178117E1182118611C6
:1001000099118C11901194110C9459110C94C101F6
:100110000C94560D0C9489010C94B10D0C9455114E
:100120000C9490110C945C0A0C940F0D0C94370FE6
:100130000C945F110C94D80C0C9482110C947E11C9
:100140000C94F40B0C9499110C9429070C941F0730
:100150000C9470110C94A70C0C9462110C947411F3
:100160000C9486110C94CA0C0C9466110C94B60C69
:100170000C948C110C94050C0C9478110C94941123
:100180000C9451110C94AA010C9413150C94C001F9
:100190000C946A117C3C3E5E2B3D3F2F5B5D3B2CFB
:1001A0002A225C0000000A0B02090C0D0E0807034E
:1001B000040100000000000000000000000000003A
:1001C000000000000000000000000000000000002F
:1001D00012111000000000000000000000000000EC
:1001E00000000000000000000000000022002500C8
:1001F00028002B002E003100340002010000050110
:1002000008010B0100002100240027002A002D0016
:100210003000330001010000040107010A01050557
:100220000505070508080808020202020A0A08086C
:10023000040404040101010101010101030303039A
:1002400003030303040707070C0C0C0C0C0C0C0C29
:100250000202020206060606060606060B0B0B0B3A
:100260000B0B0B0B0102102020080810204010205F
:10027000408002010201080402010102040810206A
:100280004080804020100804020180040201804068
:1002900020100804020108040201010204081020D1
:1002A00040800102040810204080131511241FBE55
:1002B000CFEFD1E2DEBFCDBF00E00CBF12E0A0E087
:1002C000B2E0E8EBFDE200E00BBF02C007900D9248
:1002D000A83EB107D9F726E0A8EEB2E001C01D9212
:1002E000A230B207E1F711E0C6E5D1E000E006C0B8
:1002F00021970109802FFE010E946A15C535D1079B
:1003000080E00807A9F70E942C120C94DA160C94CE
:100310000000DC015996ED91FC915A973097B9F0A5
:1003200083899489A589B6894285538564857585B5
:10033000841B950BA60BB70B811520E89207A1052E
:10034000B10538F08FEF9FE7A0E0B0E0089580E0BE
:1003500090E00895CF93DF931F92CDB7DEB7698306
:10036000DC01ED91FC910280F381E02D41E050E051
:10037000BE016F5F7F4F19950F90DF91CF91089568
:10038000089580E090E008953F924F925F926F92BF
:100390007F928F929F92AF92BF92CF92DF92EF9215
:1003A000FF920F931F93CF93DF93CDB7DEB72C97B8
:1003B0000FB6F894DEBF0FBECDBF5C01DC015B96CB
:1003C0008D909C905C971696CD90DD90ED90FC9072
:1003D0001997C114D104E104F10439F0BFEFCB1A2D
:1003E000DB0AEB0AFB0A312C07C0F401C080D18084
:1003F000E280F38033243394F40181859285A385D0
:10040000B4859C01AD012F5F3F4F4F4F5F4F298750
:100410003A874B875C87260137011D821E821F8227
:100420001886F40181859285A385B4852D813E814E
:100430004F815885281739074A075B0708F063C0C2
:1004400089859A85AB85BC858C159D05AE05BF0554
:1004500050F482E0C82ED12CE12CF12C92E0492EF0
:10046000512C612C712C9E012F5F3F4FB701A601CB
:10047000C4010E94B30E882309F445C089819A8182
:10048000AB81BC81892B8A2B8B2B41F02601370154
:100490009FEF491A590A690A790A05C0C414D5049C
:1004A000E604F70491F02D813E814F8158852F5F3E
:1004B0003F4F4F4F5F4F2D833E834F8358873FEF12
:1004C000C31AD30AE30AF30AACCF0FEF1FEF2FEFE3
:1004D0003FE0B301A201C4010E94130E882399F0EA
:1004E000D50116964D915D916D917C9119974115AD
:1004F00051056105710549F093018201C4010E9413
:10050000130E811102C080E02AC0D50116964D92CB
:100510005D926D927C921997332051F0D301C20104
:100520000196A11DB11DF40180839183A283B38341
:10053000F5018789908DA18DB28D892B8A2B8B2B0C
:1005400069F4D50157964D925D926D927C925A97BF
:1005500014968C911497806814968C9381E02C9655
:100560000FB6F894DEBF0FBECDBFDF91CF911F91C4
:100570000F91FF90EF90DF90CF90BF90AF909F9042
:100580008F907F906F905F904F903F9008954F9223
:100590005F926F927F92AF92BF92CF92DF92EF9273
:1005A000FF920F931F93CF93DF9300D01F92CDB78D
:1005B000DEB78C0149835A836B837C835901C12C3C
:1005C000D12C7601412C82E0582E612C712C49816E
:1005D0005A816B817C819E012F5F3F4FC8010E9431
:1005E000B30E882351F1D301C201F801058404C080
:1005F000880F991FAA1FBB1F0A94D2F7C80ED91ED5
:10060000EA1EFB1E49815A816B817C81878980317A
:1006100029F088EF9FEFAFEFBFE004C088EF9FEFB6
:10062000A0E0B0E0481759076A077B0780F2F501A0
:10063000C082D182E282F38281E00F900F900F900E
:100640000F90DF91CF911F910F91FF90EF90DF906E
:10065000CF90BF90AF907F906F905F904F90089534
:100660008F929F92AF92BF92CF92DF92EF92FF92C2
:100670000F931F93CF93DF93EC018D81811102C003
:1006800080E077C00B891C892D893E8904171507E6
:1006900026073707A8F36A017B01823029F4CA864E
:1006A000DB86EC86FD860DC0C114D104E104F104A3
:1006B00051F41E821F82188619861A861B861C8694
:1006C0001D8681E056C08A849B84AC84BD84EB8DFA
:1006D000FC8D258530E0275F3F4FB501A4014150D7
:1006E000510961097109022E04C0769567955795E5
:1006F00047950A94D2F7D701C6010197A109B1091C
:1007000004C0B695A795979587952A95D2F7841733
:100710009507A607B70720F089288A288B2849F46F
:100720004F89588D698D7A8D4E835F83688779876D
:1007300004C0841B950BA60BB70B4C015D018E0109
:100740000A5F1F4F81149104A104B10409F4A7CFDB
:100750004E815F816885798598018B8D9C8D0E9483
:10076000B30E91E0891A9108A108B1088111EACF6E
:1007700087CFDF91CF911F910F91FF90EF90DF9086
:10078000CF90BF90AF909F908F9008958FB7F894BF
:100790008091E9028FBF089561E0FC0184810E948D
:1007A00030118091E80281111092E80208958EBD07
:1007B00000000DB407FEFDCF8EB508958FEF0C94A9
:1007C000D7030F931F93CF93DF93EB010E94AD11DB
:1007D0008B010E94DE038F3F49F00E94AD11601B28
:1007E000710B6C177D07A8F380E001C081E0DF91F9
:1007F000CF911F910F910895CF93DF93EC018E81DC
:10080000882389F08F8198859C012F5F3F4F38871F
:100810002F838230924018F40E94DE03F3CFCE0182
:100820000E94CC031E82DF91CF9108958CBD9DBDA7
:100830000895CF93DF93EC018091E802811109C004
:1008400081E08093E80280918F05909190050E944D
:10085000160460E08C81DF91CF910C943011CF921F
:10086000DF92FF920F931F93CF93DF9300D01F92DD
:10087000CDB7DEB76C01F62E29833A834B835C83B8
:100880000E94FC03C6010E9419046CE271E0C601DB
:100890000E94E1038F2D80640E94D70308E110E0DD
:1008A0005C814B813A812981DA01C901002E04C0A3
:1008B000B695A795979587950A94D2F729833A8399
:1008C0004B835C830E94D7030850110929813A8128
:1008D0004B815C81083F8FEF180731F7FF2029F02B
:1008E000E8E0FE1204C087E803C085E901C08FEF8D
:1008F0000E94D70310E00E94DE03F601828787FF83
:1009000004C01F3F11F01F5FF6CF0F900F900F90A4
:100910000F90DF91CF911F910F91FF90DF90CF90BB
:100920000895AF92BF92CF92DF92EF92FF920F9312
:100930001F93CF93DF93EC016901C801820F931FCE
:100940008130924008F070C08E81882371F08881D8
:100950009981AA81BB81481759076A077B0729F447
:100960008F819885C816D906B0F5488359836A8364
:100970007B838B85833039F089E0440F551F661FD8
:10098000771F8A95D1F79A01AB0161E1CE010E94F0
:100990002F04882319F083E08D8346C00E94AD1197
:1009A0005B010E94DE038A878F3F49F40E94AD11EC
:1009B0006A197B096D327140A0F38FE003C08E3F4E
:1009C00031F08DE08D83CE010E94CC032DC01886BE
:1009D0001F8281E08E838F8198858C159D0540F460
:1009E0000E94DE038F819885019698878F83F3CFCD
:1009F0006701E00EF11ECE14DF0431F00E94DE0329
:100A0000F60181936F01F7CF8F819885080F191F29
:100A100018870F838985882319F00115124048F043
:100A2000CE010E94FC0305C0CE010E94CC0380E0F1
:100A300001C081E0DF91CF911F910F91FF90EF9066
:100A4000DF90CF90BF90AF900895EF92FF920F93F9
:100A50001F93CF93DF93EC01790141155105610597
:100A6000710511F482E13CC08B85833039F089E057
:100A7000440F551F661F771F8A95D1F79A01AB0166
:100A800068E1CE010E942F04882311F084E028C081
:100A90008EEF0E94D70387018EEFF81AF80181913B
:100AA0008F010E94D7030E151F05C1F78FEF0E941B
:100AB000D7038FEF0E94D7030E94DE038A878F71CE
:100AC000853031F081E18D83CE010E94CC0309C0D5
:100AD00068E572E0CE010E94E103811107C085E163
:100AE0008D83CE010E94CC0380E013C020E030E073
:100AF000A9016DE0CE010E942F04811104C00E9463
:100B0000DE03882311F084E1EBCFCE010E94CC03F9
:100B100081E0DF91CF911F910F91FF90EF900895A9
:100B20008091EA028823A9F14091000250910102CC
:100B3000609102027091030220EF32E08091F00494
:100B40009091F1040E942505811102C080E0089572
:100B50004091EB025091EC026091ED027091EE0237
:100B6000411551056105710591F020EF32E080914A
:100B7000F0049091F1040E942505882339F3109226
:100B8000EB021092EC021092ED021092EE02109223
:100B9000EA0281E008958F929F92AF92BF92EF9206
:100BA000FF920F931F93CF934B015C01C42F809151
:100BB000000290910102A0910202B09103028815F7
:100BC0009905AA05BB0501F10E949005811102C09B
:100BD00080E020C080EFE82E82E0F82E00E012E0F6
:100BE00020E030E0B501A4018091F0049091F1047F
:100BF0000E949104882361F3809200029092010286
:100C0000A0920202B09203028091EA02C82BC09324
:100C1000EA0281E0CF911F910F91FF90EF90BF907A
:100C2000AF909F908F9008952F923F924F925F9236
:100C30006F927F928F929F92AF92BF92CF92DF92EC
:100C4000EF92FF920F931F93CF93DF931F921F9208
:100C5000CDB7DEB7FC018581882309F4D9C0848132
:100C600080FFD6C021E02A8343895489658976892B
:100C700082859385A485B585481759076A077B0740
:100C800009F41A826F013A81832F90E0DE011196F8
:100C90004D013F01B6E06B0E711C892B09F47DC03C
:100CA000D6011A964D915D916D917C911D975A01D7
:100CB000B1E0BB22F60125811A012B0189E056948F
:100CC0004794379427948A95D1F7838D948D223059
:100CD00061F4FC01828D938DA48DB58DBC01CD0195
:100CE000620D731D841D951D45C0DC0114961C9179
:100CF00011501221A114B104D1F4111118C0452BC7
:100D0000462B472B51F4F6018789908DA18DB28D2A
:100D100086839783A087B1870AC046815781608503
:100D2000718593010E94B30E882309F471C0F60106
:100D3000238D348D86819781A085B1850297A10985
:100D4000B109AC01BD01F901058404C0440F551F70
:100D5000661F771F0A94D2F786859785A089B18987
:100D6000840F951FA61FB71FBC01CD01610F711D18
:100D7000811D911DD60114962C9126FF14C000915F
:100D800000021091010220910202309103026017CB
:100D900071078207930751F506C0FA81FF23C1F15D
:100DA000898190E037C040E00E94CB05882381F123
:100DB000F501E051FD4FD401CF010196E817F90785
:100DC00019F021912D93FACFEFEF8E1A9E0AF601BA
:100DD00082859385A485B5850196A11DB11D828765
:100DE0009387A487B58780E090E057CF740101E036
:100DF00010E09501AB01BC018091F0049091F104E9
:100E00000E949104882321F0BFEF8B1A9B0ADFCF49
:100E10008FEF9FEF0F900F90DF91CF911F910F9168
:100E2000FF90EF90DF90CF90BF90AF909F908F900A
:100E30007F906F905F904F903F902F900895FC01AE
:100E4000818D928D009711F00C9414068FEF9FEF17
:100E500008950F931F93CF93DF93FC01818D928DA3
:100E60000097B9F0EF010E9414068C010F3F8FEF3D
:100E7000180791F0898D9A8DFC0142855385648510
:100E8000758541505109610971090E943003C801FB
:100E900005C080E090E002C08FEF9FEFDF91CF911F
:100EA0001F910F910895CF93DF93EC018D818823DB
:100EB000A1F18C8187FF2DC06E857F8588899989F6
:100EC00041E00E94CB05882341F1EA8980E2E89F56
:100ED000F0011124DF01A051BD4F1097F1F08D8179
:100EE000823050F44B895C896D897E895C964D9384
:100EF0005D936D937C935F978F89988DA98DBA8D43
:100F0000E051FD4F938F828FB58BA48B8C818F77AF
:100F10008C83DF91CF910C94900580E0DF91CF918D
:100F200008958F929F92AF92BF92CF92DF92EF92ED
:100F3000FF920F931F93CF93DF9300D01F92CDB7F3
:100F4000DEB77C0180E2689F600111249601205188
:100F50003D4FD9011B969C91917121F0842F827491
:100F600009F097C0142FF701628B809100029091D5
:100F70000102A0910202B091030286879787A08B9D
:100F8000B18BF601E051FD4F4489558960E070E076
:100F9000BA0155274427D70157964D935D936D931A
:100FA0007C935A97828D938DA0E0B0E0482B592B0B
:100FB0006A2B7B2BD70157964D935D936D937C9352
:100FC0005A97D9011B968C91887159F4848D958D0F
:100FD000A68DB78DF701838B948BA58BB68B81E0A3
:100FE00012C0803109F055C097012D5E3F4FD701E7
:100FF0005B968D919C915C970E94C702882309F4AF
:1010000048C084E0F7018583812F8F70D701149643
:101010008C931497F70116821782108611861A9600
:101020001D921D921D921C921D9716FF34C015969D
:101030008C91813071F511FF2CC0F70143895489DF
:1010400065897689452B462B472B09F461C040E022
:1010500050E0BA01C7010E9430038823D1F0F701A4
:101060008788908CA18CB28CC38CD48C82E090E069
:10107000A0E0B0E0F60180839183A283B3839E0158
:101080002F5F3F4FB501A401C6010E94B30E81112D
:1010900004C080E03DC081E03BC000E010E098016A
:1010A000B501A401C6010E94130E882391F3898023
:1010B0009A80AB80BC80D60157968C91803129F004
:1010C00088EF9FEFAFEFBFE004C088EF9FEFA0E095
:1010D000B0E088169906AA06BB0688F2D701579693
:1010E0001D921D921D921C925A97F701138A148A21
:1010F000158A168A848180688483C7010E945307F9
:10110000882339F240E050E0BA01C7010E94300361
:101110000F900F900F900F90DF91CF911F910F9133
:10112000FF90EF90DF90CF90BF90AF909F908F9007
:1011300008954F925F926F927F92AF92BF92CF923B
:10114000DF92EF92FF920F931F93CF93DF93CDB770
:10115000DEB72B970FB6F894DEBF0FBECDBF7C0174
:10116000CE0101966C01FC0190E28BE08C0D919315
:101170008E13FDCFDA0130E047E09D91992339F1DC
:101180009E3219F0E4E9F1E00AC04A3009F472C174
:1011900038E04AE0F2CF3196891709F46BC18491A7
:1011A0008111F9CF431708F465C18FED890F8E3592
:1011B00008F060C181E0830FF601E30FF11D3FE904
:1011C000390F3A3108F490529083382FD6CF898165
:1011D000803209F44FC1B22E8B01DB015B968D91F9
:1011E0009C915C97F701948F838F16961D921D92A8
:1011F0001D921C921997FB01128613861486158680
:10120000712CF80182859385A485B585438954891D
:101210006589768984179507A607B70708F061C026
:1012200025E0B695A795979587952A95D1F7F82F3C
:10123000FF706F2ED80115968C91823008F41AC178
:10124000C8010E94140697FD15C1F8018285938597
:10125000A485B5854F96A11DB11D82879387A4876C
:10126000B587F0E26F9EC0011124BC0160517D4F33
:101270006115710509F4FEC0DB012C91222319F0E0
:10128000253EC1F427C071100EC0F701628A40915B
:1012900000025091010260910202709103024687A0
:1012A0005787608B718BFC01E051FD4F808181116C
:1012B00013C015C04BE050E0C6010E94BE16892B3A
:1012C00009F09FCF8B2D8073803309F4D3C04B2D51
:1012D000662DCCC07720C9F27724739492CF7724FF
:1012E00073948B2D8271823109F0C4C07720D1F0C4
:1012F000D7011E966D917D918D919C91519741E002
:101300000E94CB05882309F4B5C0F7016289F0E299
:101310006F9FB001112460517D4F6115710509F077
:1013200079C0A8C0D80115968C91823009F4A2C06A
:10133000C8010E94C401882309F49CC0D8015B96AF
:10134000ED91FC915C9716964D905D906D907C9020
:101350001997B2E04B1A510861087108058404C05E
:10136000440C551C661C771C0A94D2F78685978519
:10137000A089B189480E591E6A1E7B1EA480E1E037
:101380004E1A510861087108AA2009F10E949005BF
:10139000882309F46FC0E0EFF2E0119224E0E03F0F
:1013A000F207D9F7D301C2018A0D911DA11DB11D0C
:1013B0008093000290930102A0930202B093030273
:1013C0008091EA0281608093EA02AA94DDCFD8017D
:1013D0005B96ED91FC915C9780E092E0A0E0B0E03C
:1013E000058404C0880F991FAA1FBB1F0A94D2F757
:1013F000F8014389548965897689840F951FA61F52
:10140000B71F838B948BA58BB68BD70152961C92FA
:1014100060EF72E080E2FB0111928A95E9F78BE0C0
:10142000F601DB0101900D928A95E1F781E298E2E5
:10143000DB0151969C938E93509720E038E01F96E5
:101440003C932E931E9753969C938E935297599646
:101450009C938E93589757963C932E9356970E9441
:101460009005882339F04B2DF7016289C7010E944E
:10147000910701C080E02B960FB6F894DEBF0FBE37
:10148000CDBFDF91CF911F910F91FF90EF90DF9033
:10149000CF90BF90AF907F906F905F904F900895E6
:1014A000CF93DF93EC010E945307882311F01D8234
:1014B00081E0DF91CF910895FC01818D928D00979D
:1014C00011F00C94530708952F923F924F925F9220
:1014D0006F927F928F929F92AF92BF92CF92DF9244
:1014E000EF92FF920F931F93CF93DF9300D01F9241
:1014F000CDB7DEB78C015B011A01DC0115968C912A
:1015000015978130C9F414968C9181FF15C082FF24
:101510001BC0F80143895489658976898285938542
:10152000A485B58584179507A607B70769F0C80194
:101530000E943003811108C081E090E0F80193839C
:10154000828380E090E039C1610183C0D8015B965D
:101550008D919C915C97FC01248121502A013B01D3
:1015600039E076946794579447943A95D1F7722E60
:1015700074207A01F1E0FF22772009F476C080E040
:1015800092E08E199F0946018C159D0508F44C01C7
:10159000D8015B962D913C915C9716968D919D910B
:1015A0000D90BC91A02D0297A109B109F901058404
:1015B00004C0880F991FAA1FBB1F0A94D2F7468543
:1015C000578560897189840F951FA61FB71F9C01DD
:1015D000AD01270D311D411D511D29013A01811415
:1015E00032E0930609F088C08091000290910102D8
:1015F000A0910202B091030284159505A605B705D6
:1016000059F48FEF9FEFDC01809300029093010269
:10161000A0930202B09303029501B301A20180914D
:10162000F0049091F1040E942505882309F484CFE9
:101630009EEFB91AC818D908F80182859385A48548
:10164000B585880D991DA11DB11D82879387A4873B
:10165000B587D8011A964D915D916D917C911D973A
:10166000C114D10409F072CF87C0E114F10409F06C
:1016700086CF16964D915D916D917C91199741158C
:1016800051056105710559F457968D919D910D9005
:10169000BC91A02D0097A105B10541F521C09E0187
:1016A0002F5F3F4F0E94B30E882309F44BCF8981EF
:1016B0009A81AB81BC81F801238D348DF901278992
:1016C000203129F048EF5FEF6FEF7FE004C048EF73
:1016D0005FEF60E070E084179507A607B70730F06A
:1016E000C8010E94C40181114ACF26CFF801868328
:1016F0009783A087B18743CFE114F10429F5D8017E
:101700001A964D915D916D917C911D9753968D9197
:101710009D910D90BC91A02D481759076A077B0732
:1017200098F00E949005882309F406CF40920002A9
:101730005092010260920202709203028091EA02CA
:1017400081608093EA0208C041E0C301B2010E94B7
:10175000CB05882309F4F0CED501F701E051FD4F08
:10176000CF01880D991DE817F90719F02D912193E4
:10177000FACFA80CB91C5ECF53968D919D910D9018
:10178000BC91A02D84179507A607B70740F4F80170
:10179000438B548B658B768B848180688483D801DE
:1017A00014968C9183FD02C0C10107C0C8010E943C
:1017B0005307882309F4C0CEF7CF0F900F900F90F6
:1017C0000F90DF91CF911F910F91FF90EF90DF90DD
:1017D000CF90BF90AF909F908F907F906F905F90D1
:1017E0004F903F902F900895CF93DF931F92CDB7E6
:1017F000DEB7698341E050E0BE016F5F7F4F0E941A
:10180000640A0F90DF91CF910895CF93DF93EC019D
:10181000898D9A8D009739F481E090E09B838A83CB
:1018200080E090E00BC0FC01138212820E94640AE7
:10183000E98DFA8D22813381232B71F7DF91CF91CE
:101840000895FC01DB0112968D919C91139793836F
:10185000828380E292E09183808314968C91149726
:10186000848315968C911597858316964D915D917D
:101870006D917C91199746835783608771871A967B
:101880004D915D916D917C911D974287538764873F
:1018900075871E964D915D916D917C91519746870C
:1018A0005787608B718B52968C915297828B53968F
:1018B0004D915D916D917C915697438B548B658BC7
:1018C000768B57964D915D916D917C915A97478B90
:1018D000508F618F728F5B968D919C915C97948FE6
:1018E000838F0895EF92FF920F931F93CF93DF930F
:1018F000EC017B018A011B821A8288EE93E0A0E052
:10190000B0E08C839D83AE83BF838CE292E09983A9
:1019100088838DE190E00E948C159A8F898F0097C3
:1019200079F02DE1F701DC0101900D922A95E1F7A4
:101930004CE050E0B801CE010C960E94CB16188EF8
:10194000DF91CF911F910F91FF90EF900895FC01CF
:10195000538D448D252F30E0842F90E0821B930B14
:10196000541710F0CF96089501970895FC01918DBA
:10197000828D981761F0828DDF01A80FB11D5D96F1
:101980008C91928D9F5F9F73928F90E008958FEF5F
:101990009FEF0895FC01918D828D981731F0828D13
:1019A000E80FF11D858D90E008958FEF9FEF08956A
:1019B000FC01918D228D892F90E0805C9F4F821BCE
:1019C00091098F739927089582EF94E00E94D80CB3
:1019D00021E0892B09F420E0822F0895FC01848DF9
:1019E000DF01A80FB11DA35ABF4F2C91848D90E049
:1019F00001968F739927848FA689B7892C93A08924
:101A0000B1898C9180648C93938D848D981306C0DA
:101A10000288F389E02D80818F7D80830895EF9285
:101A2000FF920F931F93CF93DF93EC0181E0888F98
:101A30009B8D8C8D981305C0E889F989808185FD7F
:101A400024C0F62E0B8D10E00F5F1F4F0F73112770
:101A5000E02E8C8DE8120CC00FB607FCFACFE88997
:101A6000F989808185FFF5CFCE010E94EE0CF1CF80
:101A70008B8DFE01E80FF11DE35AFF4FF0820B8FB3
:101A8000EA89FB898081806207C0EE89FF896083D3
:101A9000E889F98980818064808381E090E0DF912A
:101AA000CF911F910F91FF90EF900895CF93DF9307
:101AB000EC01888D8823C9F0EA89FB89808185FD46
:101AC00005C0A889B9898C9186FD0FC00FB607FCA7
:101AD000F5CF808185FFF2CFA889B9898C9185FFE8
:101AE000EDCFCE010E94EE0CE7CFDF91CF910895AC
:101AF00080E090E0892B21F00E94E40C811125C048
:101B000080E090E0892B41F080E090E0892B21F08B
:101B10000E94000081111CC080E090E0892B41F000
:101B200080E090E0892B21F00E940000811113C019
:101B300080E090E0892BA1F080E090E0892B81F09B
:101B40000E94000081110AC008950E940000D8CFB1
:101B50000E940000E1CF0E940000EACF0C94000038
:101B600008950E94B9161F920F920FB60F9211247A
:101B70000BB60F922F933F934F935F936F937F9387
:101B80008F939F93AF93BF93EF93FF9382EF94E074
:101B90000E94EE0CFF91EF91BF91AF919F918F91B9
:101BA0007F916F915F914F913F912F910F900BBE5D
:101BB0000F900FBE0F901F9018951F920F920FB6A7
:101BC0000F9211240BB60F922F938F939F93EF9345
:101BD000FF93E0910205F09103058081E0910805F3
:101BE000F091090582FD12C0908180910B058F5FF5
:101BF0008F7320910C05821751F0E0910B05F0E0F6
:101C0000EE50FB4F958F80930B0501C08081FF91B3
:101C1000EF919F918F912F910F900BBE0F900FBE60
:101C20000F901F9018954F925F926F927F928F92B4
:101C30009F92AF92BF92CF92DF92EF92FF920F935B
:101C40001F93CF93DF93EC016A017B0128013901D7
:101C5000423051056105710510F480E073C089853B
:101C60009A85AB85BC850196A11DB11D841795078A
:101C7000A607B70790F38B889C88AD88BE888F89AC
:101C8000803129F4BB27AF2D9E2D8D2D09C0DB019E
:101C9000CA0147E0B695A795979587954A95D1F7DC
:101CA000880E991EAA1EBB1E80910002909101020F
:101CB000A0910202B091030288169906AA06BB06FB
:101CC00079F48F898031A1F4DD24EE24FF24C6014C
:101CD000880F991FFC01E051FD4F5182408219C0CD
:101CE00040E0C501B4010E94CB058111EACFB5CF18
:101CF000E894C7F8DD24EE24FF24C601880F991F5D
:101D0000880F991FFC01E051FD4F40825182628291
:101D100073828091EA0281608093EA028A8982302C
:101D200080F08D819E81AF81B885880E991EAA1E94
:101D3000BB1E8092EB029092EC02A092ED02B09258
:101D4000EE0281E0DF91CF911F910F91FF90EF9014
:101D5000DF90CF90BF90AF909F908F907F906F90CB
:101D60005F904F9008958F929F92AF92BF92CF92C3
:101D7000DF92EF92FF920F931F93CF93DF93FC01BB
:101D800081859285A385B4850196A11DB11D841717
:101D90009507A607B70710F480E05CC08389948993
:101DA000A589B689C789C03129F4852E962EA72E1C
:101DB000BB2409C04A015B01C7E0B694A79497947D
:101DC0008794CA95D1F7E9016A017B018F01BC01B3
:101DD000CD01680D791D8A1D9B1D80900002909099
:101DE0000102A0900202B0900302681579058A05ED
:101DF0009B0599F4F80187898031A9F4B701A60100
:101E0000552766277727440F551FFA01E051FD4FEC
:101E100080819181A0E0B0E018C040E00E94CB0535
:101E20008111E8CFB9CFB701A6014F7755276627B3
:101E30007727440F551F440F551FFA01E051FD4FFE
:101E400080819181A281B381BF7088839983AA83A5
:101E5000BB8381E0DF91CF911F910F91FF90EF90B5
:101E6000DF90CF90BF90AF909F908F900895CF92CA
:101E7000DF92EF92FF920F931F93CF93DF936C014A
:101E80007A018B01C0E0D0E0CE15DF0589F0D801E2
:101E90006D918D01D601ED91FC910190F081E02DC5
:101EA000C6011995892B11F47E0102C02196ECCF51
:101EB000C701DF91CF911F910F91FF90EF90DF90BD
:101EC000CF900895FF920F931F93CF93DF93CDB7D9
:101ED000DEB7C755D1090FB6F894DEBF0FBECDBF30
:101EE0008C01F62E6BEB75E0CE0101960E94210C61
:101EF000BE016F5F7F4FCE01CB960E94210C19A2CD
:101F000018A280E292E09F8F8E8F1BA221968FAD48
:101F10002197811113C0F8011382128288EE93E099
:101F2000A0E0B0E084839583A683B7838CE292E03F
:101F300091838083128E118E148636C082502F2D8D
:101F400042ED52E0823048F46BEB75E0CE014E96E4
:101F50000E94990881110EC0DECFBE01655C7F4FE3
:101F6000CE014E960E9499088823A9F2CE01CB9605
:101F70000E94500A8F2D867041F049A95AA96BA979
:101F80007CA9CE014E960E943003BE01625E7F4F57
:101F9000CE0101960E94210C42ED52E0BE016F5F1E
:101FA0007F4FC8010E94720CC801C95ADF4F0FB69B
:101FB000F894DEBF0FBECDBFDF91CF911F910F917F
:101FC000FF9008958F929F92AF92BF92CF92DF922F
:101FD000EF92FF92CF93DF93C82F81E995E0909322
:101FE000F1048093F004CC2369F1C53010F080E057
:101FF0000DC140E060E070E0CB010E94CB0588237A
:10200000B1F320E1C29FC001112480529D4FFC0119
:10201000E254FE4F20812F7751F73C964081518149
:1020200062817381443651056105710500F334976F
:10203000C080D180E280F380C114D104E104F104B6
:1020400021F4D5CFC12CD12C760140E0C701B601D7
:102050000E94CB05882359F28091FB029091FC02EB
:102060008115924021F6A0910003AA2309F4BFCF65
:102070006091FE027091FF026115710509F4B7CFFE
:102080002091FD02222309F4B2CFA093AF05209343
:10209000A10580E030E0E1E0F0E0C82FAF01082EBC
:1020A00002C0440F551F0A94E2F72417350741F088
:1020B000982F8F5F983089F789E08093AA0597CF92
:1020C0008093AA052091060330910703211531055D
:1020D00019F040E050E008C020911403309115033E
:1020E00040911603509117032093A2053093A30546
:1020F0004093A4055093A50546015701860E971EEF
:10210000A11CB11C8092B0059092B105A092B205BD
:10211000B092B305E0910103F0910203F093B6058C
:10212000E093B505B0E00E947215860E971EA81EBA
:10213000B91E8092B7059092B805A092B905B092E9
:10214000BA0585E0EE0FFF1F8A95E1F7E150FE4FDB
:10215000EF2FFF27E6958E0E9F1EA11CB11C8092CB
:10216000AB059092AC05A092AD05B092AE05209162
:102170000303309104032115310521F0A90160E02A
:1021800070E008C040911003509111036091120358
:1021900070911303D701C60188199909AA09BB09CF
:1021A000840F951FA61FB71F04C0B695A7959795D6
:1021B0008795CA95D2F78093A6059093A705A0931B
:1021C000A805B093A905853F2FE09207A105B105A9
:1021D00010F48CE018C0853F9F4FA105B10510F4A5
:1021E00080E111C080911C0390911D03A0911E03FA
:1021F000B0911F038093B7059093B805A093B905DC
:10220000B093BA0580E28093B40581E0DF91CF916D
:10221000FF90EF90DF90CF90BF90AF909F908F9006
:10222000089590E0FC01EC59FD4F2491FC01E25E21
:10223000FD4F8491882399F090E0880F991FFC014D
:10224000EC5FFD4FA591B491FC01E651FE4F8591E5
:1022500094918FB7F894EC91E22BEC938FBF089593
:10226000362F90E0FC01EC55FE4F4491FC01EC59F7
:10227000FD4F2491FC01E25EFD4F9491992309F4F6
:102280006BC0442309F455C050E0FA013197E231A4
:10229000F10508F04EC08827EE58FF4F8F4F0C9481
:1022A0006A15809180008F7707C0809180008F7DB4
:1022B00003C080918000877F809380003AC084B5FE
:1022C0008F7702C084B58F7D84BD33C08091B0000C
:1022D0008F7703C08091B0008F7D8093B00029C0BC
:1022E000809190008F7707C0809190008F7D03C010
:1022F00080919000877F809390001BC08091A00008
:102300008F7707C08091A0008F7D03C08091A000CF
:10231000877F8093A0000DC0809120018F7707C038
:10232000809120018F7D03C080912001877F809361
:102330002001E92FF0E0EE0FFF1FE651FE4FA591BF
:10234000B4918FB7F894EC91311103C020952E23EE
:1023500001C02E2B2C938FBF08952FB7F894609156
:10236000FA057091FB058091FC059091FD052FBF4A
:1023700008951F920F920FB60F9211242F933F933F
:102380008F939F93AF93BF938091FA059091FB0534
:10239000A091FC05B091FD053091F90523E0230FD4
:1023A0002D3720F40196A11DB11D05C026E8230F8D
:1023B0000296A11DB11D2093F9058093FA05909313
:1023C000FB05A093FC05B093FD058091F505909168
:1023D000F605A091F705B091F8050196A11DB11D74
:1023E0008093F5059093F605A093F705B093F80553
:1023F000BF91AF919F918F913F912F910F900FBE01
:102400000F901F9018956115710579F0FB010190EF
:102410000020E9F73197AF01461B570BDC01ED9126
:10242000FC910280F381E02D199480E090E0089502
:102430000F931F93CF93DF93EC010E9403128C0143
:1024400065EE72E0CE010E940312800F911FDF91B2
:10245000CF911F910F910895CF93DF93CDB7DEB742
:102460006B970FB6F894DEBF0FBECDBF789484B5DE
:10247000826084BD84B5816084BD85B5826085BD80
:1024800085B5816085BD80916E00816080936E000E
:102490001092810080918100826080938100809100
:1024A00081008160809381008091800081608093B1
:1024B00080008091B10084608093B1008091B00071
:1024C00081608093B0008091910082608093910040
:1024D0008091910081608093910080919000816053
:1024E000809390008091A10082608093A1008091F0
:1024F000A10081608093A1008091A0008160809301
:10250000A0008091210182608093210180912101AE
:10251000816080932101809120018160809320015E
:1025200080917A00846080937A0080917A00826042
:1025300080937A0080917A00816080937A00809104
:102540007A00806880937A001092C100E0910205C1
:10255000F091030582E08083E091FE04F091FF0496
:102560001082E0910005F09101058FEC80831092BC
:102570000A05E0910605F091070586E08083E09169
:102580000405F0910505808180618083E091040558
:10259000F0910505808188608083E0910405F091C9
:1025A0000505808180688083E0910405F091050530
:1025B00080818F7D808368E572E082EF94E00E94E5
:1025C000031210929C0510929A0510929705109292
:1025D000960584E0809395050E94AD118B01809152
:1025E00095050E94111161E0809195050E943011BE
:1025F000FFB6F8948091EF02811124C0E3E5F2E088
:102600008491E9E9F2E09491E82FF0E0EE0FFF1FEA
:10261000EC5FFD4FA591B491EC91E92321F461E0C9
:1026200085E30E94301185E30E9411118CB5806111
:102630008CBD8CB580648CBD84E30E94111183E352
:102640000E9411118091EF028F5F8093EF02FFBE15
:1026500082E580938F051092900580918F0590916F
:1026600090050E9416045AE0F52E8FEF0E94D703C2
:10267000FA94F110FACF81E995E00E94190420E064
:1026800030E0A90160E081E995E00E942F04F82E76
:1026900080939B0581E0F81649F00E94AD11601B04
:1026A000710B613D774058F381E056C02AEA31E072
:1026B00040E050E068E081E995E00E942F0482FF4D
:1026C00003C0F0929C0510C044E0F42E0E94DE038B
:1026D00080939B05FA94F110F9CF8A3A11F082E0C9
:1026E0003BC082E080939C0580919C05823021F064
:1026F000C12CD12C760105C0C12CD12CE12C30E4A9
:10270000F32E20E030E0A90167E381E995E00E9423
:102710002F04A701960169E281E995E00E942F0448
:1027200080939B05882349F00E94AD11601B710BBB
:10273000613D774030F388E00FC080919C05823086
:1027400001F520E030E0A9016AE381E995E00E940B
:102750002F04882341F086E08093960581E995E077
:102760000E94CC03CAC00E94DE03807C803C19F426
:1027700083E080939C050E94DE030E94DE030E949A
:10278000DE0381E995E00E94CC0380E580938F050C
:102790001092900581E00E94E20F882329F0809139
:1027A000C005882341F0A9C080E00E94E20F882381
:1027B00009F4A3C0F4CF8091B405803109F582E01B
:1027C0008093C0051092D2051092D3051092D405C3
:1027D0001092D5058091B5059091B605A0E0B0E0C6
:1027E00025E0880F991FAA1FBB1F2A95D1F7809358
:1027F000CE059093CF05A093D005B093D1051FC00F
:10280000803209F07AC083E08093C0054091B7051B
:102810005091B8056091B9057091BA054093D20501
:102820005093D3056093D4057093D5052EEC35E015
:102830008DE995E00E94C702882309F45EC08DE906
:1028400095E09093D7058093D60581E08093BF05EE
:102850001092C1051092C2051092C3051092C405D2
:102860001092C5051092C6051092C7051092C805B2
:102870001092C9051092CA051092CB051092CC0592
:102880001092CD0560E772E082EF94E00E9418128A
:1028900063E1CE0101960E94620F8B819C8190932F
:1028A000DD058093DC058D819E81AF81B8858093A5
:1028B000DE059093DF05A093E005B093E1058985DF
:1028C0009A85AB85BC858093E2059093E305A09340
:1028D000E405B093E5058DE0FE013D96A6EEB5E07A
:1028E00001900D928A95E1F7EA8DFB8DF093F40546
:1028F000E093F305309721F427C065E872E08CC0BF
:102900008581882309F16CE972E082EF94E00E94EE
:10291000031263EB72E08AED95E00E941812809139
:10292000F3059091F405009761F00E94500A8091A0
:10293000F3059091F4050E9421161092F40510926F
:10294000F3056FE772E002C064EC72E082EF94E09E
:102950000E94181261E0CE0101960E94620F8B81E5
:102960009C819093DD058093DC058D819E81AF81F4
:10297000B8858093DE059093DF05A093E005B093C2
:10298000E10589859A85AB85BC858093E2059093A6
:10299000E305A093E405B093E5058DE0FE013D96C7
:1029A000A6EEB5E001900D928A95E1F7EA8DFB8DD8
:1029B000F093F405E093F305309761F18581882366
:1029C00049F16BED72E082EF94E00E9418128AEDFB
:1029D00095E00E948901892B51F08AED95E00E94D3
:1029E0001F07682F82EF94E00E940F0DF0CF8091B7
:1029F000F3059091F405009799F00E94500A809198
:102A0000F3059091F4050E9421161092F40510929E
:102A1000F30506C064EC72E082EF94E00E941812A5
:102A20000E94780DFDCFE2EFF4E01382128288EE6F
:102A300093E0A0E0B0E084839583A683B7832EE083
:102A400032E03183208325EC30E03587248724EC85
:102A500030E03787268720EC30E0318B208B21EC6B
:102A600030E0338B228B22EC30E0358B248B26EC4C
:102A700030E0378B268B118E128E138E148EEFE87A
:102A8000F5E020E520831182E1E9F5E01582168268
:102A90001186138642E050E060E070E0448755877D
:102AA0006687778713A215A614A620E232E033A723
:102AB00022A717A6EAEDF5E013821282848395839C
:102AC000A683B7838CE292E091838083128E118E6D
:102AD00014860895EE0FFF1F881F8BBF0790F69195
:102AE000E02D19940E947D15A59F900DB49F900D27
:102AF000A49F800D911D11240895A29FB001B39F42
:102B0000C001A39F700D811D1124911DB29F700DF6
:102B1000811D1124911D0895CF93DF93823091057B
:102B200010F482E090E0E0910006F091010620E0D0
:102B300030E0C0E0D0E0309711F14081518148177A
:102B40005907C0F04817590761F482819381209793
:102B500019F09B838A832BC0909301068093000613
:102B600026C02115310519F04217530718F49A01B0
:102B7000BE01DF01EF010280F381E02DDCCF2115E2
:102B8000310509F1281B390B2430310590F41296D8
:102B90008D919C9113976115710521F0FB01938331
:102BA000828304C09093010680930006FD01329653
:102BB00044C0FD01E20FF31F81939193225031092C
:102BC0002D933C933AC02091FE053091FF05232BB5
:102BD00041F420910602309107023093FF052093C3
:102BE000FE0520910402309105022115310541F4C2
:102BF0002DB73EB74091080250910902241B350BB6
:102C0000E091FE05F091FF05E217F307A0F42E1BFB
:102C10003F0B2817390778F0AC014E5F5F4F241740
:102C2000350748F04E0F5F1F5093FF054093FE0598
:102C30008193919302C0E0E0F0E0CF01DF91CF916A
:102C400008950F931F93CF93DF93009709F48CC0DF
:102C5000FC01329713821282009100061091010646
:102C60000115110581F420813181820F931F20917C
:102C7000FE053091FF052817390779F5F093FF0518
:102C8000E093FE0571C0D80140E050E0AE17BF07E9
:102C900050F412962D913C911397AD0121153105F9
:102CA00009F1D901F3CF9D01DA01338322836081D9
:102CB0007181860F971F8217930769F4EC012881B1
:102CC0003981260F371F2E5F3F4F318320838A8142
:102CD0009B8193838283452B29F4F0930106E09333
:102CE000000642C01396FC93EE931297ED014991B2
:102CF00059919E01240F351FE217F30771F480816B
:102D00009181840F951F029611969C938E938281D8
:102D1000938113969C938E931297E0E0F0E0D80194
:102D200012968D919C911397009719F0F8018C01E0
:102D3000F6CF8D919C9198012E5F3F4F820F931F8C
:102D40002091FE053091FF052817390769F4309767
:102D500029F4109201061092000602C0138212821A
:102D60001093FF050093FE05DF91CF911F910F9106
:102D7000089581E090E0F8940C94DA16FB01DC01F0
:102D800004C08D910190801921F441505040C8F742
:102D9000881B990B0895FB01DC014150504048F01D
:102DA00001900D920020C9F701C01D924150504082
:082DB000E0F70895F894FFCF4D
:102DB800FFFFFFFF000002068000000000000F0D6B
:102DC800370FA70C560DD80CB60CCA0C0000000023
:102DD800F40B370FC101C00100000000AA01050C67
:102DE800C1015C0A89011F07290700000000B10D15
:102DF800370FC101C001B10DB10DB10D00000000C8
:102E0800B10D370FC101C001496E697469616C6900
:102E18007A696E6720534420636172642E2E2E00F7
:102E2800696E697469616C697A6174696F6E20642E
:102E38006F6E652E00696E697469616C697A617478
:102E4800696F6E206661696C6564210057726974E8
:102E5800696E6720746F20746573742E7478742E8D
:102E68002E2E0074657374696E6720312C20322C05
:102E780020332E006572726F72206F70656E696EF6
:102E88006720746573742E74787400746573742E77
:082E98007478743A000D0A0081
:00000001FF
