:100000000C94BF020C94F0020C94F0020C94F002D9
:100010000C94F0020C94F0020C94F0020C94F00298
:100020000C94F0020C94F0020C94F0020C94F00288
:100030000C94F0020C94F0020C94F0020C94F00278
:100040000C94F0020C94F0020C94F0020C94F00268
:100050000C94F0020C94F0020C94F0020C948C2E90
:100060000C94F0020C94F32A0C94C92A0C94F0021C
:100070000C94F0020C94F0020C94F0020C94F00238
:100080000C94F0020C94F0020C94F0020C94F00228
:100090000C94F0020C94F0020C94F0020C94292BB6
:1000A0000C94F0020C94F0020C94F0020C94F00208
:1000B0000C94F0020C94F0020C94F0020C94F002F8
:1000C0000C94F0020C94F0020C94F0020C94F002E8
:1000D0000C94F0020C94F0020C94F0020C94F002D8
:1000E0000C94F00298059B058A058E059205D205B1
:1000F0009F05A305A905AD05B105B705BB05BF055E
:10010000D205C505C905CD050C9488210C945F1254
:100110000C9450250C94B7050C944E0B0C94E81BD2
:100120000C94640B0C942B1C0C94122A0C94B62087
:100130000C94DB280C94FF1B0C94B72A0C942D0B09
:100140000C945D1C0C94371B0C94791D0C94D205F7
:100150000C94BF050C94A3050C94EC1D0C94650B3A
:100160000C945A1E0C94CD050C94E41B0C942D1E7B
:100170000C94061D0C94AA280C94BB050C949B05AA
:100180000C94861C0C943A1C0C94601F0C943E1C1E
:100190000C9455120C94A9050C949F050C948A1C80
:1001A0000C94F6290C941E2E0C94A41C0C94AD1CDB
:1001B0000C948E050C948A050C94E6290C94091E67
:1001C0000C940A2A0C94CA1B0C94151C0C94011C48
:1001D0000C94351C0C94422A0C943B1C0C949205F4
:1001E0000C948C390C94F81B0C9417200C94B70BBE
:1001F0000C94141C0C946D0B0C94B1050C94E72911
:100200000C940E1F0C9412290C94C5050C94AD058A
:100210000C94371C0C94B1390C94B41F0C94CD2859
:100220000C94E01B0C94712A0C940C1C0C9459290E
:100230000C94C9050C94C21E0C9498050C94ED0CFA
:100240000C94B92800407A10F35A00A0724E180995
:100250000010A5D4E80000E87648170000E40B542D
:10026000020000CA9A3B000000E1F50500008096FC
:100270009800000040420F000000A086010000002E
:10028000102700000000E8030000000064000000E8
:1002900000000A00000000000100000000002C76B1
:1002A000D888DC674F0823DFC1DFAE59E1B1B796CC
:1002B000E5E3E453C63AE651997696E8E6C2842629
:1002C000EB898C9B62ED407C6FFCEFBC9C9F40F205
:1002D000BAA56FA5F490055A2AF75C936B6CF96781
:1002E0006DC11BFCE0E40D47FEF520E6B500D0ED46
:1002F000902E0300943577050080841E08000020AE
:100300004E0A000000C80C333333330F986E12834B
:100310001141EF8D2114893BE65516CFFEE6DB181F
:10032000D1844B381BF77C1D901DA4BBE4242032E4
:1003300084725E228100C9F124ECA1E53D27000012
:100340002100240027002A002D0030003300010185
:100350000000040107010A01000022002500280016
:100360002B002E00310034000201000005010801BD
:100370000B01050505050705080808080202020229
:100380000A0A080804040404010101010101010131
:100390000303030303030303040707070C0C0C0CFC
:1003A0000C0C0C0C020202020606060606060606E5
:1003B0000B0B0B0B0B0B0B0B010210202008081072
:1003C00020401020408002010201080402010102C5
:1003D000040810204080804020100804020180049E
:1003E00002018040201008040201080402010102F9
:1003F0000408102040800102040810204080000002
:100400000A0B02090C0D0E0807030401000000008E
:1004100000000000000000000000000000000000DC
:100420000000000000000000000012111000000099
:1004300000000000000000000000000000000000BC
:1004400000000000000020002300260029002C00EE
:100450002F00320000010000030106010901005EC7
:10046000BCE2613FDD83C29C7E20A3FD1F419DC392
:10047000217FFCA2401E5F01E3BD3E6082DC237D44
:100480009FC1421CFEA0E1BF5D0380DE3C62BEE076
:10049000025CDF81633D7C22C09E1D43A1FF4618A4
:1004A000FAA427799BC584DA3866E5BB5907DB8552
:1004B0006739BAE406581947A5FB7826C49A653B04
:1004C000D987045AB8E6A7F91B45C6987A24F8A636
:1004D000441A99C7257B3A6486D85B05E7B98CD264
:1004E000306EEDB3510F4E10F2AC2F7193CD114F12
:1004F000ADF3702ECC92D38D6F31B2EC0E50AFF1C4
:10050000134DCE90722C6D33D18F0C52B0EE326CF5
:100510008ED0530DEFB1F0AE4C1291CF2D73CA9423
:100520007628ABF517490856B4EA6937D58B5709D1
:10053000EBB536688AD495CB2977F4AA4816E9B783
:10054000550B88D6346A2B7597C94A14F6A8742AB5
:10055000C896154BA9F7B6E80A54D7896B357C3C89
:100560003E5E2B3D3F2F5B5D3B2C2A225C001F1C17
:100570001F1E1F1E1F1F1E1F1E1FB1398C39112465
:100580001FBECFEFD1E2DEBFCDBF00E00CBF15E054
:10059000A0E0B2E0E8E8FDE800E00BBF02C0079091
:1005A0000D92AC31B107D9F72AE0ACE1B5E001C05A
:1005B0001D92A03FB207E1F712E0CEEBD2E000E0DF
:1005C00006C021970109802FFE010E946641CD3BA4
:1005D000D10780E00807A9F70E94E8300C94B246E2
:1005E0000C94000080E3FB0180833296842F829577
:1005F0008F7090E1899F401911244A3014F4405DB6
:1006000001C0495C4293482F8111F0CF0895CF93E8
:10061000DF93EB01DC011596ED91FC9116971386A3
:1006200015861486DF011B9633961E92AE17BF0700
:10063000E1F7BE01FC01858196810E949D0A882315
:1006400049F067E0CE010E94D40E9F81891302C059
:1006500081E001C080E0DF91CF910895CF92DF92D9
:10066000EF92FF92CF93DF936C01990FEE08FF0892
:10067000F7FE1BC06DE28AE598E00E949F2FEC0117
:1006800044275527BA014C195D096E097F092AE0F4
:100690008AE598E00E94BB2F8C0F9D1FDF91CF91C0
:1006A000FF90EF90DF90CF9008952AE0B701A60168
:1006B0008AE598E0DF91CF91FF90EF90DF90CF90A7
:1006C0000C94BB2FCF93C82F462F61E070E00E949F
:1006D0007D1E61E070E08C2F0E94871E8111F9CF92
:1006E000CF9108958F929F92AF92BF92CF92DF9257
:1006F000EF92FF920F931F93CF93DF93B82E4B018E
:100700008A01A22E68E270E00E94871EC82FD0E006
:1007100069E270E08B2D0E94871EDC2FCC27C82B4E
:100720009E013770CB2CD12CC601880F991FAC01CC
:100730004A565A4F6A01FA0180819181820F931FB4
:10074000A801420F531F4130584098F060E078E014
:100750007B01E21AF30AA701B4010E94481BA80119
:100760004E195F09B4016E0D7F1DF60180819181E4
:1007700002C0A801B4010E94481BA1100EC0C00F06
:10078000D11F4D2F68E270E08B2D0E947D1E4C2FF3
:1007900069E270E08B2D0E947D1EDF91CF911F9149
:1007A0000F91FF90EF90DF90CF90BF90AF909F9010
:1007B0008F9008959F92AF92BF92CF92DF92EF9267
:1007C000FF920F931F93CF93DF93982E8B015A01C3
:1007D000690164E270E00E94871EE82EF12C65E258
:1007E00070E0892D0E94871EFE2CEE24E82AE70186
:1007F000C00FD11F9E013770E92CF12CC701880F63
:10080000991FAC0142575A4F7A01FA0180819181B8
:10081000820F931FA9014C0D5D1D4130584090F08F
:1008200000E018E0021B130BA801B5010E94781B21
:10083000A601401B510BB501600F711FF7018081AC
:10084000918102C0A601B5010E94781BCC0DDD1D6F
:100850004D2F64E270E0892D0E947D1E4C2F65E2D1
:1008600070E0892DDF91CF911F910F91FF90EF9054
:10087000DF90CF90BF90AF909F900C947D1EFF9221
:100880000F931F93CF93DF93F82EC0E0D0E08F2D0E
:100890000E9462148C01892B21F08F2D0E9462141A
:1008A000EC01C017D10799F7CE01DF91CF911F91CD
:1008B0000F91FF9008957F928F929F92AF92BF9277
:1008C000CF92DF92EF92FF920F931F93CF93DF931C
:1008D000CDB7DEB7A6970FB6F894DEBF0FBECDBF7B
:1008E0008C01762E942E852E20E2B22ECE0101961A
:1008F0007C01FC012B2D11922A95E9F782E093E00F
:100900009AA389A38FEF8BA38CA38DA38EA36801D9
:1009100083E4C80ED11C43E450E0BE016F5D7F4FFD
:10092000C6010E94601F019609F4BFC081E089835F
:100930008A8386E0A82EAB821C82F80164817581CF
:10094000868197810E946E416D837E838F83988715
:1009500089869A8680E890E09C878B874CE150E0FE
:10096000B701C6010E94C21EF7012B2D11922A95D4
:10097000E9F7480188E0880E911CF401D701019045
:100980000D92AA94E1F740E150E0B701C6010E9440
:10099000C21EF7011192BA94E9F796E0A92EB12C84
:1009A00040E250E0B701C6010E94C21EF1E0AF1A5A
:1009B000B108B1F783E6898392E89A8393E59B8334
:1009C0008C8385E38D8381E08E837F829DE398878E
:1009D00097E099878A8786E0F401DE011B960190F3
:1009E0000D928A95E1F78CE0898B8A8B69ED73E033
:1009F000CE0143960E94C543F8014385BE01675E60
:100A00007F4FC8010E94F202F8014485BE01655E75
:100A10007F4FC8010E94F202F8014585BE01635E66
:100A20007F4FC8010E94F2024EE150E0B701C601BB
:100A30000E94C21EF3E07F121EC082E3898384E01D
:100A40008A83F80196859B8397859C8390899D83F3
:100A500091899E8396E39F838887828D8987838D82
:100A60008A87848D8B87858D8C874CE050E0B70119
:100A7000C6010E94C21E87E3898386E08A8391E0D3
:100A80009B8393E09C838D838FE08E838AE38F83A7
:100A90008BE388878FEF898749E050E0B701C60173
:100AA0000E94C21EC6010E940E1FA6960FB6F894A1
:100AB000DEBF0FBECDBFDF91CF911F910F91FF9091
:100AC000EF90DF90CF90BF90AF909F908F907F90EE
:100AD0000895362F90E0FC01E250FC4F4491FC0158
:100AE000E854FC4F2491FC01EE58FC4F949199235B
:100AF00009F46BC0442309F455C050E0FA01319762
:100B0000E231F10508F04EC08827EE58FF4F8F4FB5
:100B10000C946641809180008F7707C0809180009F
:100B20008F7D03C080918000877F809380003AC0D2
:100B300084B58F7702C084B58F7D84BD33C080912A
:100B4000B0008F7703C08091B0008F7D8093B0009C
:100B500029C0809190008F7707C0809190008F7D91
:100B600003C080919000877F809390001BC080918C
:100B7000A0008F7707C08091A0008F7D03C0809177
:100B8000A000877F8093A0000DC0809120018F7707
:100B900007C0809120018F7D03C080912001877F55
:100BA00080932001E92FF0E0EE0FFF1FE85AFC4F81
:100BB000A591B4918FB7F894EC91311103C02095B1
:100BC0002E2301C02E2B2C938FBF0895CF93DF933C
:100BD00090E0FC01E854FC4F2491FC01EE58FC4FDE
:100BE0008491882361F190E0880F991FFC01E25CF9
:100BF000FC4FC591D491FC01E85AFC4FA591B491EA
:100C0000611109C09FB7F894888120958223888359
:100C1000EC912E230BC0623061F49FB7F8943881B9
:100C2000822F809583238883EC912E2B2C939FBF5A
:100C300006C08FB7F894E8812E2B28838FBFDF91F1
:100C4000CF9108958F929F92AF92BF92CF92DF92F1
:100C5000EF92FF926B017C010E945B2E4B015C01C5
:100C6000C114D104E104F104F1F00E945B2EDC0117
:100C7000CB0188199909AA09BB09883E9340A105AF
:100C8000B10570F321E0C21AD108E108F10888EE3D
:100C9000880E83E0981EA11CB11CC114D104E1048C
:100CA000F10419F7DDCFFF90EF90DF90CF90BF9068
:100CB000AF909F908F9008952F923F924F925F92A6
:100CC0006F927F928F929F92AF92BF92CF92DF925C
:100CD000EF92FF920F931F93CF93DF93CDB7DEB7C1
:100CE00065970FB6F894DEBF0FBECDBF7C016B01D8
:100CF0003A01FB0120E080E090E06AE0319133238B
:100D000009F140ED430F4A3080F4689FA001699FCC
:100D1000500D1124CA01C097830F911D37FD9A957C
:100D20008F3F910559F350F313C03E3289F42330BD
:100D300079F0D301A20FB11D12968C932F5F80E042
:100D400090E0DCCF233021F4F301858381E021C0E2
:100D5000F701428153816481758180915608909199
:100D60005708A0915808B0915908481759076A07C1
:100D70007B0709F49EC10E94802E8701085F1F4FE8
:100D80006F7077277C5FC8010E942D1E813019F09B
:100D900080E090E0F3C182E093E09A838983F701D9
:100DA00082819381A481B5818B839C83AD83BE8333
:100DB00045E350E0BE016F5F7F4FC8010E94601F96
:100DC000892B19F4C12CD12C6FC10E94802EF70100
:100DD000778366837627672776277A83698342E05D
:100DE00050E0BE016F5F7F4FC8010E94C21E81E0CC
:100DF00090E09E878D8742E050E0BE01635F7F4FA9
:100E0000C8010E94C21E80E091E09E878D8742E06B
:100E100050E0BE01635F7F4FC8010E94C21E1E8664
:100E20001D8642E050E0BE01635F7F4FC8010E9413
:100E3000C21E42E050E0BE01635F7F4FC8010E94C6
:100E4000C21E42E050E0BE01635F7F4FC8010E94B6
:100E5000C21E5601F5018081882311F1F6015F0160
:100E60008191811115C045018C189D081814190431
:100E700094F48F8641E050E0BE01615F7F4FC8016E
:100E80000E94C21EA401B601C8010E94C21E03C076
:100E90008E3229F7E8CF6501FFEFCF1ADF0ADACFEC
:100EA0001F8641E050E0BE01615F7F4FC8010E9494
:100EB000C21EC12CDD24D394DE86CD8642E050E0F4
:100EC000BE01635F7F4FC8010E94C21EDE86CD86D1
:100ED00042E050E0BE01635F7F4FC8010E94C21E26
:100EE000C8010E940E1F892B09F46CCF63E0A62E67
:100EF000B12CF2E06F0E711C0E94802E1B012C01A0
:100F0000C8010E94AD1C18161906A4F00E94802E7C
:100F1000DC01CB0182199309A409B50989389341F1
:100F2000A105B105D0F462E370E080E090E00E949A
:100F30002206E6CFF7014281538164817581808D5D
:100F4000918DA28DB38D481759076A077B0741F42D
:100F5000848D958DC59721F406C02FEF3FEF9AC081
:100F60002EEF3FEF97C0F70181A192A10C970CF4EF
:100F7000A6C04CE050E0BE016F5F7F4FC8010E94E9
:100F80003E1C8B8190E0982F88272C81822B9A8B96
:100F9000898B298130E0322F22274A81242BF701C7
:100FA000468157814217530709F086C097FF84C0D6
:100FB0008F709270892B09F0DEC0CF80D12CDC2C91
:100FC000CC248885C82AC114D10409F4D1C0812C4D
:100FD000912C8D8190E0982F88272E81822B881666
:100FE000990608F46FC0812C912C41E050E0BE01BD
:100FF0006D5E7F4FC8010E943E1C8B89982F907CAC
:1010000009F093C0811186C08B898111EECF42E037
:1010100050E0BE01615F7F4FC8010E943E1C42E06C
:1010200050E0BE01635F7F4FC8010E943E1CC801B3
:101030000E945D1CC8010E945D1CC8010E945D1CCD
:10104000C8010E945D1C42E050E0BE016F5E7F4F10
:10105000C8010E943E1C8F8598898115914009F036
:1010600069C02D853E85322723273227213031055F
:1010700009F060C089899A898115944009F075C08A
:1010800044E050E0B301C8012C8B3D8B0E943E1C14
:101090002C893D896901F1E0AF1AB10829F02FEFE1
:1010A000C216D20609F428CFC8010E94EC1DC60161
:1010B00065C08EEF9FEF62C02CEF3FEFEBCF2DEFBF
:1010C0003FEFE8CF41E050E0BE01635F7F4FC801D2
:1010D0000E943E1C8D85811113C08D858111F2CF38
:1010E000C8010E945D1CC8010E945D1CC8010E94CD
:1010F0005D1CC8010E945D1CFFEF8F1A9F0A69CF1B
:101100008D859FEF980F9D87882339F3C8010E9432
:101110005D1CF6CF8B899FEF980F9B8B882309F47A
:1011200073CFC8010E945D1CF5CFC8010E945D1CF1
:101130001B8A6ACF412C512C89899A899827892743
:1011400098274816590638F4C8010E945D1C8FEF95
:10115000481A580AF1CFEFEF8E1A9E0A8C149D049C
:1011600009F043CF26EF3FEF95CF27EF3FEF92CF28
:101170002AEF3FEF8FCF2BEF3FEF8CCF65960FB667
:10118000F894DEBF0FBECDBFDF91CF911F910F91BD
:10119000FF90EF90DF90CF90BF90AF909F908F9097
:1011A0007F906F905F904F903F902F9008952F9277
:1011B0003F924F925F926F927F928F929F92AF92E7
:1011C000BF92CF92DF92EF92FF920F931F93CF9334
:1011D000DF93CDB7DEB7E3970FB6F894DEBF0FBE4F
:1011E000CDBF7C011A012B0139010E94802E4B01D9
:1011F0005C0187010D5B1F4FC8010E94AD1C1816D2
:101200001906A4F00E94802EDC01CB0188199909EF
:10121000AA09BB09281639064A065B06D8F062E31C
:1012200070E080E090E00E942206E6CF42E250E0CB
:10123000BE016F5F7F4FC8010E943E1C89818230D2
:1012400011F080E061C1F8018489958983349105AA
:10125000C1F702C08FEF58C16D817E818F81988563
:101260000E946E414B015C01F301608371838283B4
:10127000938346E050E0B701685F7F4FCE014D9603
:101280000E94A443892BE9F6F70180819181A28114
:10129000B38188169906AA06BB0698F284819581C7
:1012A000A681B78188159905AA05BB0550F28989E1
:1012B0009A89AB89BC8986879787A08BB18B8EEC86
:1012C000A82EB12CC8010E945D1CF1E0AF1AB10834
:1012D000C9F719A6670182E2C80ED11CF701B696BC
:1012E000FBA7EAA7C7018A969DA78CA73C974F0149
:1012F00089969FA78EA73897F9ABE8AB1701F6E15F
:101300002F0E311CC5979BAB8AABF801818D928D56
:10131000181619060CF0F7C0C8010E945D1C833333
:10132000910509F4CBC0FCF481309105C9F11CF49E
:10133000892B59F3DCC083309105D1F1069709F070
:10134000D6C0C8010E945D1C5C0144E050E06AA95F
:101350007BA9C8010E943E1C412C512CBB24F4E007
:10136000AF1AB10840C08A33910509F47BC03CF440
:101370008533910569F0C69709F440C0B8C08B3336
:10138000910509F485C08F3F910509F4BECFAFC028
:10139000C8010E945D1CC8010E945D1C89A7B5CFD1
:1013A000C8010E945D1C44E050E068A979A93AC0D8
:1013B000C8010E945D1C5C0144E050E0B101C8011D
:1013C0000E943E1C412C512CBB2494E0A91AB10868
:1013D0004A145B040CF099CFC8010E945D1CEFEF2A
:1013E0004E1A5E0AF5CF4A145B040CF08ECFC8018A
:1013F0000E945D1C8FEF481A580AF5CFC8010E9461
:101400005D1CB82EF701828D811110C0838D811172
:101410000DC0848D81110AC0858D811107C044E003
:1014200050E0B401C8010E943E1C6FCFEEA5FFA59D
:101430004080518062807380B401CE0183960E9407
:10144000B92A8DA19EA1AFA1B8A584159505A605C1
:10145000B70529F3BB2009F458CFC8010E945D1CD1
:10146000BA94F8CFC8010E945D1C44E050E06AA520
:101470007BA5C8010E943E1CF70166A177A180A54B
:1014800091A50E946E4166A377A380A791A73DCF47
:10149000C8010E945D1C44E050E06CA57DA5C80118
:1014A0000E943E1CF70162A573A584A595A50E9424
:1014B0006E4162A773A784A795A727CFC8010E9492
:1014C0005D1C44E050E0B601C8010E943E1CF701DB
:1014D00062A173A184A195A10E946E4162A373A32E
:1014E00084A395A366A777A780AB91AB0ECFC80165
:1014F0000E945D1CB82EBB2009F407CFC8010E94D2
:101500005D1CBA94F8CF89A5E3960FB6F894DEBFB8
:101510000FBECDBFDF91CF911F910F91FF90EF9044
:10152000DF90CF90BF90AF909F908F907F906F9003
:101530005F904F903F902F900895AF92BF92CF92BF
:10154000DF92EF92FF920F931F93CF93DF931F923F
:10155000CDB7DEB75C01D62EE72EFC018585811163
:1015600005C0C5010E94A30F811106C0F5011386B5
:101570001586148680E065C040E060EFC5010E94DA
:10158000340F01E0F12CC12C11E0C5010E94E10EE5
:10159000682FC50169830E94E10E6981613019F4E9
:1015A0008130B9F433C04F2D50E068131BC0F501F2
:1015B0008385181730F4E40FF51F8381802349F4E5
:1015C00002C0181731F060E0193058F4F5011487A3
:1015D00008C0F501EF0DF11D8381802B838361E04D
:1015E00009C0C12EF501E40FF51F9381802F80956E
:1015F00089238383C5010E94050F1F5F000F11F42B
:10160000F39401E0F7E0FF1508F0BFCF113408F4C0
:10161000ADCFF501C386C11002C081E08587F50119
:101620008381882309F4A2CFD5011396ED2DFE2DD9
:101630009501255F3F4F8D918193A217B307D9F78D
:1016400081E00F90DF91CF911F910F91FF90EF906C
:10165000DF90CF90BF90AF900895DC015996ED9147
:10166000FC915A973097B9F083899489A589B689F6
:101670004285538564857585841B950BA60BB70B36
:10168000811520E89207A105B10538F08FEF9FE79B
:10169000A0E0B0E0089580E090E00895CF93DF935C
:1016A0001F92CDB7DEB76983DC01ED91FC9102801A
:1016B000F381E02D41E050E0BE016F5F7F4F19954F
:1016C0000F90DF91CF9108950895FC01818D928D47
:1016D000009711F00C949E160895CF93DF93EC01C0
:1016E000898D9A8D009739F481E090E09B838A83FD
:1016F00080E090E00BC0FC01138212820E94A719C7
:10170000E98DFA8D22813381232B71F7DF91CF91FF
:101710000895EF92FF920F931F93CF93DF931F9241
:101720001F92CDB7DEB7182F7B0100E021E040E02B
:1017300059E06DE370E0CE0101960E94C1258981D8
:101740009A810E94BF1E21E041E050E0B701812F45
:101750000E9472030E94BE1E81E090E00F900F90E5
:10176000DF91CF911F910F91FF90EF900895CF934C
:10177000DF931F92CDB7DEB7FC01218D328D232B75
:1017800049F0BE016F5F7F4F808D0E94890B898178
:1017900090E002C08FEF9FEF0F90DF91CF910895FF
:1017A000DF92EF92FF920F931F93CF93DF931F92DD
:1017B0001F92CDB7DEB7D82E00E021E040E059E01F
:1017C0006DE370E0CE0101960E94C12589819A8166
:1017D0000E94BF1E00E010E08D2D0E944A147C0183
:1017E000892B21F08D2D0E944A148C010E151F05A6
:1017F00099F70E94BE1EC8010F900F90DF91CF9104
:101800001F910F91FF90EF90DF9008958F929F921C
:10181000AF92BF92CF92DF92FF920F931F93CF931D
:10182000DF931F921F92CDB7DEB7F82E4B016A01EE
:1018300000E021E040E059E06DE370E0CE01019668
:101840000E94C12589819A810E94BF1E00E010E09C
:101850008F2D0E944A145C01892B21F08F2D0E944C
:101860004A148C010A151B0599F70115110599F405
:1018700063E070E08F2D0E94871E8431F1F0882391
:10188000E1F001E010E08C3111F400E010E011957E
:101890000195110912C0C016D1060CF4860110166C
:1018A00011065CF420E0A801B4018F2D0E947203A0
:1018B00060E470E08F2D0E9462030E94BE1EC8018A
:1018C0000F900F90DF91CF911F910F91FF90DF90BC
:1018D000CF90BF90AF909F908F9008950F931F93DC
:1018E000CF93DF931F921F92CDB7DEB7182F00E082
:1018F00021E040E059E06DE370E0CE0101960E94E6
:10190000C12589819A810E94BF1E60E170E0812F0C
:101910000E9462034FEF62E070E0812F0E947D1E03
:101920000E94BE1E0F900F90DF91CF911F910F91DB
:101930000895CF92DF92EF92FF920F931F93CF9370
:10194000DF931F921F92CDB7DEB7182FC62E7A01F4
:10195000D22E0E946E0C00E021E040E059E06DE3E1
:1019600070E0CE0101960E94C12589819A810E9472
:10197000BF1E4C2D4D2960E070E0812F0E947D1E1E
:10198000E114F10459F4E090A405F090A5058FEF5F
:10199000E81AF80AF092A505E092A4054F2D64E03C
:1019A00070E0812F0E947D1E4E2D65E070E0812F3A
:1019B0000E947D1E61E070E0812F0E9462030E9400
:1019C000BE1E81E00F900F90DF91CF911F910F917C
:1019D000FF90EF90DF90CF900895BF92CF92DF926B
:1019E000EF92FF920F931F93CF93DF9300D000D01D
:1019F000CDB7DEB7FC01208D243009F053C06A0159
:101A00007B018C01B12C63E070E08B2D0E94871E5E
:101A1000811103C0F801B08E06C08831D9F3B394A8
:101A2000F4E0BF12F0CFF801808D8430D9F196E058
:101A3000E6E6F2E0DE01119601900D929A95E1F74B
:101A4000F70193819F779C8394819D8395819E83E9
:101A5000B7016E5F7F4F90E0982F882744E050E0F9
:101A6000845F9B4F0E94781BB601F801808D0E9415
:101A7000AD1EF801808D90E0982F882746E050E059
:101A8000BE016F5F7F4F8A5F9B4F0E94781BF801FA
:101A9000128E118E20E8A60162E0808D0E94990CC2
:101AA00081E001C080E026960FB6F894DEBF0FBE3D
:101AB000CDBFDF91CF911F910F91FF90EF90DF90FD
:101AC000CF90BF9008950F931F93CF93DF9300D0D3
:101AD000CDB7DEB7182F00E021E040E059E06DE31C
:101AE00070E0CE0101960E94C12589819A810E94F1
:101AF000BF1E63E070E0812F0E94871E8B830E94CF
:101B0000BE1E8B810F900F900F90DF91CF911F9190
:101B10000F910895CF92DF92EF92FF920F931F9350
:101B20000E94802EC090A005D090A105E090A20553
:101B3000F090A3058B019C010C191D092E093F098A
:101B40008091220590912305A0912405B09125054F
:101B5000083E134021053105D0F00196A11DB11DAD
:101B60008093220590932305A0932405B093250527
:101B7000B701A60148515C4F6F4F7F4F4093A005BE
:101B80005093A1056093A2057093A305C9CF40911E
:101B90001E0550911F056091200570912105841745
:101BA0009507A607B70708F456C0E0912605F091FF
:101BB0002705309709F44FC0199561157105810506
:101BC000910539F1609322057093230580932405D4
:101BD00090932505DC01CB01845D9E4FAF4FBF4F35
:101BE00080931E0590931F05A0932005B0932105B7
:101BF00082E090E090939F0580939E050E94802E46
:101C00006093A0057093A1058093A2059093A3050E
:101C100022C08091220590912305A0912405B091C6
:101C20002505845D9E4FAF4FBF4F80931E05909357
:101C30001F05A0932005B093210581E090E020913D
:101C40009E0530919F05232B11F480E090E0909346
:101C50009F0580939E0560912205709123058091D8
:101C60002405909125051F910F91FF90EF90DF9033
:101C7000CF900895CF92DF92EF92FF920F931F9330
:101C8000CF93DF93EC0181E08093E90788E68093AE
:101C90000B081092EA0710920C0860E087EF98E0BA
:101CA0000E94422A0E94782667E088E60E94342635
:101CB00010921D0580931C0587EF98E00E94F6297D
:101CC0008F77982F92959F701AEF082F919F000D94
:101CD000112487EF98E00E94F6299C01332794E0B5
:101CE000359527959A95E1F7F82E129FF00C11245F
:101CF00087EF98E00E94F6299C01332744E0359550
:101D000027954A95E1F7E82E129FE00C112487EF02
:101D100098E00E94F62987EF98E00E94F6299C013E
:101D2000332754E0359527955A95E1F7D82E129F21
:101D3000D00C112487EF98E00E94F6299C013327EC
:101D400064E0359527956A95E1F7C82E129FC00C7F
:101D5000112487EF98E00E94F6299C01332774E054
:101D6000359527957A95E1F7129F800D1124888388
:101D7000C982DA82EB82FC820D83CE01DF91CF91A2
:101D80001F910F91FF90EF90DF90CF900895FC018D
:101D9000908190539A3008F090E0818180532AE03E
:101DA000929F800D11240895DC01E0E0615038F02D
:101DB0008D91E827F0E0E25AFB4FE491F7CF8E2FA8
:101DC0000895FC0190810180F281E02DF8948181D9
:101DD000892B81832281892F809528232283A7E064
:101DE000B0E01197F1F7218182238183A3E2B0E073
:101DF0001197F1F780817894EFECF0E03197F1F7EB
:101E0000982381E009F480E00895FC01908101802D
:101E1000F281E02D892F809560FF12C0F894228115
:101E2000822382838181892B8183A3E2B0E0119791
:101E3000F1F78281982B9283789487ED90E011C01E
:101E4000F8942281822382838181892B8183AFEF61
:101E5000B0E01197F1F78281982B928378948FE00C
:101E600090E00197F1F70895CF92DF92EF92FF9201
:101E70000F931F93CF93DF931F92CDB7DEB76C0103
:101E8000E62E08E010E0FF24F39461E08F2D8E2110
:101E900009F460E0C60149830E94050FFF0C015060
:101EA000110949810115110581F7411115C0F894F7
:101EB000D6011196ED91FC91129791818C918095AC
:101EC000892381831196ED91FC91129792818C91D7
:101ED00080958923828378940F90DF91CF911F9111
:101EE0000F91FF90EF90DF90CF900895CF92DF9207
:101EF000EF92FF920F931F93CF93DF931F92CDB773
:101F0000DEB78C01F62E40E065E579830E94340F40
:101F1000CF2C7981D72E760188E0E80EF11CF601EE
:101F200061916F0140E0C8010E94340FCE14DF04BC
:101F3000B1F70F90DF91CF911F910F91FF90EF902C
:101F4000DF90CF900895FC0190810180F281E02D17
:101F5000F8948181292F20958223818378948DE7BD
:101F600043E050E0815021F1DA011197F1F730811F
:101F70003923C1F3F8948281822382838181892B62
:101F800081837894ABE7B7E01197F1F7F8948181FA
:101F900028232183A3E1B1E01197F1F780819823F1
:101FA00081E009F080E07894E3E6F6E03197F1F71C
:101FB00008956F927F928F929F92AF92BF92CF922D
:101FC000DF92EF92FF920F931F93CF93DF931F92B5
:101FD000CDB7DEB78C01F42EFC0185819681598343
:101FE0000E94760F40E06EEBF801858196810E9499
:101FF000340F6F2C5981752E5301F9E0AF0EB11CCF
:10200000F8018580968088E0C82ED12CEE24E394D8
:10201000F12CC4010E94E10E8111FE28EE0CF1E0CA
:10202000CF1AD108B1F7F301F1923F01EA15FB0590
:1020300039F7F801858196810E94A30F91E08130E4
:1020400009F090E0892F0F90DF91CF911F910F91B0
:10205000FF90EF90DF90CF90BF90AF909F908F90C8
:102060007F906F900895EF92FF920F931F93CF93FD
:10207000DF931F921F92CDB7DEB78C017A01FC016E
:102080008581968169837A830E94A30F69817A8111
:10209000882371F0A701C8010E94D90F882341F05D
:1020A00068E0C7010E94D40E91E0F70120858213F9
:1020B00090E0892F0F900F90DF91CF911F910F919A
:1020C000FF90EF900895CF93DF93CDB7DEB72997B8
:1020D0000FB6F894DEBF0FBECDBFFB0120812031CB
:1020E000D1F0AE014F5F5F4F0E943310882389F01B
:1020F0008D818F3361F020F48F3159F489E00CC069
:102100008F3519F08F3739F004C08BE005C08AE0B5
:1021100003C080E001C08CE029960FB6F894DEBFC2
:102120000FBECDBFDF91CF9108950F931F93CF9333
:10213000DF93EC01162F60E0812F0E94E605612FEE
:1021400070E0FB01E854FC4FE491E883FB01EE589A
:10215000FC4FE491F0E0EE0FFF1FEC5BFB4F85912D
:1021600094919A8389831B861D861C86FE013B966B
:102170008E010D5F1F4F1292E017F107E1F7DF911B
:10218000CF911F910F910895FC01DB0112968D9163
:102190009C9113979383828380EA92E0918380835A
:1021A00014968C911497848315968C91159785833A
:1021B00016964D915D916D917C9119974683578349
:1021C000608771871A964D915D916D917C911D97F5
:1021D00042875387648775871E964D915D916D91F7
:1021E0007C91519746875787608B718B52968C9163
:1021F0005297828B53964D915D916D917C9156973C
:10220000438B548B658B768B57964D915D916D9179
:102210007C915A97478B508F618F728F5B968D910F
:102220009C915C97948F838F0895EF92FF920F9308
:102230001F93CF93DF93EC017B018A011B821A82EB
:1022400088EE93E0A0E0B0E08C839D83AE83BF83F3
:102250008CEA92E0998388838DE190E00E94894125
:102260009A8F898F009779F02DE1F701DC010190B9
:102270000D922A95E1F74CE050E0B801CE010C96A2
:102280000E94CC43188EDF91CF911F910F91FF9048
:10229000EF9008952F923F924F925F926F927F92AC
:1022A0008F929F92AF92BF92CF92DF92EF92FF9266
:1022B0000F931F93CF93DF931F921F92CDB7DEB77B
:1022C000FC018581882309F4D9C0848180FFD6C0B0
:1022D00021E02A834389548965897689828593859B
:1022E000A485B585481759076A077B0709F41A8240
:1022F0006F013A81832F90E0DE0111964D013F017D
:10230000B6E06B0E711C892B09F47DC0D6011A96BC
:102310004D915D916D917C911D975A01B1E0BB2269
:10232000F60125811A012B0189E0569447943794D0
:1023300027948A95D1F7838D948D223061F4FC0126
:10234000828D938DA48DB58DBC01CD01620D731D61
:10235000841D951D45C0DC0114961C91115012215D
:10236000A114B104D1F4111118C0452B462B472BF1
:1023700051F4F6018789908DA18DB28D8683978364
:10238000A087B1870AC04681578160857185930116
:102390000E94312D882309F471C0F601238D348DFC
:1023A00086819781A085B1850297A109B109AC0109
:1023B000BD01F901058404C0440F551F661F771F36
:1023C0000A94D2F786859785A089B189840F951FD5
:1023D000A61FB71FBC01CD01610F711D811D911D8D
:1023E000D60114962C9126FF14C00091080210917A
:1023F000090220910A0230910B02601771078207CF
:10240000930751F506C0FA81FF23C1F1898190E05D
:1024100037C040E00E945516882381F1F501E9514B
:10242000FA4FD401CF010196E817F90719F021916D
:102430002D93FACFEFEF8E1A9E0AF60182859385CF
:10244000A485B5850196A11DB11D82879387A487B8
:10245000B58780E090E057CF740101E010E095016E
:10246000AB01BC018091E7079091E8070E941B1522
:10247000882321F0BFEF8B1A9B0ADFCF8FEF9FEFEE
:102480000F900F90DF91CF911F910F91FF90EF90E0
:10249000DF90CF90BF90AF909F908F907F906F9084
:1024A0005F904F903F902F900895FC01818D928D09
:1024B000009711F00C944A118FEF9FEF08950F933E
:1024C0001F93CF93DF93FC01818D928D0097B9F01C
:1024D000EF010E944A118C010F3F8FEF180791F016
:1024E000898D9A8DFC01428553856485758541509F
:1024F0005109610971090E948C13C80105C080E06F
:1025000090E002C08FEF9FEFDF91CF911F910F916D
:1025100008953F924F925F926F927F928F929F9217
:10252000AF92BF92CF92DF92EF92FF920F931F93E1
:10253000CF93DF93CDB7DEB72C970FB6F894DEBFFD
:102540000FBECDBF5C01DC015B968D909C905C97CB
:102550001696CD90DD90ED90FC901997C114D104A2
:10256000E104F10439F0BFEFCB1ADB0AEB0AFB0AF6
:10257000312C07C0F401C080D180E280F380332485
:102580003394F40181859285A385B4859C01AD01C6
:102590002F5F3F4F4F4F5F4F29873A874B875C87AD
:1025A000260137011D821E821F821886F401818553
:1025B0009285A385B4852D813E814F81588528174A
:1025C00039074A075B0708F063C089859A85AB85A0
:1025D000BC858C159D05AE05BF0550F482E0C82E64
:1025E000D12CE12CF12C92E0492E512C612C712C34
:1025F0009E012F5F3F4FB701A601C4010E94312DFC
:10260000882309F445C089819A81AB81BC81892BDB
:102610008A2B8B2B41F0260137019FEF491A590A6B
:10262000690A790A05C0C414D504E604F70491F0D8
:102630002D813E814F8158852F5F3F4F4F4F5F4F18
:102640002D833E834F8358873FEFC31AD30AE30A93
:10265000F30AACCF0FEF1FEF2FEF3FE0B301A20162
:10266000C4010E94912C882399F0D50116964D91B2
:102670005D916D917C911997411551056105710529
:1026800049F093018201C4010E94912C811102C082
:1026900080E02AC0D50116964D925D926D927C9293
:1026A0001997332051F0D301C2010196A11DB11D2C
:1026B000F40180839183A283B383F5018789908D90
:1026C000A18DB28D892B8A2B8B2B69F4D50157965E
:1026D0004D925D926D927C925A9714968C911497BC
:1026E000806814968C9381E02C960FB6F894DEBF28
:1026F0000FBECDBFDF91CF911F910F91FF90EF9053
:10270000DF90CF90BF90AF909F908F907F906F9011
:102710005F904F903F9008958F929F92AF92BF929B
:10272000CF92DF92EF92FF920F931F93CF93DF939D
:10273000EC018D81811102C080E077C00B891C897A
:102740002D893E890417150726073707A8F36A0164
:102750007B01823029F4CA86DB86EC86FD860DC0BB
:10276000C114D104E104F10451F41E821F821886C1
:1027700019861A861B861C861D8681E056C08A84AF
:102780009B84AC84BD84EB8DFC8D258530E0275F78
:102790003F4FB501A4014150510961097109022E51
:1027A00004C076956795579547950A94D2F7D70157
:1027B000C6010197A109B10904C0B695A7959795DF
:1027C00087952A95D2F784179507A607B70720F0B3
:1027D00089288A288B2849F44F89588D698D7A8DEC
:1027E0004E835F836887798704C0841B950BA60B93
:1027F000B70B4C015D018E010A5F1F4F81149104DC
:10280000A104B10409F4A7CF4E815F816885798561
:1028100098018B8D9C8D0E94312D91E0891A910831
:10282000A108B1088111EACF87CFDF91CF911F9125
:102830000F91FF90EF90DF90CF90BF90AF909F905F
:102840008F900895CF93DF93EC018091A6058111BD
:1028500009C081E08093A605809103099091040945
:102860000E94BF1E60E08C81DF91CF910C946905BE
:1028700061E0FC0184810E9469058091A60588239E
:1028800021F01092A6050C94BE1E08952C9A08956E
:102890002C9808951F93CF93DF93182F66E270E072
:1028A0000E94871EC82FD0E067E270E0812F0E944F
:1028B000871EDC2FCC279E01282BC901DF91CF91E9
:1028C0001F9108951F93CF93DF93182F60E270E05C
:1028D0000E94871EC82FD0E061E270E0812F0E9425
:1028E000871EDC2FCC279E01282BC901DF91CF91B9
:1028F0001F9108958EBD00000DB407FEFDCF8EB56B
:1029000008958FEF0C947A140F931F93CF93DF9356
:10291000EB010E94802E8B010E9481148F3F49F0B1
:102920000E94802E601B710B6C177D07A8F380E05E
:1029300001C081E0DF91CF911F910F910895CF9356
:10294000DF93EC018E81882389F08F8198859C012B
:102950002F5F3F4F38872F838230924018F40E94B8
:102960008114F3CFCE010E9438141E82DF91CF91E3
:102970000895CF92DF92FF920F931F93CF93DF932F
:1029800000D01F92CDB7DEB76C01F62E29833A83B3
:102990004B835C830E949F14C6010E9422146CE248
:1029A00071E0C6010E9484148F2D80640E947A1405
:1029B00008E110E05C814B813A812981DA01C9018B
:1029C000002E04C0B695A795979587950A94D2F7DF
:1029D00029833A834B835C830E947A14085011093F
:1029E00029813A814B815C81083F8FEF180731F7CD
:1029F000FF2029F0E8E0FE1204C087E803C085E963
:102A000001C08FEF0E947A1410E00E948114F60139
:102A1000828787FF04C01F3F11F01F5FF6CF0F9022
:102A20000F900F900F90DF91CF911F910F91FF901A
:102A3000DF90CF900895AF92BF92CF92DF92EF9246
:102A4000FF920F931F93CF93DF93EC016901C801AD
:102A5000820F931F8130924008F070C08E818823CE
:102A600071F088819981AA81BB81481759076A074B
:102A70007B0729F48F819885C816D906B0F548835D
:102A800059836A837B838B85833039F089E0440FD7
:102A9000551F661F771F8A95D1F79A01AB0161E137
:102AA000CE010E94B914882319F083E08D8346C0BB
:102AB0000E94802E5B010E9481148A878F3F49F417
:102AC0000E94802E6A197B096D327140A0F38FE05D
:102AD00003C08E3F31F08DE08D83CE010E9438140B
:102AE0002DC018861F8281E08E838F8198858C157A
:102AF0009D0540F40E9481148F81988501969887E6
:102B00008F83F3CF6701E00EF11ECE14DF0431F0A6
:102B10000E948114F60181936F01F7CF8F81988510
:102B2000080F191F18870F838985882319F001154D
:102B3000124048F0CE010E949F1405C0CE010E94B1
:102B4000381480E001C081E0DF91CF911F910F9197
:102B5000FF90EF90DF90CF90BF90AF900895EF92ED
:102B6000FF920F931F93CF93DF93EC0179014115EF
:102B700051056105710511F482E13CC08B858330FC
:102B800039F089E0440F551F661F771F8A95D1F7EA
:102B90009A01AB0168E1CE010E94B914882311F0BB
:102BA00084E028C08EEF0E947A1487018EEFF81A15
:102BB000F80181918F010E947A140E151F05C1F74B
:102BC0008FEF0E947A148FEF0E947A140E94811472
:102BD0008A878F71853031F081E18D83CE010E942B
:102BE000381409C068E572E0CE010E948414811196
:102BF00007C085E18D83CE010E94381480E013C0A8
:102C000020E030E0A9016DE0CE010E94B9148111ED
:102C100004C00E948114882311F084E1EBCFCE011F
:102C20000E94381481E0DF91CF911F910F91FF90A6
:102C3000EF9008958091960A8823A9F140910802A7
:102C40005091090260910A0270910B0227EE35E063
:102C50008091E7079091E8070E94AF15811102C0AB
:102C600080E008954091970A5091980A6091990ADE
:102C700070919A0A411551056105710591F027EE91
:102C800035E08091E7079091E8070E94AF1588230F
:102C900039F31092970A1092980A1092990A10929A
:102CA0009A0A1092960A81E008958F929F92AF92AD
:102CB000BF92EF92FF920F931F93CF934B015C0152
:102CC000C42F8091080290910902A0910A02B0914C
:102CD0000B0288159905AA05BB0501F10E941A1679
:102CE000811102C080E020C087EEE82E85E0F82E3A
:102CF00000E012E020E030E0B501A4018091E70798
:102D00009091E8070E941B15882361F380920802C6
:102D100090920902A0920A02B0920B028091960A48
:102D2000C82BC093960A81E0CF911F910F91FF901D
:102D3000EF90BF90AF909F908F900895CF93DF93C7
:102D4000EC018D818823A1F18C8187FF2DC06E85D8
:102D50007F858889998941E00E945516882341F131
:102D6000EA8980E2E89FF0011124DF01A951BA4FFE
:102D70001097F1F08D81823050F44B895C896D8918
:102D80007E895C964D935D936D937C935F978F895D
:102D9000988DA98DBA8DE951FA4F938F828FB58B9B
:102DA000A48B8C818F778C83DF91CF910C941A1632
:102DB00080E0DF91CF9108958F929F92AF92BF9262
:102DC000CF92DF92EF92FF920F931F93CF93DF93F7
:102DD00000D01F92CDB7DEB77C0180E2689F600112
:102DE0001124960129513A4FD9011B969C9191715A
:102DF00021F0842F827409F097C0142FF701628BA1
:102E00008091080290910902A0910A02B0910B02F0
:102E100086879787A08BB18BF601E951FA4F4489D9
:102E2000558960E070E0BA0155274427D7015796CD
:102E30004D935D936D937C935A97828D938DA0E013
:102E4000B0E0482B592B6A2B7B2BD70157964D931B
:102E50005D936D937C935A97D9011B968C918871E1
:102E600059F4848D958DA68DB78DF701838B948B46
:102E7000A58BB68B81E012C0803109F055C0970157
:102E80002D5E3F4FD7015B968D919C915C970E9480
:102E9000B52D882309F448C084E0F7018583812F8C
:102EA0008F70D70114968C931497F70116821782AE
:102EB000108611861A961D921D921D921C921D97C6
:102EC00016FF34C015968C91813071F511FF2CC01E
:102ED000F7014389548965897689452B462B472B11
:102EE00009F461C040E050E0BA01C7010E948C13B0
:102EF0008823D1F0F7018788908CA18CB28CC38C89
:102F0000D48C82E090E0A0E0B0E0F6018083918371
:102F1000A283B3839E012F5F3F4FB501A401C60179
:102F20000E94312D811104C080E03DC081E03BC092
:102F300000E010E09801B501A401C6010E94912CA7
:102F4000882391F389809A80AB80BC80D601579604
:102F50008C91803129F088EF9FEFAFEFBFE004C084
:102F600088EF9FEFA0E0B0E088169906AA06BB069E
:102F700088F2D70157961D921D921D921C925A9766
:102F8000F701138A148A158A168A848180688483DB
:102F9000C7010E949E16882339F240E050E0BA0132
:102FA000C7010E948C130F900F900F900F90DF912C
:102FB000CF911F910F91FF90EF90DF90CF90BF9036
:102FC000AF909F908F9008954F925F926F927F92F3
:102FD000AF92BF92CF92DF92EF92FF920F931F9327
:102FE000CF93DF93CDB7DEB72B970FB6F894DEBF44
:102FF0000FBECDBF7C01CE0101966C01FC0190E2B9
:103000008BE08C0D91938E13FDCFDA0130E047E019
:103010009D91992339F19E3219F0EEE5F5E00AC051
:103020004A3009F472C138E04AE0F2CF319689178C
:1030300009F46BC184918111F9CF431708F465C17C
:103040008FED890F8E3508F060C181E0830FF601A6
:10305000E30FF11D3FE9390F3A3108F490529083A4
:10306000382FD6CF8981803209F44FC1B22E8B011F
:10307000DB015B968D919C915C97F701948F838F18
:1030800016961D921D921D921C921997FB01128695
:10309000138614861586712CF80182859385A48584
:1030A000B585438954896589768984179507A6076C
:1030B000B70708F061C025E0B695A7959795879565
:1030C0002A95D1F7F82FFF706F2ED80115968C91A5
:1030D000823008F41AC1C8010E944A1197FD15C137
:1030E000F80182859385A485B5854F96A11DB11DF4
:1030F00082879387A487B587F0E26F9EC001112471
:10310000BC0169517A4F6115710509F4FEC0DB01FC
:103110002C91222319F0253EC1F427C071100EC056
:10312000F701628A409108025091090260910A02F7
:1031300070910B0246875787608B718BFC01E951B8
:10314000FA4F8081811113C015C04BE050E0C601D9
:103150000E94A443892B09F09FCF8B2D807380336D
:1031600009F4D3C04B2D662DCCC07720C9F277244B
:10317000739492CF772473948B2D8271823109F0EE
:10318000C4C07720D1F0D7011E966D917D918D91AD
:103190009C91519741E00E945516882309F4B5C0CF
:1031A000F7016289F0E26F9FB001112469517A4FF3
:1031B0006115710509F079C0A8C0D80115968C91E8
:1031C000823009F4A2C0C8010E948912882309F440
:1031D0009CC0D8015B96ED91FC915C9716964D9042
:1031E0005D906D907C901997B2E04B1A5108610880
:1031F0007108058404C0440C551C661C771C0A9495
:10320000D2F786859785A089B189480E591E6A1E16
:103210007B1EA480E1E04E1A510861087108AA20C3
:1032200009F10E941A16882309F46FC0E7EEF5E051
:10323000119227E0E73EF207D9F7D301C2018A0DC8
:10324000911DA11DB11D8093080290930902A093C6
:103250000A02B0930B028091960A81608093960ACD
:10326000AA94DDCFD8015B96ED91FC915C9780E04C
:1032700092E0A0E0B0E0058404C0880F991FAA1F67
:10328000BB1F0A94D2F7F80143895489658976896E
:10329000840F951FA61FB71F838B948BA58BB68BAE
:1032A000D70152961C9267EE75E080E2FB01119205
:1032B0008A95E9F78BE0F601DB0101900D928A9582
:1032C000E1F781E298E2DB0151969C938E9350974F
:1032D00020E038E01F963C932E931E9753969C93C4
:1032E0008E93529759969C938E93589757963C93EA
:1032F0002E9356970E941A16882339F04B2DF7010A
:103300006289C7010E94DC1601C080E02B960FB6CF
:10331000F894DEBF0FBECDBFDF91CF911F910F910B
:10332000FF90EF90DF90CF90BF90AF907F906F9025
:103330005F904F900895CF93DF93EC010E949E160B
:10334000882311F01D8281E0DF91CF9108952F92A3
:103350003F924F925F926F927F928F929F92AF9225
:10336000BF92CF92DF92EF92FF920F931F93CF9372
:10337000DF9300D01F92CDB7DEB78C015B011A013D
:10338000DC0115968C9115978130C9F414968C91B7
:1033900081FF15C082FF1BC0F801438954896589EC
:1033A000768982859385A485B58584179507A607B8
:1033B000B70769F0C8010E948C13811108C081E031
:1033C00090E0F8019383828380E090E039C161014D
:1033D00083C0D8015B968D919C915C97FC01248100
:1033E00021502A013B0139E0769467945794479421
:1033F0003A95D1F7722E74207A01F1E0FF227720FE
:1034000009F476C080E092E08E199F0946018C1580
:103410009D0508F44C01D8015B962D913C915C9779
:1034200016968D919D910D90BC91A02D0297A109AA
:10343000B109F901058404C0880F991FAA1FBB1F99
:103440000A94D2F74685578560897189840F951F44
:10345000A61FB71F9C01AD01270D311D411D511D38
:1034600029013A01811432E0930609F088C0809165
:10347000080290910902A0910A02B0910B028415F2
:103480009505A605B70559F48FEF9FEFDC018093F2
:10349000080290930902A0930A02B0930B029501CF
:1034A000B301A2018091E7079091E8070E94AF1550
:1034B000882309F484CF9EEFB91AC818D908F801F7
:1034C00082859385A485B585880D991DA11DB11DA3
:1034D00082879387A487B587D8011A964D915D910D
:1034E0006D917C911D97C114D10409F072CF87C0F2
:1034F000E114F10409F086CF16964D915D916D911E
:103500007C911997411551056105710559F457963C
:103510008D919D910D90BC91A02D0097A105B105B5
:1035200041F521C09E012F5F3F4F0E94312D88231E
:1035300009F44BCF89819A81AB81BC81F801238D3D
:10354000348DF9012789203129F048EF5FEF6FEFC3
:103550007FE004C048EF5FEF60E070E084179507FC
:10356000A607B70730F0C8010E94891281114ACF1F
:1035700026CFF80186839783A087B18743CFE114D4
:10358000F10429F5D8011A964D915D916D917C91C8
:103590001D9753968D919D910D90BC91A02D48172C
:1035A00059076A077B0798F00E941A16882309F4C6
:1035B00006CF409208025092090260920A0270926D
:1035C0000B028091960A81608093960A08C041E0C0
:1035D000C301B2010E945516882309F4F0CED5012B
:1035E000F701E951FA4FCF01880D991DE817F90746
:1035F00019F02D912193FACFA80CB91C5ECF5396E8
:103600008D919D910D90BC91A02D84179507A607D3
:10361000B70740F4F801438B548B658B768B84811C
:1036200080688483D80114968C9183FD02C0C10107
:1036300007C0C8010E949E16882309F4C0CEF7CFA8
:103640000F900F900F900F90DF91CF911F910F91DE
:10365000FF90EF90DF90CF90BF90AF909F908F90B2
:103660007F906F905F904F903F902F900895CF93F1
:10367000DF931F92CDB7DEB7698341E050E0BE0112
:103680006F5F7F4F0E94A7190F90DF91CF91089530
:10369000CF92DF92EF92FF920F931F93CF93DF931E
:1036A000EC017A018B016C01C40ED51ECC15DD0531
:1036B000A9F00E9448148FE00E947A148D2F0E9476
:1036C0007A148C2F0E947A14219680E00E947A143A
:1036D000F80181938F010E944614E8CFC701DF9162
:1036E000CF911F910F91FF90EF90DF90CF900895B1
:1036F000CF92DF92EF92FF920F931F93CF93DF93BE
:10370000EC017A018B016C01C40ED51ECC15DD05D0
:10371000A1F00E94481480EF0E947A148D2F0E941D
:103720007A148C2F0E947A142196F80181918F01CE
:103730000E947A140E944614E9CFC701DF91CF910D
:103740001F910F91FF90EF90DF90CF9008951F93FE
:10375000CF93DF931F921F92CDB7DEB7182F6A83E6
:1037600099830E94481480EF0E947A149981892FCE
:103770000E947A14812F0E947A146A81862F0E94F7
:103780007A140E94461481E00F900F90DF91CF9140
:103790001F910895CF93DF931F92CDB7DEB7698352
:1037A000DC01ED91FC910280F381E02D41E050E0DD
:1037B000BE016F5F7F4F19950F90DF91CF910895F4
:1037C000FC01818D928D0895FC018489958908956D
:1037D00022E033E0FC0131832083FB0140895189E1
:1037E00062897389FC0142835383648375830895DE
:1037F000DC01ED91FC91048CF58DE02D199480E0B5
:103800000895FC019485FB018485981303C081E031
:10381000943009F480E0089521E0FC01848584302F
:1038200009F420E0822F08950895CF93DF931F922B
:10383000CDB7DEB76983DC01ED91FC910280F381A5
:10384000E02D41E050E0BE016F5F7F4F19950F9072
:10385000DF91CF910895DC01ED91FC91068CF78DFD
:10386000E02D199591E089270895862F089581E02C
:1038700086270895089580E090E00895CF93DF9320
:10388000FC01218D328D2115310519F48FEF9FEF49
:1038900011C0EC014217530708F0A901888D0E945E
:1038A000060C1816190694F7298D3A8D281B390B2A
:1038B0003A8F298FDF91CF9108950F931F93CF9364
:1038C000DF931F92CDB7DEB7FC01218D328D232B04
:1038D00061F08C0141E050E0BE016F5F7F4F808D51
:1038E0000E94060C181619061CF08FEF9FEF08C0F7
:1038F000F801818D928D0197928F818F898190E05F
:103900000F90DF91CF911F910F910895FC01848555
:103910000C94060CCF93DF931F92CDB7DEB741E036
:1039200050E0BE016F5F7F4FFC0184850E94060C52
:10393000181619061CF4898190E002C08FEF9FEFE2
:103940000F90DF91CF910895FC018485843011F0B0
:103950000C94D00B80E090E008950F931F93CF93C9
:10396000DF93CDB7DEB728970FB6F894DEBF0FBE52
:10397000CDBF8C01F801818D928D892B49F0D80142
:10398000ED91FC910284F385E02DC8011995F2CFE9
:10399000808D0E94D00B181619065CF548E050E0A7
:1039A000BE016F5F7F4FD80158968C910E94060C24
:1039B0009C0118161906DCF489819A81AB81BC81BF
:1039C000F801808B918BA28BB38B8D8190E0982F27
:1039D00088272E81820F911D958B848B2F8130E05B
:1039E000322F22278885280F311D328F218FC90160
:1039F00002C080E090E028960FB6F894DEBF0FBEBC
:103A0000CDBFDF91CF911F910F910895CF92DF929B
:103A1000EF92FF920F931F93CF93DF93CDB7DEB753
:103A2000AF970FB6F894DEBF0FBECDBF7C016A0121
:103A300002E013E01A8309831C861B8688EE93E05C
:103A4000A0E0B0E08D879E87AF87B88B82E492E0DC
:103A50009A878987188F0F8B198E1A8E1B8E1C8E52
:103A600084E089A31DA30CA31EA21FA218A619A659
:103A70008091940990919509A0919609B091970928
:103A80008CA79DA7AEA7BFA78B839C83AD83BE8366
:103A900018861F82AE014C5D5F4FCE0101960E94D9
:103AA0005C0681309105B1F4D701ED91FC91048859
:103AB000F589E02D1BA70AA78EA19FA1A8A5B9A5EE
:103AC0008CA79DA7AEA7BFA7A601BE01665D7F4FCD
:103AD000C7011995AF960FB6F894DEBF0FBECDBFE4
:103AE000DF91CF911F910F91FF90EF90DF90CF90DA
:103AF0000895CF92DF92EF92FF920F931F93CF938F
:103B0000DF93CDB7DEB7AF970FB6F894DEBF0FBE29
:103B1000CDBF7C016A0102E013E01A8309831C8691
:103B20001B8688EE93E0A0E0B0E08D879E87AF878C
:103B3000B88B82E492E09A878987188F0F8B198E51
:103B40001A8E1B8E1C8E84E089A31DA30CA31EA2BB
:103B50001FA218A619A68091940990919509A09189
:103B60009609B09197098CA79DA7AEA7BFA78B8395
:103B70009C83AD83BE8318861F82AE014C5D5F4F70
:103B8000CE0101960E945C0681309105B1F4D70107
:103B9000ED91FC910684F785E02D1BA70AA78EA165
:103BA0009FA1A8A5B9A58CA79DA7AEA7BFA7A60151
:103BB000BE01665D7F4FC7011995AF960FB6F894A9
:103BC000DEBF0FBECDBFDF91CF911F910F91FF9050
:103BD000EF90DF90CF900895CF93DF93EC01888D25
:103BE000843061F00E946E0CE88DF0E0EE0FFF1F54
:103BF000E955FA4F1182108284E0888FDF91CF91CE
:103C00000895FC018485843011F00C94630D80E0EC
:103C10000895CF93DF93FC0124852430D1F0EC018B
:103C20000E94011E843181F0882371F0883161F097
:103C30008C3161F4E881F9810084F185E02DCE01B9
:103C4000199521E0892B19F420E001C021E0822F91
:103C500001C080E0DF91CF910895EF92FF921F9312
:103C6000CF93DF93FC01208D243011F080E01CC045
:103C70007B01EC0110E0812F0E94630D811102C0D5
:103C8000188F05C08831E1F31F5F1430A1F7888DCC
:103C9000843061F3FD86EC861A8E198E20E0A70130
:103CA00062E00E94990C81E0DF91CF911F91FF901B
:103CB000EF9008950F931F93CF93DF931F92CDB78B
:103CC000DEB78C01DC01ED91FC910084F185E02DE3
:103CD0001995892B51F0BE016F5F7F4FF8018485E4
:103CE0000E94890B898190E002C08FEF9FEF0F90B7
:103CF000DF91CF911F910F9108959B0190E0049661
:103D0000982F8827642F820F931F0C94A71B0F9363
:103D10001F93CF93DF931F92CDB7DEB790E0049649
:103D2000982F88278C01060F171F0E9448148FE0D8
:103D30000E947A14812F0E947A14802F0E947A1494
:103D400080E00E947A1489830E94461489810F9032
:103D5000DF91CF911F910F910895CF93DF93C82FDB
:103D6000D62F472F60E170E00E947D1E4D2F61E14C
:103D700070E08C2FDF91CF910C947D1E08958CBD47
:103D80009DBD08958F929F92AF92BF92CF92DF9286
:103D9000EF92FF920F931F93CF93DF931F921F9287
:103DA000CDB7DEB76C014B017A01FC01A688B7885C
:103DB000108D00E021E040E059E06DE370E0CE01BD
:103DC00001960E94C12589819A810E94BF1E812F80
:103DD0000E943F048E159F0520F4812F0E943F040E
:103DE0007C019701A401B501812F0E94DA03F6013D
:103DF000868997898E0D9F1D978B868BC7010F90A3
:103E00000F90DF91CF911F910F91FF90EF90DF9076
:103E1000CF90BF90AF909F908F9008950F931F9376
:103E2000CF93DF931F921F92CDB7DEB7FC01108DA9
:103E300000E021E040E059E06DE370E0CE01019642
:103E40000E94C12589819A810E94BF1E60E270E0B4
:103E5000812F0E94620362E070E0812F0E94871E22
:103E600084FD1FC062E070E0812F0E94871E83FFE7
:103E700009C048E162E070E0812F0E947D1E80E071
:103E800090E017C000E021E040E059E06DE370E011
:103E9000CE0101960E94C12589819A810E94BF1E90
:103EA000DACF40E162E070E0812F0E947D1E81E068
:103EB00090E00F900F90DF91CF911F910F91089597
:103EC000CF92DF92EF92FF920F931F93CF93DF93E6
:103ED0001F921F92CDB7DEB7FB01DC0157961C92F3
:103EE0001E92569758961C918281811109C0838138
:103EF000811106C08481811103C08581882339F135
:103F00004115510521F16A017F0100E021E040E007
:103F100059E06DE370E0CE0101960E94C1258981D0
:103F20009A810E94BF1EB7016E5F7F4F212F30E044
:103F3000922F882744E050E0845F9B4F0E94781BBB
:103F4000B601812F0E94AD1E81E090E002C080E0AA
:103F500090E00F900F90DF91CF911F910F91FF9004
:103F6000EF90DF90CF9008958F929F92AF92BF9283
:103F7000EF92FF920F931F93CF93DF931F921F92A5
:103F8000CDB7DEB7DC011C961C91143009F442C099
:103F90007C0100E021E040E059E06DE370E0CE01FB
:103FA00001960E94C12589819A810E94BF1E68E006
:103FB00070E0812F0E9462030E94802E4B015C0101
:103FC000C7010E94011E8823B9F061E070E080E023
:103FD00090E00E9422060E94802EDC01CB0188190D
:103FE0009909AA09BB09883E9340A105B10540F390
:103FF000F70184850E946E0CD7011C96EC911C97EA
:10400000F0E0EE0FFF1FE955FA4F1182108284E0B5
:104010001C968C930F900F90DF91CF911F910F9171
:10402000FF90EF90BF90AF909F908F9008956F9208
:104030007F928F929F92AF92BF92CF92DF92EF9238
:10404000FF920F931F93CF93DF931F921F92CDB7D1
:10405000DEB75C014B016A01FC011485143041F4A8
:1040600081E090E0F5019383828380E090E06DC071
:104070007A014130584018F0E12C88E0F82E00E039
:1040800021E040E059E06DE370E0CE0101960E942E
:10409000C12589819A810E94BF1E812F0E943F0401
:1040A0003C0163E070E0812F0E94871E873111F090
:1040B0008C3121F46E147F0410F302C0E12CF12C3A
:1040C00000E021E040E059E06DE370E0CE010196B0
:1040D0000E94C12589819A810E94BF1E9701A40177
:1040E00060E070E0812F0E94DA0360E270E0812FCF
:1040F0000E94620362E070E0812F0E94871E84FDAF
:104100001AC063E070E0812F0E94871E811104C0F5
:10411000812F0E946E0CA4CF00E021E040E059E026
:104120006DE370E0CE0101960E94C12589819A81DC
:104130000E94BF1EDFCF40E162E070E0812F0E944D
:104140007D1EEF2809F48CCFC6010F900F90DF91F0
:10415000CF911F910F91FF90EF90DF90CF90BF9084
:10416000AF909F908F907F906F900895AF92BF9285
:10417000CF92DF92EF92FF920F931F93CF93DF9333
:104180001F921F92CDB7DEB7FC012485243009F0C1
:1041900082C05A017B016C0110E0812F0E94630DE7
:1041A000811103C0F601148706C08B7F8831D1F3DB
:1041B0001F5F143091F7F6018485843009F46BC0D9
:1041C00020910602309107022F5F3F4F11F420E04B
:1041D00030EC309307022093060240910602509182
:1041E000070220E061E00E94990CF6011485F701B6
:1041F00082818F3F51F483818F3F99F484818F3F77
:1042000081F485818F3F69F443C081110AC0F701B1
:104210008381811106C08481811103C08581882337
:10422000B9F1A114B104A1F100E021E040E059E0AE
:104230006DE370E0CE0101960E94C12589819A81CB
:104240000E94BF1EB7016E5F7F4F812F90E0982FB5
:10425000882744E050E0845F9B4F0E94781BB501A3
:10426000812F0E94AD1E64E070E0812F0E946203E6
:10427000C6010E94011E873189F061E070E080E094
:1042800090E00E942206C6010E94011E8111F0CF1B
:1042900084E0F601848780E090E002C081E090E055
:1042A0000F900F90DF91CF911F910F91FF90EF90A2
:1042B000DF90CF90BF90AF900895CF93DF938AE9BE
:1042C00092E00E948941D82FC92FE2E0FAE0828172
:1042D0001F928F9381811F928F93208130E0205312
:1042E000384F3F932F9380EE93E09F938F93CF931C
:1042F000DF930E94DB438DB79EB70A960FB6F89402
:104300009EBF0FBE8DBF8D2F9C2FDF91CF91089543
:104310002F923F924F925F926F927F928F929F92D5
:10432000AF92BF92CF92DF92EF92FF920F931F93C3
:10433000CF93DF93CDB7DEB7C557D1090FB6F89449
:10434000DEBF0FBECDBF81EF93E00E94DB2669E0A8
:1043500074E08AE598E00E94E6301CE6E12E12E067
:10436000F12E0FEAC02E05E0D02E8601D7018D91E7
:104370007D01863308F0865390917B00282F2870AA
:10438000977F922B90937B008770806480937C0052
:1043900080917A00806480937A0080917A0086FD13
:1043A000FCCF609178008091790070E0782B072E27
:1043B000000C880B990B0E949E3EF801619371934B
:1043C000819391938F01F5E0073C1F0779F684E212
:1043D00094E00E94DB2664E670E080E090E00E94BA
:1043E00022064FEC55E0E6965FAF4EAFE6977A01B6
:1043F00000E010E0D6016D917D918D919D916D0150
:1044000057012AE038E240EA5BE30E94FD3EF701F3
:1044100061937193819391937F0169E274E08AE5DE
:1044200098E00E94E630C8010E942E036FE374E01A
:104430008AE598E00E94E630D5014D915D916D913D
:104440007C9122E08AE598E00E9404300E94D52603
:104450000F5F1F4F0630110569F60E94D52684E4D0
:1044600094E00E94DB260E94D5266EE574E08AE582
:1044700098E00E94E63003E21AE07801C12CD12CCA
:10448000F701858196810E94A30F40E06CECD70173
:1044900015968D919C9116970E94340FF7014081DB
:1044A00064E4858196810E94340FF601ED5DF54F3D
:1044B00082818823A1F0E181E950E33040F4F0E00B
:1044C000EE0FFF1FEE58FD4F6081718102C06EEE4E
:1044D00072E0072E000C880B990B0E942206F3E174
:1044E000CF0ED11C43E1E40EF11C56E2C516D104F7
:1044F00039F684E294E00E94DB2664E670E080E016
:1045000090E00E942206A7ECAA2EA5E0BA2EC12CAC
:10451000D12C7E018FE1E80EF11CB701C8010E9489
:104520000703811105C060E070E08EEF92EC49C096
:10453000AE014F5F5F4FB701C8010E94331088235F
:1045400059F1698198E0699FB00111248A81282F6F
:1045500030E0322F2227330F330F330F262B372B28
:104560008F8D8031E1F4688570E08F81DB01A81BBD
:10457000B109CD019695982F8827979587950E9428
:10458000524160517109207F53E0220F331F5A9529
:10459000E1F7620F731F04C060E874EE01C0B90157
:1045A0006138B4EE7B070CF4BECF072E000C880BED
:1045B000990B0E949E3E20E030E040E05CE30E94C8
:1045C000FD3E4501F50161937193819391935F01E4
:1045D00069E774E08AE598E00E94E630C6010E942F
:1045E0002E036FE374E08AE598E00E94E630D40180
:1045F0004D915D916D917C9122E08AE598E00E9459
:1046000004300E94D5260D5E1F4FCA94CD2821F09C
:10461000CC24C394D12C81CF0E94D52684E494E08D
:104620000E94DB260E94D5260E945D214C0163E793
:1046300079E0C7010E94C4101C821B8280EA92E0CC
:104640009A8389831E826401FE0131965F011701FE
:104650003F016FE270E0C6010E94BA43009709F47F
:1046600042C0D6012C912F3221F4BFEFCB1ADB0AC6
:10467000F0CF8C198D3008F08CE0082F10E0A801E5
:10468000B601CE01875A9F4F0E94CC43E9E5F0E086
:10469000EC0FFD1FE00FF11F1082C5010E949B1956
:1046A000F5018581882351F01FAE1EAE80EA92E0AD
:1046B0009DAF8CAF22961FAE22971DC021E0AE01A8
:1046C000475A5F4FB101C5010E94E417882361F387
:1046D000C00ED11EC1010E949B19922D832D150180
:1046E000A92EB82EB6CF260148185908B101CE011F
:1046F000CC960E94C410840C951CD4018C9181111D
:1047000009C0BE01645C7F4FC3010E94C41045E92B
:1047100054E047C01AA219A280EA92E098A38F8FB2
:104720001CA222968FAD2297811116C06D961FAEE6
:104730001EAE6D9788EE93E0A0E0B0E0A1968CAF3E
:104740009DAFAEAFBFAFA197E4961FAE1EAEE4978C
:10475000A6961FAEA6972BC0825023E1A4018230FB
:1047600040F463E779E0C7010E94E41781110DC0AE
:10477000DDCFBE01645C7F4FC7010E94E417882330
:10478000A9F2CE01CC960E949B194AA95BA96CA9FB
:104790007DA9C7010E948C13B701C3010E94C410F8
:1047A000A401B301CE01875A9F4F0E9415116D9647
:1047B0008EAD9FAD6D9790930B0A80930A0AA196D8
:1047C0008CAD9DADAEADBFADA19780930C0A90931B
:1047D0000D0AA0930E0AB0930F0AA5968CAD9DAD5D
:1047E000AEADBFADA5978093100A9093110AA09328
:1047F000120AB093130A8DE0E9E5F0E0EC0FFD1F1B
:104800003C96A4E1BAE001900D928A95E1F7E49616
:10481000EEADFFADE497F093220AE093210A3097C2
:1048200009F4A4C08581882309F4A0C04091020A3C
:1048300050E04053584F052E000C660B770B2AE0D2
:1048400088E09AE00E94BB2F65E974E088E09AE076
:104850000E94E6304091030A50E060E070E02AE0F8
:1048600088E09AE00E94BB2F65E974E088E09AE056
:104870000E94E6304091040A50E060E070E02AE0D7
:1048800088E09AE00E94BB2F67E974E088E09AE034
:104890000E94E6304091050A50E060E070E02AE0B6
:1048A00088E09AE00E94BB2F69E974E088E09AE012
:1048B0000E94E6304091060A50E060E070E02AE095
:1048C00088E09AE00E94BB2F69E974E088E09AE0F2
:1048D0000E94E6304091070A50E060E070E02AE074
:1048E00088E09AE00E94BB2F67E974E088E09AE0D4
:1048F0000E94E6300FEC15E0F80141915191619171
:1049000071918F012AE088E09AE00E94043067E903
:1049100074E088E09AE00E94E630F5E0073E1F0769
:1049200059F74091C7055091C8056091C90570912C
:10493000CA052AE088E09AE00E94043067E974E042
:1049400088E09AE00E94E6304091CB055091CC057A
:104950006091CD057091CE052AE088E09AE00E9432
:10496000043067E974E088E09AE009C08BE994E0DC
:104970000E94DB260E945D21BC018AE598E00E942E
:10498000E6300E94802E19821A821B821C82FE0150
:1049900035968AE1DF011D928A95E9F78091070A31
:1049A0001F928F938091060A1F928F938091050A20
:1049B00090E002979F938F938091040A1F928F93A8
:1049C0008091030A1F928F938091020A90E0805396
:1049D000984F9F938F938AEA94E09F938F937F924F
:1049E0006F920E94DB4388EC94E00E94DB260E94D9
:1049F000D5260FB6F894DEBF0FBECDBF00E010E0A5
:104A0000E696AEADBFADE6974D915D916D917D910E
:104A1000E696BFAFAEAFE6970F5F1F4FC8010E948B
:104A200019280630110561F74091C7055091C80556
:104A30006091C9057091CA0581E090E00E94192833
:104A40004091CB055091CC056091CD057091CE057C
:104A500082E090E00E94192886EE94E00E94DB2616
:104A60000E94D52686EF94E00E94DB26CB58DF4FCC
:104A70000FB6F894DEBF0FBECDBFDF91CF911F916F
:104A80000F91FF90EF90DF90CF90BF90AF909F90ED
:104A90008F907F906F905F904F903F902F900895F0
:104AA000EF92FF920F931F93CF93DF9300D000D02C
:104AB000CDB7DEB7CE0101960E943A0E6A813981E8
:104AC000432F50E08B8190E0EEE6F5E021E02E1BD5
:104AD000722F7E0F761728F47491870F911D3196EF
:104AE000F7CF633018F0337009F401966DE671E08A
:104AF000469F9001479F300D569F300D1124215045
:104B000031094D5F5F4F5695479556954795240F50
:104B1000351F280F391FA8E1B0E00E940F402C81FB
:104B20007B018C01E20EF11C011D111DA8019701F2
:104B3000ACE3B0E00E94DA3F2D817B018C01E20EF4
:104B4000F11C011D111DA80197010E94DA3F2E8161
:104B5000DC01CB01820F911DA11DB11DBC01CD0156
:104B600060587C4B8249974C26960FB6F894DEBF6E
:104B70000FBECDBFDF91CF911F910F91FF90EF90AE
:104B800008950F93FC0130E080E092E1AAE7B0E0E5
:104B9000481759076A077B0740F4B695A79597957C
:104BA00087953F5F3630A1F737E091E093272223C6
:104BB00011F020E501C020E7892F86950C70082BA5
:104BC000022B0083917091830F910895EF92FF92D1
:104BD0000F931F93CF93DF93EC018C01045F1F4F62
:104BE0007C018CE3E80EF11C6EE075E0C8010E94C8
:104BF0001E2F0A5F1F4F0E151F05B1F780E090E0D2
:104C0000A0ECBFE78CAF9DAFAEAFBFAFFE01E05CE5
:104C1000FF4F80839183A283B383349680839183F3
:104C2000A283B3836EE075E0CE01865B9F4F0E9446
:104C30001E2F6EE075E0CE01805B9F4F0E941E2FFD
:104C40006EE075E0CE018A5A9F4F0E941E2F6EE0E3
:104C500075E0CE01845A9F4FDF91CF911F910F9144
:104C6000FF90EF900C941E2F909153089111FCCF60
:104C700091E090935308909352082FEF209351089E
:104C800010925008260F20934F0890934E08909151
:104C90004E08880F892B80934E0880914D088130F3
:104CA00061F410924D0880914E088093BB00809172
:104CB000BC0083FDF8CF85EC01C085EE8093BC007D
:104CC000809153088130E1F380915008861710F4E9
:104CD00060915008ADE2B8E02DE038E0F9018E2F88
:104CE000821B861718F48D918193F9CF862F089532
:104CF00020910C0890910B08213208F04AC0809155
:104D000053088111FCCF32E03093530831E03093E7
:104D100052083FEF309351081092500820934F08EB
:104D2000ABEEB7E04DE258E0FA013E2F341B3217EC
:104D300018F43D913193F9CF10924E0820914E080E
:104D4000990F922B90934E0890914D08913061F4F9
:104D500010924D0890914E089093BB009091BC002A
:104D600093FDF8CF95EC01C095EE9093BC00909127
:104D700053089230E1F3909151089F3F79F0809170
:104D80005108803241F080915108803331F084E045
:104D900005C081E003C082E001C083E01092EA0711
:104DA00010920C081092E90708956CE075E08AE50E
:104DB00098E00C94A62FCF93DF93BC018AE598E08E
:104DC0000E94A62FEC010E94D5268C0F9D1FDF911B
:104DD000CF9108958F929F92AF92BF92CF92DF9220
:104DE000EF92FF92CF93DF93C82F89E499E09093DD
:104DF000E8078093E707CC2369F1C53010F080E025
:104E00000DC140E060E070E0CB010E9455168823A0
:104E1000B1F320E1C29FC001112489529A4FFC01D5
:104E2000E254FE4F20812F7751F73C96408151810B
:104E300062817381443651056105710500F3349731
:104E4000C080D180E280F380C114D104E104F10478
:104E500021F4D5CFC12CD12C760140E0C701B60199
:104E60000E945516882359F28091F2059091F3051E
:104E70008115924021F6A091F705AA2309F4BFCF2E
:104E80006091F5057091F6056115710509F4B7CFCC
:104E90002091F405222309F4B2CFA093670920934F
:104EA000590980E030E0E1E0F0E0C82FAF01082EC2
:104EB00002C0440F551F0A94E2F72417350741F04A
:104EC000982F8F5F983089F789E08093620997CF98
:104ED000809362092091FD053091FE052115310571
:104EE00019F040E050E008C020910B0630910C060C
:104EF00040910D0650910E0620935A0930935B099C
:104F000040935C0950935D0946015701860E971E38
:104F1000A11CB11C8092680990926909A0926A094B
:104F2000B0926B09E091F805F091F905F0936E09E4
:104F3000E0936D09B0E00E94DA3F860E971EA81E2E
:104F4000B91E80926F0990927009A0927109B09277
:104F5000720985E0EE0FFF1F8A95E1F7E150FE4FE1
:104F6000EF2FFF27E6958E0E9F1EA11CB11C80928D
:104F7000630990926409A0926509B0926609209134
:104F8000FA053091FB052115310521F0A90160E0FA
:104F900070E008C04091070650910806609109062C
:104FA00070910A06D701C60188199909AA09BB0997
:104FB000840F951FA61FB71F04C0B695A795979598
:104FC0008795CA95D2F780935E0990935F09A09365
:104FD0006009B0936109853F2FE09207A105B105F3
:104FE00010F48CE018C0853F9F4FA105B10510F467
:104FF00080E111C08091130690911406A0911506CE
:10500000B091160680936F0990937009A09371096F
:10501000B093720980E280936C0981E0DF91CF91B7
:10502000FF90EF90DF90CF90BF90AF909F908F90C8
:1050300008954F925F926F927F928F929F92AF925C
:10504000BF92EF92FF920F931F93CF93DF93CDB751
:10505000DEB76A970FB6F894DEBF0FBECDBF7C01F6
:105060004A015B012A013B01E89477F82FEF3FEFFB
:105070004FE75FE7C301B2010E94314181110AC0CD
:105080002FEF3FEF4FE75FE7C301B2010E94973E6A
:105090001816A4F026E934ED48E653E5C501B4013D
:1050A0000E942C411816F4F126E934ED48E653ED40
:1050B000C501B4010E94973E87FD34C08E010F5F89
:1050C0001F4F25E041E0C501B4010E94B73BB80184
:1050D000CE0145960E948A2F970121503109283030
:1050E0003105B0F4898D9A8D8F3F910509F098F4C0
:1050F00046E0429FC001439F900D1124BE016B5EAC
:105100007F4F8A55964F0E94352F08EC10E005C05E
:1051100007E31FEF02C00BE91FEFCE0145960E9487
:105120004C2F02C00BE91FEFC8016A960FB6F89426
:10513000DEBF0FBECDBFDF91CF911F910F91FF90CA
:10514000EF90BF90AF909F908F907F906F905F9007
:105150004F900895FC01538D448D252F30E0842F0E
:1051600090E0821B930B541710F0CF96089501978F
:105170000895FC01918D828D981761F0828DDF0179
:10518000A80FB11D5D968C91928D9F5F9F73928F3A
:1051900090E008958FEF9FEF0895FC01918D828D2F
:1051A000981731F0828DE80FF11D858D90E00895FC
:1051B0008FEF9FEF0895FC01918D228D892F90E054
:1051C000805C9F4F821B91098F73992708958AE510
:1051D00098E00E94DB2821E0892B09F420E0822F4F
:1051E0000895FC01848DDF01A80FB11DA35ABF4FA4
:1051F0002C91848D90E001968F739927848FA689D6
:10520000B7892C93A089B1898C9180648C93938DFC
:10521000848D981306C00288F389E02D80818F7DEC
:1052200080830895EF92FF920F931F93CF93DF93A4
:10523000EC0181E0888F9B8D8C8D981305C0E889E7
:10524000F989808185FD24C0F62E0B8D10E00F5F5B
:105250001F4F0F731127E02E8C8DE8120CC00FB674
:1052600007FCFACFE889F989808185FFF5CFCE0167
:105270000E94F128F1CF8B8DFE01E80FF11DE35A5A
:10528000FF4FF0820B8FEA89FB898081806207C023
:10529000EE89FF896083E889F98980818064808351
:1052A00081E090E0DF91CF911F910F91FF90EF90FF
:1052B0000895CF93DF93EC01888D8823C9F0EA89A4
:1052C000FB89808185FD05C0A889B9898C9186FDFF
:1052D0000FC00FB607FCF5CF808185FFF2CFA889FC
:1052E000B9898C9185FFEDCFCE010E94F128E7CFDF
:1052F000DF91CF91089580E090E0892B21F00E940A
:10530000E728811125C080E090E0892B41F080E002
:1053100090E0892B21F00E94000081111CC080E0E8
:1053200090E0892B41F080E090E0892B21F00E94F1
:105330000000811113C080E090E0892BA1F080E093
:1053400090E0892B81F00E94000081110AC008952D
:105350000E940000D8CF0E940000E1CF0E94000010
:10536000EACF0C940000089585ED8093BC008091F5
:10537000BC0084FDFCCF1092530808954091BE0AF2
:10538000262F30E0240F311D21323105DCF420912D
:1053900053082430C9F4FC0180E090E0861758F4EB
:1053A0003091BE0A2191DC01A456B54FA30FB11D67
:1053B0002C930196F3CF8091BE0A680F6093BE0ACA
:1053C00080E0089581E0089582E008950895E091D5
:1053D0001D0580911C05E81730F4F0E0E35FF74FFE
:1053E000808190E008958FEF9FEF089590911D05C3
:1053F00080911C05981750F4E92FF0E0E35FF74F18
:10540000208130E09F5F90931D0502C02FEF3FEF9A
:10541000C901089580911C0590E020911D05821B13
:1054200091090895CF92DF92EF92FF920F931F930D
:10543000CF93DF937C01262F972F8A018091E90774
:10544000882391F0C62FD72F6E01C40ED51ECC1520
:10545000DD0571F06991D701ED91FC910190F0812A
:10546000E02DC7011995F3CF642F822F0E94BE292A
:10547000C801DF91CF911F910F91FF90EF90DF90C6
:10548000CF900895CF93DF931F92CDB7DEB7698396
:105490002091E9072223D1F020910C08203240F01E
:1054A00021E030E0FC013383228380E090E015C0EE
:1054B0008091EA07E82FF0E0E551F84F9981908359
:1054C0008F5F8093EA0780930C0805C061E0CE01EE
:1054D00001960E94BE2981E090E00F90DF91CF916C
:1054E00008958F929F92AF92BF92CF92DF92EF92E8
:1054F000FF920F931F93CF93DF937C018B016C017D
:1055000082E0C80ED11C4701E5E08E0E911CC0E080
:10551000D0E0F60141916F0150E060E070E02AE0D8
:10552000C8010E94BB2F5C016EE2C8010E949F2F40
:105530008A0D9B1DC80FD91FC814D90451F7F70154
:10554000458150E060E070E02AE0C8010E94BB2F76
:105550008C0F9D1FDF91CF911F910F91FF90EF90C6
:10556000DF90CF90BF90AF909F908F9008950E9452
:105570009F4322E033E0FC0131832083FB01408123
:10558000518162817381FC014283538364837583FB
:1055900008951F920F920FB60F9211240BB60F921F
:1055A0002F933F934F935F936F937F938F939F932B
:1055B000AF93BF93EF93FF938AE598E00E94F128A1
:1055C000FF91EF91BF91AF919F918F917F916F91DB
:1055D0005F914F913F912F910F900BBE0F900FBE97
:1055E0000F901F9018951F920F920FB60F921124D3
:1055F0000BB60F922F938F939F93EF93FF93E091AE
:105600006A08F0916B088081E0917008F091710850
:1056100082FD12C09081809173088F5F8F732091FB
:105620007408821751F0E0917308F0E0E65AF74FE2
:10563000958F8093730801C08081FF91EF919F91B6
:105640008F912F910F900BBE0F900FBE0F901F9058
:1056500018951F920F920FB60F9211240BB60F924E
:105660002F933F934F935F936F937F938F939F936A
:10567000AF93BF93EF93FF938091B900887F8036FB
:1056800009F49CC068F5883209F45BC090F480315D
:1056900009F454C038F4882309F4F6C0883009F4BA
:1056A0004DC0F6C0883109F44CC0803209F45DC0A9
:1056B000EFC0803409F468C048F4803309F455C061
:1056C000883309F0E5C080935108D8C0803509F4CB
:1056D0004FC0883509F45DC0883409F0D9C0D6C000
:1056E000883909F4C7C0A8F4883709F467C038F4CA
:1056F000883609F463C0803709F460C0C9C08838AF
:1057000009F4B8C0803909F45FC0803809F0C0C01E
:105710005BC0803B09F486C038F4803A09F466C067
:10572000883A09F47FC0B4C0803C09F4A7C0883C23
:1057300009F4A4C0883B09F48AC0AAC080914E082D
:1057400010C09091500880914F08981770F5E09123
:10575000500881E08E0F80935008F0E0E35DF74F32
:1057600080818093BB0085EC86C0809351088EC0F9
:10577000E091500881E08E0F809350088091BB002B
:10578000F0E0E35DF74F80839091500880914F08DF
:105790006EC0E091500881E08E0F80935008809198
:1057A000BB00F0E0E35DF74F8083809152088111E8
:1057B0006DC081E080934D0884EA61C083E08093EE
:1057C00053081092E20ACFCF8091E20A803208F0AB
:1057D00051C0E091E20A81E08E0F8093E20A80914D
:1057E000BB00F0E0EE53F54F8083BDCF85EC809396
:1057F000BC00109253088091E20A803230F4E091AC
:10580000E20AF0E0EE53F54F10826091E20A70E098
:10581000E091C00AF091C10A82EC9AE019951092C9
:10582000E20A36C084E0809353081092BF0A1092B7
:10583000BE0AE091BC0AF091BD0A19958091BE0A9A
:10584000811105C081E08093BE0A10929C0AE0910C
:10585000BF0A81E08E0F8093BF0AF0E0E456F54F57
:1058600080818093BB009091BF0A8091BE0A9817F7
:1058700008F479CF85E88093BC000AC085EC80935A
:10588000BC001092530804C0109251080E94B42921
:10589000FF91EF91BF91AF919F918F917F916F9108
:1058A0005F914F913F912F910F900BBE0F900FBEC4
:1058B0000F901F901895CF93CFB7F89480919B0AC3
:1058C000811127C0E7EAF3E08491EDEEF3E09491D3
:1058D000E82FF0E0EE0FFF1FE25CFC4FA591B491C2
:1058E000EC91E92321F461E085E30E94690561E020
:1058F00085E30E94E6058CB580618CBD8CB5806423
:105900008CBD61E084E30E94E60561E083E30E94D0
:10591000E60580919B0A8F5F80939B0ACFBFCF9152
:1059200008954F925F926F927F928F929F92AF9263
:10593000BF92CF92DF92EF92FF920F931F93CF937C
:10594000DF93EC016A017B012801390142305105E6
:105950006105710510F480E073C089859A85AB8577
:10596000BC850196A11DB11D84179507A607B70731
:1059700090F38B889C88AD88BE888F89803129F40C
:10598000BB27AF2D9E2D8D2D09C0DB01CA0147E03D
:10599000B695A795979587954A95D1F7880E991E44
:1059A000AA1EBB1E8091080290910902A0910A02D2
:1059B000B0910B0288169906AA06BB0679F48F8966
:1059C0008031A1F4DD24EE24FF24C601880F991F45
:1059D000FC01E951FA4F5182408219C040E0C501F3
:1059E000B4010E9455168111EACFB5CFE894C7F8EB
:1059F000DD24EE24FF24C601880F991F880F991F0C
:105A0000FC01E951FA4F4082518262827382809197
:105A1000960A81608093960A8A89823080F08D810F
:105A20009E81AF81B885880E991EAA1EBB1E8092EA
:105A3000970A9092980AA092990AB0929A0A81E0E5
:105A4000DF91CF911F910F91FF90EF90DF90CF905A
:105A5000BF90AF909F908F907F906F905F904F908E
:105A600008958F929F92AF92BF92CF92DF92EF9262
:105A7000FF920F931F93CF93DF93FC018185928553
:105A8000A385B4850196A11DB11D84179507A607AE
:105A9000B70710F480E05CC083899489A589B68932
:105AA000C789C03129F4852E962EA72EBB2409C0A4
:105AB0004A015B01C7E0B694A79497948794CA956E
:105AC000D1F7E9016A017B018F01BC01CD01680DAD
:105AD000791D8A1D9B1D8090080290900902A0905C
