:100000000C94BB020C94EC020C94EC020C94EC02E9
:100010000C94EC020C94EC020C94EC020C94EC02A8
:100020000C94EC020C94EC020C94EC020C94EC0298
:100030000C94EC020C94EC020C94EC020C94EC0288
:100040000C94EC020C94EC020C94EC020C94EC0278
:100050000C94EC020C94EC020C94EC020C946428CA
:100060000C94EC020C94CD130C94A3130C94EC029E
:100070000C94EC020C94EC020C94EC020C94EC0248
:100080000C94EC020C94EC020C94EC020C94EC0238
:100090000C94EC020C94EC020C94EC020C940314FF
:1000A0000C94EC020C94EC020C94EC020C94EC0218
:1000B0000C94EC020C94EC020C94EC020C94EC0208
:1000C0000C94EC020C94EC020C94EC020C94EC02F8
:1000D0000C94EC020C94EC020C94EC020C94EC02E8
:1000E0000C94EC02DE0BE10BD00BD40BD80B180CEC
:1000F000E50BE90BEF0BF30BF70BFD0B010C050CFC
:10010000180C0B0C0F0C130C0C945E030C942303B3
:100110000C943A130C9466040C94DE0B0C945B0361
:100120000C94BD030C94E10B0C945F030C9404033A
:100130000C9439030C940F0C0C9422120C947B0336
:100140000C940D040C9470060C948D050C94731192
:100150000C9473210C9416070C9482130C944C0588
:100160000C94F70B0C9469050C94E50B0C94EF0BB5
:100170000C9425030C94130C0C94CF210C94AA21FD
:100180000C94FD0B0C94B3210C94AB210C947907C7
:100190000C94F30B0C94D9040C94010C0C94DB120A
:1001A0000C94180C0C9480130C94E6030C941636E3
:1001B0000C94C2060C94EA030C94F1350C94ED25D2
:1001C0000C9408030C940B130C94B0120C94D312DF
:1001D0000C9462030C94F7250C94D00B0C94180823
:1001E0000C940B0C0C94BF120C94050C0C94E90BA2
:1001F0000C9430030C94D80B0C94DB110C94380342
:100200000C944F030C941C030C9424060C940C03C4
:100210000C94A4110C94EE020C9494210C94D40B25
:100220000C94AF120C9482110C949E030C949611B2
:100230000C9404040C94F6270C94590300407A1093
:10024000F35A00A0724E18090010A5D4E80000E887
:100250007648170000E40B54020000CA9A3B0000E5
:1002600000E1F505000080969800000040420F0074
:100270000000A08601000000102700000000E80335
:10028000000000006400000000000A000000000000
:100290000100000000002C76D888DC674F0823DFBF
:1002A000C1DFAE59E1B1B796E5E3E453C63AE65192
:1002B000997696E8E6C28426EB898C9B62ED407CB9
:1002C0006FFCEFBC9C9F40F2BAA56FA5F490055A55
:1002D0002AF75C936B6CF9676DC11BFCE0E40D477A
:1002E000FEF520E6B500D0ED902E0300943577059D
:1002F0000080841E080000204E0A000000C80C3355
:100300003333330F986E12831141EF8D2114893BE3
:10031000E65516CFFEE6DB18D1844B381BF77C1D63
:10032000901DA4BBE424203284725E228100C9F1B6
:1003300024ECA1E53D2700002100240027002A002D
:100340002D003000330001010000040107010A0103
:1003500000002200250028002B002E003100340070
:1003600002010000050108010B010505050507054F
:1003700008080808020202020A0A08080404040421
:10038000010101010101010103030303030303034D
:10039000040707070C0C0C0C0C0C0C0C02020202DC
:1003A00006060606060606060B0B0B0B0B0B0B0BC5
:1003B0000102102020080810204010204080020177
:1003C000020108040201010204081020408080405C
:1003D000201008040201800402018040201008045B
:1003E00002010804020101020408102040800102F9
:1003F00004081020408000000A0B02090C0D0E08B2
:1004000007030401000000000000000000000000DD
:1004100000000000000000000000000000000000DC
:100420000000121110000000000000000000000099
:100430000000000000000000000000007C3C3E5E68
:100440002B3D3F2F5B5D3B2C2A225C0000002000EF
:100450002300260029002C002F003200000100009C
:10046000030106010901005EBCE2613FDD83C29C1D
:100470007E20A3FD1F419DC3217FFCA2401E5F0182
:10048000E3BD3E6082DC237D9FC1421CFEA0E1BF34
:100490005D0380DE3C62BEE0025CDF81633D7C2266
:1004A000C09E1D43A1FF4618FAA427799BC584DA94
:1004B0003866E5BB5907DB856739BAE40658194742
:1004C000A5FB7826C49A653BD987045AB8E6A7F9F4
:1004D0001B45C6987A24F8A6441A99C7257B3A6426
:1004E00086D85B05E7B98CD2306EEDB3510F4E1054
:1004F000F2AC2F7193CD114FADF3702ECC92D38D02
:100500006F31B2EC0E50AFF1134DCE90722C6D33B3
:10051000D18F0C52B0EE326C8ED0530DEFB1F0AEE5
:100520004C1291CF2D73CA947628ABF51749085613
:10053000B4EA6937D58B5709EBB536688AD495CBC1
:100540002977F4AA4816E9B7550B88D6346A2B7573
:1005500097C94A14F6A8742AC896154BA9F7B6E8A5
:100560000A54D7896B351F1C1F1E1F1E1F1F1E1FFD
:100570001E1F1636F13511241FBECFEFD1E2DEBFAC
:10058000CDBF00E00CBF15E0A0E0B2E0EAE9F5E87D
:1005900000E00BBF02C007900D92A630B107D9F75B
:1005A0002AE0A6E0B5E001C01D92A638B207E1F747
:1005B00012E0CAEBD2E000E006C021970109802FCB
:1005C000FE010E946F3DC93BD10780E00807A9F7F3
:1005D0000E94C02A0C94BB420C940000CF93DF937E
:1005E0001F92CDB7DEB76983DC01ED91FC910280EB
:1005F000F381E02D41E050E0BE016F5F7F4F199520
:100600000F90DF91CF910895FC01818D928D089517
:10061000FC0184899589089522E033E0FC0131834F
:100620002083FB014089518962897389FC014283DF
:100630005383648375830895DC01ED91FC91048CF0
:10064000F58DE02D199480E00895FC019485FB015F
:100650008485981303C081E0943009F480E0089504
:1006600021E0FC018485843009F420E0822F089584
:100670000895CF93DF931F92CDB7DEB76983DC0176
:10068000ED91FC910280F381E02D41E050E0BE014C
:100690006F5F7F4F19950F90DF91CF910895DC0127
:1006A000ED91FC91068CF78DE02D199591E089274D
:1006B0000895862F089581E086270895089580E0A3
:1006C00090E00895CF93DF931F92CDB7DEB7FC0182
:1006D000218D328D232B49F0BE016F5F7F4F808DBE
:1006E0000E942820898190E002C08FEF9FEF0F9039
:1006F000DF91CF9108950F931F93CF93DF931F92B4
:10070000CDB7DEB78C01DC01ED91FC910084F18561
:10071000E02D1995892B51F0BE016F5F7F4FF801D5
:1007200084850E942820898190E002C08FEF9FEF8E
:100730000F90DF91CF911F910F910895CF93DF9389
:10074000FC01218D328D2115310519F48FEF9FEFBA
:1007500011C0EC014217530708F0A901888D0E94CF
:100760008C201816190694F7298D3A8D281B390B01
:100770003A8F298FDF91CF9108950F931F93CF93D5
:10078000DF931F92CDB7DEB7FC01218D328D232B75
:1007900061F08C0141E050E0BE016F5F7F4F808DC2
:1007A0000E948C20181619061CF08FEF9FEF08C0CE
:1007B000F801818D928D0197928F818F898190E0D0
:1007C0000F90DF91CF911F910F910895FC018485C7
:1007D0000C948C20CF93DF931F92CDB7DEB741E00E
:1007E00050E0BE016F5F7F4FFC0184850E948C202A
:1007F000181619061CF4898190E002C08FEF9FEF54
:100800000F90DF91CF910895FC018485843011F021
:100810000C94562080E090E008950F931F93CF939F
:10082000DF93CDB7DEB728970FB6F894DEBF0FBEC3
:10083000CDBF8C01F801818D928D892B49F0D801B3
:10084000ED91FC910284F385E02DC8011995F2CF5A
:10085000808D0E945620181619065CF548E050E07D
:10086000BE016F5F7F4FD80158968C910E948C20FB
:100870009C0118161906DCF489819A81AB81BC8130
:10088000F801808B918BA28BB38B8D8190E0982F98
:1008900088272E81820F911D958B848B2F8130E0CC
:1008A000322F22278885280F311D328F218FC901D1
:1008B00002C080E090E028960FB6F894DEBF0FBE2D
:1008C000CDBFDF91CF911F910F910895CF92DF920D
:1008D000EF92FF920F931F93CF93DF93CDB7DEB7C5
:1008E000AF970FB6F894DEBF0FBECDBF7C016A0193
:1008F00002E013E01A8309831C861B8688EE93E0CE
:10090000A0E0B0E08D879E87AF87B88B82E492E04D
:100910009A878987188F0F8B198E1A8E1B8E1C8EC3
:1009200084E089A31DA30CA31EA21FA218A619A6CA
:100930008091770990917809A0917909B0917A090D
:100940008CA79DA7AEA7BFA78B839C83AD83BE83D7
:1009500018861F82AE014C5D5F4FCE0101960E944A
:10096000A20C81309105B1F4D701ED91FC9104887E
:10097000F589E02D1BA70AA78EA19FA1A8A5B9A55F
:100980008CA79DA7AEA7BFA7A601BE01665D7F4F3E
:10099000C7011995AF960FB6F894DEBF0FBECDBF55
:1009A000DF91CF911F910F91FF90EF90DF90CF904B
:1009B0000895CF92DF92EF92FF920F931F93CF9300
:1009C000DF93CDB7DEB7AF970FB6F894DEBF0FBE9B
:1009D000CDBF7C016A0102E013E01A8309831C8603
:1009E0001B8688EE93E0A0E0B0E08D879E87AF87FE
:1009F000B88B82E492E09A878987188F0F8B198EC3
:100A00001A8E1B8E1C8E84E089A31DA30CA31EA22C
:100A10001FA218A619A68091770990917809A09134
:100A20007909B0917A098CA79DA7AEA7BFA78B8340
:100A30009C83AD83BE8318861F82AE014C5D5F4FE1
:100A4000CE0101960E94A20C81309105B1F4D7012C
:100A5000ED91FC910684F785E02D1BA70AA78EA1D6
:100A60009FA1A8A5B9A58CA79DA7AEA7BFA7A601C2
:100A7000BE01665D7F4FC7011995AF960FB6F8941A
:100A8000DEBF0FBECDBFDF91CF911F910F91FF90C1
:100A9000EF90DF90CF900895CF93DF93EC01888D96
:100AA000843061F00E94F420E88DF0E0EE0FFF1F2B
:100AB000EF5EF94F1182108284E0888FDF91CF9131
:100AC0000895FC018485843011F00C94452280E067
:100AD0000895CF93DF93FC0124852430D1F0EC01FD
:100AE0000E946105843181F0882371F0883161F0C2
:100AF0008C3161F4E881F9810084F185E02DCE012B
:100B0000199521E0892B19F420E001C021E0822F02
:100B100001C080E0DF91CF910895EF92FF921F9383
:100B2000CF93DF93FC01208D243011F080E01CC0B6
:100B30007B01EC0110E0812F0E944522811102C04F
:100B4000188F05C08831E1F31F5F1430A1F7888D3D
:100B5000843061F3FD86EC861A8E198E20E0A701A1
:100B600062E00E941F2181E0DF91CF911F91FF90F1
:100B7000EF9008959B0190E00496982F8827642FAA
:100B8000820F931F0C9405200F931F93CF93DF9335
:100B90001F92CDB7DEB790E00496982F88278C017E
:100BA000060F171F0E945C1C8FE00E94761C812F8D
:100BB0000E94761C802F0E94761C80E00E94761C8A
:100BC00089830E945A1C89810F90DF91CF911F91D8
:100BD0000F910895CF93DF93C82FD62F472F60E151
:100BE00070E00E94BA054D2F61E170E08C2FDF911B
:100BF000CF910C94BA0508958CBD9DBD08950F93B7
:100C0000FC0130E080E092E1AAE7B0E04817590724
:100C10006A077B0740F4B695A795979587953F5F40
:100C20003630A1F737E091E09327222311F020E539
:100C300001C020E7892F86950C70082B022B0083BA
:100C4000917091830F9108958F929F92AF92BF926E
:100C5000CF92DF92EF92FF920F931F93CF93DF9388
:100C60001F921F92CDB7DEB76C014B017A01FC01D8
:100C7000A688B788108D00E021E040E059E06DE3E0
:100C800070E0CE0101960E94FF0589819A810E9441
:100C9000FC05812F0E94850A8E159F0520F4812F67
:100CA0000E94850A7C019701A401B501812F0E9451
:100CB000200AF601868997898E0D9F1D978B868B5A
:100CC000C7010F900F90DF91CF911F910F91FF906F
:100CD000EF90DF90CF90BF90AF909F908F9008954E
:100CE0000F931F93CF93DF931F921F92CDB7DEB761
:100CF000FC01108D00E021E040E059E06DE370E080
:100D0000CE0101960E94FF0589819A810E94FC050F
:100D100060E270E0812F0E94A80962E070E0812FFC
:100D20000E94C40584FD1FC062E070E0812F0E9414
:100D3000C40583FF09C048E162E070E0812F0E9492
:100D4000BA0580E090E017C000E021E040E059E003
:100D50006DE370E0CE0101960E94FF0589819A81C2
:100D60000E94FC05DACF40E162E070E0812F0E9432
:100D7000BA0581E090E00F900F90DF91CF911F9125
:100D80000F910895CF92DF92EF92FF920F931F93EE
:100D9000CF93DF931F921F92CDB7DEB7FB01DC012B
:100DA00057961C921E92569758961C9182818111DB
:100DB00009C08381811106C08481811103C08581AE
:100DC000882339F14115510521F16A017F0100E0C5
:100DD00021E040E059E06DE370E0CE0101960E9411
:100DE000FF0589819A810E94FC05B7016E5F7F4FE4
:100DF000212F30E0922F882744E050E0845F9B4F02
:100E00000E94D61FB601812F0E94EA0581E090E082
:100E100002C080E090E00F900F90DF91CF911F9182
:100E20000F91FF90EF90DF90CF9008958F929F9257
:100E3000AF92BF92EF92FF920F931F93CF93DF93E6
:100E40001F921F92CDB7DEB7DC011C961C911430A7
:100E500009F442C07C0100E021E040E059E06DE38C
:100E600070E0CE0101960E94FF0589819A810E945F
:100E7000FC0568E070E0812F0E94A8090E945828B4
:100E80004B015C01C7010E9461058823B9F061E054
:100E900070E080E090E00E94680C0E945828DC011D
:100EA000CB0188199909AA09BB09883E9340A1057D
:100EB000B10540F3F70184850E94F420D7011C9608
:100EC000EC911C97F0E0EE0FFF1FEF5EF94F1182DF
:100ED000108284E01C968C930F900F90DF91CF913D
:100EE0001F910F91FF90EF90BF90AF909F908F90C8
:100EF00008956F927F928F929F92AF92BF92CF92FE
:100F0000DF92EF92FF920F931F93CF93DF931F9285
:100F10001F92CDB7DEB75C014B016A01FC0114855D
:100F2000143041F481E090E0F5019383828380E006
:100F300090E06DC07A014130584018F0E12C88E013
:100F4000F82E00E021E040E059E06DE370E0CE01D2
:100F500001960E94FF0589819A810E94FC05812FDC
:100F60000E94850A3C0163E070E0812F0E94C40565
:100F7000873111F08C3121F46E147F0410F302C01C
:100F8000E12CF12C00E021E040E059E06DE370E05D
:100F9000CE0101960E94FF0589819A810E94FC057D
:100FA0009701A40160E070E0812F0E94200A60E2B6
:100FB00070E0812F0E94A80962E070E0812F0E94FA
:100FC000C40584FD1AC063E070E0812F0E94C4054F
:100FD000811104C0812F0E94F420A4CF00E021E001
:100FE00040E059E06DE370E0CE0101960E94FF05FC
:100FF00089819A810E94FC05DFCF40E162E070E0C8
:10100000812F0E94BA05EF2809F48CCFC6010F90FA
:101010000F90DF91CF911F910F91FF90EF90DF9094
:10102000CF90BF90AF909F908F907F906F900895DA
:10103000AF92BF92CF92DF92EF92FF920F931F93E6
:10104000CF93DF931F921F92CDB7DEB7FC012485AB
:10105000243009F082C05A017B016C0110E0812F1D
:101060000E944522811103C0F601148706C08B7FC0
:101070008831D1F31F5F143091F7F60184858430F5
:1010800009F46BC020910602309107022F5F3F4F99
:1010900011F420E030EC30930702209306024091D7
:1010A00006025091070220E061E00E941F21F60134
:1010B0001485F70182818F3F51F483818F3F99F42A
:1010C00084818F3F81F485818F3F69F443C0811112
:1010D0000AC0F7018381811106C08481811103C098
:1010E00085818823B9F1A114B104A1F100E021E0C8
:1010F00040E059E06DE370E0CE0101960E94FF05EB
:1011000089819A810E94FC05B7016E5F7F4F812F14
:1011100090E0982F882744E050E0845F9B4F0E9426
:10112000D61FB501812F0E94EA0564E070E0812F8F
:101130000E94A809C6010E946105873189F061E01B
:1011400070E080E090E00E94680CC6010E9461059A
:101150008111F0CF84E0F601848780E090E002C046
:1011600081E090E00F900F90DF91CF911F910F9150
:10117000FF90EF90DF90CF90BF90AF900895CF9306
:10118000DF938AE992E00E94923DD82FC92FE5EEC5
:10119000F9E082811F928F9381811F928F9320812A
:1011A00030E02053384F3F932F938FED94E09F937F
:1011B0008F93CF93DF930E94E43F8DB79EB70A963B
:1011C0000FB6F8949EBF0FBE8DBF8D2F9C2FDF9161
:1011D000CF910895EF92FF920F931F93CF93DF93D8
:1011E000EC018C01045F1F4F7C018CE3E80EF11CC5
:1011F00069EF74E0C8010E94F6280A5F1F4F0E15C0
:101200001F05B1F780E090E0A0ECBFE78CAF9DAF89
:10121000AEAFBFAFFE01E05CFF4F80839183A2833E
:10122000B383349680839183A283B38369EF74E0A0
:10123000CE01865B9F4F0E94F62869EF74E0CE01D5
:10124000805B9F4F0E94F62869EF74E0CE018A5AB6
:101250009F4F0E94F62869EF74E0CE01845A9F4F99
:10126000DF91CF911F910F91FF90EF900C94F62892
:1012700080E3FB0180833296842F82958F7090E10A
:10128000899F401911244A3014F4405D01C0495C23
:101290004293482F8111F0CF0895CF93DF93EB0154
:1012A000DC011596ED91FC91169713861586148630
:1012B000DF011B9633961E92AE17BF07E1F7BE0102
:1012C000FC01858196810E94E310882349F067E044
:1012D000CE010E946C229F81891302C081E001C06F
:1012E00080E0DF91CF910895CF92DF92EF92FF924D
:1012F000CF93DF936C01990FEE08FF08F7FE1BC038
:101300006DE281E898E00E947729EC014427552797
:10131000BA014C195D096E097F092AE081E898E05D
:101320000E9493298C0F9D1FDF91CF91FF90EF902A
:10133000DF90CF9008952AE0B701A60181E898E0F8
:10134000DF91CF91FF90EF90DF90CF900C94932995
:10135000CF93C82F462F61E070E00E94BA0561E08C
:1013600070E08C2F0E94C4058111F9CFCF910895B0
:101370008F929F92AF92BF92CF92DF92EF92FF92A5
:101380000F931F93CF93DF93B82E4B018A01A22EA8
:1013900068E270E00E94C405C82FD0E069E270E006
:1013A0008B2D0E94C405DC2FCC27C82B9E013770E3
:1013B000CB2CD12CC601880F991FAC014F5D594F22
:1013C0006A01FA0180819181820F931FA801420F67
:1013D000531F4130584098F060E078E07B01E21AFA
:1013E000F30AA701B4010E94A61FA8014E195F09C4
:1013F000B4016E0D7F1DF6018081918102C0A801AC
:10140000B4010E94A61FA1100EC0C00FD11F4D2F06
:1014100068E270E08B2D0E94BA054C2F69E270E003
:101420008B2D0E94BA05DF91CF911F910F91FF90F4
:10143000EF90DF90CF90BF90AF909F908F900895E6
:101440009F92AF92BF92CF92DF92EF92FF920F9353
:101450001F93CF93DF93982E8B015A01690164E2A9
:1014600070E00E94C405E82EF12C65E270E0892D41
:101470000E94C405FE2CEE24E82AE701C00FD11F0C
:101480009E013770E92CF12CC701880F991FAC0120
:10149000475E594F7A01FA0180819181820F931F33
:1014A000A9014C0D5D1D4130584090F000E018E05E
:1014B000021B130BA801B5010E94D61FA601401BF9
:1014C000510BB501600F711FF7018081918102C03E
:1014D000A601B5010E94D61FCC0DDD1D4D2F64E283
:1014E00070E0892D0E94BA054C2F65E270E0892DCD
:1014F000DF91CF911F910F91FF90EF90DF90CF90F0
:10150000BF90AF909F900C94BA05FF920F931F93DA
:10151000CF93DF93F82EC0E0D0E08F2D0E945E1CA9
:101520008C01892B21F08F2D0E945E1CEC01C017CD
:10153000D10799F7CE01DF91CF911F910F91FF90C5
:1015400008957F928F929F92AF92BF92CF92DF9237
:10155000EF92FF920F931F93CF93DF93CDB7DEB738
:10156000A6970FB6F894DEBF0FBECDBF8C01762EC6
:10157000942E852E20E2B22ECE0101967C01FC0134
:101580002B2D11922A95E9F782E093E09AA389A383
:101590008FEF8BA38CA38DA38EA3680183E4C80E69
:1015A000D11C43E450E0BE016F5D7F4FC6010E9435
:1015B000C206019609F4BFC081E089838A8386E070
:1015C000A82EAB821C82F801648175818681978187
:1015D0000E94773D6D837E838F83988789869A8664
:1015E00080E890E09C878B874CE150E0B701C60112
:1015F0000E942406F7012B2D11922A95E9F7480144
:1016000088E0880E911CF401D70101900D92AA94F4
:10161000E1F740E150E0B701C6010E942406F7015E
:101620001192BA94E9F796E0A92EB12C40E250E06D
:10163000B701C6010E942406F1E0AF1AB108B1F764
:1016400083E6898392E89A8393E59B838C8385E381
:101650008D8381E08E837F829DE3988797E09987D1
:101660008A8786E0F401DE011B9601900D928A952F
:10167000E1F78CE0898B8A8B60EF74E0CE014396B2
:101680000E94CE3FF8014385BE01675E7F4FC801CF
:101690000E943809F8014485BE01655E7F4FC8018C
:1016A0000E943809F8014585BE01635E7F4FC8017D
:1016B0000E9438094EE150E0B701C6010E9424069D
:1016C000F3E07F121EC082E3898384E08A83F801FD
:1016D00096859B8397859C8390899D8391899E8322
:1016E00096E39F838887828D8987838D8A87848DFF
:1016F0008B87858D8C874CE050E0B701C6010E9436
:10170000240687E3898386E08A8391E09B8393E0C4
:101710009C838D838FE08E838AE38F838BE388871E
:101720008FEF898749E050E0B701C6010E94240687
:10173000C6010E947006A6960FB6F894DEBF0FBED3
:10174000CDBFDF91CF911F910F91FF90EF90DF9070
:10175000CF90BF90AF909F908F907F900895362F3D
:1017600090E0FC01EA50FC4F4491FC01E055FC4F35
:101770002491FC01E659FC4F9491992309F46BC024
:10178000442309F455C050E0FA013197E231F105E4
:1017900008F04EC08827EE58FF4F8F4F0C946F3DD6
:1017A000809180008F7707C0809180008F7D03C07B
:1017B00080918000877F809380003AC084B58F77C6
:1017C00002C084B58F7D84BD33C08091B0008F7717
:1017D00003C08091B0008F7D8093B00029C08091BC
:1017E00090008F7707C0809190008F7D03C080911B
:1017F0009000877F809390001BC08091A0008F771E
:1018000007C08091A0008F7D03C08091A000877FDA
:101810008093A0000DC0809120018F7707C0809138
:1018200020018F7D03C080912001877F809320015C
:10183000E92FF0E0EE0FFF1FE05BFC4FA591B491A4
:101840008FB7F894EC91311103C020952E2301C07D
:101850002E2B2C938FBF0895CF93DF9390E0FC0144
:10186000E055FC4F2491FC01E659FC4F84918823FC
:1018700061F190E0880F991FFC01EA5CFC4FC59173
:10188000D491FC01E05BFC4FA591B491611109C0BA
:101890009FB7F8948881209582238883EC912E232A
:1018A0000BC0623061F49FB7F8943881822F809525
:1018B00083238883EC912E2B2C939FBF06C08FB778
:1018C000F894E8812E2B28838FBFDF91CF91089564
:1018D0008F929F92AF92BF92CF92DF92EF92FF9240
:1018E0006B017C010E9433284B015C01C114D104BF
:1018F000E104F104F1F00E943328DC01CB018819E6
:101900009909AA09BB09883E9340A105B10570F366
:1019100021E0C21AD108E108F10888EE880E83E0C0
:10192000981EA11CB11CC114D104E104F10419F7E3
:10193000DDCFFF90EF90DF90CF90BF90AF909F9062
:101940008F9008952F923F924F925F926F927F9265
:101950008F929F92AF92BF92CF92DF92EF92FF92BF
:101960000F931F93CF93DF93CDB7DEB765970FB675
:10197000F894DEBF0FBECDBF7C016B013A01FB01C5
:1019800020E080E090E06AE03191332309F140EDFE
:10199000430F4A3080F4689FA001699F500D1124C5
:1019A000CA01C097830F911D37FD9A958F3F91050E
:1019B00059F350F313C03E3289F4233079F0D30148
:1019C000A20FB11D12968C932F5F80E090E0DCCFC8
:1019D000233021F4F301858381E021C0F7014281A6
:1019E00053816481758180917D0890917E08A091DA
:1019F0007F08B0918008481759076A077B0709F4E8
:101A00009EC10E9458288701085F1F4F6F7077277B
:101A10007C5FC8010E948D05813019F080E090E064
:101A2000F3C182E093E09A838983F70182819381F5
:101A3000A481B5818B839C83AD83BE8345E350E055
:101A4000BE016F5F7F4FC8010E94C206892B19F447
:101A5000C12CD12C6FC10E945828F701778366836F
:101A60007627672776277A83698342E050E0BE01B4
:101A70006F5F7F4FC8010E94240681E090E09E873F
:101A80008D8742E050E0BE01635F7F4FC8010E9436
:101A9000240680E091E09E878D8742E050E0BE0101
:101AA000635F7F4FC8010E9424061E861D8642E0A8
:101AB00050E0BE01635F7F4FC8010E94240642E0F0
:101AC00050E0BE01635F7F4FC8010E94240642E0E0
:101AD00050E0BE01635F7F4FC8010E94240656019B
:101AE000F5018081882311F1F6015F018191811157
:101AF00015C045018C189D081814190494F48F869C
:101B000041E050E0BE01615F7F4FC8010E942406A2
:101B1000A401B601C8010E94240603C08E3229F731
:101B2000E8CF6501FFEFCF1ADF0ADACF1F8641E069
:101B300050E0BE01615F7F4FC8010E942406C12CA6
:101B4000DD24D394DE86CD8642E050E0BE01635FA3
:101B50007F4FC8010E942406DE86CD8642E050E019
:101B6000BE01635F7F4FC8010E942406C8010E9426
:101B70007006892B09F46CCF63E0A62EB12CF2E03D
:101B80006F0E711C0E9458281B012C01C8010E9475
:101B90000D0418161906A4F00E945828DC01CB0188
:101BA00082199309A409B50989389341A105B105A2
:101BB000D0F462E370E080E090E00E94680CE6CF31
:101BC000F7014281538164817581808D918DA28D51
:101BD000B38D481759076A077B0741F4848D958DAB
:101BE000C59721F406C02FEF3FEF9AC02EEF3FEFCD
:101BF00097C0F70181A192A10C970CF4A6C04CE00C
:101C000050E0BE016F5F7F4FC8010E949E038B8131
:101C100090E0982F88272C81822B9A8B898B2981A1
:101C200030E0322F22274A81242BF7014681578149
:101C30004217530709F086C097FF84C08F709270D7
:101C4000892B09F0DEC0CF80D12CDC2CCC248885F8
:101C5000C82AC114D10409F4D1C0812C912C8D81E2
:101C600090E0982F88272E81822B8816990608F4F9
:101C70006FC0812C912C41E050E0BE016D5E7F4F22
:101C8000C8010E949E038B89982F907C09F093C015
:101C9000811186C08B898111EECF42E050E0BE01F8
:101CA000615F7F4FC8010E949E0342E050E0BE0189
:101CB000635F7F4FC8010E949E03C8010E94BD035D
:101CC000C8010E94BD03C8010E94BD03C8010E9453
:101CD000BD0342E050E0BE016F5E7F4FC8010E942D
:101CE0009E038F8598898115914009F069C02D85E3
:101CF0003E853227232732272130310509F060C085
:101D000089899A898115944009F075C044E050E0B2
:101D1000B301C8012C8B3D8B0E949E032C893D8909
:101D20006901F1E0AF1AB10829F02FEFC216D2060F
:101D300009F428CFC8010E944C05C60165C08EEF8A
:101D40009FEF62C02CEF3FEFEBCF2DEF3FEFE8CFDF
:101D500041E050E0BE01635F7F4FC8010E949E03D7
:101D60008D85811113C08D858111F2CFC8010E942C
:101D7000BD03C8010E94BD03C8010E94BD03C80184
:101D80000E94BD03FFEF8F1A9F0A69CF8D859FEFD9
:101D9000980F9D87882339F3C8010E94BD03F6CFB1
:101DA0008B899FEF980F9B8B882309F473CFC80111
:101DB0000E94BD03F5CFC8010E94BD031B8A6ACFF4
:101DC000412C512C89899A89982789279827481668
:101DD000590638F4C8010E94BD038FEF481A580A0B
:101DE000F1CFEFEF8E1A9E0A8C149D0409F043CFB9
:101DF00026EF3FEF95CF27EF3FEF92CF2AEF3FEF50
:101E00008FCF2BEF3FEF8CCF65960FB6F894DEBFE8
:101E10000FBECDBFDF91CF911F910F91FF90EF903B
:101E2000DF90CF90BF90AF909F908F907F906F90FA
:101E30005F904F903F902F9008952F923F924F9236
:101E40005F926F927F928F929F92AF92BF92CF924A
:101E5000DF92EF92FF920F931F93CF93DF93CDB753
:101E6000DEB7E3970FB6F894DEBF0FBECDBF7C019F
:101E70001A012B0139010E9458284B015C0187018E
:101E80000D5B1F4FC8010E940D0418161906A4F01F
:101E90000E945828DC01CB0188199909AA09BB09BD
:101EA000281639064A065B06D8F062E370E080E047
:101EB00090E00E94680CE6CF42E250E0BE016F5F06
:101EC0007F4FC8010E949E038981823011F080E01B
:101ED00061C1F8018489958983349105C1F702C0F5
:101EE0008FEF58C16D817E818F8198850E94773DEB
:101EF0004B015C01F301608371838283938346E02D
:101F000050E0B701685F7F4FCE014D960E94AD3F14
:101F1000892BE9F6F70180819181A281B38188162E
:101F20009906AA06BB0698F284819581A681B7819D
:101F300088159905AA05BB0550F289899A89AB894C
:101F4000BC8986879787A08BB18B8EECA82EB12C8D
:101F5000C8010E94BD03F1E0AF1AB108C9F719A684
:101F6000670182E2C80ED11CF701B696FBA7EAA76B
:101F7000C7018A969DA78CA73C974F0189969FA77A
:101F80008EA73897F9ABE8AB1701F6E12F0E311C9D
:101F9000C5979BAB8AABF801818D928D18161906F7
:101FA0000CF0F7C0C8010E94BD038333910509F40A
:101FB000CBC0FCF481309105C9F11CF4892B59F395
:101FC000DCC083309105D1F1069709F0D6C0C80175
:101FD0000E94BD035C0144E050E06AA97BA9C801EE
:101FE0000E949E03412C512CBB24F4E0AF1AB1088F
:101FF00040C08A33910509F47BC03CF485339105D8
:1020000069F0C69709F440C0B8C08B33910509F454
:1020100085C08F3F910509F4BECFAFC0C8010E94B3
:10202000BD03C8010E94BD0389A7B5CFC8010E94A6
:10203000BD0344E050E068A979A93AC0C8010E94F4
:10204000BD035C0144E050E0B101C8010E949E0361
:10205000412C512CBB2494E0A91AB1084A145B040A
:102060000CF099CFC8010E94BD03EFEF4E1A5E0A33
:10207000F5CF4A145B040CF08ECFC8010E94BD035B
:102080008FEF481A580AF5CFC8010E94BD03B82E39
:10209000F701828D811110C0838D81110DC0848D57
:1020A00081110AC0858D811107C044E050E0B40160
:1020B000C8010E949E036FCFEEA5FFA5408051800E
:1020C00062807380B401CE0183960E9493138DA128
:1020D0009EA1AFA1B8A584159505A605B70529F35E
:1020E000BB2009F458CFC8010E94BD03BA94F8CFB1
:1020F000C8010E94BD0344E050E06AA57BA5C80169
:102100000E949E03F70166A177A180A591A50E9478
:10211000773D66A377A380A791A73DCFC8010E9412
:10212000BD0344E050E06CA57DA5C8010E949E035C
:10213000F70162A573A584A595A50E94773D62A7C6
:1021400073A784A795A727CFC8010E94BD0344E0C9
:1021500050E0B601C8010E949E03F70162A173A17D
:1021600084A195A10E94773D62A373A384A395A344
:1021700066A777A780AB91AB0ECFC8010E94BD03C5
:10218000B82EBB2009F407CFC8010E94BD03BA9442
:10219000F8CF89A5E3960FB6F894DEBF0FBECDBF8A
:1021A000DF91CF911F910F91FF90EF90DF90CF9033
:1021B000BF90AF909F908F907F906F905F904F9067
:1021C0003F902F900895AF92BF92CF92DF92EF92FF
:1021D000FF920F931F93CF93DF931F92CDB7DEB77C
:1021E0005C01D62EE72EFC018585811105C0C50155
:1021F0000E943B23811106C0F501138615861486C3
:1022000080E065C040E060EFC5010E94CC2201E0A3
:10221000F12CC12C11E0C5010E947922682FC50163
:1022200069830E9479226981613019F48130B9F49F
:1022300033C04F2D50E068131BC0F501838518177C
:1022400030F4E40FF51F8381802349F402C018178E
:1022500031F060E0193058F4F501148708C0F50139
:10226000EF0DF11D8381802B838361E009C0C12EB6
:10227000F501E40FF51F9381802F809589238383D7
:10228000C5010E949D221F5F000F11F4F39401E02D
:10229000F7E0FF1508F0BFCF113408F4ADCFF5011A
:1022A000C386C11002C081E08587F5018381882340
:1022B00009F4A2CFD5011396ED2DFE2D9501255FD2
:1022C0003F4F8D918193A217B307D9F781E00F900B
:1022D000DF91CF911F910F91FF90EF90DF90CF9002
:1022E000BF90AF900895FC01538D448D252F30E0B1
:1022F000842F90E0821B930B541710F0CF96089513
:1023000001970895FC01918D828D981761F0828D5F
:10231000DF01A80FB11D5D968C91928D9F5F9F7319
:10232000928F90E008958FEF9FEF0895FC01918DBB
:10233000828D981731F0828DE80FF11D858D90E028
:1023400008958FEF9FEF0895FC01918D228D892FC5
:1023500090E0805C9F4F821B91098F7399270895AD
:1023600081E898E00E94A41121E0892B09F420E083
:10237000822F0895FC01848DDF01A80FB11DA35A9F
:10238000BF4F2C91848D90E001968F739927848F95
:10239000A689B7892C93A089B1898C9180648C938C
:1023A000938D848D981306C00288F389E02D808177
:1023B0008F7D80830895EF92FF920F931F93CF93A9
:1023C000DF93EC0181E0888F9B8D8C8D981305C085
:1023D000E889F989808185FD24C0F62E0B8D10E0F7
:1023E0000F5F1F4F0F731127E02E8C8DE8120CC06A
:1023F0000FB607FCFACFE889F989808185FFF5CF10
:10240000CE010E94BA11F1CF8B8DFE01E80FF11DB4
:10241000E35AFF4FF0820B8FEA89FB89808180624B
:1024200007C0EE89FF896083E889F989808180642B
:10243000808381E090E0DF91CF911F910F91FF9019
:10244000EF900895CF93DF93EC01888D8823C9F036
:10245000EA89FB89808185FD05C0A889B9898C91AD
:1024600086FD0FC00FB607FCF5CF808185FFF2CF48
:10247000A889B9898C9185FFEDCFCE010E94BA1150
:10248000E7CFDF91CF91089580E090E0892B21F094
:102490000E94B011811125C080E090E0892B41F0AD
:1024A00080E090E0892B21F00E94000081111CC087
:1024B00080E090E0892B41F080E090E0892B21F0D2
:1024C0000E940000811113C080E090E0892BA1F0F0
:1024D00080E090E0892B81F00E94000081110AC009
:1024E00008950E940000D8CF0E940000E1CF0E9412
:1024F0000000EACF0C940000089585ED8093BC00A5
:102500008091BC0084FDFCCF10924F05089540914E
:102510005106262F30E0240F311D21323105DCF425
:1025200020914F052430C9F4FC0180E090E086172B
:1025300058F4309151062191DC01A15DB94FA30FF0
:10254000B11D2C930196F3CF80915106680F6093D3
:10255000510680E0089581E0089582E0089508958D
:10256000E091510580915005E81730F4F0E0EE5A03
:10257000FA4F808190E008958FEF9FEF089590913A
:10258000510580915005981750F4E92FF0E0EE5A6C
:10259000FA4F208130E09F5F9093510502C02FEFEA
:1025A0003FEFC90108958091500590E020915105B9
:1025B000821B91090895CF92DF92EF92FF920F93C1
:1025C0001F93CF93DF937C01262F972F8A01809151
:1025D0000605882391F0C62FD72F6E01C40ED51E95
:1025E000CC15DD0571F06991D701ED91FC91019059
:1025F000F081E02DC7011995F3CF642F822F0E943F
:102600008712C801DF91CF911F910F91FF90EF903A
:10261000DF90CF900895CF93DF931F92CDB7DEB7B1
:102620006983209106052223D1F0209128052032CC
:1026300040F021E030E0FC013383228380E090E031
:1026400015C080910705E82FF0E0E85FFA4F998107
:1026500090838F5F809307058093280505C061E014
:10266000CE0101960E94871281E090E00F90DF91E9
:10267000CF9108958F929F92AF92BF92CF92DF92A7
:10268000EF92FF920F931F93CF93DF937C018B0107
:102690006C0182E0C80ED11C4701E5E08E0E911C52
:1026A000C0E0D0E0F60141916F0150E060E070E0E1
:1026B0002AE0C8010E9493295C016EE2C8010E94D1
:1026C00077298A0D9B1DC80FD91FC814D90451F74B
:1026D000F701458150E060E070E02AE0C8010E9407
:1026E00093298C0F9D1FDF91CF911F910F91FF9028
:1026F000EF90DF90CF90BF90AF909F908F90089514
:102700000E94A83FCF93DF931F92CDB7DEB76983B6
:1027100041E050E0BE016F5F7F4F0E94161E0F9098
:10272000DF91CF91089522E033E0FC0131832083D3
:10273000FB014081518162817381FC01428353839B
:102740006483758308951F920F920FB60F92112420
:102750000BB60F922F933F934F935F936F937F939B
:102760008F939F93AF93BF93EF93FF9381E898E08C
:102770000E94BA11FF91EF91BF91AF919F918F91FC
:102780007F916F915F914F913F912F910F900BBE71
:102790000F900FBE0F901F9018951F920F920FB6BB
:1027A0000F9211240BB60F922F938F939F93EF9359
:1027B000FF93E0919108F09192088081E091970851
:1027C000F091980882FD12C0908180919A088F5FE5
:1027D0008F7320919B08821751F0E0919A08F0E0E6
:1027E000EF57F74F958F80939A0801C08081FF9132
:1027F000EF919F918F912F910F900BBE0F900FBE75
:102800000F901F9018951F920F920FB60F921124E0
:102810000BB60F922F933F934F935F936F937F93DA
:102820008F939F93AF93BF93EF93FF938091B900E2
:10283000887F803609F49CC068F5883209F45BC053
:1028400090F4803109F454C038F4882309F4F6C0B8
:10285000883009F44DC0F6C0883109F44CC080328C
:1028600009F45DC0EFC0803409F468C048F48033D7
:1028700009F455C0883309F0E5C080934D05D8C0F0
:10288000803509F44FC0883509F45DC0883409F0FB
:10289000D9C0D6C0883909F4C7C0A8F4883709F46C
:1028A00067C038F4883609F463C0803709F460C023
:1028B000C9C0883809F4B8C0803909F45FC08038CD
:1028C00009F0C0C05BC0803B09F486C038F4803A90
:1028D00009F466C0883A09F47FC0B4C0803C09F4AA
:1028E000A7C0883C09F4A4C0883B09F48AC0AAC0E8
:1028F00080914A0510C090914C0580914B05981726
:1029000070F5E0914C0581E08E0F80934C05F0E06E
:10291000E75DFA4F80818093BB0085EC86C0809391
:102920004D058EC0E0914C0581E08E0F80934C05E3
:102930008091BB00F0E0E75DFA4F808390914C05F9
:1029400080914B056EC0E0914C0581E08E0F809325
:102950004C058091BB00F0E0E75DFA4F80838091E9
:102960004E0581116DC081E08093490584EA61C004
:1029700083E080934F0510927506CFCF8091750646
:10298000803208F051C0E091750681E08E0F80938F
:1029900075068091BB00F0E0EB5AF94F8083BDCF04
:1029A00085EC8093BC0010924F05809175068032B3
:1029B00030F4E0917506F0E0EB5AF94F1082609127
:1029C000750670E0E0915306F091540685E596E0B7
:1029D00019951092750636C084E080934F051092C9
:1029E000520610925106E0914F06F091500619954B
:1029F00080915106811105C081E0809351061092AB
:102A00002F06E091520681E08E0F80935206F0E08F
:102A1000E15DF94F80818093BB00909152068091D7
:102A20005106981708F479CF85E88093BC000AC056
:102A300085EC8093BC0010924F0504C010924D05A8
:102A40000E947D12FF91EF91BF91AF919F918F9165
:102A50007F916F915F914F913F912F910F900BBE9E
:102A60000F900FBE0F901F901895CF93CFB7F8948B
:102A700080912E06811127C0EFE9F3E08491E5EE05
:102A8000F3E09491E82FF0E0EE0FFF1FEA5CFC4FBB
:102A9000A591B491EC91E92321F461E085E30E94D2
:102AA000AF0B61E085E30E942C0C8CB580618CBD7E
:102AB0008CB580648CBD61E084E30E942C0C61E0E5
:102AC00083E30E942C0C80912E068F5F80932E064C
:102AD000CFBFCF910895809129068823A9F1409115
:102AE00008025091090260910A0270910B0229E7D5
:102AF00036E08091790890917A080E94AB1D81118F
:102B000002C080E0089540912A0650912B06609102
:102B10002C0670912D06411551056105710591F046
:102B200029E736E08091790890917A080E94AB1DE0
:102B3000882339F310922A0610922B0610922C0645
:102B400010922D061092290681E008958F929F928F
:102B5000AF92BF92EF92FF920F931F93CF934B01CF
:102B60005C01C42F8091080290910902A0910A0291
:102B7000B0910B0288159905AA05BB0501F10E94C9
:102B80006B15811102C080E020C089E7E82E86E045
:102B9000F82E00E012E020E030E0B501A4018091C1
:102BA000790890917A080E94171D882361F380921A
:102BB000080290920902A0920A02B0920B02809140
:102BC0002906C82BC093290681E0CF911F910F9150
:102BD000FF90EF90BF90AF909F908F9008954F928D
:102BE0005F926F927F928F929F92AF92BF92CF929D
:102BF000DF92EF92FF920F931F93CF93DF93EC013D
:102C00006A017B01280139014230510561057105D6
:102C100010F480E073C089859A85AB85BC850196E8
:102C2000A11DB11D84179507A607B70790F38B88E0
:102C30009C88AD88BE888F89803129F4BB27AF2D51
:102C40009E2D8D2D09C0DB01CA0147E0B695A795E1
:102C5000979587954A95D1F7880E991EAA1EBB1E97
:102C60008091080290910902A0910A02B0910B0292
:102C700088169906AA06BB0679F48F898031A1F4DB
:102C8000DD24EE24FF24C601880F991FFC01E758BC
:102C9000F94F5182408219C040E0C501B4010E9441
:102CA000A6158111EACFB5CFE894C7F8DD24EE244C
:102CB000FF24C601880F991F880F991FFC01E75850
:102CC000F94F40825182628273828091290681602D
:102CD000809329068A89823080F08D819E81AF8120
:102CE000B885880E991EAA1EBB1E80922A06909255
:102CF0002B06A0922C06B0922D0681E0DF91CF9199
:102D00001F910F91FF90EF90DF90CF90BF90AF9009
:102D10009F908F907F906F905F904F9008958F92CB
:102D20009F92AF92BF92CF92DF92EF92FF920F935A
:102D30001F93CF93DF93FC0181859285A385B48592
:102D40000196A11DB11D84179507A607B70710F4BA
:102D500080E05CC083899489A589B689C789C03120
:102D600029F4852E962EA72EBB2409C04A015B01AB
:102D7000C7E0B694A79497948794CA95D1F7E901D0
:102D80006A017B018F01BC01CD01680D791D8A1D8F
:102D90009B1D8090080290900902A0900A02B090BA
:102DA0000B02681579058A059B0599F4F801878956
:102DB0008031A9F4B701A601552766277727440F6C
:102DC000551FFA01E758F94F80819181A0E0B0E0EA
:102DD00018C040E00E94A6158111E8CFB9CFB70115
:102DE000A6014F77552766277727440F551F440FB5
:102DF000551FFA01E758F94F80819181A281B38173
:102E0000BF7088839983AA83BB8381E0DF91CF91D0
:102E10001F910F91FF90EF90DF90CF90BF90AF90F8
:102E20009F908F9008954F925F926F927F92AF9292
:102E3000BF92CF92DF92EF92FF920F931F93CF93A7
:102E4000DF9300D01F92CDB7DEB78C0149835A8340
:102E50006B837C835901C12CD12C7601412C82E0FB
:102E6000582E612C712C49815A816B817C819E0185
:102E70002F5F3F4FC8010E948F16882351F1D30165
:102E8000C201F801058404C0880F991FAA1FBB1F47
:102E90000A94D2F7C80ED91EEA1EFB1E49815A8138
:102EA0006B817C818789803129F088EF9FEFAFEFBC
:102EB000BFE004C088EF9FEFA0E0B0E048175907DB
:102EC0006A077B0780F2F501C082D182E282F38239
:102ED00081E00F900F900F900F90DF91CF911F9195
:102EE0000F91FF90EF90DF90CF90BF90AF907F90C9
:102EF0006F905F904F9008954F925F926F927F9284
:102F0000AF92BF92CF92DF92EF92FF920F931F93F7
:102F1000CF93DF93CDB7DEB72B970FB6F894DEBF14
:102F20000FBECDBF7C01CE0101966C01FC0190E289
:102F30008BE08C0D91938E13FDCFDA0130E047E0EA
:102F40009D91992339F19E3219F0ECE3F4E00AC027
:102F50004A3009F472C138E04AE0F2CF319689175D
:102F600009F46BC184918111F9CF431708F465C14D
:102F70008FED890F8E3508F060C181E0830FF60177
:102F8000E30FF11D3FE9390F3A3108F49052908375
:102F9000382FD6CF8981803209F44FC1B22E8B01F0
:102FA000DB015B968D919C915C97F701948F838FE9
:102FB00016961D921D921D921C921997FB01128666
:102FC000138614861586712CF80182859385A48555
:102FD000B585438954896589768984179507A6073D
:102FE000B70708F061C025E0B695A7959795879536
:102FF0002A95D1F7F82FFF706F2ED80115968C9176
:10300000823008F41AC1C8010E94E22497FD15C15C
:10301000F80182859385A485B5854F96A11DB11DC4
:1030200082879387A487B587F0E26F9EC001112441
:10303000BC016758794F6115710509F4FEC0DB01C9
:103040002C91222319F0253EC1F427C071100EC027
:10305000F701628A409108025091090260910A02C8
:1030600070910B0246875787608B718BFC01E75884
:10307000F94F8081811113C015C04BE050E0C601AB
:103080000E94AD3F892B09F09FCF8B2D8073803339
:1030900009F4D3C04B2D662DCCC07720C9F277241C
:1030A000739492CF772473948B2D8271823109F0BF
:1030B000C4C07720D1F0D7011E966D917D918D917E
:1030C0009C91519741E00E94A615882309F4B5C050
:1030D000F7016289F0E26F9FB00111246758794FC0
:1030E0006115710509F079C0A8C0D80115968C91B9
:1030F000823009F4A2C0C8010E94331B882309F45E
:103100009CC0D8015B96ED91FC915C9716964D9012
:103110005D906D907C901997B2E04B1A5108610850
:103120007108058404C0440C551C661C771C0A9465
:10313000D2F786859785A089B189480E591E6A1EE7
:103140007B1EA480E1E04E1A510861087108AA2094
:1031500009F10E946B15882309F46FC0E9E7F6E0D6
:10316000119228E0E937F207D9F7D301C2018A0D9D
:10317000911DA11DB11D8093080290930902A09397
:103180000A02B0930B028091290681608093290680
:10319000AA94DDCFD8015B96ED91FC915C9780E01D
:1031A00092E0A0E0B0E0058404C0880F991FAA1F38
:1031B000BB1F0A94D2F7F80143895489658976893F
:1031C000840F951FA61FB71F838B948BA58BB68B7F
:1031D000D70152961C9269E776E080E2FB011192DA
:1031E0008A95E9F78BE0F601DB0101900D928A9553
:1031F000E1F781E298E2DB0151969C938E93509720
:1032000020E038E01F963C932E931E9753969C9394
:103210008E93529759969C938E93589757963C93BA
:103220002E9356970E946B15882339F04B2DF7018A
:103230006289C7010E941F1A01C080E02B960FB659
:10324000F894DEBF0FBECDBFDF91CF911F910F91DC
:10325000FF90EF90DF90CF90BF90AF907F906F90F6
:103260005F904F9008951F93CF93DF93182F66E2DE
:1032700070E00E94C405C82FD0E067E270E0812FA3
:103280000E94C405DC2FCC279E01282BC901DF91A9
:10329000CF911F910895CF93DF93EC018D81882307
:1032A000A1F18C8187FF2DC06E857F8588899989E2
:1032B00041E00E94A615882341F1EA8980E2E89F57
:1032C000F0011124DF01A758B94F1097F1F08D815B
:1032D000823050F44B895C896D897E895C964D9370
:1032E0005D936D937C935F978F89988DA98DBA8D2F
:1032F000E758F94F938F828FB58BA48B8C818F7792
:103300008C83DF91CF910C946B1580E0DF91CF918E
:1033100008958F929F92AF92BF92CF92DF92EF92D9
:10332000FF920F931F93CF93DF93EC018D81811157
:1033300002C080E077C00B891C892D893E89041763
:10334000150726073707A8F36A017B01823029F4A5
:10335000CA86DB86EC86FD860DC0C114D104E1046B
:10336000F10451F41E821F82188619861A861B8664
:103370001C861D8681E056C08A849B84AC84BD84F3
:10338000EB8DFC8D258530E0275F3F4FB501A40113
:103390004150510961097109022E04C07695679563
:1033A000579547950A94D2F7D701C6010197A1090D
:1033B000B10904C0B695A795979587952A95D2F738
:1033C00084179507A607B70720F089288A288B2835
:1033D00049F44F89588D698D7A8D4E835F83688754
:1033E000798704C0841B950BA60BB70B4C015D01BC
:1033F0008E010A5F1F4F81149104A104B10409F4E6
:10340000A7CF4E815F816885798598018B8D9C8DD2
:103410000E948F1691E0891A9108A108B1088111C4
:10342000EACF87CFDF91CF911F910F91FF90EF905F
:10343000DF90CF90BF90AF909F908F9008958F9224
:103440009F92AF92BF92CF92DF92EF92FF920F9333
:103450001F93CF93DF9300D01F92CDB7DEB77C01CF
:1034600080E2689F6001112496012758394FD901E5
:103470001B969C91917121F0842F827409F097C062
:10348000142FF701628B8091080290910902A0919C
:103490000A02B0910B0286879787A08BB18BF60149
:1034A000E758F94F4489558960E070E0BA01552723
:1034B0004427D70157964D935D936D937C935A970C
:1034C000828D938DA0E0B0E0482B592B6A2B7B2B8B
:1034D000D70157964D935D936D937C935A97D9017D
:1034E0001B968C91887159F4848D958DA68DB78D1E
:1034F000F701838B948BA58BB68B81E012C0803152
:1035000009F055C097012D5E3F4FD7015B968D9115
:103510009C915C970E941317882309F448C084E0AB
:10352000F7018583812F8F70D70114968C931497A0
:10353000F70116821782108611861A961D921D9227
:103540001D921C921D9716FF34C015968C918130E8
:1035500071F511FF2CC0F70143895489658976897B
:10356000452B462B472B09F461C040E050E0BA01DF
:10357000C7010E9489198823D1F0F7018788908CB0
:10358000A18CB28CC38CD48C82E090E0A0E0B0E03F
:10359000F60180839183A283B3839E012F5F3F4F07
:1035A000B501A401C6010E948F16811104C080E0FC
:1035B0003DC081E03BC000E010E09801B501A401EE
:1035C000C6010E94EF15882391F389809A80AB8011
:1035D000BC80D60157968C91803129F088EF9FEFFF
:1035E000AFEFBFE004C088EF9FEFA0E0B0E0881627
:1035F0009906AA06BB0688F2D70157961D921D921E
:103600001D921C925A97F701138A148A158A168AFA
:10361000848180688483C7010E944B19882339F212
:1036200040E050E0BA01C7010E9489190F900F9045
:103630000F900F90DF91CF911F910F91FF90EF901E
:10364000DF90CF90BF90AF909F908F900895CF93D1
:10365000DF93EC010E944B19882311F01D8281E059
:10366000DF91CF9108953F924F925F926F927F9238
:103670008F929F92AF92BF92CF92DF92EF92FF9282
:103680000F931F93CF93DF93CDB7DEB72C970FB671
:10369000F894DEBF0FBECDBF5C01DC015B968D9060
:1036A0009C905C971696CD90DD90ED90FC901997CC
:1036B000C114D104E104F10439F0BFEFCB1ADB0AE5
:1036C000EB0AFB0A312C07C0F401C080D180E280F4
:1036D000F38033243394F40181859285A385B485E6
:1036E0009C01AD012F5F3F4F4F4F5F4F29873A87B6
:1036F0004B875C87260137011D821E821F82188638
:10370000F40181859285A385B4852D813E814F8109
:103710005885281739074A075B0708F063C0898571
:103720009A85AB85BC858C159D05AE05BF0550F40B
:1037300082E0C82ED12CE12CF12C92E0492E512CA4
:10374000612C712C9E012F5F3F4FB701A601C40170
:103750000E948F16882309F445C089819A81AB8124
:10376000BC81892B8A2B8B2B41F0260137019FEFDF
:10377000491A590A690A790A05C0C414D504E6042D
:10378000F70491F02D813E814F8158852F5F3F4F87
:103790004F4F5F4F2D833E834F8358873FEFC31AB0
:1037A000D30AE30AF30AACCF0FEF1FEF2FEF3FE08E
:1037B000B301A201C4010E94EF15882399F0D5013D
:1037C00016964D915D916D917C911997411551051A
:1037D0006105710549F093018201C4010E94EF1552
:1037E000811102C080E02AC0D50116964D925D92EB
:1037F0006D927C921997332051F0D301C20101964A
:10380000A11DB11DF40180839183A283B383F501CF
:103810008789908DA18DB28D892B8A2B8B2B69F492
:10382000D50157964D925D926D927C925A9714965F
:103830008C911497806814968C9381E02C960FB627
:10384000F894DEBF0FBECDBFDF91CF911F910F91D6
:10385000FF90EF90DF90CF90BF90AF909F908F90B0
:103860007F906F905F904F903F900895CF93DF933C
:10387000EC0180917806811109C081E0809378067F
:1038800080912A0990912B090E94FC0560E08C81AF
:10389000DF91CF910C94AF0B61E0FC0184810E9419
:1038A000AF0B80917806882321F0109278060C9453
:1038B000FB0508952C9A08952C9808951F93CF9393
:1038C000DF93182F60E270E00E94C405C82FD0E09B
:1038D00061E270E0812F0E94C405DC2FCC279E019D
:1038E000282BC901DF91CF911F9108958EBD000053
:1038F0000DB407FEFDCF8EB508958FEF0C94761CA6
:103900000F931F93CF93DF93EB010E9458288B01F5
:103910000E947D1C8F3F49F00E945828601B710B4C
:103920006C177D07A8F380E001C081E0DF91CF91A3
:103930001F910F910895CF93DF93EC018E8188231F
:1039400089F08F8198859C012F5F3F4F38872F83A7
:103950008230924018F40E947D1CF3CFCE010E9469
:103960004C1C1E82DF91CF910895CF92DF92FF927F
:103970000F931F93CF93DF9300D01F92CDB7DEB785
:103980006C01F62E29833A834B835C830E949B1C37
:10399000C6010E94361C6CE271E0C6010E94801CC8
:1039A0008F2D80640E94761C08E110E05C814B81C1
:1039B0003A812981DA01C901002E04C0B695A79584
:1039C000979587950A94D2F729833A834B835C8332
:1039D0000E94761C0850110929813A814B815C8133
:1039E000083F8FEF180731F7FF2029F0E8E0FE12BB
:1039F00004C087E803C085E901C08FEF0E94761CF0
:103A000010E00E947D1CF601828787FF04C01F3FE3
:103A100011F01F5FF6CF0F900F900F900F90DF9176
:103A2000CF911F910F91FF90DF90CF900895AF92AB
:103A3000BF92CF92DF92EF92FF920F931F93CF939B
:103A4000DF93EC016901C801820F931F813092401E
:103A500008F070C08E81882371F088819981AA81D5
:103A6000BB81481759076A077B0729F48F8198851E
:103A7000C816D906B0F5488359836A837B838B8542
:103A8000833039F089E0440F551F661F771F8A95F0
:103A9000D1F79A01AB0161E1CE010E94B51C8823E8
:103AA00019F083E08D8346C00E9458285B010E9474
:103AB0007D1C8A878F3F49F40E9458286A197B0928
:103AC0006D327140A0F38FE003C08E3F31F08DE086
:103AD0008D83CE010E944C1C2DC018861F8281E070
:103AE0008E838F8198858C159D0540F40E947D1CE6
:103AF0008F819885019698878F83F3CF6701E00EB9
:103B0000F11ECE14DF0431F00E947D1CF60181937A
:103B10006F01F7CF8F819885080F191F18870F83C2
:103B20008985882319F00115124048F0CE010E94C2
:103B30009B1C05C0CE010E944C1C80E001C081E0AE
:103B4000DF91CF911F910F91FF90EF90DF90CF9079
:103B5000BF90AF900895EF92FF920F931F93CF9372
:103B6000DF93EC017901411551056105710511F4EF
:103B700082E13CC08B85833039F089E0440F551FCA
:103B8000661F771F8A95D1F79A01AB0168E1CE01D4
:103B90000E94B51C882311F084E028C08EEF0E949B
:103BA000761C87018EEFF81AF80181918F010E942F
:103BB000761C0E151F05C1F78FEF0E94761C8FEF44
:103BC0000E94761C0E947D1C8A878F71853031F09F
:103BD00081E18D83CE010E944C1C09C068E572E032
:103BE000CE010E94801C811107C085E18D83CE012A
:103BF0000E944C1C80E013C020E030E0A9016DE081
:103C0000CE010E94B51C811104C00E947D1C882336
:103C100011F084E1EBCFCE010E944C1C81E0DF91DA
:103C2000CF911F910F91FF90EF9008952F923F92A7
:103C30004F925F926F927F928F929F92AF92BF92BC
:103C4000CF92DF92EF92FF920F931F93CF93DF9368
:103C500000D01F92CDB7DEB78C015B011A01DC01E9
:103C600015968C9115978130C9F414968C9181FF2B
:103C700015C082FF1BC0F801438954896589768984
:103C800082859385A485B58584179507A607B70710
:103C900069F0C8010E948919811108C081E090E093
:103CA000F8019383828380E090E039C1610183C091
:103CB000D8015B968D919C915C97FC0124812150E9
:103CC0002A013B0139E076946794579447943A95DA
:103CD000D1F7722E74207A01F1E0FF22772009F4E7
:103CE00076C080E092E08E199F0946018C159D05F3
:103CF00008F44C01D8015B962D913C915C97169687
:103D00008D919D910D90BC91A02D0297A109B109B3
:103D1000F901058404C0880F991FAA1FBB1F0A94CC
:103D2000D2F74685578560897189840F951FA61F34
:103D3000B71F9C01AD01270D311D411D511D2901EA
:103D40003A01811432E0930609F088C0809108029C
:103D500090910902A0910A02B0910B028415950579
:103D6000A605B70559F48FEF9FEFDC018093080299
:103D700090930902A0930A02B0930B029501B3013C
:103D8000A2018091790890917A080E94AB1D882346
:103D900009F484CF9EEFB91AC818D908F8018285B2
:103DA0009385A485B585880D991DA11DB11D8287B8
:103DB0009387A487B587D8011A964D915D916D912F
:103DC0007C911D97C114D10409F072CF87C0E11412
:103DD000F10409F086CF16964D915D916D917C911D
:103DE0001997411551056105710559F457968D9143
:103DF0009D910D90BC91A02D0097A105B10541F5B5
:103E000021C09E012F5F3F4F0E948F16882309F427
:103E10004BCF89819A81AB81BC81F801238D348D90
:103E2000F9012789203129F048EF5FEF6FEF7FE03C
:103E300004C048EF5FEF60E070E084179507A607C5
:103E4000B70730F0C8010E94331B81114ACF26CF3B
:103E5000F80186839783A087B18743CFE114F104EB
:103E600029F5D8011A964D915D916D917C911D9720
:103E700053968D919D910D90BC91A02D4817590797
:103E80006A077B0798F00E946B15882309F406CF18
:103E9000409208025092090260920A0270920B024C
:103EA0008091290681608093290608C041E0C30102
:103EB000B2010E94A615882309F4F0CED501F701BE
:103EC000E758F94FCF01880D991DE817F90719F048
:103ED0002D912193FACFA80CB91C5ECF53968D91EA
:103EE0009D910D90BC91A02D84179507A607B7074B
:103EF00040F4F801438B548B658B768B848180680A
:103F00008483D80114968C9183FD02C0C10107C03F
:103F1000C8010E944B19882309F4C0CEF7CF0F9037
:103F20000F900F900F90DF91CF911F910F91FF9005
:103F3000EF90DF90CF90BF90AF909F908F907F9049
:103F40006F905F904F903F902F900895CF92DF92A7
:103F5000EF92FF920F931F93CF93DF93EC017A01BF
:103F60008B016C01C40ED51ECC15DD05A9F00E9495
:103F70005C1C8FE00E94761C8D2F0E94761C8C2F7B
:103F80000E94761C219680E00E94761CF8018193A5
:103F90008F010E945A1CE8CFC701DF91CF911F917A
:103FA0000F91FF90EF90DF90CF900895CF92DF9226
:103FB000EF92FF920F931F93CF93DF93EC017A015F
:103FC0008B016C01C40ED51ECC15DD05A1F00E943D
:103FD0005C1C80EF0E94761C8D2F0E94761C8C2F1B
:103FE0000E94761C2196F80181918F010E94761C17
:103FF0000E945A1CE9CFC701DF91CF911F910F9109
:10400000FF90EF90DF90CF9008951F93CF93DF93B1
:104010001F921F92CDB7DEB7182F6A8399830E9433
:104020005C1C80EF0E94761C9981892F0E94761C6F
:10403000812F0E94761C6A81862F0E94761C0E9426
:104040005A1C81E00F900F90DF91CF911F9108953E
:10405000EF92FF920F931F93CF93DF931F921F92C4
:10406000CDB7DEB7182F7B0100E021E040E059E03A
:104070006DE370E0CE0101960E94FF0589819A816F
:104080000E94FC0521E041E050E0B701812F0E9431
:10409000B8090E94FB0581E090E00F900F90DF913E
:1040A000CF911F910F91FF90EF900895DF92EF92C3
:1040B000FF920F931F93CF93DF931F921F92CDB761
:1040C000DEB7D82E00E021E040E059E06DE370E07B
:1040D000CE0101960E94FF0589819A810E94FC050C
:1040E00000E010E08D2D0E9433197C01892B21F016
:1040F0008D2D0E9433198C010E151F0599F70E9412
:10410000FB05C8010F900F90DF91CF911F910F9188
:10411000FF90EF90DF9008958F929F92AF92BF92A1
:10412000CF92DF92FF920F931F93CF93DF931F9253
:104130001F92CDB7DEB7F82E4B016A0100E021E0F7
:1041400040E059E06DE370E0CE0101960E94FF056A
:1041500089819A810E94FC0500E010E08F2D0E9469
:1041600033195C01892B21F08F2D0E9433198C01AA
:104170000A151B0599F70115110599F463E070E024
:104180008F2D0E94C4058431F1F08823E1F001E015
:1041900010E08C3111F400E010E011950195110947
:1041A00012C0C016D1060CF48601101611065CF47C
:1041B00020E0A801B4018F2D0E94B80960E470E0EE
:1041C0008F2D0E94A8090E94FB05C8010F900F9037
:1041D000DF91CF911F910F91FF90DF90CF90BF9013
:1041E000AF909F908F9008950F931F93CF93DF937D
:1041F0001F921F92CDB7DEB7182F00E021E040E0FC
:1042000059E06DE370E0CE0101960E94FF058981BF
:104210009A810E94FC0560E170E0812F0E94A8094C
:104220004FEF62E070E0812F0E94BA050E94FB050B
:104230000F900F90DF91CF911F910F910895CF9222
:10424000DF92EF92FF920F931F93CF93DF931F9212
:104250001F92CDB7DEB7182FC62E7A01D22E0E943C
:10426000F42000E021E040E059E06DE370E0CE0191
:1042700001960E94FF0589819A810E94FC054C2DC0
:104280004D2960E070E0812F0E94BA05E114F1042D
:1042900059F4E0907606F09077068FEFE81AF80A66
:1042A000F0927706E09276064F2D64E070E0812F61
:1042B0000E94BA054E2D65E070E0812F0E94BA057C
:1042C00061E070E0812F0E94A8090E94FB0581E057
:1042D0000F900F90DF91CF911F910F91FF90EF9072
:1042E000DF90CF900895DC015996ED91FC915A979B
:1042F0003097B9F083899489A589B6894285538519
:1043000064857585841B950BA60BB70B811520E87A
:104310009207A105B10538F08FEF9FE7A0E0B0E06C
:10432000089580E090E00895CF93DF931F92CDB77A
:10433000DEB76983DC01ED91FC910280F381E02D11
:1043400041E050E0BE016F5F7F4F19950F90DF9104
:10435000CF9108950895FC01818D928D009711F001
:104360000C944B190895CF93DF93EC01898D9A8DAE
:10437000009739F481E090E09B838A8380E090E0AD
:104380000BC0FC01138212820E94161EE98DFA8D69
:1043900022813381232B71F7DF91CF910895BF9252
:1043A000CF92DF92EF92FF920F931F93CF93DF9301
:1043B00000D000D0CDB7DEB7FC01208D243009F04D
:1043C00053C06A017B018C01B12C63E070E08B2D3E
:1043D0000E94C405811103C0F801B08E06C0883167
:1043E000D9F3B394F4E0BF12F0CFF801808D84309C
:1043F000D9F196E0E2E7F2E0DE01119601900D922C
:104400009A95E1F7F70193819F779C8394819D832F
:1044100095819E83B7016E5F7F4F90E0982F88272C
:1044200044E050E0845F9B4F0E94D61FB601F80124
:10443000808D0E94EA05F801808D90E0982F8827F2
:1044400046E050E0BE016F5F7F4F8A5F9B4F0E9446
:10445000D61FF801128E118E20E8A60162E0808D31
:104460000E941F2181E001C080E026960FB6F894DB
:10447000DEBF0FBECDBFDF91CF911F910F91FF9097
:10448000EF90DF90CF90BF9008950F931F93CF933D
:10449000DF9300D0CDB7DEB7182F00E021E040E079
:1044A00059E06DE370E0CE0101960E94FF0589811D
:1044B0009A810E94FC0563E070E0812F0E94C40590
:1044C0008B830E94FB058B810F900F900F90DF91E3
:1044D000CF911F910F910895DC01E0E0615038F019
:1044E0008D91E827F0E0EA59FB4FE491F7CF8E2F4A
:1044F0000895FC0190810180F281E02DF894818182
:10450000892B81832281892F809528232283A7E00C
:10451000B0E01197F1F7218182238183A3E2B0E01B
:104520001197F1F780817894EFECF0E03197F1F793
:10453000982381E009F480E00895FC0190810180D6
:10454000F281E02D892F809560FF12C0F8942281BE
:10455000822382838181892B8183A3E2B0E011973A
:10456000F1F78281982B9283789487ED90E011C0C7
:10457000F8942281822382838181892B8183AFEF0A
:10458000B0E01197F1F78281982B928378948FE0B5
:1045900090E00197F1F70895CF92DF92EF92FF92AA
:1045A0000F931F93CF93DF931F92CDB7DEB76C01AC
:1045B000E62E08E010E0FF24F39461E08F2D8E21B9
:1045C00009F460E0C60149830E949D22FF0C01505E
:1045D000110949810115110581F7411115C0F894A0
:1045E000D6011196ED91FC91129791818C91809555
:1045F000892381831196ED91FC91129792818C9180
:1046000080958923828378940F90DF91CF911F91B9
:104610000F91FF90EF90DF90CF900895CF92DF92AF
:10462000EF92FF920F931F93CF93DF931F92CDB71B
:10463000DEB78C01F62E40E065E579830E94CC223E
:10464000CF2C7981D72E760188E0E80EF11CF60197
:1046500061916F0140E0C8010E94CC22CE14DF04BA
:10466000B1F70F90DF91CF911F910F91FF90EF90D5
:10467000DF90CF900895FC0190810180F281E02DC0
:10468000F8948181292F20958223818378948DE766
:1046900043E050E0815021F1DA011197F1F73081C8
:1046A0003923C1F3F8948281822382838181892B0B
:1046B00081837894ABE7B7E01197F1F7F8948181A3
:1046C00028232183A3E1B1E01197F1F7808198239A
:1046D00081E009F080E07894E3E6F6E03197F1F7C5
:1046E00008956F927F928F929F92AF92BF92CF92D6
:1046F000DF92EF92FF920F931F93CF93DF931F925E
:10470000CDB7DEB78C01F42EFC01858196815983EB
:104710000E940E2340E06EEBF801858196810E9495
:10472000CC226F2C5981752E5301F9E0AF0EB11CCC
:10473000F8018580968088E0C82ED12CEE24E39481
:10474000F12CC4010E9479228111FE28EE0CF1E0C7
:10475000CF1AD108B1F7F301F1923F01EA15FB0539
:1047600039F7F801858196810E943B2391E08130E1
:1047700009F090E0892F0F90DF91CF911F910F9159
:10478000FF90EF90DF90CF90BF90AF909F908F9071
:104790007F906F900895EF92FF920F931F93CF93A6
:1047A000DF931F921F92CDB7DEB78C017A01FC0117
:1047B0008581968169837A830E943B2369817A810E
:1047C000882371F0A701C8010E947123882341F05A
:1047D00068E0C7010E946C2291E0F70120858213F6
:1047E00090E0892F0F900F90DF91CF911F910F9143
:1047F000FF90EF900895CF93DF93CDB7DEB7299761
:104800000FB6F894DEBF0FBECDBFFB012081203173
:10481000D1F0AE014F5F5F4F0E94CB23882389F018
:104820008D818F3361F020F48F3159F489E00CC011
:104830008F3519F08F3739F004C08BE005C08AE05E
:1048400003C080E001C08CE029960FB6F894DEBF6B
:104850000FBECDBFDF91CF9108950F931F93CF93DC
:10486000DF93EC01162F60E0812F0E942C0C612F4A
:1048700070E0FB01E055FC4FE491E883FB01E65951
:10488000FC4FE491F0E0EE0FFF1FE45BFB4F8591DE
:1048900094919A8389831B861D861C86FE013B9614
:1048A0008E010D5F1F4F1292E017F107E1F7DF91C4
:1048B000CF911F910F910895FC01DB0112968D910C
:1048C0009C9113979383828380EA92E09183808303
:1048D00014968C911497848315968C9115978583E3
:1048E00016964D915D916D917C91199746835783F2
:1048F000608771871A964D915D916D917C911D979E
:1049000042875387648775871E964D915D916D919F
:104910007C91519746875787608B718B52968C910B
:104920005297828B53964D915D916D917C915697E4
:10493000438B548B658B768B57964D915D916D9122
:104940007C915A97478B508F618F728F5B968D91B8
:104950009C915C97948F838F0895EF92FF920F93B1
:104960001F93CF93DF93EC017B018A011B821A8294
:1049700088EE93E0A0E0B0E08C839D83AE83BF839C
:104980008CEA92E0998388838DE190E00E94923DC9
:104990009A8F898F009779F02DE1F701DC01019062
:1049A0000D922A95E1F74CE050E0B801CE010C964B
:1049B0000E94D53F188EDF91CF911F910F91FF90EC
:1049C000EF9008952F923F924F925F926F927F9255
:1049D0008F929F92AF92BF92CF92DF92EF92FF920F
:1049E0000F931F93CF93DF931F921F92CDB7DEB724
:1049F000FC018581882309F4D9C0848180FFD6C059
:104A000021E02A8343895489658976898285938543
:104A1000A485B585481759076A077B0709F41A82E8
:104A20006F013A81832F90E0DE0111964D013F0125
:104A3000B6E06B0E711C892B09F47DC0D6011A9665
:104A40004D915D916D917C911D975A01B1E0BB2212
:104A5000F60125811A012B0189E056944794379479
:104A600027948A95D1F7838D948D223061F4FC01CF
:104A7000828D938DA48DB58DBC01CD01620D731D0A
:104A8000841D951D45C0DC0114961C911150122106
:104A9000A114B104D1F4111118C0452B462B472B9A
:104AA00051F4F6018789908DA18DB28D868397830D
:104AB000A087B1870AC046815781608571859301BF
:104AC0000E948F16882309F471C0F601238D348D5E
:104AD00086819781A085B1850297A109B109AC01B2
:104AE000BD01F901058404C0440F551F661F771FDF
:104AF0000A94D2F786859785A089B189840F951F7E
:104B0000A61FB71FBC01CD01610F711D811D911D35
:104B1000D60114962C9126FF14C000910802109122
:104B2000090220910A0230910B0260177107820777
:104B3000930751F506C0FA81FF23C1F1898190E006
:104B400037C040E00E94A615882381F1F501E7589F
:104B5000F94FD401CF010196E817F90719F0219117
:104B60002D93FACFEFEF8E1A9E0AF6018285938578
:104B7000A485B5850196A11DB11D82879387A48761
:104B8000B58780E090E057CF740101E010E0950117
:104B9000AB01BC018091790890917A080E94171DA1
:104BA000882321F0BFEF8B1A9B0ADFCF8FEF9FEF97
:104BB0000F900F90DF91CF911F910F91FF90EF9089
:104BC000DF90CF90BF90AF909F908F907F906F902D
:104BD0005F904F903F902F900895FC01818D928DB2
:104BE000009711F00C94E2248FEF9FEF08950F933C
:104BF0001F93CF93DF93FC01818D928D0097B9F0C5
:104C0000EF010E94E2248C010F3F8FEF180791F013
:104C1000898D9A8DFC014285538564857585415047
:104C20005109610971090E948919C80105C080E014
:104C300090E002C08FEF9FEFDF91CF911F910F9116
:104C4000089567EF74E081E898E00C947E29CF9393
:104C5000DF93BC0181E898E00E947E29EC010E946C
:104C600021268C0F9D1FDF91CF9108958F929F92E7
:104C7000AF92BF92CF92DF92EF92FF92CF93DF93EA
:104C8000C82F8CE299E090937A0880937908CC231E
:104C900069F1C53010F080E00DC140E060E070E0E7
:104CA000CB010E94A6158823B1F320E1C29FC00169
:104CB00011248759994FFC01E254FE4F20812F7730
:104CC00051F73C9640815181628173814436510590
:104CD0006105710500F33497C080D180E280F380D4
:104CE000C114D104E104F10421F4D5CFC12CD12C9D
:104CF000760140E0C701B6010E94A615882359F24B
:104D000080918406909185068115924021F6A091AC
:104D10008906AA2309F4BFCF60918706709188069F
:104D20006115710509F4B7CF20918606222309F495
:104D3000B2CFA0934A0920933C0980E030E0E1E043
:104D4000F0E0C82FAF01082E02C0440F551F0A948F
:104D5000E2F72417350741F0982F8F5F983089F7D5
:104D600089E08093450997CF8093450920918F066C
:104D7000309190062115310519F040E050E008C04F
:104D800020919D0630919E0640919F065091A0066D
:104D900020933D0930933E0940933F0950934009C9
:104DA00046015701860E971EA11CB11C80924B092B
:104DB00090924C09A0924D09B0924E09E0918A065A
:104DC000F0918B06F0935109E0935009B0E00E94F6
:104DD000FF3B860E971EA81EB91E80925209909224
:104DE0005309A0925409B092550985E0EE0FFF1FB8
:104DF0008A95E1F7E150FE4FEF2FFF27E6958E0EE3
:104E00009F1EA11CB11C8092460990924709A09256
:104E10004809B092490920918C0630918D062115E0
:104E2000310521F0A90160E070E008C040919906C9
:104E300050919A0660919B0670919C06D701C6011D
:104E400088199909AA09BB09840F951FA61FB71FC6
:104E500004C0B695A79597958795CA95D2F7809384
:104E6000410990934209A0934309B0934409853FB7
:104E70002FE09207A105B10510F48CE018C0853F22
:104E80009F4FA105B10510F480E111C08091A506E6
:104E90009091A606A091A706B091A806809352090A
:104EA00090935309A0935409B093550980E28093DD
:104EB0004F0981E0DF91CF91FF90EF90DF90CF908D
:104EC000BF90AF909F908F9008954F925F926F9296
:104ED0007F928F929F92AF92BF92EF92FF920F9329
:104EE0001F93CF93DF93CDB7DEB76A970FB6F894D1
:104EF000DEBF0FBECDBF7C014A015B012A013B0131
:104F0000E89477F82FEF3FEF4FE75FE7C301B20177
:104F10000E94563D81110AC02FEF3FEF4FE75FE738
:104F2000C301B2010E94BC3A1816A4F026E934ED80
:104F300048E653E5C501B4010E94513D1816F4F14D
:104F400026E934ED48E653EDC501B4010E94BC3AB0
:104F500087FD34C08E010F5F1F4F25E041E0C50182
:104F6000B4010E94DC37B801CE0145960E94622947
:104F700097012150310928303105B0F4898D9A8D7F
:104F80008F3F910509F098F446E0429FC001439F8E
:104F9000900D1124BE016B5E7F4F8757964F0E9484
:104FA0000D2908EC10E005C007E31FEF02C00BE974
:104FB0001FEFCE0145960E94242902C00BE91FEF86
:104FC000C8016A960FB6F894DEBF0FBECDBFDF9161
:104FD000CF911F910F91FF90EF90BF90AF909F9056
:104FE0008F907F906F905F904F900895CF92DF9257
:104FF000EF92FF920F931F93CF93DF936C017A018F
:105000008B01C0E0D0E0CE15DF0589F0D8016D91AD
:105010008D01D601ED91FC910190F081E02DC6014A
:105020001995892B11F47E0102C02196ECCFC7019E
:10503000DF91CF911F910F91FF90EF90DF90CF9074
:105040000895CF93DF93EC0188819981009711F047
:105050000E94273E198218821D821C821B821A829E
:10506000DF91CF9108953FB7F89480917E0A909197
:105070007F0AA091800AB091810A26B5A89B05C03D
:105080002F3F19F00196A11DB11D3FBFBA2FA92FC7
:10509000982F8827820F911DA11DB11DBC01CD0144
:1050A00042E0660F771F881F991F4A95D1F7089530
:1050B0002FB7F89460917A0A70917B0A80917C0AEC
:1050C00090917D0A2FBF08951F920F920FB60F92F5
:1050D00011242F933F938F939F93AF93BF9380910E
:1050E0007A0A90917B0AA0917C0AB0917D0A309156
:1050F000790A23E0230F2D3720F40196A11DB11D5D
:1051000005C026E8230F0296A11DB11D2093790A40
:1051100080937A0A90937B0AA0937C0AB0937D0ACD
:1051200080917E0A90917F0AA091800AB091810AB5
:105130000196A11DB11D80937E0A90937F0AA093D2
:10514000800AB093810ABF91AF919F918F913F9157
:105150002F910F900FBE0F901F9018950F931F93D4
:10516000CF93DF93EC0188819981009729F02A8100
:105170003B812617370788F48B016F5F7F4F0E94B2
:10518000BF3E009761F0998388831B830A832C813B
:105190003D81232B11F4FC01108281E001C080E0ED
:1051A000DF91CF911F910F910895EF92FF920F938E
:1051B0001F93CF93DF93EC017B018A01BA010E9418
:1051C000AE28811104C0CE010E94212807C01D8392
:1051D0000C83B701888199810E94CE3FCE01DF9177
:1051E000CF911F910F91FF90EF900895CF93DF9390
:1051F000EC016115710559F0FB0101900020E9F700
:105200003197AF01461B570B0E94D52802C00E9460
:105210002128CE01DF91CF910895CF93DF93EC0148
:10522000FB018617970761F0608171816115710537
:1052300029F0448155810E94D52802C00E9421286E
:10524000CE01DF91CF910895FC01808191810C9472
:10525000273EEF92FF920F931F93CF93DF93CDB72B
:10526000DEB7A1970FB6F894DEBF0FBECDBF7C01AD
:10527000CB01BA01F70111821082138212821582CA
:10528000148242E0420F8E010F5F1F4F0E94DC37F5
:10529000BC01C7010E94F628A1960FB6F894DEBFA4
:1052A0000FBECDBFDF91CF911F910F91FF90EF9077
:1052B0000895FC01118210821382128215821482D9
:1052C0000C940D29FC011182108213821282158226
:1052D00014826115710551F0FB0101900020E9F77E
:1052E0003197AF01461B570B0C94D5280895DC016C
:1052F000ED91FC910190F081E02D199461157105FB
:1053000079F0FB0101900020E9F73197AF01461BCE
:10531000570BDC01ED91FC910280F381E02D199493
:1053200080E090E008954F925F926F927F92EF92AB
:10533000FF920F931F93CF93DF93CDB7DEB7A19763
:105340000FB6F894DEBF0FBECDBF7C01FA01CB01D2
:1053500019A2223008F42AE08E010F5D1F4F422E61
:10536000512C612C712CBF01A30192010E94123CAF
:10537000F901CA01015011096A3014F4605D01C0DD
:10538000695CD8016C93232B242B252B61F7B80182
:10539000C7010E947E29A1960FB6F894DEBF0FBE0A
:1053A000CDBFDF91CF911F910F91FF90EF907F9034
:1053B0006F905F904F9008954F925F926F927F929F
:1053C0008F929F92AF92BF92CF92DF92EF92FF9215
:1053D000CF93DF93EC016A017B01B22E9A01AB01FE
:1053E000C701B6010E94563D882319F06AEF74E0A8
:1053F00027C026013701E89477F82FEF3FEF4FE7FA
:105400005FE7C301B2010E94563D81110DC02FEF2D
:105410003FEF4FE75FE7C301B2010E94BC3A1816A5
:105420001CF46EEF74E00CC02FEF3FEF4FE75FE42A
:10543000C701B6010E94513D18169CF462E075E068
:10544000CE01DF91CF91FF90EF90DF90CF90BF9092
:10545000AF909F908F907F906F905F904F900C9443
:105460007E292FEF3FEF4FE75FECC701B6010E94A7
:10547000BC3A87FDE3CF20E030E0A901C701B601C7
:105480000E94BC3A87FF0AC06DE2CE010E947729D4
:105490004C01F7FAF094F7F8F09402C0812C912CAB
:1054A000A12C60E070E080E09FE3AB1441F020E0CD
:1054B00030E040E251E40E94B03CA394F6CF9B015F
:1054C000AC01C701B6010E94443C2B013C010E9483
:1054D000223D6B017C010E94C13A9B01AC01C301DA
:1054E000B2010E94433C2B013C012AE0B701A60116
:1054F000CE010E9493297C01E80CF91CBB2031F0FD
:105500006EE2CE010E947729E80EF91EDB2CDD2029
:1055100029F120E030E040E251E4C301B2010E94F1
:10552000223B2B013C010E94223D4B01A12CB12CBE
:105530002AE0B501A401CE010E949329E80EF91ECC
:10554000C501B4010E94C13A9B01AC01C301B20183
:105550000E94433C2B013C01DA94D9CFC701DF9173
:10556000CF91FF90EF90DF90CF90BF90AF909F9042
:105570008F907F906F905F904F9008950C947E294C
:10558000CF93DF93CDB7DEB7CB57D1090FB6F894E1
:10559000DEBF0FBECDBF789484B5826084BD84B574
:1055A000816084BD85B5826085BD85B5816085BD1E
:1055B00080916E00816080936E00109281008091D6
:1055C000810082608093810080918100816080935E
:1055D0008100809180008160809380008091B10083
:1055E00084608093B1008091B00081608093B000AE
:1055F0008091910082608093910080919100816000
:1056000080939100809190008160809390008091C0
:10561000A10082608093A1008091A10081608093AD
:10562000A1008091A00081608093A0008091210161
:10563000826080932101809121018160809321010A
:105640008091200181608093200180917A008460A4
:1056500080937A0080917A00826080937A008091B2
:105660007A00816080937A0080917A0080688093CC
:105670007A001092C100E0919108F091920882E0C6
:105680008083E0918D08F0918E081082E0918F0860
:10569000F09190088FEC808310929908E091950822
:1056A000F091960886E08083E0919308F091940849
:1056B000808180618083E0919308F09194088081DB
:1056C00088608083E0919308F091940880818068DD
:1056D0008083E0919308F091940880818F7D80838E
:1056E00081E08093060588E6809372051092070595
:1056F0001092280560E08EE199E00E940B138091E2
:105700002805813208F045C090914F059111FCCFDA
:1057100092E090934F0591E090934E059FEF909308
:105720004D0510924C0580934B05A8E0B5E029E2A9
:1057300035E0F9019E2F921B981718F49D919193D3
:10574000F9CF10924A0580914A05806D80934A05F1
:1057500080914905813061F41092490580914A0594
:105760008093BB008091BC0083FDF8CF85EC01C025
:1057700085EE8093BC0080914F058230E1F38091EB
:105780004D058F3F31F080914D05803211F08091B1
:105790004D0510920705109228051092060580917C
:1057A0004F058111FCCF81E080934F0580934E051A
:1057B0009FEF90934D0510924C0596E090934B050A
:1057C00080934A0580914A05806D80934A058091B7
:1057D0004905813061F41092490580914A05809312
:1057E000BB008091BC0083FDF8CF85EC01C085EE45
:1057F0008093BC0080914F058130E1F380914C058E
:10580000873018F480914C0501C087E0A9E2B5E02B
:1058100022E535E0F9019E2F921B981718F49D910F
:105820009193F9CF10925105809350058EE199E044
:105830000E94BF128F77982F92959F707AEFF72E64
:10584000E82E9F9DE00C11248EE199E00E94BF128A
:105850009C013327E4E035952795EA95E1F7D82EAA
:10586000F29ED00C11248EE199E00E94BF129C019F
:105870003327F4E035952795FA95E1F7C82EF29E87
:10588000C00C11248EE199E00E94BF128EE199E0D4
:105890000E94BF129C013327A4E035952795AA9555
:1058A000E1F7182FF29E100D11248EE199E00E946D
:1058B000BF129C013327B4E035952795BA95E1F7DF
:1058C000082FF29E000D11248EE199E00E94BF1274
:1058D0009C01332794E0359527959A95E1F7F29E40
:1058E000800D11248093E5090093E6091093E709E0
:1058F000C092E809D092E909E092EA0988E49AE0C6
:105900000E9416078AE093E00E9427260E94212623
:1059100068EE73E080E090E00E94680C8091D10511
:1059200081112AC01092B9051092B80588EE93E053
:10593000A0E0B0E08093BA059093BB05A093BC05AE
:10594000B093BD0582E492E09093B7058093B605CD
:1059500082E093E09093C5058093C4051092C6053C
:105960001092C7051092C8051092C90584E0809373
:10597000CE0581E08093D10583E795E090937C0983
:1059800080937B096CE271E080E090E00E94680CFB
:105990000E943515249A00E021E040E059E06DE3D3
:1059A00070E0CE0101960E94FF0589819A810E94D4
:1059B000FC0560E880E090E00E94052065E58BE151
:1059C00090E00E94052065E58AE190E00E940520B4
:1059D0000E94FB0580E090E490931A0680931906DC
:1059E00080E090E6909322068093210680E098E480
:1059F00090931C0680931B0680E098E69093240603
:105A00008093230680E090E590931E0680931D0608
:105A100080E090E7909326068093250680E098E545
:105A20009093200680931F0680E098E790932806C5
:105A30008093270621E040E059E06DE370E0CE015D
:105A400001960E94FF0589819A810E94FC0546E02B
:105A500050E060E072E089E090E00E94D61F82E0B2
:105A600093E09A8389831B821C821D821E8244E0FC
:105A700050E0BE016D5F7F4F8FE090E00E94D61F27
:105A80000E94FB0500917B0910917C09D801929638
:105A90001D921D921D921C929597F80116A217A2B5
:105AA00010A611A69A961D921D921D921C929D976A
:105AB00080E69AEEA0E0B0E086AB97ABA0AFB1AFC6
:105AC00080EA9FE0A0E0B0E082AF93AFA4AFB5AFB3
:105AD000D801189686E0FD01482F11924A95E9F702
