:100000000C94BF020C94F0020C94F0020C94F002D9
:100010000C94F0020C94F0020C94F0020C94F00298
:100020000C94F0020C94F0020C94F0020C94F00288
:100030000C94F0020C94F0020C94F0020C94F00278
:100040000C94F0020C94F0020C94F0020C94F00268
:100050000C94F0020C94F0020C94F0020C94112910
:100060000C94F0020C94C6120C949C120C94F002A6
:100070000C94F0020C94F0020C94F0020C94F00238
:100080000C94F0020C94F0020C94F0020C94F00228
:100090000C94F0020C94F0020C94F0020C94FC12FC
:1000A0000C94F0020C94F0020C94F0020C94F00208
:1000B0000C94F0020C94F0020C94F0020C94F002F8
:1000C0000C94F0020C94F0020C94F0020C94F002E8
:1000D0000C94F0020C94F0020C94F0020C94F002D8
:1000E0000C94F00241284428332837283B287B28E9
:1000F00048284C28522856285A28602864286828FE
:100100007B286E28722876280C941F0B0C94B8114B
:100110000C947F090C946F0D0C94C80A0C94510A2E
:100120000C9405030C9402030C948A090C94722815
:100130000C9448280C947B100C9447090C94D10A19
:100140000C946F0A0C946E280C9476090C94762803
:100150000C9414040C9464280C94550A0C946209B1
:100160000C94DA0E0C9460280C94A8110C948F1047
:100170000C944C280C9441280C941B110C94CD0920
:100180000C9479120C9448090C94090A0C943312BB
:100190000C94280A0C9452280C94C90D0C94920BC0
:1001A0000C946F410C94FE020C9493090C94500F24
:1001B0000C9437280C9444280C943B280C94310957
:1001C0000C94F2020C949D100C94650D0C94A303F6
:1001D0000C94D20F0C94B1090C9433280C94F03188
:1001E0000C947B120C9404120C94D4110C946C108B
:1001F0000C947B280C94A70B0C94FC020C94920991
:100200000C94B6390C947D090C941B080C94E609E7
:100210000C9401030C9456280C94210E0C9468281D
:100220000C94CC110C94A9110C94A9090C94D41021
:100230000C9466090C945E090C9410090C94AE0F92
:100240000C945A2800407A10F35A00A0724E1809F4
:100250000010A5D4E80000E87648170000E40B542D
:10026000020000CA9A3B000000E1F50500008096FC
:100270009800000040420F000000A086010000002E
:10028000102700000000E8030000000064000000E8
:1002900000000A00000000000100000000002C76B1
:1002A000D888DC674F0823DFC1DFAE59E1B1B796CC
:1002B000E5E3E453C63AE651997696E8E6C2842629
:1002C000EB898C9B62ED407C6FFCEFBC9C9F40F205
:1002D000BAA56FA5F490055A2AF75C936B6CF96781
:1002E0006DC11BFCE0E40D47FEF520E6B500D0ED46
:1002F000902E0300943577050080841E08000020AE
:100300004E0A000000C80C333333330F986E12834B
:100310001141EF8D2114893BE65516CFFEE6DB181F
:10032000D1844B381BF77C1D901DA4BBE4242032E4
:1003300084725E228100C9F124ECA1E53D277C3C5A
:100340003E5E2B3D3F2F5B5D3B2C2A225C00000074
:100350002100240027002A002D0030003300010175
:100360000000040107010A01000022002500280006
:100370002B002E00310034000201000005010801AD
:100380000B0100000A0B02090C0D0E080703040103
:10039000000000000000000000000000000000005D
:1003A000000000000000000000000000000012112A
:1003B000100000000000000000000000000000002D
:1003C0000000000000000000005EBCE2613FDD8331
:1003D000C29C7E20A3FD1F419DC3217FFCA2401E25
:1003E0005F01E3BD3E6082DC237D9FC1421CFEA015
:1003F000E1BF5D0380DE3C62BEE0025CDF81633D05
:100400007C22C09E1D43A1FF4618FAA427799BC5F4
:1004100084DA3866E5BB5907DB856739BAE40658E4
:100420001947A5FB7826C49A653BD987045AB8E6D4
:10043000A7F91B45C6987A24F8A6441A99C7257BC4
:100440003A6486D85B05E7B98CD2306EEDB3510FB4
:100450004E10F2AC2F7193CD114FADF3702ECC92A4
:10046000D38D6F31B2EC0E50AFF1134DCE90722C94
:100470006D33D18F0C52B0EE326C8ED0530DEFB184
:10048000F0AE4C1291CF2D73CA947628ABF5174974
:100490000856B4EA6937D58B5709EBB536688AD464
:1004A00095CB2977F4AA4816E9B7550B88D6346A54
:1004B0002B7597C94A14F6A8742AC896154BA9F744
:1004C000B6E80A54D7896B351F1C1F1E1F1E1F1F3D
:1004D0001E1F1E1F000020002300260029002C00E4
:1004E0002F0032000001000003010601090105058B
:1004F0000505070508080808020202020A0A08089A
:1005000004040404010101010101010103030303C7
:1005100003030303040707070C0C0C0C0C0C0C0C56
:100520000202020206060606060606060B0B0B0B67
:100530000B0B0B0B0102102020080810204010208C
:100540004080020102010804020101020408102097
:100550004080804020100804020180040201804095
:1005600020100804020108040201010204081020FE
:10057000408001020408102040806F41B6391124E8
:100580001FBECFEFD1E2DEBFCDBF00E00CBF17E052
:10059000A0E0B2E0E0EEFDE900E00BBF02C0079092
:1005A0000D92A637B107D9F72DE0A6E7B7E001C055
:1005B0001D92A532B207E1F712E0CEEBD2E000E0E7
:1005C00006C021970109802FFE010E949249CD3B70
:1005D000D10780E00807A9F70E9482320C94DE4E12
:1005E0000C940000DC01ED91FC91068CF78DE02D60
:1005F000199591E089270895862F089581E086272F
:100600000895089580E090E00895CF92DF92EF92F0
:10061000FF920F931F93CF93DF93CDB7DEB7AF97C2
:100620000FB6F894DEBF0FBECDBF7C016A0102E0B9
:1006300013E01A8309831C861B8688EE93E0A0E0F2
:10064000B0E08D879E87AF87B88B82E492E09A876F
:100650008987188F0F8B198E1A8E1B8E1C8E84E043
:1006600089A31DA30CA31EA21FA218A619A68091E0
:10067000400C9091410CA091420CB091430C8CA77E
:100680009DA7AEA7BFA78B839C83AD83BE8318862F
:100690001F82AE014C5D5F4FCE0101960E94772212
:1006A00081309105B1F4D701ED91FC910684F78575
:1006B000E02D1BA70AA78EA19FA1A8A5B9A58CA76D
:1006C0009DA7AEA7BFA7A601BE01665D7F4FC7016C
:1006D0001995AF960FB6F894DEBF0FBECDBFDF9170
:1006E000CF911F910F91FF90EF90DF90CF900895E1
:1006F000CF93DF938AE992E00E94B549D82FC92FA2
:10070000EEEAFCE082811F928F9381811F928F938A
:10071000208130E02053384F3F932F9383E594E0BE
:100720009F938F93CF93DF930E94074C8DB79EB713
:100730000A960FB6F8949EBF0FBE8DBF8D2F9C2FCB
:10074000DF91CF910895EF92FF920F931F93CF9374
:10075000DF9300D000D0CDB7DEB7CE0101960E9466
:10076000402D6A813981432F50E08B8190E0E8EC85
:10077000F4E021E02E1B722F7E0F761728F474917F
:10078000870F911D3196F7CF633018F0337009F45D
:1007900001966DE671E0469F9001479F300D569F90
:1007A000300D1124215031094D5F5F4F569547950B
:1007B00056954795240F351F280F391FA8E1B0E043
:1007C0000E9447482C817B018C01E20EF11C011D27
:1007D000111DA8019701ACE3B0E00E9412482D81E1
:1007E0007B018C01E20EF11C011D111DA801970176
:1007F0000E9412482E81DC01CB01820F911DA11DA8
:10080000B11DBC01CD0160587C4B8249974C2696A6
:100810000FB6F894DEBF0FBECDBFDF91CF911F9111
:100820000F91FF90EF9008952F923F924F925F9219
:100830006F927F928F929F92AF92BF92CF92DF92F0
:10084000EF92FF920F931F93CF93DF93CDB7DEB755
:10085000C557D1090FB6F894DEBF0FBECDBF84E6F1
:1008600094E00E942130AE014F5F5F4F7A01CA01D0
:100870000E94402D86E0F701AEEABCE001900D92A7
:100880008A95E1F76CE774E086E09BE00E94803295
:1008900006E612E0BDEEAB2EB7E0BB2E6501D80137
:1008A0008D918D01863308F0865390917B00282F1F
:1008B0002870977F922B90937B0087708064809341
:1008C0007C0080917A00806480937A0080917A0025
:1008D00086FDFCCF609178008091790070E0782BE4
:1008E000072E000C880B990B0E94D646F6016193E7
:1008F0007193819391936F01F5E0CF16F8E0DF06D5
:1009000071F687E994E00E94213064E670E080E0AF
:1009100090E00E94CB2849E058E0E6965FAF4EAFEA
:10092000E6976A0100E010E0D5016D917D918D910F
:100930009D915D0146012AE038E240EA5BE30E94B6
:100940003547F60161937193819391936F016CE93F
:1009500074E086E09BE00E948032C8010E944A2138
:1009600062EB74E086E09BE00E948032D4014D91FE
:100970005D916D917C9122E086E09BE00E94242AAB
:100980000E941B300F5F1F4F0630110569F60E9451
:100990001B3087EB94E00E9421300E941B308AECD0
:1009A00094E00E9421308091D40C9091D50C0E944B
:1009B000292F40E06CEC8091D40C9091D50C0E94D2
:1009C000BA2E4091CF0C64E48091D40C9091D50C58
:1009D0000E94BA2E8091D10C8823B1F0E091D00C06
:1009E000E950E33048F06EEE72E0072E000C880B01
:1009F000990B0E94CB2808C0F0E0EE0FFF1FE459CE
:100A0000FD4F60817181F1CF87E994E00E94213030
:100A100064E670E080E090E00E94CB286E01BFE1C8
:100A2000CB0ED11CB6018FEC9CE00E9423218823C1
:100A300009F44AC0A701B6018FEC9CE00E94B92FCF
:100A4000811103C060E874EE15C02981F8E02F9F82
:100A5000A00111248A81282F30E0B901762F662762
:100A6000770F770F770F9A01262B372B8F8D8031D9
:100A700091F0B9016138E4EE7E0734F1072E000CE5
:100A8000880B990B0E94D64620E030E040E05CE302
:100A90000E9435471DC0688570E08F81AB01481BFF
:100AA0005109CA019695982F8827979587950E9496
:100AB0007E4960517109207F53E0220F331F5A9500
:100AC000E1F7620F731FD6CF60E070E08EEF92EC1B
:100AD00060930508709306088093070890930808B0
:100AE00065EE74E086E09BE00E94803280E090E05A
:100AF0000E944A2162EB74E086E09BE00E94803213
:100B00004091050850910608609107087091080807
:100B100022E086E09BE00E94242A0E941B300E9473
:100B20001B3081E095E00E9421300E941B308BE158
:100B300095E00E9421300E9478034C016FE17CE037
:100B4000C6010E94D40B1C821B8280EA92E09A8329
:100B500089831E825401370116016FE270E0C501DE
:100B60000E94E64B009709F442C0D5012C912F3228
:100B700021F4BFEFAB1ABB0AF0CF8A198D3008F011
:100B80008CE0082F10E0A801B501CE01875A9F4FD5
:100B90000E94F84BE9E5F0E0EC0FFD1FE00FF11FBC
:100BA0001082C3010E94201AF3018581882351F02D
:100BB0001FAE1EAE80EA92E09DAF8CAF22961FAEB4
:100BC00022971DC021E0AE01475A5F4FB101C3011A
:100BD0000E947516882361F3A00EB11EC1010E9408
:100BE000201A922D832D1301692E782EB6CF250160
:100BF00048185908B101CE01CC960E94D40B840C40
:100C0000951CD4018C91811109C0BE01645C7F4F99
:100C1000C7010E94D40B4AE255E047C01AA219A2AC
:100C200080EA92E098A38F8F1CA222968FAD229724
:100C3000811116C06D961FAE1EAE6D9788EE93E0C3
:100C4000A0E0B0E0A1968CAF9DAFAEAFBFAFA197D3
:100C5000E4961FAE1EAEE497A6961FAEA6972BC0D5
:100C6000825023E1A401823040F46FE17CE0C601B0
:100C70000E94751681110DC0DDCFBE01645C7F4FEF
:100C8000C6010E9475168823A9F2CE01CC960E9457
:100C9000201A4AA95BA96CA97DA9C6010E948218E5
:100CA000B601C7010E94D40BA401B701CE01875A37
:100CB0009F4F0E94250C6D968EAD9FAD6D979093C2
:100CC000B70C8093B60CA1968CAD9DADAEADBFAD0B
:100CD000A1978093B80C9093B90CA093BA0CB093E1
:100CE000BB0CA5968CAD9DADAEADBFADA597809369
:100CF000BC0C9093BD0CA093BE0CB093BF0C8DE0C8
:100D0000E9E5F0E0EC0FFD1F3C96A0ECBCE00190A3
:100D10000D928A95E1F7E496EEADFFADE497F0937E
:100D2000CE0CE093CD0C309709F491C085818823D7
:100D300009F48DC04091AE0C50E04053584F052E41
:100D4000000C660B770B2AE084EB9CE00E943732A4
:100D50006AE275E084EB9CE00E9480324091AF0C27
:100D600050E060E070E02AE084EB9CE00E943732C3
:100D70006AE275E084EB9CE00E9480324091B00C06
:100D800050E060E070E02AE084EB9CE00E943732A3
:100D90006CE275E084EB9CE00E9480324091B10CE3
:100DA00050E060E070E02AE084EB9CE00E94373283
:100DB0006EE275E084EB9CE00E9480324091B20CC0
:100DC00050E060E070E02AE084EB9CE00E94373263
:100DD0006EE275E084EB9CE00E9480324091B30C9F
:100DE00050E060E070E02AE084EB9CE00E94373243
:100DF0006CE275E084EB9CE00E94803209E018E030
:100E0000F80141915191619171918F012AE084EB38
:100E10009CE00E94242A6CE275E084EB9CE00E9436
:100E20008032F8E001321F0759F7409105085091D0
:100E3000060860910708709108082AE084EB9CE09E
:100E40000E94242A6CE275E084EB9CE009C080E3F8
:100E500095E00E9421300E947803BC0186E09BE06F
:100E60000E94803262E177E084EB9CE00E94803255
:100E70008091CD0C9091CE0C009761F00E94201AC9
:100E80008091CD0C9091CE0C0E944A4A1092CE0CCB
:100E90001092CD0C8FE395E00E94213087E595E01C
:100EA0000E9421300E94052919821A821B821C820D
:100EB000FE0135968AE1DF011D928A95E9F780915E
:100EC000B30C1F928F938091B20C1F928F938091DD
:100ED000B10C1F928F938091B00C1F928F938091D1
:100EE000AF0C1F928F938091AE0C90E08053984F7F
:100EF0009F938F938EE695E09F938F93FF92EF924F
:100F00000E94074C8CE895E00E9421300E941B3023
:100F10000FB6F894DEBF0FBECDBF00E010E0E6963E
:100F2000AEADBFADE6974D915D916D917D91E69629
:100F3000BFAFAEAFE6970F5F1F4FC8010E945F3192
:100F4000C8010E9437100630110549F74AEA55E0FA
:100F50006BEB75E585E090E00E94E5398BEB95E061
:100F60000E942130409105085091060860910708C1
:100F70007091080881E090E00E945F3181E090E08C
:100F80000E9437104DEC55E06CEB75E585E090E084
:100F90000E94E5398EED95E00E9421308FEE95E0BC
:100FA0000E9421300E941B308FEF95E00E9421307B
:100FB000CB58DF4F0FB6F894DEBF0FBECDBFDF9129
:100FC000CF911F910F91FF90EF90DF90CF90BF9046
:100FD000AF909F908F907F906F905F904F903F90D9
:100FE0002F90089508958CBD9DBD08950F93FC0129
:100FF00030E080E092E1AAE7B0E0481759076A07BD
:101000007B0740F4B695A795979587953F5F363057
:10101000A1F737E091E09327222311F020E501C0EA
:1010200020E7892F86950C70082B022B0083917086
:1010300091830F910895AF92BF92CF92DF92EF927A
:10104000FF920F931F93CF93DF931F921F92CDB701
:10105000DEB7FC012485243009F082C05A017B01EF
:101060006C0110E0812F0E946C20811103C0F601F9
:10107000148706C08B7F8831D1F31F5F143091F73E
:10108000F6018485843009F46BC02091060230910A
:1010900007022F5F3F4F11F420E030EC309307023E
:1010A00020930602409106025091070220E061E081
:1010B0000E941820F6011485F70182818F3F51F4B8
:1010C00083818F3F99F484818F3F81F485818F3FA5
:1010D00069F443C081110AC0F7018381811106C000
:1010E0008481811103C085818823B9F1A114B104E1
:1010F000A1F100E021E040E059E06DE370E0CE01B5
:1011000001960E94F60789819A810E94F307B70130
:101110006E5F7F4F812F90E0982F882744E050E04A
:10112000845F9B4F0E94CF1EB501812F0E94C90E84
:1011300064E070E0812F0E947E21C6010E94A60F0C
:10114000873189F061E070E080E090E00E94CB2878
:10115000C6010E94A60F8111F0CF84E0F6018487BA
:1011600080E090E002C081E090E00F900F90DF916E
:10117000CF911F910F91FF90EF90DF90CF90BF9094
:10118000AF900895EF92FF920F931F93CF93DF9349
:10119000EC018C01045F1F4F7C018CE3E80EF11C15
:1011A00063E177E0C8010E94A3290A5F1F4F0E1573
:1011B0001F05B1F780E090E0A0ECBFE78CAF9DAFDA
:1011C000AEAFBFAFFE01E05CFF4F80839183A2838F
:1011D000B383349680839183A283B38363E177E002
:1011E000CE01865B9F4F0E94A32963E177E0CE0189
:1011F000805B9F4F0E94A32963E177E0CE018A5A6A
:101200009F4F0E94A32963E177E0CE01845A9F4F4C
:10121000DF91CF911F910F91FF90EF900C94A32934
:10122000DC015996ED91FC915A973097B9F083897A
:101230009489A589B6894285538564857585841B03
:10124000950BA60BB70B811520E89207A105B105F8
:1012500038F08FEF9FE7A0E0B0E0089580E090E0E5
:101260000895CF93DF931F92CDB7DEB76983DC017A
:10127000ED91FC910280F381E02D41E050E0BE0150
:101280006F5F7F4F19950F90DF91CF91089508956B
:10129000CF93DF931F92CDB7DEB76983DC01ED9169
:1012A000FC910280F381E02D41E050E0BE016F5FD0
:1012B0007F4F19950F90DF91CF910895FC01818D9B
:1012C000928D0895FC0184899589089522E033E088
:1012D000FC0131832083FB01408951896289738934
:1012E000FC0142835383648375830895DC01ED918F
:1012F000FC91048CF58DE02D199480E00895FC019B
:101300009485FB018485981303C081E0943009F42F
:1013100080E0089521E0FC018485843009F420E018
:10132000822F08950895CF93DF931F92CDB7DEB734
:101330006983DC01ED91FC910280F381E02D41E0B5
:1013400050E0BE016F5F7F4F19950F90DF91CF91F5
:101350000895FC01818D928D009711F00C94441832
:101360000895CF93DF93EC01898D9A8D009739F41E
:1013700081E090E09B838A8380E090E00BC0FC01D9
:10138000138212820E940F1DE98DFA8D2281338112
:10139000232B71F7DF91CF910895CF93DF931F92A5
:1013A000CDB7DEB7FC01218D328D232B49F0BE0174
:1013B0006F5F7F4F808D0E94211F898190E002C066
:1013C0008FEF9FEF0F90DF91CF9108950F931F93B1
:1013D000CF93DF931F92CDB7DEB78C01DC01ED9187
:1013E000FC910084F185E02D1995892B51F0BE0107
:1013F0006F5F7F4FF80184850E94211F898190E0F3
:1014000002C08FEF9FEF0F90DF91CF911F910F914F
:101410000895CF93DF93FC01218D328D2115310585
:1014200019F48FEF9FEF11C0EC014217530708F03A
:10143000A901888D0E94851F1816190694F7298D19
:101440003A8D281B390B3A8F298FDF91CF91089560
:101450000F931F93CF93DF931F92CDB7DEB7FC019D
:10146000218D328D232B61F08C0141E050E0BE01D3
:101470006F5F7F4F808D0E94851F181619061CF024
:101480008FEF9FEF08C0F801818D928D0197928FA9
:10149000818F898190E00F90DF91CF911F910F9103
:1014A0000895FC0184850C94851FCF93DF931F92D0
:1014B000CDB7DEB741E050E0BE016F5F7F4FFC016A
:1014C00084850E94851F181619061CF4898190E0F6
:1014D00002C08FEF9FEF0F90DF91CF9108950F9390
:1014E0001F93CF93DF93CDB7DEB728970FB6F8944D
:1014F000DEBF0FBECDBF8C01F801818D928D892B8F
:1015000049F0D801ED91FC910284F385E02DC801EA
:101510001995F2CF808D0E944F1F181619065CF5A1
:1015200048E050E0BE016F5F7F4FD80158968C9124
:101530000E94851F9C0118161906DCF489819A8186
:10154000AB81BC81F801808B918BA28BB38B8D8199
:1015500090E0982F88272E81820F911D958B848B88
:101560002F8130E0322F22278885280F311D328FBE
:10157000218FC90102C080E090E028960FB6F89450
:10158000DEBF0FBECDBFDF91CF911F910F910895A8
:10159000FC018485843011F00C944F1F80E090E0B2
:1015A00008958F929F92AF92BF92CF92DF92EF9267
:1015B000FF920F931F93CF93DF931F921F92CDB78C
:1015C000DEB76C014B017A01FC01A688B788108D4B
:1015D00000E021E040E059E06DE370E0CE010196CB
:1015E0000E94F60789819A810E94F307812F0E9449
:1015F0005B228E159F0520F4812F0E945B227C01C7
:101600009701A401B501812F0E94F6210E94F207E3
:10161000F601868997898E0D9F1D978B868BC70152
:101620000F900F90DF91CF911F910F91FF90EF904E
:10163000DF90CF90BF90AF909F908F900895CF9202
:10164000DF92EF92FF920F931F93CF93DF93CDB76B
:10165000DEB7AF970FB6F894DEBF0FBECDBF7C01EB
:101660006A0102E013E01A8309831C861B8688EE58
:1016700093E0A0E0B0E08D879E87AF87B88B82E4CF
:1016800092E09A878987188F0F8B198E1A8E1B8E7E
:101690001C8E84E089A31DA30CA31EA21FA218A662
:1016A00019A68091400C9091410CA091420CB091F0
:1016B000430C8CA79DA7AEA7BFA78B839C83AD834C
:1016C000BE8318861F82AE014C5D5F4FCE0101962E
:1016D0000E94772281309105B1F4D701ED91FC9100
:1016E0000488F589E02D1BA70AA78EA19FA1A8A5B4
:1016F000B9A58CA79DA7AEA7BFA7A601BE01665D31
:101700007F4FC7011995AF960FB6F894DEBF0FBE95
:10171000CDBFDF91CF911F910F91FF90EF90DF90A0
:10172000CF900895CF93DF93EC01888D843061F0E2
:101730000E94ED1FE88DF0E0EE0FFF1FEF5DF74F09
:101740001182108284E0888FDF91CF910895EF920B
:10175000FF921F93CF93DF93FC01208D243011F073
:1017600080E01CC07B01EC0110E0812F0E946C2006
:10177000811102C0188F05C08831E1F31F5F14305A
:10178000A1F7888D843061F3FD86EC861A8E198E60
:1017900020E0A70162E00E94182081E0DF91CF9154
:1017A0001F91FF90EF900895FC01DB0112968D913F
:1017B0009C9113979383828380EA92E09183808344
:1017C00014968C911497848315968C911597858324
:1017D00016964D915D916D917C9119974683578333
:1017E000608771871A964D915D916D917C911D97DF
:1017F00042875387648775871E964D915D916D91E1
:101800007C91519746875787608B718B52968C914C
:101810005297828B53964D915D916D917C91569725
:10182000438B548B658B768B57964D915D916D9163
:101830007C915A97478B508F618F728F5B968D91F9
:101840009C915C97948F838F0895EF92FF920F93F2
:101850001F93CF93DF93EC017B018A011B821A82D5
:1018600088EE93E0A0E0B0E08C839D83AE83BF83DD
:101870008CEA92E0998388838DE190E00E94B549DB
:101880009A8F898F009779F02DE1F701DC010190A3
:101890000D922A95E1F74CE050E0B801CE010C968C
:1018A0000E94F84B188EDF91CF911F910F91FF90FE
:1018B000EF9008952F923F924F925F926F927F9296
:1018C0008F929F92AF92BF92CF92DF92EF92FF9250
:1018D0000F931F93CF93DF931F921F92CDB7DEB765
:1018E000FC018581882309F4D9C0848180FFD6C09A
:1018F00021E02A8343895489658976898285938585
:10190000A485B585481759076A077B0709F41A8229
:101910006F013A81832F90E0DE0111964D013F0166
:10192000B6E06B0E711C892B09F47DC0D6011A96A6
:101930004D915D916D917C911D975A01B1E0BB2253
:10194000F60125811A012B0189E0569447943794BA
:1019500027948A95D1F7838D948D223061F4FC0110
:10196000828D938DA48DB58DBC01CD01620D731D4B
:10197000841D951D45C0DC0114961C911150122147
:10198000A114B104D1F4111118C0452B462B472BDB
:1019900051F4F6018789908DA18DB28D868397834E
:1019A000A087B1870AC04681578160857185930100
:1019B0000E948815882309F471C0F601238D348DA7
:1019C00086819781A085B1850297A109B109AC01F3
:1019D000BD01F901058404C0440F551F661F771F20
:1019E0000A94D2F786859785A089B189840F951FBF
:1019F000A61FB71FBC01CD01610F711D811D911D77
:101A0000D60114962C9126FF14C000910802109163
:101A1000090220910A0230910B02601771078207B8
:101A2000930751F506C0FA81FF23C1F1898190E047
:101A300037C040E00E949F14882381F1F501E250F5
:101A4000F74FD401CF010196E817F90719F021915A
:101A50002D93FACFEFEF8E1A9E0AF60182859385B9
:101A6000A485B5850196A11DB11D82879387A487A2
:101A7000B58780E090E057CF740101E010E0950158
:101A8000AB01BC018091FE0A9091FF0A0E94101CDC
:101A9000882321F0BFEF8B1A9B0ADFCF8FEF9FEFD8
:101AA0000F900F90DF91CF911F910F91FF90EF90CA
:101AB000DF90CF90BF90AF909F908F907F906F906E
:101AC0005F904F903F902F900895FC01818D928DF3
:101AD000009711F00C945A0C8FEF9FEF08950F931D
:101AE0001F93CF93DF93FC01818D928D0097B9F006
:101AF000EF010E945A0C8C010F3F8FEF180791F0F5
:101B0000898D9A8DFC014285538564857585415088
:101B10005109610971090E948218C80105C080E05D
:101B200090E002C08FEF9FEFDF91CF911F910F9157
:101B300008959B0190E00496982F8827642F820FC8
:101B4000931F0C94FE1E0F931F93CF93DF931F924E
:101B5000CDB7DEB790E00496982F88278C01060F4A
:101B6000171F0E94551B8FE00E946F1B812F0E9440
:101B70006F1B802F0E946F1B80E00E946F1B898368
:101B80000E94531B89810F90DF91CF911F910F917C
:101B900008950F931F93CF93DF931F921F92CDB79A
:101BA000DEB7FC01108D00E021E040E059E06DE37C
:101BB00070E0CE0101960E94F60789819A810E9409
:101BC000F30760E270E0812F0E947E2162E070E006
:101BD000812F0E94A30D84FD23C062E070E0812F5D
:101BE0000E94A30D83FF0BC048E162E070E0812FEB
:101BF0000E94990D0E94F20780E090E01BC00E94B5
:101C0000F20700E021E040E059E06DE370E0CE0132
:101C100001960E94F60789819A810E94F307D6CF28
:101C200040E162E070E0812F0E94990D0E94F2076E
:101C300081E090E00F900F90DF91CF911F910F9175
:101C400008956F927F928F929F92AF92BF92CF92A0
:101C5000DF92EF92FF920F931F93CF93DF931F9228
:101C60001F92CDB7DEB75C014B016A01FC01148500
:101C7000143041F481E090E0F5019383828380E0A9
:101C800090E076C07A014130584018F0E12C88E0AD
:101C9000F82E00E021E040E059E06DE370E0CE0175
:101CA00001960E94F60789819A810E94F307812F8D
:101CB0000E945B223C0163E070E0812F0E94A30D33
:101CC000082F0E94F207073111F00C3121F46E1435
:101CD0007F04F8F202C0E12CF12C00E021E040E0AA
:101CE00059E06DE370E0CE0101960E94F60789810C
:101CF0009A810E94F3079701A40160E070E0812FB0
:101D00000E94F62160E270E0812F0E947E2162E055
:101D100070E0812F0E94A30D84FD1EC063E070E07F
:101D2000812F0E94A30D811106C00E94F207812F0E
:101D30000E94ED1F9FCF0E94F20700E021E040E0EB
:101D400059E06DE370E0CE0101960E94F6078981AB
:101D50009A810E94F307DBCF40E162E070E0812FBF
:101D60000E94990D0E94F207EF2809F483CFC60163
:101D70000F900F90DF91CF911F910F91FF90EF90F7
:101D8000DF90CF90BF90AF909F908F907F906F909B
:101D90000895CF93DF93C82FD62F472F60E170E0CF
:101DA0000E94990D4D2F61E170E08C2FDF91CF9152
:101DB0000C94990DBF92CF92DF92EF92FF920F9306
:101DC0001F93CF93DF9300D000D0CDB7DEB7FC01D7
:101DD000208D243009F053C06A017B018C01B12CA5
:101DE00063E070E08B2D0E94A30D811103C0F80108
:101DF000B08E06C08831D9F3B394F4E0BF12F0CFAF
:101E0000F801808D8430D9F196E0E2E7F2E0DE015E
:101E1000119601900D929A95E1F7F70193819F77C2
:101E20009C8394819D8395819E83B7016E5F7F4FD4
:101E300090E0982F882744E050E0845F9B4F0E94F9
:101E4000CF1EB601F801808D0E94C90EF801808D69
:101E500090E0982F882746E050E0BE016F5F7F4FEB
:101E60008A5F9B4F0E94CF1EF801128E118E20E8D0
:101E7000A60162E0808D0E94182081E001C080E010
:101E800026960FB6F894DEBF0FBECDBFDF91CF917F
:101E90001F910F91FF90EF90DF90CF90BF9008952A
:101EA000CF92DF92EF92FF920F931F93CF93DF9326
:101EB0001F921F92CDB7DEB7FB01DC0157961C9233
:101EC0001E92569758961C918281811109C0838178
:101ED000811106C08481811103C08581882349F165
:101EE0004115510531F16A017F0100E021E040E038
:101EF00059E06DE370E0CE0101960E94F6078981FA
:101F00009A810E94F307B7016E5F7F4F212F30E067
:101F1000922F882744E050E0845F9B4F0E94CF1EA1
:101F2000B601812F0E94C90E0E94F20781E090E065
:101F300002C080E090E00F900F90DF91CF911F9151
:101F40000F91FF90EF90DF90CF900895FC01848572
:101F5000843011F00C946C2080E00895CF93DF93CF
:101F6000FC0124852430D1F0EC010E94A60F8431BD
:101F700081F0882371F0883161F08C3161F4E8815F
:101F8000F9810084F185E02DCE01199521E0892B9E
:101F900019F420E001C021E0822F01C080E0DF9130
:101FA000CF9108958F929F92AF92BF92EF92FF923E
:101FB0000F931F93CF93DF931F921F92CDB7DEB77E
:101FC000DC011C961C91143009F444C07C0100E033
:101FD00021E040E059E06DE370E0CE0101960E94FF
:101FE000F60789819A810E94F30768E070E0812FEB
:101FF0000E947E210E94F2070E9405294B015C018C
:10200000C7010E94A60F8823B9F061E070E080E06C
:1020100090E00E94CB280E940529DC01CB018819A1
:102020009909AA09BB09883E9340A105B10540F36F
:10203000F70184850E94ED1FD7011C96EC911C9737
:10204000F0E0EE0FFF1FEF5DF74F1182108284E08A
:102050001C968C930F900F90DF91CF911F910F9151
:10206000FF90EF90BF90AF909F908F900895CF9288
:10207000DF92EF92FF92CF93DF936C01990FEE08FE
:10208000FF08F7FE16C06DE286E09BE00E941B325F
:10209000EC0144275527BA014C195D096E097F09E7
:1020A0002AE086E09BE00E9437327C01EC0EFD1EA8
:1020B00008C02AE0B701A60186E09BE00E94373203
:1020C0007C010E941B308E0D9F1DDF91CF91FF90F0
:1020D000EF90DF90CF900895FC01538D448D252F14
:1020E00030E0842F90E0821B930B541710F0CF96B2
:1020F000089501970895FC01918D828D981761F0E4
:10210000828DDF01A80FB11D5D968C91928D9F5F2E
:102110009F73928F90E008958FEF9FEF0895FC01D9
:10212000918D828D981731F0828DE80FF11D858D8C
:1021300090E008958FEF9FEF0895FC01918D228D1F
:10214000892F90E0805C9F4F821B91098F739927A4
:10215000089586E09BE00E949D1021E0892B09F400
:1021600020E0822F0895FC01848DDF01A80FB11DAE
:10217000A35ABF4F2C91848D90E001968F739927BD
:10218000848FA689B7892C93A089B1898C918064AA
:102190008C93938D848D981306C00288F389E02D6B
:1021A00080818F7D80830895EF92FF920F931F931C
:1021B000CF93DF93EC0181E0888F9B8D8C8D9813FA
:1021C00005C0E889F989808185FD24C0F62E0B8D34
:1021D00010E00F5F1F4F0F731127E02E8C8DE81258
:1021E0000CC00FB607FCFACFE889F989808185FF1A
:1021F000F5CFCE010E94B310F1CF8B8DFE01E80F19
:10220000F11DE35AFF4FF0820B8FEA89FB89808131
:10221000806207C0EE89FF896083E889F98980813F
:102220008064808381E090E0DF91CF911F910F91D6
:10223000FF90EF900895CF93DF93EC01888D882372
:10224000C9F0EA89FB89808185FD05C0A889B98923
:102250008C9186FD0FC00FB607FCF5CF808185FFFE
:10226000F2CFA889B9898C9185FFEDCFCE010E946C
:10227000B310E7CFDF91CF91089580E090E0892BF4
:1022800021F00E94A910811125C080E090E0892BE7
:1022900041F080E090E0892B21F00E940000811144
:1022A0001CC080E090E0892B41F080E090E0892B19
:1022B00021F00E940000811113C080E090E0892B82
:1022C000A1F080E090E0892B81F00E940000811154
:1022D0000AC008950E940000D8CF0E940000E1CFFC
:1022E0000E940000EACF0C940000089585ED8093D1
:1022F000BC008091BC0084FDFCCF1092780708954B
:102300004091B608262F30E0240F311D21323105CF
:10231000DCF4209178072430C9F4FC0180E090E0DF
:10232000861758F43091B6082191DC01AC56B74FAE
:10233000A30FB11D2C930196F3CF8091B608680FBF
:102340006093B60880E0089581E0089582E00895E2
:102350000895E0917C0780917B07E81730F4F0E066
:10236000E55BF74F808190E008958FEF9FEF089530
:1023700090917C0780917B07981750F4E92FF0E04B
:10238000E55BF74F208130E09F5F90937C0702C0B0
:102390002FEF3FEFC901089580917B0790E02091D6
:1023A0007C07821B91090895CF92DF92EF92FF92F2
:1023B0000F931F93CF93DF937C01262F972F8A01D2
:1023C00080914A08882391F0C62FD72F6E01C40E42
:1023D000D51ECC15DD0571F06991D701ED91FC9109
:1023E0000190F081E02DC7011995F3CF642F822F62
:1023F0000E948011C801DF91CF911F910F91FF9032
:10240000EF90DF90CF900895CF93DF931F92CDB7D9
:10241000DEB7698320914A082223D1F02091790701
:10242000203240F021E030E0FC013383228380E061
:1024300090E015C080917A07E82FF0E0E65DF74F55
:10244000998190838F5F80937A078093790705C085
:1024500061E0CE0101960E94801181E090E00F9032
:10246000DF91CF9108958F929F92AF92BF92CF92BA
:10247000DF92EF92FF920F931F93CF93DF937C0134
:102480008B016C0182E0C80ED11C4701E5E08E0E85
:10249000911CC0E0D0E0F60141916F0150E060E096
:1024A00070E02AE0C8010E9437325C016EE2C80188
:1024B0000E941B328A0D9B1DC80FD91FC814D90456
:1024C00051F7F701458150E060E070E02AE0C80173
:1024D0000E9437328C0F9D1FDF91CF911F910F917A
:1024E000FF90EF90DF90CF90BF90AF909F908F9034
:1024F00008950E94CB4BCF93DF931F92CDB7DEB7E9
:10250000698341E050E0BE016F5F7F4F0E940F1D65
:102510000F90DF91CF91089522E033E0FC013183E9
:102520002083FB014081518162817381FC014283E0
:1025300053836483758308951F920F920FB60F9291
:1025400011240BB60F922F933F934F935F936F938A
:102550007F938F939F93AF93BF93EF93FF9386E007
:102560009BE00E94B310FF91EF91BF91AF919F91BB
:102570008F917F916F915F914F913F912F910F902C
:102580000BBE0F900FBE0F901F9018951F920F92C9
:102590000FB60F9211240BB60F922F938F939F9328
:1025A000EF93FF93E091160BF091170B8081E09170
:1025B0001C0BF0911D0B82FD12C0908180911F0BAE
:1025C0008F5F8F732091200B821751F0E0911F0BCA
:1025D000F0E0EA5FF44F958F80931F0B01C080817C
:1025E000FF91EF919F918F912F910F900BBE0F90C4
:1025F0000FBE0F901F9018951F920F920FB60F925B
:1026000011240BB60F922F933F934F935F936F93C9
:102610007F938F939F93AF93BF93EF93FF9380919B
:10262000B900887F803609F49CC068F5883209F4C7
:102630005BC090F4803109F454C038F4882309F465
:10264000F6C0883009F44DC0F6C0883109F44CC09A
:10265000803209F45DC0EFC0803409F468C048F4EA
:10266000803309F455C0883309F0E5C080936B08C6
:10267000D8C0803509F44FC0883509F45DC088346E
:1026800009F0D9C0D6C0883909F4C7C0A8F4883782
:1026900009F467C038F4883609F463C0803709F458
:1026A00060C0C9C0883809F4B8C0803909F45FC077
:1026B000803809F0C0C05BC0803B09F486C038F4A4
:1026C000803A09F466C0883A09F47FC0B4C0803CFF
:1026D00009F4A7C0883C09F4A4C0883B09F48AC067
:1026E000AAC080918E0810C090918D0880918C08AE
:1026F000981770F5E0918D0881E08E0F80938D081A
:10270000F0E0E459F74F80818093BB0085EC86C0F0
:1027100080936B088EC0E0918D0881E08E0F8093CE
:102720008D088091BB00F0E0E459F74F80839091D1
:102730008D0880918C086EC0E0918D0881E08E0F2D
:1027400080938D088091BB00F0E0E459F74F8083BF
:102750008091770781116DC081E08093760784EACC
:1027600061C083E0809378071092DA08CFCF809120
:10277000DA08803208F051C0E091DA0881E08E0F6B
:102780008093DA088091BB00F0E0E654F74F808335
:10279000BDCF85EC8093BC00109278078091DA0859
:1027A000803230F4E091DA08F0E0E654F74F10821E
:1027B0006091DA0870E0E091B808F091B9088AEB0E
:1027C00098E019951092DA0836C084E08093780773
:1027D0001092B7081092B608E091B408F091B508CD
:1027E00019958091B608811105C081E08093B608E3
:1027F00010929408E091B70881E08E0F8093B7089B
:10280000F0E0EC56F74F80818093BB009091B708C1
:102810008091B608981708F479CF85E88093BC00BA
:102820000AC085EC8093BC001092780704C0109217
:102830006B080E947611FF91EF91BF91AF919F912C
:102840008F917F916F915F914F913F912F910F9059
:102850000BBE0F900FBE0F901F901895CF93CFB760
:10286000F89480919308811127C0E3E2F5E0849108
:10287000E9E6F5E09491E82FF0E0EE0FFF1FE25B50
:10288000FC4FA591B491EC91E92321F461E085E33B
:102890000E94122861E085E30E948F288CB5806138
:1028A0008CBD8CB580648CBD61E084E30E948F2870
:1028B00061E083E30E948F28809193088F5F80936B
:1028C0009308CFBFCF910895809129088823A9F15B
:1028D000409108025091090260910A0270910B0226
:1028E0002EEF38E08091FE0A9091FF0A0E94A41C0E
:1028F000811102C080E0089540918F0850919008A6
:10290000609191087091920841155105610571051A
:1029100091F02EEF38E08091FE0A9091FF0A0E941C
:10292000A41C882339F310928F08109290081092FB
:102930009108109292081092290881E008958F92D0
:102940009F92AF92BF92EF92FF920F931F93CF93FC
:102950004B015C01C42F8091080290910902A09163
:102960000A02B0910B0288159905AA05BB0501F171
:102970000E946414811102C080E020C08EEFE82E16
:1029800088E0F82E00E012E020E030E0B501A4017C
:102990008091FE0A9091FF0A0E94101C882361F327
:1029A0008092080290920902A0920A02B0920B0251
:1029B00080912908C82BC093290881E0CF911F91ED
:1029C0000F91FF90EF90BF90AF909F908F900895E0
:1029D0004F925F926F927F928F929F92AF92BF922F
:1029E000CF92DF92EF92FF920F931F93CF93DF93DB
:1029F000EC016A017B012801390142305105610572
:102A0000710510F480E073C089859A85AB85BC851B
:102A10000196A11DB11D84179507A607B70790F36E
:102A20008B889C88AD88BE888F89803129F4BB272C
:102A3000AF2D9E2D8D2D09C0DB01CA0147E0B69553
:102A4000A795979587954A95D1F7880E991EAA1E46
:102A5000BB1E8091080290910902A0910A02B091D8
:102A60000B0288169906AA06BB0679F48F89803175
:102A7000A1F4DD24EE24FF24C601880F991FFC0178
:102A8000E250F74F5182408219C040E0C501B401C5
:102A90000E949F148111EACFB5CFE894C7F8DD24D6
:102AA000EE24FF24C601880F991F880F991FFC018F
:102AB000E250F74F408251826282738280912908EE
:102AC0008160809329088A89823080F08D819E817F
:102AD000AF81B885880E991EAA1EBB1E80928F08F2
:102AE00090929008A0929108B092920881E0DF91B4
:102AF000CF911F910F91FF90EF90DF90CF90BF90FB
:102B0000AF909F908F907F906F905F904F900895BF
:102B10008F929F92AF92BF92CF92DF92EF92FF92ED
:102B20000F931F93CF93DF93FC0181859285A3853B
:102B3000B4850196A11DB11D84179507A607B70797
:102B400010F480E05CC083899489A589B689C7891F
:102B5000C03129F4852E962EA72EBB2409C04A0128
:102B60005B01C7E0B694A79497948794CA95D1F770
:102B7000E9016A017B018F01BC01CD01680D791D5E
:102B80008A1D9B1D8090080290900902A0900A0265
:102B9000B0900B02681579058A059B0599F4F80138
:102BA00087898031A9F4B701A601552766277727C1
:102BB000440F551FFA01E250F74F80819181A0E048
:102BC000B0E018C040E00E949F148111E8CFB9CF57
:102BD000B701A6014F77552766277727440F551F62
:102BE000440F551FFA01E250F74F80819181A28175
:102BF000B381BF7088839983AA83BB8381E0DF910F
:102C0000CF911F910F91FF90EF90DF90CF90BF90E9
:102C1000AF909F908F9008954F925F926F927F92A6
:102C2000AF92BF92CF92DF92EF92FF920F931F93DA
:102C3000CF93DF9300D01F92CDB7DEB78C014983CD
:102C40005A836B837C835901C12CD12C7601412C92
:102C500082E0582E612C712C49815A816B817C81D4
:102C60009E012F5F3F4FC8010E948815882351F1B4
:102C7000D301C201F801058404C0880F991FAA1F5F
:102C8000BB1F0A94D2F7C80ED91EEA1EFB1E49814B
:102C90005A816B817C818789803129F088EF9FEF91
:102CA000AFEFBFE004C088EF9FEFA0E0B0E04817AF
:102CB00059076A077B0780F2F501C082D182E28260
:102CC000F38281E00F900F900F900F90DF91CF91E2
:102CD0001F910F91FF90EF90DF90CF90BF90AF903A
:102CE0007F906F905F904F9008954F925F926F9298
:102CF0007F92AF92BF92CF92DF92EF92FF920F93AB
:102D00001F93CF93DF93CDB7DEB72B970FB6F89411
:102D1000DEBF0FBECDBF7C01CE0101966C01FC0170
:102D200090E28BE08C0D91938E13FDCFDA0130E0B1
:102D300047E09D91992339F19E3219F0EEE3F3E0DB
:102D40000AC04A3009F472C138E04AE0F2CF319645
:102D5000891709F46BC184918111F9CF431708F4E5
:102D600065C18FED890F8E3508F060C181E0830F5A
:102D7000F601E30FF11D3FE9390F3A3108F49052A3
:102D80009083382FD6CF8981803209F44FC1B22E7B
:102D90008B01DB015B968D919C915C97F701948F81
:102DA000838F16961D921D921D921C921997FB01FE
:102DB0001286138614861586712CF80182859385F8
:102DC000A485B585438954896589768984179507D3
:102DD000A607B70708F061C025E0B695A7959795B7
:102DE00087952A95D1F7F82FFF706F2ED801159689
:102DF0008C91823008F41AC1C8010E945A0C97FDC8
:102E000015C1F80182859385A485B5854F96A11DCE
:102E1000B11D82879387A487B587F0E26F9EC001BA
:102E20001124BC016250774F6115710509F4FEC091
:102E3000DB012C91222319F0253EC1F427C071102B
:102E40000EC0F701628A4091080250910902609118
:102E50000A0270910B0246875787608B718BFC01C9
:102E6000E250F74F8081811113C015C04BE050E054
:102E7000C6010E94D04B892B09F09FCF8B2D807308
:102E8000803309F4D3C04B2D662DCCC07720C9F216
:102E90007724739492CF772473948B2D827182312F
:102EA00009F0C4C07720D1F0D7011E966D917D91B5
:102EB0008D919C91519741E00E949F14882309F4C1
:102EC000B5C0F7016289F0E26F9FB0011124625032
:102ED000774F6115710509F079C0A8C0D801159622
:102EE0008C91823009F4A2C0C8010E942C1A882358
:102EF00009F49CC0D8015B96ED91FC915C97169605
:102F00004D905D906D907C901997B2E04B1A5108EE
:102F100061087108058404C0440C551C661C771CAC
:102F20000A94D2F786859785A089B189480E591EE3
:102F30006A1E7B1EA480E1E04E1A510861087108E8
:102F4000AA2009F10E946414882309F46FC0EEEFEF
:102F5000F8E011922AE0EE3FF207D9F7D301C2015F
:102F60008A0D911DA11DB11D809308029093090245
:102F7000A0930A02B0930B0280912908816080938C
:102F80002908AA94DDCFD8015B96ED91FC915C975E
:102F900080E092E0A0E0B0E0058404C0880F991FB3
:102FA000AA1FBB1F0A94D2F7F80143895489658987
:102FB0007689840F951FA61FB71F838B948BA58BD3
:102FC000B68BD70152961C926EEF78E080E2FB013F
:102FD00011928A95E9F78BE0F601DB0101900D92E1
:102FE0008A95E1F781E298E2DB0151969C938E93FA
:102FF000509720E038E01F963C932E931E975396EF
:103000009C938E93529759969C938E93589757966C
:103010003C932E9356970E946414882339F04B2DCD
:10302000F7016289C7010E94181901C080E02B9640
:103030000FB6F894DEBF0FBECDBFDF91CF911F91C9
:103040000F91FF90EF90DF90CF90BF90AF907F9067
:103050006F905F904F9008951F93CF93DF93182F39
:1030600066E270E00E94A30DC82FD0E067E270E036
:10307000812F0E94A30DDC2FCC279E01282BC90194
:10308000DF91CF911F910895CF93DF93EC018D8154
:103090008823A1F18C8187FF2DC06E857F8588896B
:1030A000998941E00E949F14882341F1EA8980E2D6
:1030B000E89FF0011124DF01A250B74F1097F1F003
:1030C0008D81823050F44B895C896D897E895C9654
:1030D0004D935D936D937C935F978F89988DA98DA8
:1030E000BA8DE250F74F938F828FB58BA48B8C8172
:1030F0008F778C83DF91CF910C94641480E0DF9103
:10310000CF9108958F929F92AF92BF92CF92DF920C
:10311000EF92FF920F931F93CF93DF93EC018D817A
:10312000811102C080E077C00B891C892D893E89FE
:103130000417150726073707A8F36A017B018230B9
:1031400029F4CA86DB86EC86FD860DC0C114D10445
:10315000E104F10451F41E821F82188619861A8632
:103160001B861C861D8681E056C08A849B84AC84A5
:10317000BD84EB8DFC8D258530E0275F3F4FB50189
:10318000A4014150510961097109022E04C07695CC
:103190006795579547950A94D2F7D701C6010197CD
:1031A000A109B10904C0B695A795979587952A9569
:1031B000D2F784179507A607B70720F089288A2831
:1031C0008B2849F44F89588D698D7A8D4E835F83A2
:1031D0006887798704C0841B950BA60BB70B4C013D
:1031E0005D018E010A5F1F4F81149104A104B10497
:1031F00009F4A7CF4E815F816885798598018B8D11
:103200009C8D0E94881591E0891A9108A108B10847
:103210008111EACF87CFDF91CF911F910F91FF905E
:10322000EF90DF90CF90BF90AF909F908F900895D8
:103230008F929F92AF92BF92CF92DF92EF92FF92C6
:103240000F931F93CF93DF9300D01F92CDB7DEB7BC
:103250007C0180E2689F6001112496012250374F63
:10326000D9011B969C91917121F0842F827409F0F1
:1032700097C0142FF701628B809108029091090288
:10328000A0910A02B0910B0286879787A08BB18B21
:10329000F601E250F74F4489558960E070E0BA01C9
:1032A00055274427D70157964D935D936D937C9393
:1032B0005A97828D938DA0E0B0E0482B592B6A2B52
:1032C0007B2BD70157964D935D936D937C935A97C3
:1032D000D9011B968C91887159F4848D958DA68D9A
:1032E000B78DF701838B948BA58BB68B81E012C0D1
:1032F000803109F055C097012D5E3F4FD7015B9695
:103300008D919C915C970E940C16882309F448C00B
:1033100084E0F7018583812F8F70D70114968C93F9
:103320001497F70116821782108611861A961D923D
:103330001D921D921C921D9716FF34C015968C91FC
:10334000813071F511FF2CC0F701438954896589DB
:103350007689452B462B472B09F461C040E050E0AD
:10336000BA01C7010E9482188823D1F0F70187882B
:10337000908CA18CB28CC38CD48C82E090E0A0E0C5
:10338000B0E0F60180839183A283B3839E012F5F17
:103390003F4FB501A401C6010E948815811104C0E8
:1033A00080E03DC081E03BC000E010E09801B50145
:1033B000A401C6010E94E814882391F389809A80B1
:1033C000AB80BC80D60157968C91803129F088EF74
:1033D0009FEFAFEFBFE004C088EF9FEFA0E0B0E049
:1033E00088169906AA06BB0688F2D70157961D9241
:1033F0001D921D921C925A97F701138A148A158AFE
:10340000168A848180688483C7010E9444188823B7
:1034100039F240E050E0BA01C7010E9482180F90D3
:103420000F900F900F90DF91CF911F910F91FF9010
:10343000EF90DF90CF90BF90AF909F908F900895C6
:10344000CF93DF93EC010E944418882311F01D8272
:1034500081E0DF91CF9108953F924F925F926F92FA
:103460007F928F929F92AF92BF92CF92DF92EF9214
:10347000FF920F931F93CF93DF93CDB7DEB72C97B7
:103480000FB6F894DEBF0FBECDBF5C01DC015B96CA
:103490008D909C905C971696CD90DD90ED90FC9071
:1034A0001997C114D104E104F10439F0BFEFCB1A2C
:1034B000DB0AEB0AFB0A312C07C0F401C080D18083
:1034C000E280F38033243394F40181859285A385CF
:1034D000B4859C01AD012F5F3F4F4F4F5F4F298750
:1034E0003A874B875C87260137011D821E821F8227
:1034F0001886F40181859285A385B4852D813E814E
:103500004F815885281739074A075B0708F063C0C1
:1035100089859A85AB85BC858C159D05AE05BF0553
:1035200050F482E0C82ED12CE12CF12C92E0492EEF
:10353000512C612C712C9E012F5F3F4FB701A601CA
:10354000C4010E948815882309F445C089819A81A5
:10355000AB81BC81892B8A2B8B2B41F02601370153
:103560009FEF491A590A690A790A05C0C414D5049B
:10357000E604F70491F02D813E814F8158852F5F3D
:103580003F4F4F4F5F4F2D833E834F8358873FEF11
:10359000C31AD30AE30AF30AACCF0FEF1FEF2FEFE2
:1035A0003FE0B301A201C4010E94E814882399F00E
:1035B000D50116964D915D916D917C9119974115AC
:1035C00051056105710549F093018201C4010E9412
:1035D000E814811102C080E02AC0D50116964D92F0
:1035E0005D926D927C921997332051F0D301C20104
:1035F0000196A11DB11DF40180839183A283B38341
:10360000F5018789908DA18DB28D892B8A2B8B2B0B
:1036100069F4D50157964D925D926D927C925A97BE
:1036200014968C911497806814968C9381E02C9654
:103630000FB6F894DEBF0FBECDBFDF91CF911F91C3
:103640000F91FF90EF90DF90CF90BF90AF909F9041
:103650008F907F906F905F904F903F900895CF93A1
:10366000DF93EC018091DD08811109C081E0809336
:10367000DD088091AF0B9091B00B0E94F30760E0E2
:103680008C81DF91CF910C94122861E0FC01848140
:103690000E9412288091DD08882321F01092DD0815
:1036A0000C94F20708952C9A08952C9808951F936E
:1036B000CF93DF93182F60E270E00E94A30DC82F14
:1036C000D0E061E270E0812F0E94A30DDC2FCC27B7
:1036D0009E01282BC901DF91CF911F9108958EBDC6
:1036E00000000DB407FEFDCF8EB508958FEF0C944A
:1036F0006F1B0F931F93CF93DF93EB010E9405295C
:103700008B010E94761B8F3F49F00E940529601BA8
:10371000710B6C177D07A8F380E001C081E0DF9199
:10372000CF911F910F910895CF93DF93EC018E817C
:10373000882389F08F8198859C012F5F3F4F3887C0
:103740002F838230924018F40E94761BF3CFCE0173
:103750000E94451B1E82DF91CF910895CF92DF9288
:10376000FF920F931F93CF93DF9300D01F92CDB79B
:10377000DEB76C01F62E29833A834B835C830E946B
:10378000941BC6010E942F1B6CE271E0C6010E94CF
:10379000791B8F2D80640E946F1B08E110E05C8113
:1037A0004B813A812981DA01C901002E04C0B69506
:1037B000A795979587950A94D2F729833A834B83E7
:1037C0005C830E946F1B0850110929813A814B814B
:1037D0005C81083F8FEF180731F7FF2029F0E8E000
:1037E000FE1204C087E803C085E901C08FEF0E9484
:1037F0006F1B10E00E94761BF601828787FF04C0D2
:103800001F3F11F01F5FF6CF0F900F900F900F909A
:10381000DF91CF911F910F91FF90DF90CF9008958E
:10382000AF92BF92CF92DF92EF92FF920F931F93CE
:10383000CF93DF93EC016901C801820F931F8130A0
:10384000924008F070C08E81882371F08881998140
:10385000AA81BB81481759076A077B0729F48F8122
:103860009885C816D906B0F5488359836A837B8347
:103870008B85833039F089E0440F551F661F771F11
:103880008A95D1F79A01AB0161E1CE010E94AE1B8E
:10389000882319F083E08D8346C00E9405295B01CF
:1038A0000E94761B8A878F3F49F40E9405296A1976
:1038B0007B096D327140A0F38FE003C08E3F31F081
:1038C0008DE08D83CE010E94451B2DC018861F827E
:1038D00081E08E838F8198858C159D0540F40E9430
:1038E000761B8F819885019698878F83F3CF670128
:1038F000E00EF11ECE14DF0431F00E94761BF601BB
:1039000081936F01F7CF8F819885080F191F188752
:103910000F838985882319F00115124048F0CE01E4
:103920000E94941B05C0CE010E94451B80E001C08F
:1039300081E0DF91CF911F910F91FF90EF90DF9089
:10394000CF90BF90AF900895EF92FF920F931F9387
:10395000CF93DF93EC0179014115510561057105A4
:1039600011F482E13CC08B85833039F089E0440F4B
:10397000551F661F771F8A95D1F79A01AB0168E141
:10398000CE010E94AE1B882311F084E028C08EEF88
:103990000E946F1B87018EEFF81AF80181918F0149
:1039A0000E946F1B0E151F05C1F78FEF0E946F1B42
:1039B0008FEF0E946F1B0E94761B8A878F71853064
:1039C00031F081E18D83CE010E94451B09C068E57D
:1039D00072E0CE010E94791B811107C085E18D83C1
:1039E000CE010E94451B80E013C020E030E0A90119
:1039F0006DE0CE010E94AE1B811104C00E94761BB7
:103A0000882311F084E1EBCFCE010E94451B81E0B9
:103A1000DF91CF911F910F91FF90EF9008952F921A
:103A20003F924F925F926F927F928F929F92AF924E
:103A3000BF92CF92DF92EF92FF920F931F93CF939B
:103A4000DF9300D01F92CDB7DEB78C015B011A0166
:103A5000DC0115968C9115978130C9F414968C91E0
:103A600081FF15C082FF1BC0F80143895489658915
:103A7000768982859385A485B58584179507A607E1
:103A8000B70769F0C8010E948218811108C081E05F
:103A900090E0F8019383828380E090E039C1610176
:103AA00083C0D8015B968D919C915C97FC01248129
:103AB00021502A013B0139E076946794579447944A
:103AC0003A95D1F7722E74207A01F1E0FF22772027
:103AD00009F476C080E092E08E199F0946018C15AA
:103AE0009D0508F44C01D8015B962D913C915C97A3
:103AF00016968D919D910D90BC91A02D0297A109D4
:103B0000B109F901058404C0880F991FAA1FBB1FC2
:103B10000A94D2F74685578560897189840F951F6D
:103B2000A61FB71F9C01AD01270D311D411D511D61
:103B300029013A01811432E0930609F088C080918E
:103B4000080290910902A0910A02B0910B0284151B
:103B50009505A605B70559F48FEF9FEFDC0180931B
:103B6000080290930902A0930A02B0930B029501F8
:103B7000B301A2018091FE0A9091FF0A0E94A41C49
:103B8000882309F484CF9EEFB91AC818D908F80120
:103B900082859385A485B585880D991DA11DB11DCC
:103BA00082879387A487B587D8011A964D915D9136
:103BB0006D917C911D97C114D10409F072CF87C01B
:103BC000E114F10409F086CF16964D915D916D9147
:103BD0007C911997411551056105710559F4579666
:103BE0008D919D910D90BC91A02D0097A105B105DF
:103BF00041F521C09E012F5F3F4F0E948815882309
:103C000009F44BCF89819A81AB81BC81F801238D66
:103C1000348DF9012789203129F048EF5FEF6FEFEC
:103C20007FE004C048EF5FEF60E070E08417950725
:103C3000A607B70730F0C8010E942C1A81114ACF9D
:103C400026CFF80186839783A087B18743CFE114FD
:103C5000F10429F5D8011A964D915D916D917C91F1
:103C60001D9753968D919D910D90BC91A02D481755
:103C700059076A077B0798F00E946414882309F4A7
:103C800006CF409208025092090260920A02709296
:103C90000B028091290881608093290808C041E0C7
:103CA000C301B2010E949F14882309F4F0CED5010C
:103CB000F701E250F74FCF01880D991DE817F9077A
:103CC00019F02D912193FACFA80CB91C5ECF539611
:103CD0008D919D910D90BC91A02D84179507A607FD
:103CE000B70740F4F801438B548B658B768B848146
:103CF00080688483D80114968C9183FD02C0C10131
:103D000007C0C8010E944418882309F4C0CEF7CF29
:103D10000F900F900F900F90DF91CF911F910F9107
:103D2000FF90EF90DF90CF90BF90AF909F908F90DB
:103D30007F906F905F904F903F902F900895CF921B
:103D4000DF92EF92FF920F931F93CF93DF93EC01DB
:103D50007A018B016C01C40ED51ECC15DD05A9F0CE
:103D60000E94551B8FE00E946F1B8D2F0E946F1BBE
:103D70008C2F0E946F1B219680E00E946F1BF80120
:103D800081938F010E94531BE8CFC701DF91CF9130
:103D90001F910F91FF90EF90DF90CF900895CF92F9
:103DA000DF92EF92FF920F931F93CF93DF93EC017B
:103DB0007A018B016C01C40ED51ECC15DD05A1F076
:103DC0000E94551B80EF0E946F1B8D2F0E946F1B5E
:103DD0008C2F0E946F1B2196F80181918F010E9408
:103DE0006F1B0E94531BE9CFC701DF91CF911F9139
:103DF0000F91FF90EF90DF90CF9008951F93CF9396
:103E0000DF931F921F92CDB7DEB7182F6A83998375
:103E10000E94551B80EF0E946F1B9981892F0E9481
:103E20006F1B812F0E946F1B6A81862F0E946F1B60
:103E30000E94531B81E00F900F90DF91CF911F9153
:103E40000895EF92FF920F931F93CF93DF931F92EA
:103E50001F92CDB7DEB7182F7B0100E021E040E0D4
:103E600059E06DE370E0CE0101960E94F60789816A
:103E70009A810E94F30721E041E050E0B701812FD1
:103E80000E948E210E94F20781E090E00F900F9037
:103E9000DF91CF911F910F91FF90EF900895DF92E6
:103EA000EF92FF920F931F93CF93DF931F921F9276
:103EB000CDB7DEB7D82E00E021E040E059E06DE359
:103EC00070E0CE0101960E94F60789819A810E94D6
:103ED000F30700E010E08D2D0E942C187C01892B47
:103EE00021F08D2D0E942C188C010E151F0599F7BD
:103EF0000E94F207C8010F900F90DF91CF911F91A0
:103F00000F91FF90EF90DF9008958F929F92AF9264
:103F1000BF92CF92DF92FF920F931F93CF93DF93C5
:103F20001F921F92CDB7DEB7F82E4B016A0100E059
:103F300021E040E059E06DE370E0CE0101960E947F
:103F4000F60789819A810E94F30700E010E08F2D27
:103F50000E942C185C01892B21F08F2D0E942C18B7
:103F60008C010A151B0599F70115110599F463E0F9
:103F700070E08F2D0E94A30D8431F1F08823E1F0D1
:103F800001E010E08C3111F400E010E01195019592
:103F9000110912C0C016D1060CF4860110161106C4
:103FA0005CF420E0A801B4018F2D0E948E2160E412
:103FB00070E08F2D0E947E210E94F207C8010F90B1
:103FC0000F90DF91CF911F910F91FF90DF90CF90D5
:103FD000BF90AF909F908F9008950F931F93CF93B2
:103FE000DF931F921F92CDB7DEB7182F00E021E0BC
:103FF00040E059E06DE370E0CE0101960E94F607C3
:1040000089819A810E94F30760E170E0812F0E940C
:104010007E214FEF62E070E0812F0E94990D0E9497
:10402000F2070F900F90DF91CF911F910F9108959C
:10403000CF92DF92EF92FF920F931F93CF93DF9374
:104040001F921F92CDB7DEB7182FC62E7A01D22E3F
:104050000E94ED1F00E021E040E059E06DE370E0D8
:10406000CE0101960E94F60789819A810E94F3078A
:104070004C2D4D2960E070E0812F0E94990DE114D4
:10408000F10459F4E090DB08F090DC088FEFE81AB7
:10409000F80AF092DC08E092DB084F2D64E070E053
:1040A000812F0E94990D4E2D65E070E0812F0E94B6
:1040B000990D61E070E0812F0E947E210E94F2073D
:1040C00081E00F900F90DF91CF911F910F91FF90A2
:1040D000EF90DF90CF9008950F931F93CF93DF93CE
:1040E00000D0CDB7DEB7182F00E021E040E059E066
:1040F0006DE370E0CE0101960E94F60789819A81F6
:104100000E94F30763E070E0812F0E94A30D8B8370
:104110000E94F2078B810F900F900F90DF91CF914B
:104120001F910F910895AF92BF92CF92DF92EF92BD
:10413000FF920F931F93CF93DF931F92CDB7DEB7FC
:104140005C01D62EE72EFC018585811105C0C501D5
:104150000E94292F811106C0F50113861586148649
:1041600080E065C040E060EFC5010E94BA2E01E02A
:10417000F12CC12C11E0C5010E94672E682FC501EA
:1041800069830E94672E6981613019F48130B9F426
:1041900033C04F2D50E068131BC0F50183851817FD
:1041A00030F4E40FF51F8381802349F402C018170F
:1041B00031F060E0193058F4F501148708C0F501BA
:1041C000EF0DF11D8381802B838361E009C0C12E37
:1041D000F501E40FF51F9381802F80958923838358
:1041E000C5010E948B2E1F5F000F11F4F39401E0B4
:1041F000F7E0FF1508F0BFCF113408F4ADCFF5019B
:10420000C386C11002C081E08587F50183818823C0
:1042100009F4A2CFD5011396ED2DFE2D9501255F52
:104220003F4F8D918193A217B307D9F781E00F908B
:10423000DF91CF911F910F91FF90EF90DF90CF9082
:10424000BF90AF900895CF93DF93EB01DC011596FB
:10425000ED91FC911697138615861486DF011B9647
:1042600033961E92AE17BF07E1F7BE01FC018581B0
:1042700096810E949320882349F067E0CE010E9436
:104280005A2E9F81891302C081E001C080E0DF9136
:10429000CF910895CF92DF92EF92FF92CF93DF9369
:1042A0006C01990FEE08FF08F7FE1BC06DE286E077
:1042B0009BE00E941B32EC0144275527BA014C19A0
:1042C0005D096E097F092AE086E09BE00E94373293
:1042D0008C0F9D1FDF91CF91FF90EF90DF90CF90DB
:1042E00008952AE0B701A60186E09BE0DF91CF9117
:1042F000FF90EF90DF90CF900C943732CF93C82F80
:10430000462F61E070E00E94990D61E070E08C2F13
:104310000E94A30D8111F9CFCF9108958F929F92A2
:10432000AF92BF92CF92DF92EF92FF920F931F93C3
:10433000CF93DF93B82E4B018A01A22E68E270E082
:104340000E94A30DC82FD0E069E270E08B2D0E947F
:10435000A30DDC2FCC27C82B9E013770CB2CD12C82
:10436000C601880F991FAC014A51574F6A01FA01E3
:1043700080819181820F931FA801420F531F41300A
:10438000584098F060E078E07B01E21AF30AA70158
:10439000B4010E949F1EA8014E195F09B4016E0D61
:1043A0007F1DF6018081918102C0A801B4010E94A5
:1043B0009F1EA1100EC0C00FD11F4D2F68E270E0EC
:1043C0008B2D0E94990D4C2F69E270E08B2D0E947D
:1043D000990DDF91CF911F910F91FF90EF90DF909A
:1043E000CF90BF90AF909F908F9008959F92AF9283
:1043F000BF92CF92DF92EF92FF920F931F93CF93D2
:10440000DF93982E8B015A01690164E270E00E94EB
:10441000A30DE82EF12C65E270E0892D0E94A30D1A
:10442000FE2CEE24E82AE701C00FD11F9E01377051
:10443000E92CF12CC701880F991FAC014252574F4C
:104440007A01FA0180819181820F931FA9014C0D9D
:104450005D1D4130584090F000E018E0021B130B46
:10446000A801B5010E94CF1EA601401B510BB5014A
:10447000600F711FF7018081918102C0A601B50113
:104480000E94CF1ECC0DDD1D4D2F64E270E0892D02
:104490000E94990D4C2F65E270E0892DDF91CF913C
:1044A0001F910F91FF90EF90DF90CF90BF90AF9052
:1044B0009F900C94990DFF920F931F93CF93DF93CE
:1044C000F82EC0E0D0E08F2D0E94571B8C01892B65
:1044D00021F08F2D0E94571BEC01C017D10799F7CF
:1044E000CE01DF91CF911F910F91FF9008952F92F0
:1044F0003F924F925F926F927F928F929F92AF9274
:10450000BF92CF92DF92EF92FF920F931F93CF93C0
:10451000DF93CDB7DEB765970FB6F894DEBF0FBE59
:10452000CDBF7C016B013A01FB0120E080E090E00F
:104530006AE03191332309F140ED430F4A3080F4B2
:10454000689FA001699F500D1124CA01C097830F75
:10455000911D37FD9A958F3F910559F350F313C084
:104560003E3289F4233079F0D301A20FB11D1296A7
:104570008C932F5F80E090E0DCCF233021F4F301B7
:10458000858381E021C0F701428153816481758177
:104590008091020B9091030BA091040BB091050B3D
:1045A000481759076A077B0709F49EC10E9405292D
:1045B0008701085F1F4F6F7077277C5FC8010E94DB
:1045C000A70B813019F080E090E0F3C182E093E026
:1045D0009A838983F70182819381A481B5818B833A
:1045E0009C83AD83BE8345E350E0BE016F5F7F4F88
:1045F000C8010E94500F892B19F4C12CD12C6FC116
:104600000E940529F7017783668376276727762737
:104610007A83698342E050E0BE016F5F7F4FC8013B
:104620000E94D10A81E090E09E878D8742E050E0B1
:10463000BE01635F7F4FC8010E94D10A80E091E014
:104640009E878D8742E050E0BE01635F7F4FC801C7
:104650000E94D10A1E861D8642E050E0BE01635FC3
:104660007F4FC8010E94D10A42E050E0BE01635F63
:104670007F4FC8010E94D10A42E050E0BE01635F53
:104680007F4FC8010E94D10A5601F501808188231D
:1046900011F1F6015F018191811115C045018C185E
:1046A0009D081814190494F48F8641E050E0BE016F
:1046B000615F7F4FC8010E94D10AA401B601C80101
:1046C0000E94D10A03C08E3229F7E8CF6501FFEFBF
:1046D000CF1ADF0ADACF1F8641E050E0BE01615FEA
:1046E0007F4FC8010E94D10AC12CDD24D394DE86FD
:1046F000CD8642E050E0BE01635F7F4FC8010E945B
:10470000D10ADE86CD8642E050E0BE01635F7F4F76
:10471000C8010E94D10AC8010E94C90D892B09F461
:104720006CCF63E0A62EB12CF2E06F0E711C0E94DC
:1047300005291B012C01C8010E946F0A18161906D1
:10474000A4F00E940529DC01CB0182199309A40978
:10475000B50989389341A105B105D0F462E370E051
:1047600080E090E00E94CB28E6CFF70142815381A0
:1047700064817581808D918DA28DB38D4817590705
:104780006A077B0741F4848D958DC59721F406C097
:104790002FEF3FEF9AC02EEF3FEF97C0F70181A1B7
:1047A00092A10C970CF4A6C04CE050E0BE016F5FE4
:1047B0007F4FC8010E94090A8B8190E0982F8827BB
:1047C0002C81822B9A8B898B298130E0322F2227F2
:1047D0004A81242BF701468157814217530709F07C
:1047E00086C097FF84C08F709270892B09F0DEC05D
:1047F000CF80D12CDC2CCC248885C82AC114D104CC
:1048000009F4D1C0812C912C8D8190E0982F8827BC
:104810002E81822B8816990608F46FC0812C912C6A
:1048200041E050E0BE016D5E7F4FC8010E94090A61
:104830008B89982F907C09F093C0811186C08B8959
:104840008111EECF42E050E0BE01615F7F4FC801B1
:104850000E94090A42E050E0BE01635F7F4FC80139
:104860000E94090AC8010E94280AC8010E94280A59
:10487000C8010E94280AC8010E94280A42E050E0AC
:10488000BE016F5E7F4FC8010E94090A8F8598891B
:104890008115914009F069C02D853E853227232777
:1048A00032272130310509F060C089899A89811544
:1048B000944009F075C044E050E0B301C8012C8B6E
:1048C0003D8B0E94090A2C893D896901F1E0AF1AEC
:1048D000B10829F02FEFC216D20609F428CFC8017B
:1048E0000E94920BC60165C08EEF9FEF62C02CEF55
:1048F0003FEFEBCF2DEF3FEFE8CF41E050E0BE01BF
:10490000635F7F4FC8010E94090A8D85811113C022
:104910008D858111F2CFC8010E94280AC8010E942A
:10492000280AC8010E94280AC8010E94280AFFEF2D
:104930008F1A9F0A69CF8D859FEF980F9D878823D7
:1049400039F3C8010E94280AF6CF8B899FEF980F90
:104950009B8B882309F473CFC8010E94280AF5CFE6
:10496000C8010E94280A1B8A6ACF412C512C8989D0
:104970009A899827892798274816590638F4C80134
:104980000E94280A8FEF481A580AF1CFEFEF8E1ACB
:104990009E0A8C149D0409F043CF26EF3FEF95CF7C
:1049A00027EF3FEF92CF2AEF3FEF8FCF2BEF3FEF75
:1049B0008CCF65960FB6F894DEBF0FBECDBFDF91EA
:1049C000CF911F910F91FF90EF90DF90CF90BF900C
:1049D000AF909F908F907F906F905F904F903F909F
:1049E0002F90089580E3FB0180833296842F829577
:1049F0008F7090E1899F401911244A3014F4405D72
:104A000001C0495C4293482F8111F0CF08952F9245
:104A10003F924F925F926F927F928F929F92AF924E
:104A2000BF92CF92DF92EF92FF920F931F93CF939B
:104A3000DF93CDB7DEB7E3970FB6F894DEBF0FBEB6
:104A4000CDBF7C011A012B0139010E9405294B01C0
:104A50005C0187010D5B1F4FC8010E946F0A181689
:104A60001906A4F00E940529DC01CB0188199909D7
:104A7000AA09BB09281639064A065B06D8F062E384
:104A800070E080E090E00E94CB28E6CF42E250E068
:104A9000BE016F5F7F4FC8010E94090A8981823081
:104AA00011F080E061C1F801848995898334910512
:104AB000C1F702C08FEF58C16D817E818F819885CB
:104AC0000E949A494B015C01F301608371838283E8
:104AD000938346E050E0B701685F7F4FCE014D966B
:104AE0000E94D04B892BE9F6F70180819181A28148
:104AF000B38188169906AA06BB0698F2848195812F
:104B0000A681B78188159905AA05BB0550F2898948
:104B10009A89AB89BC8986879787A08BB18B8EECED
:104B2000A82EB12CC8010E94280AF1E0AF1AB108E2
:104B3000C9F719A6670182E2C80ED11CF701B69623
:104B4000FBA7EAA7C7018A969DA78CA73C974F01B0
:104B500089969FA78EA73897F9ABE8AB1701F6E1C6
:104B60002F0E311CC5979BAB8AABF801818D928DBE
:104B7000181619060CF0F7C0C8010E94280A8333E2
:104B8000910509F4CBC0FCF481309105C9F11CF406
:104B9000892B59F3DCC083309105D1F1069709F0D8
:104BA000D6C0C8010E94280A5C0144E050E06AA90E
:104BB0007BA9C8010E94090A412C512CBB24F4E0B6
:104BC000AF1AB10840C08A33910509F47BC03CF4A8
:104BD0008533910569F0C69709F440C0B8C08B339E
:104BE000910509F485C08F3F910509F4BECFAFC090
:104BF000C8010E94280AC8010E94280A89A7B5CFC7
:104C0000C8010E94280A44E050E068A979A93AC086
:104C1000C8010E94280A5C0144E050E0B101C801CB
:104C20000E94090A412C512CBB2494E0A91AB10816
:104C30004A145B040CF099CFC8010E94280AEFEFD8
:104C40004E1A5E0AF5CF4A145B040CF08ECFC801F1
:104C50000E94280A8FEF481A580AF5CFC8010E940F
:104C6000280AB82EF701828D811110C0838D811121
:104C70000DC0848D81110AC0858D811107C044E06B
:104C800050E0B401C8010E94090A6FCFEEA5FFA54C
:104C90004080518062807380B401CE0183960E946F
:104CA0008C128DA19EA1AFA1B8A584159505A6056E
:104CB000B70529F3BB2009F458CFC8010E94280A80
:104CC000BA94F8CFC8010E94280A44E050E06AA5CF
:104CD0007BA5C8010E94090AF70166A177A180A5FA
:104CE00091A50E949A4966A377A380A791A73DCF7B
:104CF000C8010E94280A44E050E06CA57DA5C801C7
:104D00000E94090AF70162A573A584A595A50E94D2
:104D10009A4962A773A784A795A727CFC8010E94C5
:104D2000280A44E050E0B601C8010E94090AF701D0
:104D300062A173A184A195A10E949A4962A373A361
:104D400084A395A366A777A780AB91AB0ECFC801CC
:104D50000E94280AB82EBB2009F407CFC8010E9480
:104D6000280ABA94F8CF89A5E3960FB6F894DEBF67
:104D70000FBECDBFDF91CF911F910F91FF90EF90AC
:104D8000DF90CF90BF90AF909F908F907F906F906B
:104D90005F904F903F902F9008953FB7F894809187
:104DA000F3089091F408A091F508B091F60826B5A3
:104DB000A89B05C02F3F19F00196A11DB11D3FBF53
:104DC000BA2FA92F982F8827820F911DA11DB11DE1
:104DD000BC01CD0142E0660F771F881F991F4A95DD
:104DE000D1F70895CF93DF93EC01888199810097E3
:104DF00011F00E944A4A198218821D821C821B826D
:104E00001A82DF91CF9108957F928F929F92AF92F5
:104E1000BF92CF92DF92EF92FF920F931F93CF93A7
:104E2000DF93CDB7DEB7A6970FB6F894DEBF0FBEFF
:104E3000CDBF8C01762E942E852E20E2B22ECE018F
:104E400001967C01FC012B2D11922A95E9F782E055
:104E500093E09AA389A38FEF8BA38CA38DA38EA33A
:104E6000680183E4C80ED11C43E450E0BE016F5DCD
:104E70007F4FC6010E94500F019609F4BFC081E028
:104E800089838A8386E0A82EAB821C82F801648124
:104E90007581868197810E949A496D837E838F8375
:104EA000988789869A8680E890E09C878B874CE17A
:104EB00050E0B701C6010E94D10AF7012B2D1192D3
:104EC0002A95E9F7480188E0880E911CF401D70182
:104ED00001900D92AA94E1F740E150E0B701C601BC
:104EE0000E94D10AF7011192BA94E9F796E0A92E2F
:104EF000B12C40E250E0B701C6010E94D10AF1E0B6
:104F0000AF1AB108B1F783E6898392E89A8393E5F3
:104F10009B838C8385E38D8381E08E837F829DE3F9
:104F2000988797E099878A8786E0F401DE011B96CF
:104F300001900D928A95E1F78CE0898B8A8B62E66D
:104F400077E0CE0143960E94F14BF8014385BE0104
:104F5000675E7F4FC8010E94F224F8014485BE01BC
:104F6000655E7F4FC8010E94F224F8014585BE01AD
:104F7000635E7F4FC8010E94F2244EE150E0B7010A
:104F8000C6010E94D10AF3E07F121EC082E389832A
:104F900084E08A83F80196859B8397859C8390891A
:104FA0009D8391899E8396E39F838887828D8987DD
:104FB000838D8A87848D8B87858D8C874CE050E02C
:104FC000B701C6010E94D10A87E3898386E08A83FC
:104FD00091E09B8393E09C838D838FE08E838AE3B3
:104FE0008F838BE388878FEF898749E050E0B70193
:104FF000C6010E94D10AC6010E94C90DA6960FB62D
:10500000F894DEBF0FBECDBFDF91CF911F910F91FE
:10501000FF90EF90DF90CF90BF90AF909F908F90D8
:105020007F900895362F90E0FC01EE57FC4F44919D
:10503000FC01EC5CFA4F2491FC01E251FB4F94918E
:10504000992309F46BC0442309F455C050E0FA01D8
:105050003197E231F10508F04EC08827EE58FF4F36
:105060008F4F0C949249809180008F7707C0809178
:1050700080008F7D03C080918000877F80938000B7
:105080003AC084B58F7702C084B58F7D84BD33C0AC
:105090008091B0008F7703C08091B0008F7D8093A6
:1050A000B00029C0809190008F7707C08091900058
:1050B0008F7D03C080919000877F809390001BC0FC
:1050C0008091A0008F7707C08091A0008F7D03C0E2
:1050D0008091A000877F8093A0000DC08091200167
:1050E0008F7707C0809120018F7D03C080912001C0
:1050F000877F80932001E92FF0E0EE0FFF1FE85932
:10510000FC4FA591B4918FB7F894EC91311103C085
:1051100020952E2301C02E2B2C938FBF0895CF9363
:10512000DF9390E0FC01EC5CFA4F2491FC01E2512A
:10513000FB4F8491882361F190E0880F991FFC0157
:10514000E25BFC4FC591D491FC01E859FC4FA5915D
:10515000B491611109C09FB7F8948881209582238A
:105160008883EC912E230BC0623061F49FB7F894D2
:105170003881822F809583238883EC912E2B2C936A
:105180009FBF06C08FB7F894E8812E2B28838FBF6E
:10519000DF91CF9108958F929F92AF92BF92CF925D
:1051A000DF92EF92FF926B017C010E94CD264B01B2
:1051B0005C01C114D104E104F104F1F00E94CD2698
:1051C000DC01CB0188199909AA09BB09883E9340E3
:1051D000A105B10570F321E0C21AD108E108F10878
:1051E00088EE880E83E0981EA11CB11CC114D10466
:1051F000E104F10419F7DDCFFF90EF90DF90CF903D
:10520000BF90AF909F908F9008952FB7F8946091C2
:10521000EF087091F0088091F1089091F2082FBF8B
:1052200008951F920F920FB60F9211242F933F9360
:105230008F939F93AF93BF938091EF089091F00865
:10524000A091F108B091F2083091EE0823E0230F0D
:105250002D3720F40196A11DB11D05C026E8230FAE
:105260000296A11DB11D2093EE088093EF08909344
:10527000F008A093F108B093F2088091F3089091A0
:10528000F408A091F508B091F6080196A11DB11D92
:105290008093F3089093F408A093F508B093F60870
:1052A000BF91AF919F918F913F912F910F900FBE22
:1052B0000F901F9018950F931F93CF93DF93EC01DE
:1052C00088819981009729F02A813B812617370729
:1052D00088F48B016F5F7F4F0E94E24A009761F074
:1052E000998388831B830A832C813D81232B11F4AE
:1052F000FC01108281E001C080E0DF91CF911F911D
:105300000F910895EF92FF920F931F93CF93DF9326
:10531000EC017B018A01BA010E945B29811104C062
:10532000CE010E94F22607C01D830C83B70188813D
:1053300099810E94F14BCE01DF91CF911F910F9186
:10534000FF90EF900895CF93DF93EC016115710505
:1053500059F0FB0101900020E9F73197AF01461B9E
:10536000570B0E94822902C00E94F226CE01DF91D3
:10537000CF910895CF93DF93EC01FB018617970738
:1053800061F0608171816115710529F04481558159
:105390000E94822902C00E94F226CE01DF91CF91A5
:1053A0000895FC01808191810C944A4AEF92FF920A
:1053B0000F931F93CF93DF93CDB7DEB7A1970FB6AF
:1053C000F894DEBF0FBECDBF7C01CB01BA01F7015F
:1053D00011821082138212821582148242E0420FDF
:1053E0008E010F5F1F4F0E948943BC01C7010E94BD
:1053F000A329A1960FB6F894DEBF0FBECDBFDF91F3
:10540000CF911F910F91FF90EF900895FC011182B1
:10541000108213821282158214820C94BA29FC0124
:105420001182108213821282158214826115710515
:1054300051F0FB0101900020E9F73197AF01461BC5
:10544000570B0C94822908954F925F926F927F922E
:105450008F929F92AF92BF92CF92DF92EF92FF9284
:10546000CF93DF93EC016A017B01B22E9A01AB016D
:10547000C701B6010E946949882319F069E677E0FF
:1054800027C026013701E89477F82FEF3FEF4FE769
:105490005FE7C301B2010E94694981110DC02FEF7E
:1054A0003FEF4FE75FE7C301B2010E94CF461816F6
:1054B0001CF46DE677E00CC02FEF3FEF4FE75FE4A1
:1054C000C701B6010E94644918169CF461E777E0B1
:1054D000CE01DF91CF91FF90EF90DF90CF90BF9002
:1054E000AF909F908F907F906F905F904F900C94B3
:1054F00022322FEF3FEF4FE75FECC701B6010E946A
:10550000CF4687FDE3CF20E030E0A901C701B60117
:105510000E94CF4687FF0AC06DE2CE010E941B3277
:105520004C01F7FAF094F7F8F09402C0812C912C1A
:10553000A12C60E070E080E09FE3AB1441F020E03C
:1055400030E040E251E40E94C348A394F6CF9B01AF
:10555000AC01C701B6010E9457482B013C010E94D3
:1055600035496B017C010E94D4469B01AC01C3010B
:10557000B2010E9456482B013C012AE0B701A60166
:10558000CE010E9437327C01E80CF91CBB2031F0BF
:105590006EE2CE010E941B32E80EF91EDB2CDD20EC
:1055A00029F120E030E040E251E4C301B2010E9461
:1055B00035472B013C010E9435494B01A12CB12CF0
:1055C0002AE0B501A401CE010E943732E80EF91E8F
:1055D000C501B4010E94D4469B01AC01C301B201D4
:1055E0000E9456482B013C01DA94D9CFC701DF91C4
:1055F000CF91FF90EF90DF90CF90BF90AF909F90B2
:105600008F907F906F905F904F900895CF92DF9230
:10561000EF92FF920F931F930E940529C090FA0802
:10562000D090FB08E090FC08F090FD088B019C01F5
:105630000C191D092E093F0980918107909182075D
:10564000A0918307B0918407083E134021053105DE
:10565000D0F00196A11DB11D809381079093820720
:10566000A0938307B0938407B701A60148515C4F0C
:105670006F4F7F4F4093FA085093FB086093FC08EC
:105680007093FD08C9CF40917D0750917E076091CE
:105690007F077091800784179507A607B70708F45E
:1056A00056C0E0918507F0918607309709F44FC006
:1056B0001995611571058105910539F1609381078F
:1056C000709382078093830790938407DC01CB015A
:1056D000845D9E4FAF4FBF4F80937D0790937E07B1
:1056E000A0937F07B093800782E090E09093F90841
:1056F0008093F8080E9405296093FA087093FB08CC
:105700008093FC089093FD0822C0809181079091BE
:105710008207A0918307B0918407845D9E4FAF4FAD
:10572000BF4F80937D0790937E07A0937F07B09330
:10573000800781E090E02091F8083091F908232B50
:1057400011F480E090E09093F9088093F80860915C
:1057500081077091820780918307909184071F9140
:105760000F91FF90EF90DF90CF9008952F923F928E
:105770004F925F926F927F928F929F92AF92BF9261
:10578000CF92DF92EF92FF92CF93DF93CDB7DEB748
:1057900028970FB6F894DEBF0FBECDBF1C010E9444
:1057A000062B6B017C01D1011A968C911A97982FC8
:1057B0009F702EE0290F2F70233008F039C1169604
:1057C0004D915D916D917C911997C416D506E606B1
:1057D000F70608F42DC1923061F412968D919D91D7
:1057E0000D90BC91A02DF10186839783A087B1878E
:1057F0001FC1933009F050C0D10112968D909D9039
:10580000AD90BC9015970E94062B20E8422E21E512
:10581000522E66246394712CA30192010E942548A4
:1058200060E871E581E090E00E946E49DC01CB0107
:10583000880D991DAA1DBB1DF10182809380A48053
:10584000B580C816D906EA06FB06A8F0C701B6015E
:10585000A30192010E9425482F5F3F4F4F4F5F4F9A
:1058600060E871E581E090E00E946E49860E971E27
:10587000A81EB91EA5C0C701B601A30192010E94CE
:10588000254860E871E581E090E00E946E49860E4F
:10589000971EA81EB91EC2C0943009F0C5C0D10120
:1058A00012964D905D906D907C9015970E94062BFE
:1058B00069837A838B839C830E94062B4B015C0156
:1058C0000E94062B6D837E838F83988729813A817E
:1058D0004B815C81240D351D461D571D29833A835C
:1058E0004B835C8380E8482E81E5582E66246394C0
:1058F000712CC501B401A30192010E942548898041
:105900009A80AB80BC80861A970AA80AB90A6D8172
:105910007E818F819885A30192010E942548CA014A
:10592000B9016C5F7F4F8F4F9F4F27E030E040E021
:1059300050E00E9425489B01AC0160E871E581E0E0
:1059400090E00E946E49A5019401261B370B480B7D
:10595000590BF10182809380A480B580C216D306D2
:10596000E406F506A8F1F0E88F0EFAE39F1EF9E0D1
:10597000AF1EB11C8C0C9D1CAE1CBF1CC701B60118
:10598000A30192010E942548861A970AA80AB90A1B
:10599000CA01B9016C5F7F4F8F4F9F4F27E030E006
:1059A00040E050E00E9425489B01AC0160E871E5B1
:1059B00081E090E00E946E49861A970AA80AB90A07
:1059C000D10116968D929D92AD92BC92199730C0DE
:1059D0008C0C9D1CAE1CBF1CC701B601A30192011B
:1059E0000E942548861A970AA80AB90ACA01B9016D
:1059F0006C5F7F4F8F4F9F4F27E030E040E050E0DB
:105A00000E9425489B01AC0160E871E581E090E0CF
:105A10000E946E49861A970AA80AB90AF10186827D
:105A20009782A086B18604C08F7ED1011A968C938E
:105A3000F10182858F70813061F482819381A4812C
:105A4000B581C80ED91EEA1EFB1EC682D782E0862B
:105A5000F18628960FB6F894DEBF0FBECDBFDF915A
:105A6000CF91FF90EF90DF90CF90BF90AF909F903D
:105A70008F907F906F905F904F903F902F90089500
:105A8000CF92DF92EF92FF920F931F93CF93DF930A
:105A9000EC0181E080934A0888E68093F708109231
:105AA0007A071092790760E083EA9BE00E94041273
:105AB00080917907813208F045C090917807911163
:105AC000FCCF92E09093780791E0909377079FEF57
:105AD00090936B0810928D0880938C08AAE2B8E02E
